{
    "contractName": "lab",
    "abi": [
        {
            "inputs": [
                {
                    "internalType": "address payable",
                    "name": "_lab",
                    "type": "address"
                },
                {
                    "internalType": "address",
                    "name": "_whoSC_Addr",
                    "type": "address"
                }
            ],
            "stateMutability": "nonpayable",
            "type": "constructor"
        },
        {
            "anonymous": false,
            "inputs": [
                {
                    "indexed": false,
                    "internalType": "address",
                    "name": "",
                    "type": "address"
                }
            ],
            "name": "bajaLaboratorio",
            "type": "event"
        },
        {
            "anonymous": false,
            "inputs": [
                {
                    "indexed": false,
                    "internalType": "address",
                    "name": "",
                    "type": "address"
                }
            ],
            "name": "newDocument",
            "type": "event"
        },
        {
            "inputs": [
                {
                    "internalType": "address",
                    "name": "_alice_SC_Adr",
                    "type": "address"
                },
                {
                    "internalType": "string",
                    "name": "_hashDoc",
                    "type": "string"
                },
                {
                    "internalType": "string",
                    "name": "_capsule",
                    "type": "string"
                }
            ],
            "name": "carregaDocument",
            "outputs": [],
            "stateMutability": "nonpayable",
            "type": "function"
        },
        {
            "inputs": [],
            "name": "destruct",
            "outputs": [],
            "stateMutability": "nonpayable",
            "type": "function"
        }
    ],
    "bytecode": "608060405234801561001057600080fd5b5060405161046638038061046683398101604081905261002f91610060565b600080546001600160a01b039384166001600160a01b031991821617909155600280549290931691161790556100b2565b6000806040838503121561007357600080fd5b825161007e8161009a565b602084015190925061008f8161009a565b809150509250929050565b6001600160a01b03811681146100af57600080fd5b50565b6103a5806100c16000396000f3fe608060405234801561001057600080fd5b50600436106100365760003560e01c80632b68b9c61461003b578063349d6f7c14610045575b600080fd5b610043610058565b005b6100436100533660046101f2565b610099565b6002546001600160a01b0316331461008b5760405162461bcd60e51b8152600401610082906102ef565b60405180910390fd5b6000546001600160a01b0316ff5b6000546001600160a01b031633146100c35760405162461bcd60e51b8152600401610082906102ef565b60405163f6a0576d60e01b81526001600160a01b0384169063f6a0576d906100f190859085906004016102c1565b600060405180830381600087803b15801561010b57600080fd5b505af115801561011f573d6000803e3d6000fd5b50506040516001600160a01b03861681527ff3c2359da4b62ab6d95f9cbe80f73519366be835dff25574414cf316ecc00af79250602001905060405180910390a1505050565b600082601f83011261017657600080fd5b813567ffffffffffffffff8082111561019157610191610359565b604051601f8301601f19908116603f011681019082821181831017156101b9576101b9610359565b816040528381528660208588010111156101d257600080fd5b836020870160208301376000602085830101528094505050505092915050565b60008060006060848603121561020757600080fd5b83356001600160a01b038116811461021e57600080fd5b9250602084013567ffffffffffffffff8082111561023b57600080fd5b61024787838801610165565b9350604086013591508082111561025d57600080fd5b5061026a86828701610165565b9150509250925092565b6000815180845260005b8181101561029a5760208185018101518683018201520161027e565b818111156102ac576000602083870101525b50601f01601f19169290920160200192915050565b6040815260006102d46040830185610274565b82810360208401526102e68185610274565b95945050505050565b60208082526044908201527f4c2761647265736120717565206861207265616c69747a6174206c612063726960408201527f6461206e6f20746520656c73207065726d6973736f732064652070726f7069656060820152633a30ba1760e11b608082015260a00190565b634e487b7160e01b600052604160045260246000fdfea2646970667358221220cb58d41dc47031623c759e36d35138a956e51a10aab129a0d1388b57047bed1464736f6c63430008060033",
    "sourcePath": "c:/Users/Usuario/Documents/UIB/TFG/Covid-Pasport-master/contracts/pasport_sc.sol",
    "compiler": {
        "name": "solc",
        "version": "0.8.6+commit.11564f7e"
    },
    "functionHashes": {
        "carregaDocument(address,string,string)": "349d6f7c",
        "destruct()": "2b68b9c6"
    },
    "gasEstimates": {
        "creation": {
            "codeDepositCost": "186600",
            "executionCost": "infinite",
            "totalCost": "infinite"
        },
        "external": {
            "carregaDocument(address,string,string)": "infinite",
            "destruct()": "31974"
        }
    }
}