{
    "contractName": "lab",
    "abi": [
        {
            "inputs": [
                {
                    "internalType": "address payable",
                    "name": "_lab",
                    "type": "address"
                }
            ],
            "stateMutability": "nonpayable",
            "type": "constructor"
        },
        {
            "anonymous": false,
            "inputs": [
                {
                    "indexed": false,
                    "internalType": "address",
                    "name": "",
                    "type": "address"
                }
            ],
            "name": "bajaLaboratorio",
            "type": "event"
        },
        {
            "anonymous": false,
            "inputs": [
                {
                    "indexed": false,
                    "internalType": "address",
                    "name": "",
                    "type": "address"
                }
            ],
            "name": "newDocument",
            "type": "event"
        },
        {
            "inputs": [
                {
                    "internalType": "address",
                    "name": "_alice_SC_Adr",
                    "type": "address"
                },
                {
                    "internalType": "string",
                    "name": "_hashDoc",
                    "type": "string"
                },
                {
                    "internalType": "string",
                    "name": "_capsule",
                    "type": "string"
                }
            ],
            "name": "carregaDocument",
            "outputs": [
                {
                    "internalType": "string",
                    "name": "",
                    "type": "string"
                }
            ],
            "stateMutability": "nonpayable",
            "type": "function"
        },
        {
            "inputs": [],
            "name": "destruct",
            "outputs": [],
            "stateMutability": "nonpayable",
            "type": "function"
        },
        {
            "inputs": [],
            "name": "getOwner",
            "outputs": [
                {
                    "internalType": "address",
                    "name": "",
                    "type": "address"
                }
            ],
            "stateMutability": "view",
            "type": "function"
        }
    ],
    "bytecode": "608060405234801561001057600080fd5b506040516105ce3803806105ce83398101604081905261002f9161005d565b600080546001600160a01b039092166001600160a01b0319928316179055600180549091163017905561008b565b60006020828403121561006e578081fd5b81516001600160a01b0381168114610084578182fd5b9392505050565b6105348061009a6000396000f3fe608060405234801561001057600080fd5b50600436106100415760003560e01c80632b68b9c614610046578063349d6f7c14610050578063893d20e814610079575b600080fd5b61004e610094565b005b61006361005e36600461039c565b6100a2565b6040516100709190610465565b60405180910390f35b6000546040516001600160a01b039091168152602001610070565b6000546001600160a01b0316ff5b6000546060906001600160a01b031633146101375760405162461bcd60e51b8152602060048201526044602482018190527f4c2761647265736120717565206861207265616c69747a6174206c6120637269908201527f6461206e6f20746520656c73207065726d6973736f732064652070726f7069656064820152633a30ba1760e11b608482015260a40160405180910390fd5b825161014a90600290602086019061027c565b5060405163f6a0576d60e01b81526001600160a01b0385169063f6a0576d90610179908690869060040161047f565b600060405180830381600087803b15801561019357600080fd5b505af11580156101a7573d6000803e3d6000fd5b50506040516001600160a01b03871681527ff3c2359da4b62ab6d95f9cbe80f73519366be835dff25574414cf316ecc00af79250602001905060405180910390a1600280546101f5906104ad565b80601f0160208091040260200160405190810160405280929190818152602001828054610221906104ad565b801561026e5780601f106102435761010080835404028352916020019161026e565b820191906000526020600020905b81548152906001019060200180831161025157829003601f168201915b505050505090509392505050565b828054610288906104ad565b90600052602060002090601f0160209004810192826102aa57600085556102f0565b82601f106102c357805160ff19168380011785556102f0565b828001600101855582156102f0579182015b828111156102f05782518255916020019190600101906102d5565b506102fc929150610300565b5090565b5b808211156102fc5760008155600101610301565b600082601f830112610325578081fd5b813567ffffffffffffffff80821115610340576103406104e8565b604051601f8301601f19908116603f01168101908282118183101715610368576103686104e8565b81604052838152866020858801011115610380578485fd5b8360208701602083013792830160200193909352509392505050565b6000806000606084860312156103b0578283fd5b83356001600160a01b03811681146103c6578384fd5b9250602084013567ffffffffffffffff808211156103e2578384fd5b6103ee87838801610315565b93506040860135915080821115610403578283fd5b5061041086828701610315565b9150509250925092565b60008151808452815b8181101561043f57602081850181015186830182015201610423565b818111156104505782602083870101525b50601f01601f19169290920160200192915050565b602081526000610478602083018461041a565b9392505050565b604081526000610492604083018561041a565b82810360208401526104a4818561041a565b95945050505050565b600181811c908216806104c157607f821691505b602082108114156104e257634e487b7160e01b600052602260045260246000fd5b50919050565b634e487b7160e01b600052604160045260246000fdfea26469706673582212208cdbce3c2c745724e04e2e5aab64273da640b2ab040f1ade86e1300636f2208564736f6c63430008040033",
    "sourcePath": "c:/Users/Usuario/Documents/UIB/TFG/Covid-Pasport-master/contracts/pasport_sc.sol",
    "compiler": {
        "name": "solc",
        "version": "0.8.4+commit.c7e474f2"
    },
    "functionHashes": {
        "carregaDocument(address,string,string)": "349d6f7c",
        "destruct()": "2b68b9c6",
        "getOwner()": "893d20e8"
    },
    "gasEstimates": {
        "creation": {
            "codeDepositCost": "266400",
            "executionCost": "infinite",
            "totalCost": "infinite"
        },
        "external": {
            "carregaDocument(address,string,string)": "infinite",
            "destruct()": "30934",
            "getOwner()": "1023"
        }
    }
}