{
    "contractName": "user",
    "abi": [
        {
            "inputs": [
                {
                    "internalType": "address",
                    "name": "_owner",
                    "type": "address"
                },
                {
                    "internalType": "string",
                    "name": "_pubKey",
                    "type": "string"
                },
                {
                    "internalType": "address",
                    "name": "_whoSC_Addr",
                    "type": "address"
                }
            ],
            "stateMutability": "nonpayable",
            "type": "constructor"
        },
        {
            "anonymous": false,
            "inputs": [
                {
                    "indexed": false,
                    "internalType": "string",
                    "name": "",
                    "type": "string"
                }
            ],
            "name": "nouDoc",
            "type": "event"
        },
        {
            "inputs": [
                {
                    "internalType": "bool",
                    "name": "_active",
                    "type": "bool"
                }
            ],
            "name": "activeEntity",
            "outputs": [],
            "stateMutability": "nonpayable",
            "type": "function"
        },
        {
            "inputs": [
                {
                    "internalType": "uint256",
                    "name": "",
                    "type": "uint256"
                }
            ],
            "name": "capsule",
            "outputs": [
                {
                    "internalType": "string",
                    "name": "",
                    "type": "string"
                }
            ],
            "stateMutability": "view",
            "type": "function"
        },
        {
            "inputs": [
                {
                    "internalType": "uint256",
                    "name": "",
                    "type": "uint256"
                }
            ],
            "name": "docs",
            "outputs": [
                {
                    "internalType": "string",
                    "name": "",
                    "type": "string"
                }
            ],
            "stateMutability": "view",
            "type": "function"
        },
        {
            "inputs": [
                {
                    "internalType": "uint256",
                    "name": "",
                    "type": "uint256"
                }
            ],
            "name": "extDocs",
            "outputs": [
                {
                    "internalType": "string",
                    "name": "",
                    "type": "string"
                }
            ],
            "stateMutability": "view",
            "type": "function"
        },
        {
            "inputs": [],
            "name": "getContractAddress",
            "outputs": [
                {
                    "internalType": "address",
                    "name": "",
                    "type": "address"
                }
            ],
            "stateMutability": "view",
            "type": "function"
        },
        {
            "inputs": [
                {
                    "internalType": "uint256",
                    "name": "_index",
                    "type": "uint256"
                }
            ],
            "name": "getDocsCapsule",
            "outputs": [
                {
                    "internalType": "string",
                    "name": "",
                    "type": "string"
                }
            ],
            "stateMutability": "view",
            "type": "function"
        },
        {
            "inputs": [
                {
                    "internalType": "uint256",
                    "name": "_index",
                    "type": "uint256"
                }
            ],
            "name": "getDocsHash",
            "outputs": [
                {
                    "internalType": "string",
                    "name": "",
                    "type": "string"
                }
            ],
            "stateMutability": "view",
            "type": "function"
        },
        {
            "inputs": [],
            "name": "getEntity",
            "outputs": [
                {
                    "internalType": "bool",
                    "name": "",
                    "type": "bool"
                }
            ],
            "stateMutability": "view",
            "type": "function"
        },
        {
            "inputs": [
                {
                    "internalType": "uint256",
                    "name": "_index",
                    "type": "uint256"
                }
            ],
            "name": "getExtDocs",
            "outputs": [
                {
                    "internalType": "string",
                    "name": "",
                    "type": "string"
                }
            ],
            "stateMutability": "view",
            "type": "function"
        },
        {
            "inputs": [
                {
                    "internalType": "string",
                    "name": "_hash",
                    "type": "string"
                }
            ],
            "name": "getExtInfo",
            "outputs": [
                {
                    "internalType": "string",
                    "name": "",
                    "type": "string"
                },
                {
                    "internalType": "string",
                    "name": "",
                    "type": "string"
                },
                {
                    "internalType": "string",
                    "name": "",
                    "type": "string"
                },
                {
                    "internalType": "string",
                    "name": "",
                    "type": "string"
                }
            ],
            "stateMutability": "view",
            "type": "function"
        },
        {
            "inputs": [
                {
                    "internalType": "string",
                    "name": "_hash",
                    "type": "string"
                }
            ],
            "name": "getIndexDoc",
            "outputs": [
                {
                    "internalType": "uint256",
                    "name": "index",
                    "type": "uint256"
                }
            ],
            "stateMutability": "view",
            "type": "function"
        },
        {
            "inputs": [],
            "name": "getNumRequests",
            "outputs": [
                {
                    "internalType": "uint256",
                    "name": "",
                    "type": "uint256"
                }
            ],
            "stateMutability": "nonpayable",
            "type": "function"
        },
        {
            "inputs": [],
            "name": "getPubKey",
            "outputs": [
                {
                    "internalType": "string",
                    "name": "publicKey",
                    "type": "string"
                }
            ],
            "stateMutability": "view",
            "type": "function"
        },
        {
            "inputs": [
                {
                    "internalType": "string",
                    "name": "",
                    "type": "string"
                }
            ],
            "name": "indexDocs",
            "outputs": [
                {
                    "internalType": "uint256",
                    "name": "",
                    "type": "uint256"
                }
            ],
            "stateMutability": "view",
            "type": "function"
        },
        {
            "inputs": [
                {
                    "internalType": "string",
                    "name": "",
                    "type": "string"
                }
            ],
            "name": "kfrag",
            "outputs": [
                {
                    "internalType": "string",
                    "name": "exthash",
                    "type": "string"
                },
                {
                    "internalType": "string",
                    "name": "extPubKey",
                    "type": "string"
                },
                {
                    "internalType": "string",
                    "name": "capsule",
                    "type": "string"
                },
                {
                    "internalType": "string",
                    "name": "kfrag0",
                    "type": "string"
                },
                {
                    "internalType": "string",
                    "name": "verifyingKey",
                    "type": "string"
                }
            ],
            "stateMutability": "view",
            "type": "function"
        },
        {
            "inputs": [],
            "name": "lengthDocArray",
            "outputs": [
                {
                    "internalType": "uint256",
                    "name": "",
                    "type": "uint256"
                }
            ],
            "stateMutability": "view",
            "type": "function"
        },
        {
            "inputs": [],
            "name": "lengthExtDocArray",
            "outputs": [
                {
                    "internalType": "uint256",
                    "name": "",
                    "type": "uint256"
                }
            ],
            "stateMutability": "view",
            "type": "function"
        },
        {
            "inputs": [
                {
                    "internalType": "string",
                    "name": "_hash",
                    "type": "string"
                },
                {
                    "internalType": "string",
                    "name": "_capsule",
                    "type": "string"
                }
            ],
            "name": "newDoc",
            "outputs": [],
            "stateMutability": "nonpayable",
            "type": "function"
        },
        {
            "inputs": [
                {
                    "internalType": "string",
                    "name": "_hash",
                    "type": "string"
                },
                {
                    "internalType": "string",
                    "name": "_pubKeyUser",
                    "type": "string"
                },
                {
                    "internalType": "string",
                    "name": "_capsule",
                    "type": "string"
                },
                {
                    "internalType": "string",
                    "name": "_kfrag0",
                    "type": "string"
                },
                {
                    "internalType": "string",
                    "name": "_alicesVerifyingKey",
                    "type": "string"
                }
            ],
            "name": "newExtDoc",
            "outputs": [],
            "stateMutability": "nonpayable",
            "type": "function"
        },
        {
            "inputs": [
                {
                    "internalType": "string",
                    "name": "_pubKey",
                    "type": "string"
                }
            ],
            "name": "newPubKey",
            "outputs": [],
            "stateMutability": "nonpayable",
            "type": "function"
        },
        {
            "inputs": [
                {
                    "internalType": "address",
                    "name": "_entityAdr",
                    "type": "address"
                }
            ],
            "name": "newSol",
            "outputs": [],
            "stateMutability": "nonpayable",
            "type": "function"
        },
        {
            "inputs": [
                {
                    "internalType": "uint256",
                    "name": "_identifier",
                    "type": "uint256"
                }
            ],
            "name": "obtainRequests",
            "outputs": [
                {
                    "internalType": "address",
                    "name": "entityReq",
                    "type": "address"
                }
            ],
            "stateMutability": "view",
            "type": "function"
        },
        {
            "inputs": [
                {
                    "internalType": "uint256",
                    "name": "",
                    "type": "uint256"
                }
            ],
            "name": "requests",
            "outputs": [
                {
                    "internalType": "bool",
                    "name": "resolved",
                    "type": "bool"
                },
                {
                    "internalType": "address",
                    "name": "entity_address",
                    "type": "address"
                }
            ],
            "stateMutability": "view",
            "type": "function"
        },
        {
            "inputs": [
                {
                    "internalType": "uint256",
                    "name": "_identifier",
                    "type": "uint256"
                }
            ],
            "name": "resolveSol",
            "outputs": [],
            "stateMutability": "nonpayable",
            "type": "function"
        }
    ],
    "bytecode": "608060405260006007553480156200001657600080fd5b506040516200197238038062001972833981016040819052620000399162000163565b600580546001600160a01b038086166001600160a01b031992831617909255600480548216301790556006805492841692909116919091179055815162000088906000906020850190620000a0565b50506006805460ff60a01b1916905550620002b59050565b828054620000ae9062000262565b90600052602060002090601f016020900481019282620000d257600085556200011d565b82601f10620000ed57805160ff19168380011785556200011d565b828001600101855582156200011d579182015b828111156200011d57825182559160200191906001019062000100565b506200012b9291506200012f565b5090565b5b808211156200012b576000815560010162000130565b80516001600160a01b03811681146200015e57600080fd5b919050565b60008060006060848603121562000178578283fd5b620001838462000146565b602085810151919450906001600160401b0380821115620001a2578485fd5b818701915087601f830112620001b6578485fd5b815181811115620001cb57620001cb6200029f565b604051601f8201601f19908116603f01168101908382118183101715620001f657620001f66200029f565b816040528281528a868487010111156200020e578788fd5b8793505b8284101562000231578484018601518185018701529285019262000212565b828411156200024257878684830101525b809750505050505050620002596040850162000146565b90509250925092565b600181811c908216806200027757607f821691505b602082108114156200029957634e487b7160e01b600052602260045260246000fd5b50919050565b634e487b7160e01b600052604160045260246000fd5b6116ad80620002c56000396000f3fe608060405234801561001057600080fd5b50600436106101585760003560e01c806381d12c58116100c3578063d74143f21161007c578063d74143f214610311578063ddfb2e2614610334578063e2626cca14610347578063ec6cff7a1461036b578063f6a0576d1461037e578063ff200d2b1461039157600080fd5b806381d12c581461025e5780638b5fec8f146102b057806391aacb01146102db578063b07ce2a0146102e3578063c2713967146102eb578063d12399e9146102fe57600080fd5b80634b8cd041116101155780634b8cd041146101e75780635f3d3753146101fd5780636839bab01461021257806369b4431e1461022557806375c8de24146102385780637769ef3a1461024b57600080fd5b806323389c5a1461015d57806330348b251461018657806332a2c5d01461019957806336b6fd0c146101b957806345419b71146101cc5780634ad02ef1146101df575b600080fd5b61017061016b366004611430565b6103ae565b60405161017d9190611490565b60405180910390f35b610170610194366004611430565b61045a565b6101a161054c565b6040516001600160a01b03909116815260200161017d565b6101706101c7366004611430565b610589565b6101706101da366004611430565b6105d7565b6101706105e7565b6101ef610679565b60405190815260200161017d565b61021061020b3660046112c8565b6106ad565b005b610210610220366004611364565b6106ee565b610170610233366004611430565b610811565b610210610246366004611430565b61085f565b6101ef6102593660046112c8565b6108a4565b61029161026c366004611430565b600a6020526000908152604090205460ff81169061010090046001600160a01b031682565b6040805192151583526001600160a01b0390911660208301520161017d565b6101ef6102be3660046112c8565b805160208183018101805160088252928201919093012091525481565b6101ef6108f7565b6101ef61092b565b6101a16102f9366004611430565b61095f565b61017061030c366004611430565b6109c3565b61032461031f3660046112c8565b6109d3565b60405161017d94939291906114a3565b6102106103423660046112a8565b610cc9565b61035a6103553660046112c8565b610d11565b60405161017d9594939291906114fb565b61021061037936600461127a565b610ff2565b61021061038c366004611303565b61106d565b600654600160a01b900460ff16604051901515815260200161017d565b600181815481106103be57600080fd5b9060005260206000200160009150905080546103d990611626565b80601f016020809104026020016040519081016040528092919081815260200182805461040590611626565b80156104525780601f1061042757610100808354040283529160200191610452565b820191906000526020600020905b81548152906001019060200180831161043557829003601f168201915b505050505081565b6005546060906001600160a01b031633146104905760405162461bcd60e51b815260040161048790611568565b60405180910390fd5b600182815481106104b157634e487b7160e01b600052603260045260246000fd5b9060005260206000200180546104c690611626565b80601f01602080910402602001604051908101604052809291908181526020018280546104f290611626565b801561053f5780601f106105145761010080835404028352916020019161053f565b820191906000526020600020905b81548152906001019060200180831161052257829003601f168201915b505050505090505b919050565b6005546000906001600160a01b031633146105795760405162461bcd60e51b815260040161048790611568565b506004546001600160a01b031690565b6005546060906001600160a01b031633146105b65760405162461bcd60e51b815260040161048790611568565b600382815481106104b157634e487b7160e01b600052603260045260246000fd5b600381815481106103be57600080fd5b6060600080546105f690611626565b80601f016020809104026020016040519081016040528092919081815260200182805461062290611626565b801561066f5780601f106106445761010080835404028352916020019161066f565b820191906000526020600020905b81548152906001019060200180831161065257829003601f168201915b5050505050905090565b6005546000906001600160a01b031633146106a65760405162461bcd60e51b815260040161048790611568565b5060075490565b6005546001600160a01b031633146106d75760405162461bcd60e51b815260040161048790611568565b80516106ea90600090602084019061115a565b5050565b600380546001810182556000919091528551610731917fc2575a0e9e593c00f959f8c92f12db2869c3395a3b0502d05e2516446f71f85b0190602088019061115a565b50836009866040516107439190611474565b9081526020016040518091039020600101908051906020019061076792919061115a565b50826009866040516107799190611474565b9081526020016040518091039020600201908051906020019061079d92919061115a565b50816009866040516107af9190611474565b908152602001604051809103902060030190805190602001906107d392919061115a565b50806009866040516107e59190611474565b9081526020016040518091039020600401908051906020019061080992919061115a565b505050505050565b6005546060906001600160a01b0316331461083e5760405162461bcd60e51b815260040161048790611568565b600282815481106104b157634e487b7160e01b600052603260045260246000fd5b6005546001600160a01b031633146108895760405162461bcd60e51b815260040161048790611568565b6000908152600a60205260409020805460ff19166001179055565b6005546000906001600160a01b031633146108d15760405162461bcd60e51b815260040161048790611568565b6008826040516108e19190611474565b9081526020016040518091039020549050919050565b6005546000906001600160a01b031633146109245760405162461bcd60e51b815260040161048790611568565b5060035490565b6005546000906001600160a01b031633146109585760405162461bcd60e51b815260040161048790611568565b5060015490565b6005546000906001600160a01b0316331461098c5760405162461bcd60e51b815260040161048790611568565b6000828152600a602052604090205460ff1661054757506000908152600a602052604090205461010090046001600160a01b031690565b600281815481106103be57600080fd5b6005546060908190819081906001600160a01b03163314610a065760405162461bcd60e51b815260040161048790611568565b600985604051610a169190611474565b9081526020016040518091039020600101600986604051610a379190611474565b9081526020016040518091039020600201600987604051610a589190611474565b9081526020016040518091039020600301600988604051610a799190611474565b9081526020016040518091039020600401838054610a9690611626565b80601f0160208091040260200160405190810160405280929190818152602001828054610ac290611626565b8015610b0f5780601f10610ae457610100808354040283529160200191610b0f565b820191906000526020600020905b815481529060010190602001808311610af257829003601f168201915b50505050509350828054610b2290611626565b80601f0160208091040260200160405190810160405280929190818152602001828054610b4e90611626565b8015610b9b5780601f10610b7057610100808354040283529160200191610b9b565b820191906000526020600020905b815481529060010190602001808311610b7e57829003601f168201915b50505050509250818054610bae90611626565b80601f0160208091040260200160405190810160405280929190818152602001828054610bda90611626565b8015610c275780601f10610bfc57610100808354040283529160200191610c27565b820191906000526020600020905b815481529060010190602001808311610c0a57829003601f168201915b50505050509150808054610c3a90611626565b80601f0160208091040260200160405190810160405280929190818152602001828054610c6690611626565b8015610cb35780601f10610c8857610100808354040283529160200191610cb3565b820191906000526020600020905b815481529060010190602001808311610c9657829003601f168201915b5050505050905093509350935093509193509193565b6006546001600160a01b03163314610cf35760405162461bcd60e51b815260040161048790611568565b60068054911515600160a01b0260ff60a01b19909216919091179055565b8051602081830181018051600982529282019190930120915280548190610d3790611626565b80601f0160208091040260200160405190810160405280929190818152602001828054610d6390611626565b8015610db05780601f10610d8557610100808354040283529160200191610db0565b820191906000526020600020905b815481529060010190602001808311610d9357829003601f168201915b505050505090806001018054610dc590611626565b80601f0160208091040260200160405190810160405280929190818152602001828054610df190611626565b8015610e3e5780601f10610e1357610100808354040283529160200191610e3e565b820191906000526020600020905b815481529060010190602001808311610e2157829003601f168201915b505050505090806002018054610e5390611626565b80601f0160208091040260200160405190810160405280929190818152602001828054610e7f90611626565b8015610ecc5780601f10610ea157610100808354040283529160200191610ecc565b820191906000526020600020905b815481529060010190602001808311610eaf57829003601f168201915b505050505090806003018054610ee190611626565b80601f0160208091040260200160405190810160405280929190818152602001828054610f0d90611626565b8015610f5a5780601f10610f2f57610100808354040283529160200191610f5a565b820191906000526020600020905b815481529060010190602001808311610f3d57829003601f168201915b505050505090806004018054610f6f90611626565b80601f0160208091040260200160405190810160405280929190818152602001828054610f9b90611626565b8015610fe85780601f10610fbd57610100808354040283529160200191610fe8565b820191906000526020600020905b815481529060010190602001808311610fcb57829003601f168201915b5050505050905085565b6006546001600160a01b0316331461101c5760405162461bcd60e51b815260040161048790611568565b600780546000908152600a60205260408082208054610100600160a81b0319166101006001600160a01b03871602179055825482529020805460ff19169055546110679060016115d2565b60075550565b6003546040518190600890611083908690611474565b90815260405160209181900382019020919091556002805460018101825560009190915283516110da927f405787fa12a823e0f2b7631cc41b3ba8828b3321ca811111fa75cd3aa3bb5ace9092019185019061115a565b50600180548082018255600091909152835161111d917fb10e2d527612073b26eecdfd717e6a320cf44b4afac2b0732d9fcbe2b7fa0cf60190602086019061115a565b507fc9d3eebce49314de171aef180ee3d8275f98728488db5fe2835492be5b5a05568360405161114d9190611490565b60405180910390a1505050565b82805461116690611626565b90600052602060002090601f01602090048101928261118857600085556111ce565b82601f106111a157805160ff19168380011785556111ce565b828001600101855582156111ce579182015b828111156111ce5782518255916020019190600101906111b3565b506111da9291506111de565b5090565b5b808211156111da57600081556001016111df565b600082601f830112611203578081fd5b813567ffffffffffffffff8082111561121e5761121e611661565b604051601f8301601f19908116603f0116810190828211818310171561124657611246611661565b8160405283815286602085880101111561125e578485fd5b8360208701602083013792830160200193909352509392505050565b60006020828403121561128b578081fd5b81356001600160a01b03811681146112a1578182fd5b9392505050565b6000602082840312156112b9578081fd5b813580151581146112a1578182fd5b6000602082840312156112d9578081fd5b813567ffffffffffffffff8111156112ef578182fd5b6112fb848285016111f3565b949350505050565b60008060408385031215611315578081fd5b823567ffffffffffffffff8082111561132c578283fd5b611338868387016111f3565b9350602085013591508082111561134d578283fd5b5061135a858286016111f3565b9150509250929050565b600080600080600060a0868803121561137b578081fd5b853567ffffffffffffffff80821115611392578283fd5b61139e89838a016111f3565b965060208801359150808211156113b3578283fd5b6113bf89838a016111f3565b955060408801359150808211156113d4578283fd5b6113e089838a016111f3565b945060608801359150808211156113f5578283fd5b61140189838a016111f3565b93506080880135915080821115611416578283fd5b50611423888289016111f3565b9150509295509295909350565b600060208284031215611441578081fd5b5035919050565b600081518084526114608160208601602086016115f6565b601f01601f19169290920160200192915050565b600082516114868184602087016115f6565b9190910192915050565b6020815260006112a16020830184611448565b6080815260006114b66080830187611448565b82810360208401526114c88187611448565b905082810360408401526114dc8186611448565b905082810360608401526114f08185611448565b979650505050505050565b60a08152600061150e60a0830188611448565b82810360208401526115208188611448565b905082810360408401526115348187611448565b905082810360608401526115488186611448565b9050828103608084015261155c8185611448565b98975050505050505050565b60208082526044908201527f4c2761647265736120717565206861207265616c69747a6174206c612063726960408201527f6461206e6f20746520656c73207065726d6973736f732064652070726f7069656060820152633a30ba1760e11b608082015260a00190565b600082198211156115f157634e487b7160e01b81526011600452602481fd5b500190565b60005b838110156116115781810151838201526020016115f9565b83811115611620576000848401525b50505050565b600181811c9082168061163a57607f821691505b6020821081141561165b57634e487b7160e01b600052602260045260246000fd5b50919050565b634e487b7160e01b600052604160045260246000fdfea264697066735822122031f972ee7e8fb357fa03201f4c1284719e664621d076825c784f69ec316ebbdf64736f6c63430008040033",
    "sourcePath": "c:/Users/Usuario/Documents/UIB/TFG/Covid-Pasport-master/contracts/pasport_sc.sol",
    "compiler": {
        "name": "solc",
        "version": "0.8.4+commit.c7e474f2"
    },
    "functionHashes": {
        "activeEntity(bool)": "ddfb2e26",
        "capsule(uint256)": "d12399e9",
        "docs(uint256)": "23389c5a",
        "extDocs(uint256)": "45419b71",
        "getContractAddress()": "32a2c5d0",
        "getDocsCapsule(uint256)": "69b4431e",
        "getDocsHash(uint256)": "30348b25",
        "getEntity()": "ff200d2b",
        "getExtDocs(uint256)": "36b6fd0c",
        "getExtInfo(string)": "d74143f2",
        "getIndexDoc(string)": "7769ef3a",
        "getNumRequests()": "4b8cd041",
        "getPubKey()": "4ad02ef1",
        "indexDocs(string)": "8b5fec8f",
        "kfrag(string)": "e2626cca",
        "lengthDocArray()": "b07ce2a0",
        "lengthExtDocArray()": "91aacb01",
        "newDoc(string,string)": "f6a0576d",
        "newExtDoc(string,string,string,string,string)": "6839bab0",
        "newPubKey(string)": "5f3d3753",
        "newSol(address)": "ec6cff7a",
        "obtainRequests(uint256)": "c2713967",
        "requests(uint256)": "81d12c58",
        "resolveSol(uint256)": "75c8de24"
    },
    "gasEstimates": {
        "creation": {
            "codeDepositCost": "1161000",
            "executionCost": "infinite",
            "totalCost": "infinite"
        },
        "external": {
            "activeEntity(bool)": "22004",
            "capsule(uint256)": "infinite",
            "docs(uint256)": "infinite",
            "extDocs(uint256)": "infinite",
            "getContractAddress()": "1965",
            "getDocsCapsule(uint256)": "infinite",
            "getDocsHash(uint256)": "infinite",
            "getEntity()": "1141",
            "getExtDocs(uint256)": "infinite",
            "getExtInfo(string)": "infinite",
            "getIndexDoc(string)": "infinite",
            "getNumRequests()": "1878",
            "getPubKey()": "infinite",
            "indexDocs(string)": "infinite",
            "kfrag(string)": "infinite",
            "lengthDocArray()": "1944",
            "lengthExtDocArray()": "1922",
            "newDoc(string,string)": "infinite",
            "newExtDoc(string,string,string,string,string)": "infinite",
            "newPubKey(string)": "infinite",
            "newSol(address)": "65476",
            "obtainRequests(uint256)": "3050",
            "requests(uint256)": "1250",
            "resolveSol(uint256)": "22062"
        }
    }
}