{
    "contractName": "user",
    "abi": [
        {
            "inputs": [
                {
                    "internalType": "address",
                    "name": "_owner",
                    "type": "address"
                },
                {
                    "internalType": "string",
                    "name": "_pubKey",
                    "type": "string"
                },
                {
                    "internalType": "address",
                    "name": "_whoSC_Addr",
                    "type": "address"
                }
            ],
            "stateMutability": "nonpayable",
            "type": "constructor"
        },
        {
            "inputs": [
                {
                    "internalType": "bool",
                    "name": "_active",
                    "type": "bool"
                }
            ],
            "name": "activeEntity",
            "outputs": [],
            "stateMutability": "nonpayable",
            "type": "function"
        },
        {
            "inputs": [
                {
                    "internalType": "uint256",
                    "name": "",
                    "type": "uint256"
                }
            ],
            "name": "capsule",
            "outputs": [
                {
                    "internalType": "string",
                    "name": "",
                    "type": "string"
                }
            ],
            "stateMutability": "view",
            "type": "function"
        },
        {
            "inputs": [
                {
                    "internalType": "uint256",
                    "name": "",
                    "type": "uint256"
                }
            ],
            "name": "docs",
            "outputs": [
                {
                    "internalType": "string",
                    "name": "",
                    "type": "string"
                }
            ],
            "stateMutability": "view",
            "type": "function"
        },
        {
            "inputs": [
                {
                    "internalType": "string",
                    "name": "",
                    "type": "string"
                }
            ],
            "name": "extDocParams",
            "outputs": [
                {
                    "internalType": "string",
                    "name": "exthash",
                    "type": "string"
                },
                {
                    "internalType": "string",
                    "name": "extPubKey",
                    "type": "string"
                },
                {
                    "internalType": "string",
                    "name": "capsule",
                    "type": "string"
                },
                {
                    "internalType": "string",
                    "name": "kfrag0",
                    "type": "string"
                },
                {
                    "internalType": "string",
                    "name": "verifyingKey",
                    "type": "string"
                }
            ],
            "stateMutability": "view",
            "type": "function"
        },
        {
            "inputs": [
                {
                    "internalType": "uint256",
                    "name": "",
                    "type": "uint256"
                }
            ],
            "name": "extDocs",
            "outputs": [
                {
                    "internalType": "string",
                    "name": "",
                    "type": "string"
                }
            ],
            "stateMutability": "view",
            "type": "function"
        },
        {
            "inputs": [
                {
                    "internalType": "uint256",
                    "name": "_index",
                    "type": "uint256"
                }
            ],
            "name": "getDocsCapsule",
            "outputs": [
                {
                    "internalType": "string",
                    "name": "",
                    "type": "string"
                }
            ],
            "stateMutability": "view",
            "type": "function"
        },
        {
            "inputs": [
                {
                    "internalType": "uint256",
                    "name": "_index",
                    "type": "uint256"
                }
            ],
            "name": "getDocsHash",
            "outputs": [
                {
                    "internalType": "string",
                    "name": "",
                    "type": "string"
                }
            ],
            "stateMutability": "view",
            "type": "function"
        },
        {
            "inputs": [],
            "name": "getEntity",
            "outputs": [
                {
                    "internalType": "bool",
                    "name": "",
                    "type": "bool"
                }
            ],
            "stateMutability": "view",
            "type": "function"
        },
        {
            "inputs": [
                {
                    "internalType": "uint256",
                    "name": "_index",
                    "type": "uint256"
                }
            ],
            "name": "getExtDocs",
            "outputs": [
                {
                    "internalType": "string",
                    "name": "",
                    "type": "string"
                }
            ],
            "stateMutability": "view",
            "type": "function"
        },
        {
            "inputs": [
                {
                    "internalType": "string",
                    "name": "_hash",
                    "type": "string"
                }
            ],
            "name": "getExtInfo",
            "outputs": [
                {
                    "internalType": "string",
                    "name": "",
                    "type": "string"
                },
                {
                    "internalType": "string",
                    "name": "",
                    "type": "string"
                },
                {
                    "internalType": "string",
                    "name": "",
                    "type": "string"
                },
                {
                    "internalType": "string",
                    "name": "",
                    "type": "string"
                }
            ],
            "stateMutability": "view",
            "type": "function"
        },
        {
            "inputs": [
                {
                    "internalType": "string",
                    "name": "_hash",
                    "type": "string"
                }
            ],
            "name": "getIndexDoc",
            "outputs": [
                {
                    "internalType": "uint256",
                    "name": "index",
                    "type": "uint256"
                }
            ],
            "stateMutability": "view",
            "type": "function"
        },
        {
            "inputs": [],
            "name": "getNumRequests",
            "outputs": [
                {
                    "internalType": "uint256",
                    "name": "",
                    "type": "uint256"
                }
            ],
            "stateMutability": "view",
            "type": "function"
        },
        {
            "inputs": [],
            "name": "getPubKey",
            "outputs": [
                {
                    "internalType": "string",
                    "name": "publicKey",
                    "type": "string"
                }
            ],
            "stateMutability": "view",
            "type": "function"
        },
        {
            "inputs": [
                {
                    "internalType": "string",
                    "name": "",
                    "type": "string"
                }
            ],
            "name": "indexDocs",
            "outputs": [
                {
                    "internalType": "uint256",
                    "name": "",
                    "type": "uint256"
                }
            ],
            "stateMutability": "view",
            "type": "function"
        },
        {
            "inputs": [],
            "name": "lengthDocArray",
            "outputs": [
                {
                    "internalType": "uint256",
                    "name": "",
                    "type": "uint256"
                }
            ],
            "stateMutability": "view",
            "type": "function"
        },
        {
            "inputs": [],
            "name": "lengthExtDocArray",
            "outputs": [
                {
                    "internalType": "uint256",
                    "name": "",
                    "type": "uint256"
                }
            ],
            "stateMutability": "view",
            "type": "function"
        },
        {
            "inputs": [
                {
                    "internalType": "string",
                    "name": "_hash",
                    "type": "string"
                },
                {
                    "internalType": "string",
                    "name": "_capsule",
                    "type": "string"
                }
            ],
            "name": "newDoc",
            "outputs": [],
            "stateMutability": "nonpayable",
            "type": "function"
        },
        {
            "inputs": [
                {
                    "internalType": "string",
                    "name": "_hash",
                    "type": "string"
                },
                {
                    "internalType": "string",
                    "name": "_pubKeyUser",
                    "type": "string"
                },
                {
                    "internalType": "string",
                    "name": "_capsule",
                    "type": "string"
                },
                {
                    "internalType": "string",
                    "name": "_kfrag0",
                    "type": "string"
                },
                {
                    "internalType": "string",
                    "name": "_alicesVerifyingKey",
                    "type": "string"
                }
            ],
            "name": "newExtDoc",
            "outputs": [],
            "stateMutability": "nonpayable",
            "type": "function"
        },
        {
            "inputs": [
                {
                    "internalType": "string",
                    "name": "_pubKey",
                    "type": "string"
                }
            ],
            "name": "newPubKey",
            "outputs": [],
            "stateMutability": "nonpayable",
            "type": "function"
        },
        {
            "inputs": [
                {
                    "internalType": "address",
                    "name": "_entityAdr",
                    "type": "address"
                }
            ],
            "name": "newSol",
            "outputs": [],
            "stateMutability": "nonpayable",
            "type": "function"
        },
        {
            "inputs": [
                {
                    "internalType": "uint256",
                    "name": "_identifier",
                    "type": "uint256"
                }
            ],
            "name": "obtainRequests",
            "outputs": [
                {
                    "internalType": "address",
                    "name": "entityReq",
                    "type": "address"
                }
            ],
            "stateMutability": "view",
            "type": "function"
        },
        {
            "inputs": [
                {
                    "internalType": "uint256",
                    "name": "",
                    "type": "uint256"
                }
            ],
            "name": "requests",
            "outputs": [
                {
                    "internalType": "bool",
                    "name": "resolved",
                    "type": "bool"
                },
                {
                    "internalType": "address",
                    "name": "entity_address",
                    "type": "address"
                }
            ],
            "stateMutability": "view",
            "type": "function"
        },
        {
            "inputs": [
                {
                    "internalType": "uint256",
                    "name": "_identifier",
                    "type": "uint256"
                }
            ],
            "name": "resolveSol",
            "outputs": [],
            "stateMutability": "nonpayable",
            "type": "function"
        }
    ],
    "bytecode": "608060405260006006553480156200001657600080fd5b50604051620018e7380380620018e7833981016040819052620000399162000159565b600480546001600160a01b038086166001600160a01b031992831617909255600580549284169290911691909117905581516200007e90600090602085019062000096565b50506005805460ff60a01b1916905550620002b19050565b828054620000a4906200025e565b90600052602060002090601f016020900481019282620000c8576000855562000113565b82601f10620000e357805160ff191683800117855562000113565b8280016001018555821562000113579182015b8281111562000113578251825591602001919060010190620000f6565b506200012192915062000125565b5090565b5b8082111562000121576000815560010162000126565b80516001600160a01b03811681146200015457600080fd5b919050565b6000806000606084860312156200016f57600080fd5b6200017a846200013c565b602085810151919450906001600160401b03808211156200019a57600080fd5b818701915087601f830112620001af57600080fd5b815181811115620001c457620001c46200029b565b604051601f8201601f19908116603f01168101908382118183101715620001ef57620001ef6200029b565b816040528281528a868487010111156200020857600080fd5b600093505b828410156200022c57848401860151818501870152928501926200020d565b828411156200023e5760008684830101525b80975050505050505062000255604085016200013c565b90509250925092565b600181811c908216806200027357607f821691505b602082108114156200029557634e487b7160e01b600052602260045260246000fd5b50919050565b634e487b7160e01b600052604160045260246000fd5b61162680620002c16000396000f3fe608060405234801561001057600080fd5b506004361061014d5760003560e01c806381d12c58116100c3578063d74143f21161007c578063d74143f2146102fe578063ddfb2e2614610321578063e5e4fd1414610334578063ec6cff7a14610358578063f6a0576d1461036b578063ff200d2b1461037e57600080fd5b806381d12c58146102335780638b5fec8f1461028557806391aacb01146102b0578063b07ce2a0146102b8578063c2713967146102c0578063d12399e9146102eb57600080fd5b80634b8cd041116101155780634b8cd041146101bc5780635f3d3753146101d25780636839bab0146101e757806369b4431e146101fa57806375c8de241461020d5780637769ef3a1461022057600080fd5b806323389c5a1461015257806330348b251461017b57806336b6fd0c1461018e57806345419b71146101a15780634ad02ef1146101b4575b600080fd5b610165610160366004611394565b61039b565b60405161017291906113f5565b60405180910390f35b610165610189366004611394565b610447565b61016561019c366004611394565b61052b565b6101656101af366004611394565b61056b565b61016561057b565b6101c461060d565b604051908152602001610172565b6101e56101e0366004611221565b610641565b005b6101e56101f53660046112c2565b610682565b610165610208366004611394565b6107a5565b6101e561021b366004611394565b6107e5565b6101c461022e366004611221565b61082a565b610266610241366004611394565b60096020526000908152604090205460ff81169061010090046001600160a01b031682565b6040805192151583526001600160a01b03909116602083015201610172565b6101c4610293366004611221565b805160208183018101805160078252928201919093012091525481565b6101c461087d565b6101c46108b1565b6102d36102ce366004611394565b6108e5565b6040516001600160a01b039091168152602001610172565b6101656102f9366004611394565b610949565b61031161030c366004611221565b610959565b6040516101729493929190611408565b6101e561032f3660046111ff565b610c4f565b610347610342366004611221565b610c97565b604051610172959493929190611460565b6101e56103663660046111cf565b610f78565b6101e561037936600461125e565b610ff3565b600554600160a01b900460ff166040519015158152602001610172565b600181815481106103ab57600080fd5b9060005260206000200160009150905080546103c690611589565b80601f01602080910402602001604051908101604052809291908181526020018280546103f290611589565b801561043f5780601f106104145761010080835404028352916020019161043f565b820191906000526020600020905b81548152906001019060200180831161042257829003601f168201915b505050505081565b6004546060906001600160a01b0316331461047d5760405162461bcd60e51b8152600401610474906114cd565b60405180910390fd5b60018281548110610490576104906115c4565b9060005260206000200180546104a590611589565b80601f01602080910402602001604051908101604052809291908181526020018280546104d190611589565b801561051e5780601f106104f35761010080835404028352916020019161051e565b820191906000526020600020905b81548152906001019060200180831161050157829003601f168201915b505050505090505b919050565b6004546060906001600160a01b031633146105585760405162461bcd60e51b8152600401610474906114cd565b60038281548110610490576104906115c4565b600381815481106103ab57600080fd5b60606000805461058a90611589565b80601f01602080910402602001604051908101604052809291908181526020018280546105b690611589565b80156106035780601f106105d857610100808354040283529160200191610603565b820191906000526020600020905b8154815290600101906020018083116105e657829003601f168201915b5050505050905090565b6004546000906001600160a01b0316331461063a5760405162461bcd60e51b8152600401610474906114cd565b5060065490565b6004546001600160a01b0316331461066b5760405162461bcd60e51b8152600401610474906114cd565b805161067e9060009060208401906110a9565b5050565b6003805460018101825560009190915285516106c5917fc2575a0e9e593c00f959f8c92f12db2869c3395a3b0502d05e2516446f71f85b019060208801906110a9565b50836008866040516106d791906113d9565b908152602001604051809103902060010190805190602001906106fb9291906110a9565b508260088660405161070d91906113d9565b908152602001604051809103902060020190805190602001906107319291906110a9565b508160088660405161074391906113d9565b908152602001604051809103902060030190805190602001906107679291906110a9565b508060088660405161077991906113d9565b9081526020016040518091039020600401908051906020019061079d9291906110a9565b505050505050565b6004546060906001600160a01b031633146107d25760405162461bcd60e51b8152600401610474906114cd565b60028281548110610490576104906115c4565b6004546001600160a01b0316331461080f5760405162461bcd60e51b8152600401610474906114cd565b6000908152600960205260409020805460ff19166001179055565b6004546000906001600160a01b031633146108575760405162461bcd60e51b8152600401610474906114cd565b60078260405161086791906113d9565b9081526020016040518091039020549050919050565b6004546000906001600160a01b031633146108aa5760405162461bcd60e51b8152600401610474906114cd565b5060035490565b6004546000906001600160a01b031633146108de5760405162461bcd60e51b8152600401610474906114cd565b5060015490565b6004546000906001600160a01b031633146109125760405162461bcd60e51b8152600401610474906114cd565b60008281526009602052604090205460ff16610526575060009081526009602052604090205461010090046001600160a01b031690565b600281815481106103ab57600080fd5b6004546060908190819081906001600160a01b0316331461098c5760405162461bcd60e51b8152600401610474906114cd565b60088560405161099c91906113d9565b90815260200160405180910390206001016008866040516109bd91906113d9565b90815260200160405180910390206002016008876040516109de91906113d9565b90815260200160405180910390206003016008886040516109ff91906113d9565b9081526020016040518091039020600401838054610a1c90611589565b80601f0160208091040260200160405190810160405280929190818152602001828054610a4890611589565b8015610a955780601f10610a6a57610100808354040283529160200191610a95565b820191906000526020600020905b815481529060010190602001808311610a7857829003601f168201915b50505050509350828054610aa890611589565b80601f0160208091040260200160405190810160405280929190818152602001828054610ad490611589565b8015610b215780601f10610af657610100808354040283529160200191610b21565b820191906000526020600020905b815481529060010190602001808311610b0457829003601f168201915b50505050509250818054610b3490611589565b80601f0160208091040260200160405190810160405280929190818152602001828054610b6090611589565b8015610bad5780601f10610b8257610100808354040283529160200191610bad565b820191906000526020600020905b815481529060010190602001808311610b9057829003601f168201915b50505050509150808054610bc090611589565b80601f0160208091040260200160405190810160405280929190818152602001828054610bec90611589565b8015610c395780601f10610c0e57610100808354040283529160200191610c39565b820191906000526020600020905b815481529060010190602001808311610c1c57829003601f168201915b5050505050905093509350935093509193509193565b6005546001600160a01b03163314610c795760405162461bcd60e51b8152600401610474906114cd565b60058054911515600160a01b0260ff60a01b19909216919091179055565b8051602081830181018051600882529282019190930120915280548190610cbd90611589565b80601f0160208091040260200160405190810160405280929190818152602001828054610ce990611589565b8015610d365780601f10610d0b57610100808354040283529160200191610d36565b820191906000526020600020905b815481529060010190602001808311610d1957829003601f168201915b505050505090806001018054610d4b90611589565b80601f0160208091040260200160405190810160405280929190818152602001828054610d7790611589565b8015610dc45780601f10610d9957610100808354040283529160200191610dc4565b820191906000526020600020905b815481529060010190602001808311610da757829003601f168201915b505050505090806002018054610dd990611589565b80601f0160208091040260200160405190810160405280929190818152602001828054610e0590611589565b8015610e525780601f10610e2757610100808354040283529160200191610e52565b820191906000526020600020905b815481529060010190602001808311610e3557829003601f168201915b505050505090806003018054610e6790611589565b80601f0160208091040260200160405190810160405280929190818152602001828054610e9390611589565b8015610ee05780601f10610eb557610100808354040283529160200191610ee0565b820191906000526020600020905b815481529060010190602001808311610ec357829003601f168201915b505050505090806004018054610ef590611589565b80601f0160208091040260200160405190810160405280929190818152602001828054610f2190611589565b8015610f6e5780601f10610f4357610100808354040283529160200191610f6e565b820191906000526020600020905b815481529060010190602001808311610f5157829003601f168201915b5050505050905085565b6005546001600160a01b03163314610fa25760405162461bcd60e51b8152600401610474906114cd565b600680546000908152600960205260408082208054610100600160a81b0319166101006001600160a01b03871602179055825482529020805460ff1916905554610fed906001611537565b60065550565b60015460405181906007906110099086906113d9565b9081526040516020918190038201902091909155600280546001810182556000919091528351611060927f405787fa12a823e0f2b7631cc41b3ba8828b3321ca811111fa75cd3aa3bb5ace909201918501906110a9565b5060018054808201825560009190915283516110a3917fb10e2d527612073b26eecdfd717e6a320cf44b4afac2b0732d9fcbe2b7fa0cf6019060208601906110a9565b50505050565b8280546110b590611589565b90600052602060002090601f0160209004810192826110d7576000855561111d565b82601f106110f057805160ff191683800117855561111d565b8280016001018555821561111d579182015b8281111561111d578251825591602001919060010190611102565b5061112992915061112d565b5090565b5b80821115611129576000815560010161112e565b600082601f83011261115357600080fd5b813567ffffffffffffffff8082111561116e5761116e6115da565b604051601f8301601f19908116603f01168101908282118183101715611196576111966115da565b816040528381528660208588010111156111af57600080fd5b836020870160208301376000602085830101528094505050505092915050565b6000602082840312156111e157600080fd5b81356001600160a01b03811681146111f857600080fd5b9392505050565b60006020828403121561121157600080fd5b813580151581146111f857600080fd5b60006020828403121561123357600080fd5b813567ffffffffffffffff81111561124a57600080fd5b61125684828501611142565b949350505050565b6000806040838503121561127157600080fd5b823567ffffffffffffffff8082111561128957600080fd5b61129586838701611142565b935060208501359150808211156112ab57600080fd5b506112b885828601611142565b9150509250929050565b600080600080600060a086880312156112da57600080fd5b853567ffffffffffffffff808211156112f257600080fd5b6112fe89838a01611142565b9650602088013591508082111561131457600080fd5b61132089838a01611142565b9550604088013591508082111561133657600080fd5b61134289838a01611142565b9450606088013591508082111561135857600080fd5b61136489838a01611142565b9350608088013591508082111561137a57600080fd5b5061138788828901611142565b9150509295509295909350565b6000602082840312156113a657600080fd5b5035919050565b600081518084526113c581602086016020860161155d565b601f01601f19169290920160200192915050565b600082516113eb81846020870161155d565b9190910192915050565b6020815260006111f860208301846113ad565b60808152600061141b60808301876113ad565b828103602084015261142d81876113ad565b9050828103604084015261144181866113ad565b9050828103606084015261145581856113ad565b979650505050505050565b60a08152600061147360a08301886113ad565b828103602084015261148581886113ad565b9050828103604084015261149981876113ad565b905082810360608401526114ad81866113ad565b905082810360808401526114c181856113ad565b98975050505050505050565b60208082526044908201527f4c2761647265736120717565206861207265616c69747a6174206c612063726960408201527f6461206e6f20746520656c73207065726d6973736f732064652070726f7069656060820152633a30ba1760e11b608082015260a00190565b6000821982111561155857634e487b7160e01b600052601160045260246000fd5b500190565b60005b83811015611578578181015183820152602001611560565b838111156110a35750506000910152565b600181811c9082168061159d57607f821691505b602082108114156115be57634e487b7160e01b600052602260045260246000fd5b50919050565b634e487b7160e01b600052603260045260246000fd5b634e487b7160e01b600052604160045260246000fdfea2646970667358221220c864246c6eb1b6770d63fbf5f611ddbee4800a2e97e2e86b5d412411d0dc112564736f6c63430008060033",
    "sourcePath": "c:/Users/Usuario/Documents/UIB/TFG/Covid-Pasport-master/contracts/pasport_sc.sol",
    "compiler": {
        "name": "solc",
        "version": "0.8.6+commit.11564f7e"
    },
    "functionHashes": {
        "activeEntity(bool)": "ddfb2e26",
        "capsule(uint256)": "d12399e9",
        "docs(uint256)": "23389c5a",
        "extDocParams(string)": "e5e4fd14",
        "extDocs(uint256)": "45419b71",
        "getDocsCapsule(uint256)": "69b4431e",
        "getDocsHash(uint256)": "30348b25",
        "getEntity()": "ff200d2b",
        "getExtDocs(uint256)": "36b6fd0c",
        "getExtInfo(string)": "d74143f2",
        "getIndexDoc(string)": "7769ef3a",
        "getNumRequests()": "4b8cd041",
        "getPubKey()": "4ad02ef1",
        "indexDocs(string)": "8b5fec8f",
        "lengthDocArray()": "b07ce2a0",
        "lengthExtDocArray()": "91aacb01",
        "newDoc(string,string)": "f6a0576d",
        "newExtDoc(string,string,string,string,string)": "6839bab0",
        "newPubKey(string)": "5f3d3753",
        "newSol(address)": "ec6cff7a",
        "obtainRequests(uint256)": "c2713967",
        "requests(uint256)": "81d12c58",
        "resolveSol(uint256)": "75c8de24"
    },
    "gasEstimates": {
        "creation": {
            "codeDepositCost": "1134000",
            "executionCost": "infinite",
            "totalCost": "infinite"
        },
        "external": {
            "activeEntity(bool)": "26704",
            "capsule(uint256)": "infinite",
            "docs(uint256)": "infinite",
            "extDocParams(string)": "infinite",
            "extDocs(uint256)": "infinite",
            "getDocsCapsule(uint256)": "infinite",
            "getDocsHash(uint256)": "infinite",
            "getEntity()": "2441",
            "getExtDocs(uint256)": "infinite",
            "getExtInfo(string)": "infinite",
            "getIndexDoc(string)": "infinite",
            "getNumRequests()": "4478",
            "getPubKey()": "infinite",
            "indexDocs(string)": "infinite",
            "lengthDocArray()": "4544",
            "lengthExtDocArray()": "4522",
            "newDoc(string,string)": "infinite",
            "newExtDoc(string,string,string,string,string)": "infinite",
            "newPubKey(string)": "infinite",
            "newSol(address)": "79576",
            "obtainRequests(uint256)": "6950",
            "requests(uint256)": "2550",
            "resolveSol(uint256)": "26762"
        }
    }
}