{
    "contractName": "user",
    "abi": [
        {
            "inputs": [
                {
                    "internalType": "address",
                    "name": "_owner",
                    "type": "address"
                },
                {
                    "internalType": "string",
                    "name": "_pubKey",
                    "type": "string"
                },
                {
                    "internalType": "address",
                    "name": "_whoSC_Addr",
                    "type": "address"
                }
            ],
            "stateMutability": "nonpayable",
            "type": "constructor"
        },
        {
            "inputs": [
                {
                    "internalType": "bool",
                    "name": "_active",
                    "type": "bool"
                }
            ],
            "name": "activeEntity",
            "outputs": [],
            "stateMutability": "nonpayable",
            "type": "function"
        },
        {
            "inputs": [
                {
                    "internalType": "uint256",
                    "name": "",
                    "type": "uint256"
                }
            ],
            "name": "capsule",
            "outputs": [
                {
                    "internalType": "string",
                    "name": "",
                    "type": "string"
                }
            ],
            "stateMutability": "view",
            "type": "function"
        },
        {
            "inputs": [
                {
                    "internalType": "uint256",
                    "name": "",
                    "type": "uint256"
                }
            ],
            "name": "docs",
            "outputs": [
                {
                    "internalType": "string",
                    "name": "",
                    "type": "string"
                }
            ],
            "stateMutability": "view",
            "type": "function"
        },
        {
            "inputs": [
                {
                    "internalType": "string",
                    "name": "",
                    "type": "string"
                }
            ],
            "name": "extDocParams",
            "outputs": [
                {
                    "internalType": "string",
                    "name": "exthash",
                    "type": "string"
                },
                {
                    "internalType": "string",
                    "name": "extPubKey",
                    "type": "string"
                },
                {
                    "internalType": "string",
                    "name": "capsule",
                    "type": "string"
                },
                {
                    "internalType": "string",
                    "name": "kfrag0",
                    "type": "string"
                },
                {
                    "internalType": "string",
                    "name": "verifyingKey",
                    "type": "string"
                }
            ],
            "stateMutability": "view",
            "type": "function"
        },
        {
            "inputs": [
                {
                    "internalType": "uint256",
                    "name": "",
                    "type": "uint256"
                }
            ],
            "name": "extDocs",
            "outputs": [
                {
                    "internalType": "string",
                    "name": "",
                    "type": "string"
                }
            ],
            "stateMutability": "view",
            "type": "function"
        },
        {
            "inputs": [
                {
                    "internalType": "uint256",
                    "name": "_index",
                    "type": "uint256"
                }
            ],
            "name": "getDocsCapsule",
            "outputs": [
                {
                    "internalType": "string",
                    "name": "",
                    "type": "string"
                }
            ],
            "stateMutability": "view",
            "type": "function"
        },
        {
            "inputs": [
                {
                    "internalType": "uint256",
                    "name": "_index",
                    "type": "uint256"
                }
            ],
            "name": "getDocsHash",
            "outputs": [
                {
                    "internalType": "string",
                    "name": "",
                    "type": "string"
                }
            ],
            "stateMutability": "view",
            "type": "function"
        },
        {
            "inputs": [],
            "name": "getEntity",
            "outputs": [
                {
                    "internalType": "bool",
                    "name": "",
                    "type": "bool"
                }
            ],
            "stateMutability": "view",
            "type": "function"
        },
        {
            "inputs": [
                {
                    "internalType": "uint256",
                    "name": "_index",
                    "type": "uint256"
                }
            ],
            "name": "getExtDocs",
            "outputs": [
                {
                    "internalType": "string",
                    "name": "",
                    "type": "string"
                }
            ],
            "stateMutability": "view",
            "type": "function"
        },
        {
            "inputs": [
                {
                    "internalType": "string",
                    "name": "_hash",
                    "type": "string"
                }
            ],
            "name": "getExtInfo",
            "outputs": [
                {
                    "internalType": "string",
                    "name": "",
                    "type": "string"
                },
                {
                    "internalType": "string",
                    "name": "",
                    "type": "string"
                },
                {
                    "internalType": "string",
                    "name": "",
                    "type": "string"
                },
                {
                    "internalType": "string",
                    "name": "",
                    "type": "string"
                }
            ],
            "stateMutability": "view",
            "type": "function"
        },
        {
            "inputs": [
                {
                    "internalType": "string",
                    "name": "_hash",
                    "type": "string"
                }
            ],
            "name": "getIndexDoc",
            "outputs": [
                {
                    "internalType": "uint256",
                    "name": "index",
                    "type": "uint256"
                }
            ],
            "stateMutability": "view",
            "type": "function"
        },
        {
            "inputs": [],
            "name": "getNumRequests",
            "outputs": [
                {
                    "internalType": "uint256",
                    "name": "",
                    "type": "uint256"
                }
            ],
            "stateMutability": "view",
            "type": "function"
        },
        {
            "inputs": [],
            "name": "getPubKey",
            "outputs": [
                {
                    "internalType": "string",
                    "name": "publicKey",
                    "type": "string"
                }
            ],
            "stateMutability": "view",
            "type": "function"
        },
        {
            "inputs": [
                {
                    "internalType": "string",
                    "name": "",
                    "type": "string"
                }
            ],
            "name": "indexDocs",
            "outputs": [
                {
                    "internalType": "uint256",
                    "name": "",
                    "type": "uint256"
                }
            ],
            "stateMutability": "view",
            "type": "function"
        },
        {
            "inputs": [],
            "name": "lengthDocArray",
            "outputs": [
                {
                    "internalType": "uint256",
                    "name": "",
                    "type": "uint256"
                }
            ],
            "stateMutability": "view",
            "type": "function"
        },
        {
            "inputs": [],
            "name": "lengthExtDocArray",
            "outputs": [
                {
                    "internalType": "uint256",
                    "name": "",
                    "type": "uint256"
                }
            ],
            "stateMutability": "view",
            "type": "function"
        },
        {
            "inputs": [
                {
                    "internalType": "string",
                    "name": "_hash",
                    "type": "string"
                },
                {
                    "internalType": "string",
                    "name": "_capsule",
                    "type": "string"
                }
            ],
            "name": "newDoc",
            "outputs": [],
            "stateMutability": "nonpayable",
            "type": "function"
        },
        {
            "inputs": [
                {
                    "internalType": "string",
                    "name": "_hash",
                    "type": "string"
                },
                {
                    "internalType": "string",
                    "name": "_pubKeyUser",
                    "type": "string"
                },
                {
                    "internalType": "string",
                    "name": "_capsule",
                    "type": "string"
                },
                {
                    "internalType": "string",
                    "name": "_kfrag0",
                    "type": "string"
                },
                {
                    "internalType": "string",
                    "name": "_alicesVerifyingKey",
                    "type": "string"
                }
            ],
            "name": "newExtDoc",
            "outputs": [],
            "stateMutability": "nonpayable",
            "type": "function"
        },
        {
            "inputs": [
                {
                    "internalType": "string",
                    "name": "_pubKey",
                    "type": "string"
                }
            ],
            "name": "newPubKey",
            "outputs": [],
            "stateMutability": "nonpayable",
            "type": "function"
        },
        {
            "inputs": [
                {
                    "internalType": "address",
                    "name": "_entityAdr",
                    "type": "address"
                }
            ],
            "name": "newSol",
            "outputs": [],
            "stateMutability": "nonpayable",
            "type": "function"
        },
        {
            "inputs": [
                {
                    "internalType": "uint256",
                    "name": "_identifier",
                    "type": "uint256"
                }
            ],
            "name": "obtainRequests",
            "outputs": [
                {
                    "internalType": "address",
                    "name": "entityReq",
                    "type": "address"
                }
            ],
            "stateMutability": "view",
            "type": "function"
        },
        {
            "inputs": [
                {
                    "internalType": "uint256",
                    "name": "",
                    "type": "uint256"
                }
            ],
            "name": "requests",
            "outputs": [
                {
                    "internalType": "bool",
                    "name": "resolved",
                    "type": "bool"
                },
                {
                    "internalType": "address",
                    "name": "entity_address",
                    "type": "address"
                }
            ],
            "stateMutability": "view",
            "type": "function"
        },
        {
            "inputs": [
                {
                    "internalType": "uint256",
                    "name": "_identifier",
                    "type": "uint256"
                }
            ],
            "name": "resolveSol",
            "outputs": [],
            "stateMutability": "nonpayable",
            "type": "function"
        },
        {
            "inputs": [
                {
                    "internalType": "uint256",
                    "name": "_identifier",
                    "type": "uint256"
                },
                {
                    "internalType": "address",
                    "name": "_Bob_SC_Adr",
                    "type": "address"
                },
                {
                    "internalType": "string",
                    "name": "_hash",
                    "type": "string"
                },
                {
                    "internalType": "string",
                    "name": "_pubKeyUser",
                    "type": "string"
                },
                {
                    "internalType": "string",
                    "name": "_capsule",
                    "type": "string"
                },
                {
                    "internalType": "string",
                    "name": "_kfrag0",
                    "type": "string"
                },
                {
                    "internalType": "string",
                    "name": "_alicesVerifyingKey",
                    "type": "string"
                }
            ],
            "name": "resolveSolAndSendDoc",
            "outputs": [],
            "stateMutability": "nonpayable",
            "type": "function"
        }
    ],
    "bytecode": "608060405260006006553480156200001657600080fd5b5060405162001aac38038062001aac833981016040819052620000399162000159565b600480546001600160a01b038086166001600160a01b031992831617909255600580549284169290911691909117905581516200007e90600090602085019062000096565b50506005805460ff60a01b1916905550620002b19050565b828054620000a4906200025e565b90600052602060002090601f016020900481019282620000c8576000855562000113565b82601f10620000e357805160ff191683800117855562000113565b8280016001018555821562000113579182015b8281111562000113578251825591602001919060010190620000f6565b506200012192915062000125565b5090565b5b8082111562000121576000815560010162000126565b80516001600160a01b03811681146200015457600080fd5b919050565b6000806000606084860312156200016f57600080fd5b6200017a846200013c565b602085810151919450906001600160401b03808211156200019a57600080fd5b818701915087601f830112620001af57600080fd5b815181811115620001c457620001c46200029b565b604051601f8201601f19908116603f01168101908382118183101715620001ef57620001ef6200029b565b816040528281528a868487010111156200020857600080fd5b600093505b828410156200022c57848401860151818501870152928501926200020d565b828411156200023e5760008684830101525b80975050505050505062000255604085016200013c565b90509250925092565b600181811c908216806200027357607f821691505b602082108114156200029557634e487b7160e01b600052602260045260246000fd5b50919050565b634e487b7160e01b600052604160045260246000fd5b6117eb80620002c16000396000f3fe608060405234801561001057600080fd5b50600436106101585760003560e01c80638b5fec8f116100c3578063d74143f21161007c578063d74143f21461031c578063ddfb2e261461033f578063e5e4fd1414610352578063ec6cff7a14610376578063f6a0576d14610389578063ff200d2b1461039c57600080fd5b80638b5fec8f1461029057806391aacb01146102bb57806392f10ad6146102c3578063b07ce2a0146102d6578063c2713967146102de578063d12399e91461030957600080fd5b80635f3d3753116101155780635f3d3753146101dd5780636839bab0146101f257806369b4431e1461020557806375c8de24146102185780637769ef3a1461022b57806381d12c581461023e57600080fd5b806323389c5a1461015d57806330348b251461018657806336b6fd0c1461019957806345419b71146101ac5780634ad02ef1146101bf5780634b8cd041146101c7575b600080fd5b61017061016b36600461146d565b6103b9565b60405161017d91906115ba565b60405180910390f35b61017061019436600461146d565b610465565b6101706101a736600461146d565b610549565b6101706101ba36600461146d565b610589565b610170610599565b6101cf61062b565b60405190815260200161017d565b6101f06101eb3660046112fa565b61065f565b005b6101f061020036600461139b565b6106a0565b61017061021336600461146d565b6107c3565b6101f061022636600461146d565b610803565b6101cf6102393660046112fa565b610848565b61027161024c36600461146d565b60096020526000908152604090205460ff81169061010090046001600160a01b031682565b6040805192151583526001600160a01b0390911660208301520161017d565b6101cf61029e3660046112fa565b805160208183018101805160078252928201919093012091525481565b6101cf61089b565b6101f06102d1366004611486565b6108cf565b6101cf610981565b6102f16102ec36600461146d565b6109b5565b6040516001600160a01b03909116815260200161017d565b61017061031736600461146d565b610a19565b61032f61032a3660046112fa565b610a29565b60405161017d94939291906115cd565b6101f061034d3660046112d8565b610d1f565b6103656103603660046112fa565b610d67565b60405161017d959493929190611625565b6101f06103843660046112b6565b611048565b6101f0610397366004611337565b6110c3565b600554600160a01b900460ff16604051901515815260200161017d565b600181815481106103c957600080fd5b9060005260206000200160009150905080546103e49061174e565b80601f01602080910402602001604051908101604052809291908181526020018280546104109061174e565b801561045d5780601f106104325761010080835404028352916020019161045d565b820191906000526020600020905b81548152906001019060200180831161044057829003601f168201915b505050505081565b6004546060906001600160a01b0316331461049b5760405162461bcd60e51b815260040161049290611692565b60405180910390fd5b600182815481106104ae576104ae611789565b9060005260206000200180546104c39061174e565b80601f01602080910402602001604051908101604052809291908181526020018280546104ef9061174e565b801561053c5780601f106105115761010080835404028352916020019161053c565b820191906000526020600020905b81548152906001019060200180831161051f57829003601f168201915b505050505090505b919050565b6004546060906001600160a01b031633146105765760405162461bcd60e51b815260040161049290611692565b600382815481106104ae576104ae611789565b600381815481106103c957600080fd5b6060600080546105a89061174e565b80601f01602080910402602001604051908101604052809291908181526020018280546105d49061174e565b80156106215780601f106105f657610100808354040283529160200191610621565b820191906000526020600020905b81548152906001019060200180831161060457829003601f168201915b5050505050905090565b6004546000906001600160a01b031633146106585760405162461bcd60e51b815260040161049290611692565b5060065490565b6004546001600160a01b031633146106895760405162461bcd60e51b815260040161049290611692565b805161069c906000906020840190611179565b5050565b6003805460018101825560009190915285516106e3917fc2575a0e9e593c00f959f8c92f12db2869c3395a3b0502d05e2516446f71f85b01906020880190611179565b50836008866040516106f5919061159e565b90815260200160405180910390206001019080519060200190610719929190611179565b508260088660405161072b919061159e565b9081526020016040518091039020600201908051906020019061074f929190611179565b5081600886604051610761919061159e565b90815260200160405180910390206003019080519060200190610785929190611179565b5080600886604051610797919061159e565b908152602001604051809103902060040190805190602001906107bb929190611179565b505050505050565b6004546060906001600160a01b031633146107f05760405162461bcd60e51b815260040161049290611692565b600282815481106104ae576104ae611789565b6004546001600160a01b0316331461082d5760405162461bcd60e51b815260040161049290611692565b6000908152600960205260409020805460ff19166001179055565b6004546000906001600160a01b031633146108755760405162461bcd60e51b815260040161049290611692565b600782604051610885919061159e565b9081526020016040518091039020549050919050565b6004546000906001600160a01b031633146108c85760405162461bcd60e51b815260040161049290611692565b5060035490565b6004546001600160a01b031633146108f95760405162461bcd60e51b815260040161049290611692565b60008781526009602052604090819020805460ff19166001179055516306839bab60e41b81526001600160a01b03871690636839bab0906109469088908890889088908890600401611625565b600060405180830381600087803b15801561096057600080fd5b505af1158015610974573d6000803e3d6000fd5b5050505050505050505050565b6004546000906001600160a01b031633146109ae5760405162461bcd60e51b815260040161049290611692565b5060015490565b6004546000906001600160a01b031633146109e25760405162461bcd60e51b815260040161049290611692565b60008281526009602052604090205460ff16610544575060009081526009602052604090205461010090046001600160a01b031690565b600281815481106103c957600080fd5b6004546060908190819081906001600160a01b03163314610a5c5760405162461bcd60e51b815260040161049290611692565b600885604051610a6c919061159e565b9081526020016040518091039020600101600886604051610a8d919061159e565b9081526020016040518091039020600201600887604051610aae919061159e565b9081526020016040518091039020600301600888604051610acf919061159e565b9081526020016040518091039020600401838054610aec9061174e565b80601f0160208091040260200160405190810160405280929190818152602001828054610b189061174e565b8015610b655780601f10610b3a57610100808354040283529160200191610b65565b820191906000526020600020905b815481529060010190602001808311610b4857829003601f168201915b50505050509350828054610b789061174e565b80601f0160208091040260200160405190810160405280929190818152602001828054610ba49061174e565b8015610bf15780601f10610bc657610100808354040283529160200191610bf1565b820191906000526020600020905b815481529060010190602001808311610bd457829003601f168201915b50505050509250818054610c049061174e565b80601f0160208091040260200160405190810160405280929190818152602001828054610c309061174e565b8015610c7d5780601f10610c5257610100808354040283529160200191610c7d565b820191906000526020600020905b815481529060010190602001808311610c6057829003601f168201915b50505050509150808054610c909061174e565b80601f0160208091040260200160405190810160405280929190818152602001828054610cbc9061174e565b8015610d095780601f10610cde57610100808354040283529160200191610d09565b820191906000526020600020905b815481529060010190602001808311610cec57829003601f168201915b5050505050905093509350935093509193509193565b6005546001600160a01b03163314610d495760405162461bcd60e51b815260040161049290611692565b60058054911515600160a01b0260ff60a01b19909216919091179055565b8051602081830181018051600882529282019190930120915280548190610d8d9061174e565b80601f0160208091040260200160405190810160405280929190818152602001828054610db99061174e565b8015610e065780601f10610ddb57610100808354040283529160200191610e06565b820191906000526020600020905b815481529060010190602001808311610de957829003601f168201915b505050505090806001018054610e1b9061174e565b80601f0160208091040260200160405190810160405280929190818152602001828054610e479061174e565b8015610e945780601f10610e6957610100808354040283529160200191610e94565b820191906000526020600020905b815481529060010190602001808311610e7757829003601f168201915b505050505090806002018054610ea99061174e565b80601f0160208091040260200160405190810160405280929190818152602001828054610ed59061174e565b8015610f225780601f10610ef757610100808354040283529160200191610f22565b820191906000526020600020905b815481529060010190602001808311610f0557829003601f168201915b505050505090806003018054610f379061174e565b80601f0160208091040260200160405190810160405280929190818152602001828054610f639061174e565b8015610fb05780601f10610f8557610100808354040283529160200191610fb0565b820191906000526020600020905b815481529060010190602001808311610f9357829003601f168201915b505050505090806004018054610fc59061174e565b80601f0160208091040260200160405190810160405280929190818152602001828054610ff19061174e565b801561103e5780601f106110135761010080835404028352916020019161103e565b820191906000526020600020905b81548152906001019060200180831161102157829003601f168201915b5050505050905085565b6005546001600160a01b031633146110725760405162461bcd60e51b815260040161049290611692565b600680546000908152600960205260408082208054610100600160a81b0319166101006001600160a01b03871602179055825482529020805460ff19169055546110bd9060016116fc565b60065550565b60015460405181906007906110d990869061159e565b9081526040516020918190038201902091909155600280546001810182556000919091528351611130927f405787fa12a823e0f2b7631cc41b3ba8828b3321ca811111fa75cd3aa3bb5ace90920191850190611179565b506001805480820182556000919091528351611173917fb10e2d527612073b26eecdfd717e6a320cf44b4afac2b0732d9fcbe2b7fa0cf601906020860190611179565b50505050565b8280546111859061174e565b90600052602060002090601f0160209004810192826111a757600085556111ed565b82601f106111c057805160ff19168380011785556111ed565b828001600101855582156111ed579182015b828111156111ed5782518255916020019190600101906111d2565b506111f99291506111fd565b5090565b5b808211156111f957600081556001016111fe565b80356001600160a01b038116811461054457600080fd5b600082601f83011261123a57600080fd5b813567ffffffffffffffff808211156112555761125561179f565b604051601f8301601f19908116603f0116810190828211818310171561127d5761127d61179f565b8160405283815286602085880101111561129657600080fd5b836020870160208301376000602085830101528094505050505092915050565b6000602082840312156112c857600080fd5b6112d182611212565b9392505050565b6000602082840312156112ea57600080fd5b813580151581146112d157600080fd5b60006020828403121561130c57600080fd5b813567ffffffffffffffff81111561132357600080fd5b61132f84828501611229565b949350505050565b6000806040838503121561134a57600080fd5b823567ffffffffffffffff8082111561136257600080fd5b61136e86838701611229565b9350602085013591508082111561138457600080fd5b5061139185828601611229565b9150509250929050565b600080600080600060a086880312156113b357600080fd5b853567ffffffffffffffff808211156113cb57600080fd5b6113d789838a01611229565b965060208801359150808211156113ed57600080fd5b6113f989838a01611229565b9550604088013591508082111561140f57600080fd5b61141b89838a01611229565b9450606088013591508082111561143157600080fd5b61143d89838a01611229565b9350608088013591508082111561145357600080fd5b5061146088828901611229565b9150509295509295909350565b60006020828403121561147f57600080fd5b5035919050565b600080600080600080600060e0888a0312156114a157600080fd5b873596506114b160208901611212565b9550604088013567ffffffffffffffff808211156114ce57600080fd5b6114da8b838c01611229565b965060608a01359150808211156114f057600080fd5b6114fc8b838c01611229565b955060808a013591508082111561151257600080fd5b61151e8b838c01611229565b945060a08a013591508082111561153457600080fd5b6115408b838c01611229565b935060c08a013591508082111561155657600080fd5b506115638a828b01611229565b91505092959891949750929550565b6000815180845261158a816020860160208601611722565b601f01601f19169290920160200192915050565b600082516115b0818460208701611722565b9190910192915050565b6020815260006112d16020830184611572565b6080815260006115e06080830187611572565b82810360208401526115f28187611572565b905082810360408401526116068186611572565b9050828103606084015261161a8185611572565b979650505050505050565b60a08152600061163860a0830188611572565b828103602084015261164a8188611572565b9050828103604084015261165e8187611572565b905082810360608401526116728186611572565b905082810360808401526116868185611572565b98975050505050505050565b60208082526044908201527f4c2761647265736120717565206861207265616c69747a6174206c612063726960408201527f6461206e6f20746520656c73207065726d6973736f732064652070726f7069656060820152633a30ba1760e11b608082015260a00190565b6000821982111561171d57634e487b7160e01b600052601160045260246000fd5b500190565b60005b8381101561173d578181015183820152602001611725565b838111156111735750506000910152565b600181811c9082168061176257607f821691505b6020821081141561178357634e487b7160e01b600052602260045260246000fd5b50919050565b634e487b7160e01b600052603260045260246000fd5b634e487b7160e01b600052604160045260246000fdfea2646970667358221220166735ed3247fa6808c1e7f9c82fa4bf8694f06642f922b03ce6465ec65b0af764736f6c63430008060033",
    "sourcePath": "c:/Users/Usuario/Documents/UIB/TFG/Covid-Pasport-master/contracts/pasport_sc.sol",
    "compiler": {
        "name": "solc",
        "version": "0.8.6+commit.11564f7e"
    },
    "functionHashes": {
        "activeEntity(bool)": "ddfb2e26",
        "capsule(uint256)": "d12399e9",
        "docs(uint256)": "23389c5a",
        "extDocParams(string)": "e5e4fd14",
        "extDocs(uint256)": "45419b71",
        "getDocsCapsule(uint256)": "69b4431e",
        "getDocsHash(uint256)": "30348b25",
        "getEntity()": "ff200d2b",
        "getExtDocs(uint256)": "36b6fd0c",
        "getExtInfo(string)": "d74143f2",
        "getIndexDoc(string)": "7769ef3a",
        "getNumRequests()": "4b8cd041",
        "getPubKey()": "4ad02ef1",
        "indexDocs(string)": "8b5fec8f",
        "lengthDocArray()": "b07ce2a0",
        "lengthExtDocArray()": "91aacb01",
        "newDoc(string,string)": "f6a0576d",
        "newExtDoc(string,string,string,string,string)": "6839bab0",
        "newPubKey(string)": "5f3d3753",
        "newSol(address)": "ec6cff7a",
        "obtainRequests(uint256)": "c2713967",
        "requests(uint256)": "81d12c58",
        "resolveSol(uint256)": "75c8de24",
        "resolveSolAndSendDoc(uint256,address,string,string,string,string,string)": "92f10ad6"
    },
    "gasEstimates": {
        "creation": {
            "codeDepositCost": "1224600",
            "executionCost": "infinite",
            "totalCost": "infinite"
        },
        "external": {
            "activeEntity(bool)": "26704",
            "capsule(uint256)": "infinite",
            "docs(uint256)": "infinite",
            "extDocParams(string)": "infinite",
            "extDocs(uint256)": "infinite",
            "getDocsCapsule(uint256)": "infinite",
            "getDocsHash(uint256)": "infinite",
            "getEntity()": "2441",
            "getExtDocs(uint256)": "infinite",
            "getExtInfo(string)": "infinite",
            "getIndexDoc(string)": "infinite",
            "getNumRequests()": "4589",
            "getPubKey()": "infinite",
            "indexDocs(string)": "infinite",
            "lengthDocArray()": "4544",
            "lengthExtDocArray()": "4500",
            "newDoc(string,string)": "infinite",
            "newExtDoc(string,string,string,string,string)": "infinite",
            "newPubKey(string)": "infinite",
            "newSol(address)": "79611",
            "obtainRequests(uint256)": "6950",
            "requests(uint256)": "2660",
            "resolveSol(uint256)": "26740",
            "resolveSolAndSendDoc(uint256,address,string,string,string,string,string)": "infinite"
        }
    }
}