{
    "contractName": "who",
    "abi": [
        {
            "inputs": [],
            "stateMutability": "nonpayable",
            "type": "constructor"
        },
        {
            "anonymous": false,
            "inputs": [
                {
                    "indexed": false,
                    "internalType": "address",
                    "name": "",
                    "type": "address"
                },
                {
                    "indexed": false,
                    "internalType": "bool",
                    "name": "",
                    "type": "bool"
                }
            ],
            "name": "entity",
            "type": "event"
        },
        {
            "anonymous": false,
            "inputs": [
                {
                    "indexed": false,
                    "internalType": "address",
                    "name": "adr_lab",
                    "type": "address"
                },
                {
                    "indexed": false,
                    "internalType": "string",
                    "name": "labname",
                    "type": "string"
                }
            ],
            "name": "labDeleted",
            "type": "event"
        },
        {
            "anonymous": false,
            "inputs": [
                {
                    "indexed": false,
                    "internalType": "string",
                    "name": "labName",
                    "type": "string"
                },
                {
                    "indexed": false,
                    "internalType": "address",
                    "name": "adr_lab",
                    "type": "address"
                }
            ],
            "name": "newLab",
            "type": "event"
        },
        {
            "anonymous": false,
            "inputs": [
                {
                    "indexed": false,
                    "internalType": "address",
                    "name": "",
                    "type": "address"
                }
            ],
            "name": "new_User",
            "type": "event"
        },
        {
            "inputs": [
                {
                    "internalType": "uint256",
                    "name": "",
                    "type": "uint256"
                }
            ],
            "name": "Active_Labs",
            "outputs": [
                {
                    "internalType": "address",
                    "name": "",
                    "type": "address"
                }
            ],
            "stateMutability": "view",
            "type": "function"
        },
        {
            "inputs": [
                {
                    "internalType": "uint256",
                    "name": "",
                    "type": "uint256"
                }
            ],
            "name": "Active_Users",
            "outputs": [
                {
                    "internalType": "address",
                    "name": "",
                    "type": "address"
                }
            ],
            "stateMutability": "view",
            "type": "function"
        },
        {
            "inputs": [
                {
                    "internalType": "bool",
                    "name": "active",
                    "type": "bool"
                },
                {
                    "internalType": "address",
                    "name": "_entityAdr",
                    "type": "address"
                }
            ],
            "name": "Entity",
            "outputs": [],
            "stateMutability": "nonpayable",
            "type": "function"
        },
        {
            "inputs": [
                {
                    "internalType": "address",
                    "name": "",
                    "type": "address"
                }
            ],
            "name": "Lab",
            "outputs": [
                {
                    "internalType": "string",
                    "name": "name",
                    "type": "string"
                },
                {
                    "internalType": "bool",
                    "name": "active",
                    "type": "bool"
                },
                {
                    "internalType": "address",
                    "name": "sc_adr",
                    "type": "address"
                }
            ],
            "stateMutability": "view",
            "type": "function"
        },
        {
            "inputs": [
                {
                    "internalType": "address",
                    "name": "_lab",
                    "type": "address"
                },
                {
                    "internalType": "address",
                    "name": "_sc_adr",
                    "type": "address"
                }
            ],
            "name": "deleteLab",
            "outputs": [],
            "stateMutability": "nonpayable",
            "type": "function"
        },
        {
            "inputs": [
                {
                    "internalType": "uint256",
                    "name": "_identifier",
                    "type": "uint256"
                }
            ],
            "name": "denySol",
            "outputs": [],
            "stateMutability": "nonpayable",
            "type": "function"
        },
        {
            "inputs": [
                {
                    "internalType": "address",
                    "name": "_alices_address",
                    "type": "address"
                },
                {
                    "internalType": "address",
                    "name": "_entity_address",
                    "type": "address"
                }
            ],
            "name": "getAliceDocs",
            "outputs": [],
            "stateMutability": "nonpayable",
            "type": "function"
        },
        {
            "inputs": [
                {
                    "internalType": "address",
                    "name": "adr_Lab",
                    "type": "address"
                }
            ],
            "name": "getLabName",
            "outputs": [
                {
                    "internalType": "string",
                    "name": "",
                    "type": "string"
                }
            ],
            "stateMutability": "view",
            "type": "function"
        },
        {
            "inputs": [
                {
                    "internalType": "address",
                    "name": "adr_Lab",
                    "type": "address"
                }
            ],
            "name": "getLabSC",
            "outputs": [
                {
                    "internalType": "address",
                    "name": "",
                    "type": "address"
                }
            ],
            "stateMutability": "view",
            "type": "function"
        },
        {
            "inputs": [
                {
                    "internalType": "address",
                    "name": "adr_Lab",
                    "type": "address"
                }
            ],
            "name": "getLabState",
            "outputs": [
                {
                    "internalType": "bool",
                    "name": "",
                    "type": "bool"
                }
            ],
            "stateMutability": "view",
            "type": "function"
        },
        {
            "inputs": [],
            "name": "getLabsCount",
            "outputs": [
                {
                    "internalType": "uint256",
                    "name": "",
                    "type": "uint256"
                }
            ],
            "stateMutability": "view",
            "type": "function"
        },
        {
            "inputs": [],
            "name": "getNumRequests",
            "outputs": [
                {
                    "internalType": "uint256",
                    "name": "",
                    "type": "uint256"
                }
            ],
            "stateMutability": "view",
            "type": "function"
        },
        {
            "inputs": [
                {
                    "internalType": "address",
                    "name": "adr_User",
                    "type": "address"
                }
            ],
            "name": "getUserSC",
            "outputs": [
                {
                    "internalType": "address",
                    "name": "",
                    "type": "address"
                }
            ],
            "stateMutability": "view",
            "type": "function"
        },
        {
            "inputs": [
                {
                    "internalType": "uint256",
                    "name": "_identifier",
                    "type": "uint256"
                }
            ],
            "name": "obtainRequests",
            "outputs": [
                {
                    "internalType": "address",
                    "name": "alice_address",
                    "type": "address"
                },
                {
                    "internalType": "address",
                    "name": "entityReq",
                    "type": "address"
                }
            ],
            "stateMutability": "view",
            "type": "function"
        },
        {
            "inputs": [
                {
                    "internalType": "address payable",
                    "name": "_lab",
                    "type": "address"
                },
                {
                    "internalType": "string",
                    "name": "_name",
                    "type": "string"
                }
            ],
            "name": "registerLab",
            "outputs": [],
            "stateMutability": "nonpayable",
            "type": "function"
        },
        {
            "inputs": [
                {
                    "internalType": "address",
                    "name": "_owner",
                    "type": "address"
                },
                {
                    "internalType": "string",
                    "name": "_pubKey",
                    "type": "string"
                }
            ],
            "name": "registerUser",
            "outputs": [
                {
                    "internalType": "address",
                    "name": "",
                    "type": "address"
                }
            ],
            "stateMutability": "nonpayable",
            "type": "function"
        },
        {
            "inputs": [
                {
                    "internalType": "uint256",
                    "name": "",
                    "type": "uint256"
                }
            ],
            "name": "requests",
            "outputs": [
                {
                    "internalType": "bool",
                    "name": "resolved",
                    "type": "bool"
                },
                {
                    "internalType": "address",
                    "name": "alice_address",
                    "type": "address"
                },
                {
                    "internalType": "address",
                    "name": "entity",
                    "type": "address"
                }
            ],
            "stateMutability": "view",
            "type": "function"
        },
        {
            "inputs": [
                {
                    "internalType": "uint256",
                    "name": "_identifier",
                    "type": "uint256"
                }
            ],
            "name": "resolveAliceDocs",
            "outputs": [],
            "stateMutability": "nonpayable",
            "type": "function"
        },
        {
            "inputs": [
                {
                    "internalType": "address",
                    "name": "",
                    "type": "address"
                }
            ],
            "name": "userSC",
            "outputs": [
                {
                    "internalType": "address",
                    "name": "",
                    "type": "address"
                }
            ],
            "stateMutability": "view",
            "type": "function"
        }
    ],
    "bytecode": "6080604052600080546001600160a01b0319167370f6714dca2f53a17558c5dff99d572959f77d9c17815560045534801561003957600080fd5b50600180546001600160a01b031916301790556133378061005b6000396000f3fe60806040523480156200001157600080fd5b5060043610620001395760003560e01c8063887ca0d311620000bb578063c0632116116200007a578063c06321161462000359578063c27139671462000370578063cf64cd8214620003a8578063ef0b39c414620003b2578063f4e7f8fa14620003c957600080fd5b8063887ca0d314620002a657806394af50e614620002cc57806397ed646014620002e35780639e9c7473146200031a578063a3d1594e146200033157600080fd5b8063489c34831162000108578063489c348314620001df5780634b8cd04114620001f657806360259fe9146200020f5780637bc90108146200022657806381d12c58146200023d57600080fd5b80630ea126f9146200013e5780633880997e14620001725780633befa1b8146200018b57806341fd25b314620001b7575b600080fd5b620001556200014f36600462001036565b620003f8565b6040516001600160a01b0390911681526020015b60405180910390f35b62000189620001833660046200108c565b620004f2565b005b620001556200019c3660046200100f565b6007602052600090815260409020546001600160a01b031681565b620001ce620001c83660046200100f565b62000659565b604051901515815260200162000169565b62000189620001f036600462001036565b620006c8565b6200020062000852565b60405190815260200162000169565b62000189620002203660046200108c565b6200089d565b62000189620002373660046200110b565b620009af565b6200027e6200024e3660046200110b565b6005602052600090815260409020805460019091015460ff8216916001600160a01b036101009091048116911683565b6040805193151584526001600160a01b03928316602085015291169082015260600162000169565b620002bd620002b73660046200100f565b62000a99565b6040516200016991906200126d565b62000189620002dd366004620010ea565b62000b8f565b62000155620002f43660046200100f565b6001600160a01b0390811660009081526006602052604090206001015461010090041690565b620001896200032b3660046200110b565b62000c86565b62000348620003423660046200100f565b62000ce4565b6040516200016993929190620012ae565b620001556200036a3660046200110b565b62000da4565b62000387620003813660046200110b565b62000dcf565b604080516001600160a01b0393841681529290911660208301520162000169565b6200020062000e5c565b62000155620003c33660046200110b565b62000ea7565b62000155620003da3660046200100f565b6001600160a01b039081166000908152600760205260409020541690565b60015460405160009184918391839186916001600160a01b0316906200041e9062000eb8565b6200042c9392919062001175565b604051809103906000f08015801562000449573d6000803e3d6000fd5b5060038054600181019091557fc2575a0e9e593c00f959f8c92f12db2869c3395a3b0502d05e2516446f71f85b0180546001600160a01b03199081166001600160a01b0386811691821790935560008181526007602090815260409182902080549094169486169490941790925590519081529192507f2449b149f88e6eb459a7d3af8ea2c659fdf1499c81539604353c270f65908aca910160405180910390a1949350505050565b60048054600090815260056020908152604080832080546001600160a01b0380891661010002610100600160a81b0319909216919091179091558454845281842060010180548783166001600160a01b0319909116811790915585548552828520805460ff1916905584526007835292819020548151600162dff2d560e01b031981529151931693849363ff200d2b9383830193909290829003018186803b1580156200059e57600080fd5b505afa158015620005b3573d6000803e3d6000fd5b505050506040513d601f19601f82011682018060405250810190620005d99190620010ca565b15620006415760015460048054604051630f79202160e31b8152918201526001600160a01b0390911690637bc9010890602401600060405180830381600087803b1580156200062757600080fd5b505af11580156200063c573d6000803e3d6000fd5b505050505b600454620006519060016200134d565b600455505050565b600080546001600160a01b03163314806200067e57506001546001600160a01b031633145b620006a65760405162461bcd60e51b81526004016200069d90620012e3565b60405180910390fd5b506001600160a01b031660009081526006602052604090206001015460ff1690565b6000546001600160a01b0316331480620006ec57506001546001600160a01b031633145b6200070b5760405162461bcd60e51b81526004016200069d90620012e3565b60015460405183916001600160a01b031690620007289062000ec6565b6001600160a01b03928316815291166020820152604001604051809103906000f0801580156200075c573d6000803e3d6000fd5b506001600160a01b0380841660008181526006602090815260408220600180820180549790961661010002610100600160a81b0319909716969096179094556002805495860190557f405787fa12a823e0f2b7631cc41b3ba8828b3321ca811111fa75cd3aa3bb5ace90940180546001600160a01b03191683179055528251620007e99284019062000ed4565b506001600160a01b038216600090815260066020526040908190206001908101805460ff19169091179055517f681d10e7ef9b9b1c9955e8cfb39c8982d63b7f4185f90016e1e0fd8563d44f8c9062000846908390859062001282565b60405180910390a15050565b600080546001600160a01b03163314806200087757506001546001600160a01b031633145b620008965760405162461bcd60e51b81526004016200069d90620012e3565b5060045490565b6000546001600160a01b0316331480620008c157506001546001600160a01b031633145b620008e05760405162461bcd60e51b81526004016200069d90620012e3565b6001600160a01b03808316600090815260066020526040808220600101805460ff1916905580516315b45ce360e11b8152905192841692632b68b9c69260048084019391929182900301818387803b1580156200093c57600080fd5b505af115801562000951573d6000803e3d6000fd5b505050506001600160a01b0382166000908152600660205260409081902090517f926527f0f0dd76e1673947dc8a186146efd897ed51ddafada1849ff9d70c78fb90620009a29085908490620011ac565b60405180910390a1505050565b6000546001600160a01b0316331480620009d357506001546001600160a01b031633145b620009f25760405162461bcd60e51b81526004016200069d90620012e3565b600081815260056020818152604080842080546001600160a01b03610100820481168088526007865284882054978990529590945260018083015460ff199092161790915590516376367fbd60e11b81529082166004820181905292939091169190829063ec6cff7a90602401600060405180830381600087803b15801562000a7a57600080fd5b505af115801562000a8f573d6000803e3d6000fd5b5050505050505050565b6000546060906001600160a01b031633148062000ac057506001546001600160a01b031633145b62000adf5760405162461bcd60e51b81526004016200069d90620012e3565b6001600160a01b0382166000908152600660205260409020805462000b049062001374565b80601f016020809104026020016040519081016040528092919081815260200182805462000b329062001374565b801562000b835780601f1062000b575761010080835404028352916020019162000b83565b820191906000526020600020905b81548152906001019060200180831162000b6557829003601f168201915b50505050509050919050565b6000546001600160a01b031633148062000bb357506001546001600160a01b031633145b62000bd25760405162461bcd60e51b81526004016200069d90620012e3565b6001600160a01b0381811660009081526007602052604090819020549051636efd971360e11b81528415156004820152911690819063ddfb2e2690602401600060405180830381600087803b15801562000c2b57600080fd5b505af115801562000c40573d6000803e3d6000fd5b5050604080516001600160a01b038616815286151560208201527ffb1fe99bdd0ab633267cc6c574aa5521b20cbcb196b776b9d40b7d81f9afc5549350019050620009a2565b6000546001600160a01b031633148062000caa57506001546001600160a01b031633145b62000cc95760405162461bcd60e51b81526004016200069d90620012e3565b6000908152600560205260409020805460ff19166001179055565b60066020526000908152604090208054819062000d019062001374565b80601f016020809104026020016040519081016040528092919081815260200182805462000d2f9062001374565b801562000d805780601f1062000d545761010080835404028352916020019162000d80565b820191906000526020600020905b81548152906001019060200180831162000d6257829003601f168201915b5050506001909301549192505060ff8116906001600160a01b036101009091041683565b6002818154811062000db557600080fd5b6000918252602090912001546001600160a01b0316905081565b6000805481906001600160a01b031633148062000df657506001546001600160a01b031633145b62000e155760405162461bcd60e51b81526004016200069d90620012e3565b60008381526005602052604090205460ff1662000e57575050600081815260056020526040902080546001909101546001600160a01b03610100909204821691165b915091565b600080546001600160a01b031633148062000e8157506001546001600160a01b031633145b62000ea05760405162461bcd60e51b81526004016200069d90620012e3565b5060025490565b6003818154811062000db557600080fd5b611aac80620013f083390190565b6104668062002e9c83390190565b82805462000ee29062001374565b90600052602060002090601f01602090048101928262000f06576000855562000f51565b82601f1062000f2157805160ff191683800117855562000f51565b8280016001018555821562000f51579182015b8281111562000f5157825182559160200191906001019062000f34565b5062000f5f92915062000f63565b5090565b5b8082111562000f5f576000815560010162000f64565b600082601f83011262000f8c57600080fd5b813567ffffffffffffffff8082111562000faa5762000faa620013b1565b604051601f8301601f19908116603f0116810190828211818310171562000fd55762000fd5620013b1565b8160405283815286602085880101111562000fef57600080fd5b836020870160208301376000602085830101528094505050505092915050565b6000602082840312156200102257600080fd5b81356200102f81620013c7565b9392505050565b600080604083850312156200104a57600080fd5b82356200105781620013c7565b9150602083013567ffffffffffffffff8111156200107457600080fd5b620010828582860162000f7a565b9150509250929050565b60008060408385031215620010a057600080fd5b8235620010ad81620013c7565b91506020830135620010bf81620013c7565b809150509250929050565b600060208284031215620010dd57600080fd5b81516200102f81620013e0565b60008060408385031215620010fe57600080fd5b8235620010ad81620013e0565b6000602082840312156200111e57600080fd5b5035919050565b6000815180845260005b818110156200114d576020818501810151868301820152016200112f565b8181111562001160576000602083870101525b50601f01601f19169290920160200192915050565b600060018060a01b0380861683526060602084015262001199606084018662001125565b9150808416604084015250949350505050565b60018060a01b0383168152600060206040818401526000845481600182811c915080831680620011dd57607f831692505b858310811415620011fc57634e487b7160e01b85526022600452602485fd5b60408801839052606088018180156200121e576001811462001230576200125d565b60ff198616825287820196506200125d565b60008b81526020902060005b8681101562001257578154848201529085019089016200123c565b83019750505b50949a9950505050505050505050565b6020815260006200102f602083018462001125565b60408152600062001297604083018562001125565b905060018060a01b03831660208301529392505050565b606081526000620012c3606083018662001125565b9315156020830152506001600160a01b0391909116604090910152919050565b60208082526044908201527f4c2761647265736120717565206861207265616c69747a6174206c612063726960408201527f6461206e6f20746520656c73207065726d6973736f732064652070726f7069656060820152633a30ba1760e11b608082015260a00190565b600082198211156200136f57634e487b7160e01b600052601160045260246000fd5b500190565b600181811c908216806200138957607f821691505b60208210811415620013ab57634e487b7160e01b600052602260045260246000fd5b50919050565b634e487b7160e01b600052604160045260246000fd5b6001600160a01b0381168114620013dd57600080fd5b50565b8015158114620013dd57600080fdfe608060405260006006553480156200001657600080fd5b5060405162001aac38038062001aac833981016040819052620000399162000159565b600480546001600160a01b038086166001600160a01b031992831617909255600580549284169290911691909117905581516200007e90600090602085019062000096565b50506005805460ff60a01b1916905550620002b19050565b828054620000a4906200025e565b90600052602060002090601f016020900481019282620000c8576000855562000113565b82601f10620000e357805160ff191683800117855562000113565b8280016001018555821562000113579182015b8281111562000113578251825591602001919060010190620000f6565b506200012192915062000125565b5090565b5b8082111562000121576000815560010162000126565b80516001600160a01b03811681146200015457600080fd5b919050565b6000806000606084860312156200016f57600080fd5b6200017a846200013c565b602085810151919450906001600160401b03808211156200019a57600080fd5b818701915087601f830112620001af57600080fd5b815181811115620001c457620001c46200029b565b604051601f8201601f19908116603f01168101908382118183101715620001ef57620001ef6200029b565b816040528281528a868487010111156200020857600080fd5b600093505b828410156200022c57848401860151818501870152928501926200020d565b828411156200023e5760008684830101525b80975050505050505062000255604085016200013c565b90509250925092565b600181811c908216806200027357607f821691505b602082108114156200029557634e487b7160e01b600052602260045260246000fd5b50919050565b634e487b7160e01b600052604160045260246000fd5b6117eb80620002c16000396000f3fe608060405234801561001057600080fd5b50600436106101585760003560e01c80638b5fec8f116100c3578063d74143f21161007c578063d74143f21461031c578063ddfb2e261461033f578063e5e4fd1414610352578063ec6cff7a14610376578063f6a0576d14610389578063ff200d2b1461039c57600080fd5b80638b5fec8f1461029057806391aacb01146102bb57806392f10ad6146102c3578063b07ce2a0146102d6578063c2713967146102de578063d12399e91461030957600080fd5b80635f3d3753116101155780635f3d3753146101dd5780636839bab0146101f257806369b4431e1461020557806375c8de24146102185780637769ef3a1461022b57806381d12c581461023e57600080fd5b806323389c5a1461015d57806330348b251461018657806336b6fd0c1461019957806345419b71146101ac5780634ad02ef1146101bf5780634b8cd041146101c7575b600080fd5b61017061016b36600461146d565b6103b9565b60405161017d91906115ba565b60405180910390f35b61017061019436600461146d565b610465565b6101706101a736600461146d565b610549565b6101706101ba36600461146d565b610589565b610170610599565b6101cf61062b565b60405190815260200161017d565b6101f06101eb3660046112fa565b61065f565b005b6101f061020036600461139b565b6106a0565b61017061021336600461146d565b6107c3565b6101f061022636600461146d565b610803565b6101cf6102393660046112fa565b610848565b61027161024c36600461146d565b60096020526000908152604090205460ff81169061010090046001600160a01b031682565b6040805192151583526001600160a01b0390911660208301520161017d565b6101cf61029e3660046112fa565b805160208183018101805160078252928201919093012091525481565b6101cf61089b565b6101f06102d1366004611486565b6108cf565b6101cf610981565b6102f16102ec36600461146d565b6109b5565b6040516001600160a01b03909116815260200161017d565b61017061031736600461146d565b610a19565b61032f61032a3660046112fa565b610a29565b60405161017d94939291906115cd565b6101f061034d3660046112d8565b610d1f565b6103656103603660046112fa565b610d67565b60405161017d959493929190611625565b6101f06103843660046112b6565b611048565b6101f0610397366004611337565b6110c3565b600554600160a01b900460ff16604051901515815260200161017d565b600181815481106103c957600080fd5b9060005260206000200160009150905080546103e49061174e565b80601f01602080910402602001604051908101604052809291908181526020018280546104109061174e565b801561045d5780601f106104325761010080835404028352916020019161045d565b820191906000526020600020905b81548152906001019060200180831161044057829003601f168201915b505050505081565b6004546060906001600160a01b0316331461049b5760405162461bcd60e51b815260040161049290611692565b60405180910390fd5b600182815481106104ae576104ae611789565b9060005260206000200180546104c39061174e565b80601f01602080910402602001604051908101604052809291908181526020018280546104ef9061174e565b801561053c5780601f106105115761010080835404028352916020019161053c565b820191906000526020600020905b81548152906001019060200180831161051f57829003601f168201915b505050505090505b919050565b6004546060906001600160a01b031633146105765760405162461bcd60e51b815260040161049290611692565b600382815481106104ae576104ae611789565b600381815481106103c957600080fd5b6060600080546105a89061174e565b80601f01602080910402602001604051908101604052809291908181526020018280546105d49061174e565b80156106215780601f106105f657610100808354040283529160200191610621565b820191906000526020600020905b81548152906001019060200180831161060457829003601f168201915b5050505050905090565b6004546000906001600160a01b031633146106585760405162461bcd60e51b815260040161049290611692565b5060065490565b6004546001600160a01b031633146106895760405162461bcd60e51b815260040161049290611692565b805161069c906000906020840190611179565b5050565b6003805460018101825560009190915285516106e3917fc2575a0e9e593c00f959f8c92f12db2869c3395a3b0502d05e2516446f71f85b01906020880190611179565b50836008866040516106f5919061159e565b90815260200160405180910390206001019080519060200190610719929190611179565b508260088660405161072b919061159e565b9081526020016040518091039020600201908051906020019061074f929190611179565b5081600886604051610761919061159e565b90815260200160405180910390206003019080519060200190610785929190611179565b5080600886604051610797919061159e565b908152602001604051809103902060040190805190602001906107bb929190611179565b505050505050565b6004546060906001600160a01b031633146107f05760405162461bcd60e51b815260040161049290611692565b600282815481106104ae576104ae611789565b6004546001600160a01b0316331461082d5760405162461bcd60e51b815260040161049290611692565b6000908152600960205260409020805460ff19166001179055565b6004546000906001600160a01b031633146108755760405162461bcd60e51b815260040161049290611692565b600782604051610885919061159e565b9081526020016040518091039020549050919050565b6004546000906001600160a01b031633146108c85760405162461bcd60e51b815260040161049290611692565b5060035490565b6004546001600160a01b031633146108f95760405162461bcd60e51b815260040161049290611692565b60008781526009602052604090819020805460ff19166001179055516306839bab60e41b81526001600160a01b03871690636839bab0906109469088908890889088908890600401611625565b600060405180830381600087803b15801561096057600080fd5b505af1158015610974573d6000803e3d6000fd5b5050505050505050505050565b6004546000906001600160a01b031633146109ae5760405162461bcd60e51b815260040161049290611692565b5060015490565b6004546000906001600160a01b031633146109e25760405162461bcd60e51b815260040161049290611692565b60008281526009602052604090205460ff16610544575060009081526009602052604090205461010090046001600160a01b031690565b600281815481106103c957600080fd5b6004546060908190819081906001600160a01b03163314610a5c5760405162461bcd60e51b815260040161049290611692565b600885604051610a6c919061159e565b9081526020016040518091039020600101600886604051610a8d919061159e565b9081526020016040518091039020600201600887604051610aae919061159e565b9081526020016040518091039020600301600888604051610acf919061159e565b9081526020016040518091039020600401838054610aec9061174e565b80601f0160208091040260200160405190810160405280929190818152602001828054610b189061174e565b8015610b655780601f10610b3a57610100808354040283529160200191610b65565b820191906000526020600020905b815481529060010190602001808311610b4857829003601f168201915b50505050509350828054610b789061174e565b80601f0160208091040260200160405190810160405280929190818152602001828054610ba49061174e565b8015610bf15780601f10610bc657610100808354040283529160200191610bf1565b820191906000526020600020905b815481529060010190602001808311610bd457829003601f168201915b50505050509250818054610c049061174e565b80601f0160208091040260200160405190810160405280929190818152602001828054610c309061174e565b8015610c7d5780601f10610c5257610100808354040283529160200191610c7d565b820191906000526020600020905b815481529060010190602001808311610c6057829003601f168201915b50505050509150808054610c909061174e565b80601f0160208091040260200160405190810160405280929190818152602001828054610cbc9061174e565b8015610d095780601f10610cde57610100808354040283529160200191610d09565b820191906000526020600020905b815481529060010190602001808311610cec57829003601f168201915b5050505050905093509350935093509193509193565b6005546001600160a01b03163314610d495760405162461bcd60e51b815260040161049290611692565b60058054911515600160a01b0260ff60a01b19909216919091179055565b8051602081830181018051600882529282019190930120915280548190610d8d9061174e565b80601f0160208091040260200160405190810160405280929190818152602001828054610db99061174e565b8015610e065780601f10610ddb57610100808354040283529160200191610e06565b820191906000526020600020905b815481529060010190602001808311610de957829003601f168201915b505050505090806001018054610e1b9061174e565b80601f0160208091040260200160405190810160405280929190818152602001828054610e479061174e565b8015610e945780601f10610e6957610100808354040283529160200191610e94565b820191906000526020600020905b815481529060010190602001808311610e7757829003601f168201915b505050505090806002018054610ea99061174e565b80601f0160208091040260200160405190810160405280929190818152602001828054610ed59061174e565b8015610f225780601f10610ef757610100808354040283529160200191610f22565b820191906000526020600020905b815481529060010190602001808311610f0557829003601f168201915b505050505090806003018054610f379061174e565b80601f0160208091040260200160405190810160405280929190818152602001828054610f639061174e565b8015610fb05780601f10610f8557610100808354040283529160200191610fb0565b820191906000526020600020905b815481529060010190602001808311610f9357829003601f168201915b505050505090806004018054610fc59061174e565b80601f0160208091040260200160405190810160405280929190818152602001828054610ff19061174e565b801561103e5780601f106110135761010080835404028352916020019161103e565b820191906000526020600020905b81548152906001019060200180831161102157829003601f168201915b5050505050905085565b6005546001600160a01b031633146110725760405162461bcd60e51b815260040161049290611692565b600680546000908152600960205260408082208054610100600160a81b0319166101006001600160a01b03871602179055825482529020805460ff19169055546110bd9060016116fc565b60065550565b60015460405181906007906110d990869061159e565b9081526040516020918190038201902091909155600280546001810182556000919091528351611130927f405787fa12a823e0f2b7631cc41b3ba8828b3321ca811111fa75cd3aa3bb5ace90920191850190611179565b506001805480820182556000919091528351611173917fb10e2d527612073b26eecdfd717e6a320cf44b4afac2b0732d9fcbe2b7fa0cf601906020860190611179565b50505050565b8280546111859061174e565b90600052602060002090601f0160209004810192826111a757600085556111ed565b82601f106111c057805160ff19168380011785556111ed565b828001600101855582156111ed579182015b828111156111ed5782518255916020019190600101906111d2565b506111f99291506111fd565b5090565b5b808211156111f957600081556001016111fe565b80356001600160a01b038116811461054457600080fd5b600082601f83011261123a57600080fd5b813567ffffffffffffffff808211156112555761125561179f565b604051601f8301601f19908116603f0116810190828211818310171561127d5761127d61179f565b8160405283815286602085880101111561129657600080fd5b836020870160208301376000602085830101528094505050505092915050565b6000602082840312156112c857600080fd5b6112d182611212565b9392505050565b6000602082840312156112ea57600080fd5b813580151581146112d157600080fd5b60006020828403121561130c57600080fd5b813567ffffffffffffffff81111561132357600080fd5b61132f84828501611229565b949350505050565b6000806040838503121561134a57600080fd5b823567ffffffffffffffff8082111561136257600080fd5b61136e86838701611229565b9350602085013591508082111561138457600080fd5b5061139185828601611229565b9150509250929050565b600080600080600060a086880312156113b357600080fd5b853567ffffffffffffffff808211156113cb57600080fd5b6113d789838a01611229565b965060208801359150808211156113ed57600080fd5b6113f989838a01611229565b9550604088013591508082111561140f57600080fd5b61141b89838a01611229565b9450606088013591508082111561143157600080fd5b61143d89838a01611229565b9350608088013591508082111561145357600080fd5b5061146088828901611229565b9150509295509295909350565b60006020828403121561147f57600080fd5b5035919050565b600080600080600080600060e0888a0312156114a157600080fd5b873596506114b160208901611212565b9550604088013567ffffffffffffffff808211156114ce57600080fd5b6114da8b838c01611229565b965060608a01359150808211156114f057600080fd5b6114fc8b838c01611229565b955060808a013591508082111561151257600080fd5b61151e8b838c01611229565b945060a08a013591508082111561153457600080fd5b6115408b838c01611229565b935060c08a013591508082111561155657600080fd5b506115638a828b01611229565b91505092959891949750929550565b6000815180845261158a816020860160208601611722565b601f01601f19169290920160200192915050565b600082516115b0818460208701611722565b9190910192915050565b6020815260006112d16020830184611572565b6080815260006115e06080830187611572565b82810360208401526115f28187611572565b905082810360408401526116068186611572565b9050828103606084015261161a8185611572565b979650505050505050565b60a08152600061163860a0830188611572565b828103602084015261164a8188611572565b9050828103604084015261165e8187611572565b905082810360608401526116728186611572565b905082810360808401526116868185611572565b98975050505050505050565b60208082526044908201527f4c2761647265736120717565206861207265616c69747a6174206c612063726960408201527f6461206e6f20746520656c73207065726d6973736f732064652070726f7069656060820152633a30ba1760e11b608082015260a00190565b6000821982111561171d57634e487b7160e01b600052601160045260246000fd5b500190565b60005b8381101561173d578181015183820152602001611725565b838111156111735750506000910152565b600181811c9082168061176257607f821691505b6020821081141561178357634e487b7160e01b600052602260045260246000fd5b50919050565b634e487b7160e01b600052603260045260246000fd5b634e487b7160e01b600052604160045260246000fdfea2646970667358221220166735ed3247fa6808c1e7f9c82fa4bf8694f06642f922b03ce6465ec65b0af764736f6c63430008060033608060405234801561001057600080fd5b5060405161046638038061046683398101604081905261002f91610060565b600080546001600160a01b039384166001600160a01b031991821617909155600280549290931691161790556100b2565b6000806040838503121561007357600080fd5b825161007e8161009a565b602084015190925061008f8161009a565b809150509250929050565b6001600160a01b03811681146100af57600080fd5b50565b6103a5806100c16000396000f3fe608060405234801561001057600080fd5b50600436106100365760003560e01c80632b68b9c61461003b578063349d6f7c14610045575b600080fd5b610043610058565b005b6100436100533660046101f2565b610099565b6002546001600160a01b0316331461008b5760405162461bcd60e51b8152600401610082906102ef565b60405180910390fd5b6000546001600160a01b0316ff5b6000546001600160a01b031633146100c35760405162461bcd60e51b8152600401610082906102ef565b60405163f6a0576d60e01b81526001600160a01b0384169063f6a0576d906100f190859085906004016102c1565b600060405180830381600087803b15801561010b57600080fd5b505af115801561011f573d6000803e3d6000fd5b50506040516001600160a01b03861681527ff3c2359da4b62ab6d95f9cbe80f73519366be835dff25574414cf316ecc00af79250602001905060405180910390a1505050565b600082601f83011261017657600080fd5b813567ffffffffffffffff8082111561019157610191610359565b604051601f8301601f19908116603f011681019082821181831017156101b9576101b9610359565b816040528381528660208588010111156101d257600080fd5b836020870160208301376000602085830101528094505050505092915050565b60008060006060848603121561020757600080fd5b83356001600160a01b038116811461021e57600080fd5b9250602084013567ffffffffffffffff8082111561023b57600080fd5b61024787838801610165565b9350604086013591508082111561025d57600080fd5b5061026a86828701610165565b9150509250925092565b6000815180845260005b8181101561029a5760208185018101518683018201520161027e565b818111156102ac576000602083870101525b50601f01601f19169290920160200192915050565b6040815260006102d46040830185610274565b82810360208401526102e68185610274565b95945050505050565b60208082526044908201527f4c2761647265736120717565206861207265616c69747a6174206c612063726960408201527f6461206e6f20746520656c73207065726d6973736f732064652070726f7069656060820152633a30ba1760e11b608082015260a00190565b634e487b7160e01b600052604160045260246000fdfea26469706673582212204ddb4aad9e0b54ef185b5e2709fced9363a40fb64b54505d91be303b5e186cd364736f6c63430008060033a26469706673582212208e83efd9ce368d8d67f943ff25e20b45cd4e4bad2592ebd58d7c51531dd29ecf64736f6c63430008060033",
    "sourcePath": "c:/Users/Usuario/Documents/UIB/TFG/Covid-Pasport-master/contracts/pasport_sc.sol",
    "compiler": {
        "name": "solc",
        "version": "0.8.6+commit.11564f7e"
    },
    "functionHashes": {
        "Active_Labs(uint256)": "c0632116",
        "Active_Users(uint256)": "ef0b39c4",
        "Entity(bool,address)": "94af50e6",
        "Lab(address)": "a3d1594e",
        "deleteLab(address,address)": "60259fe9",
        "denySol(uint256)": "9e9c7473",
        "getAliceDocs(address,address)": "3880997e",
        "getLabName(address)": "887ca0d3",
        "getLabSC(address)": "97ed6460",
        "getLabState(address)": "41fd25b3",
        "getLabsCount()": "cf64cd82",
        "getNumRequests()": "4b8cd041",
        "getUserSC(address)": "f4e7f8fa",
        "obtainRequests(uint256)": "c2713967",
        "registerLab(address,string)": "489c3483",
        "registerUser(address,string)": "0ea126f9",
        "requests(uint256)": "81d12c58",
        "resolveAliceDocs(uint256)": "7bc90108",
        "userSC(address)": "3befa1b8"
    },
    "gasEstimates": {
        "creation": {
            "codeDepositCost": "2622200",
            "executionCost": "56313",
            "totalCost": "2678513"
        },
        "external": {
            "Active_Labs(uint256)": "4625",
            "Active_Users(uint256)": "4691",
            "Entity(bool,address)": "infinite",
            "Lab(address)": "infinite",
            "deleteLab(address,address)": "infinite",
            "denySol(uint256)": "28885",
            "getAliceDocs(address,address)": "infinite",
            "getLabName(address)": "infinite",
            "getLabSC(address)": "2634",
            "getLabState(address)": "6941",
            "getLabsCount()": "6663",
            "getNumRequests()": "6642",
            "getUserSC(address)": "2660",
            "obtainRequests(uint256)": "11190",
            "registerLab(address,string)": "infinite",
            "registerUser(address,string)": "infinite",
            "requests(uint256)": "4786",
            "resolveAliceDocs(uint256)": "infinite",
            "userSC(address)": "2609"
        }
    }
}