{
    "contractName": "who",
    "abi": [
        {
            "inputs": [],
            "stateMutability": "nonpayable",
            "type": "constructor"
        },
        {
            "anonymous": false,
            "inputs": [
                {
                    "indexed": false,
                    "internalType": "address",
                    "name": "",
                    "type": "address"
                },
                {
                    "indexed": false,
                    "internalType": "bool",
                    "name": "",
                    "type": "bool"
                }
            ],
            "name": "entity",
            "type": "event"
        },
        {
            "anonymous": false,
            "inputs": [
                {
                    "indexed": false,
                    "internalType": "address",
                    "name": "adr_lab",
                    "type": "address"
                },
                {
                    "indexed": false,
                    "internalType": "string",
                    "name": "labName",
                    "type": "string"
                }
            ],
            "name": "labDeleted",
            "type": "event"
        },
        {
            "anonymous": false,
            "inputs": [
                {
                    "indexed": false,
                    "internalType": "string",
                    "name": "labName",
                    "type": "string"
                },
                {
                    "indexed": false,
                    "internalType": "address",
                    "name": "adr_lab",
                    "type": "address"
                }
            ],
            "name": "newLab",
            "type": "event"
        },
        {
            "anonymous": false,
            "inputs": [
                {
                    "indexed": false,
                    "internalType": "address",
                    "name": "",
                    "type": "address"
                }
            ],
            "name": "new_User",
            "type": "event"
        },
        {
            "inputs": [
                {
                    "internalType": "uint256",
                    "name": "",
                    "type": "uint256"
                }
            ],
            "name": "Active_Labs",
            "outputs": [
                {
                    "internalType": "address",
                    "name": "",
                    "type": "address"
                }
            ],
            "stateMutability": "view",
            "type": "function"
        },
        {
            "inputs": [
                {
                    "internalType": "uint256",
                    "name": "",
                    "type": "uint256"
                }
            ],
            "name": "Active_Users",
            "outputs": [
                {
                    "internalType": "address",
                    "name": "",
                    "type": "address"
                }
            ],
            "stateMutability": "view",
            "type": "function"
        },
        {
            "inputs": [
                {
                    "internalType": "bool",
                    "name": "active",
                    "type": "bool"
                },
                {
                    "internalType": "address",
                    "name": "_entityAdr",
                    "type": "address"
                }
            ],
            "name": "Entity",
            "outputs": [],
            "stateMutability": "nonpayable",
            "type": "function"
        },
        {
            "inputs": [
                {
                    "internalType": "address",
                    "name": "",
                    "type": "address"
                }
            ],
            "name": "Lab",
            "outputs": [
                {
                    "internalType": "string",
                    "name": "name",
                    "type": "string"
                },
                {
                    "internalType": "bool",
                    "name": "active",
                    "type": "bool"
                },
                {
                    "internalType": "address",
                    "name": "sc_adr",
                    "type": "address"
                }
            ],
            "stateMutability": "view",
            "type": "function"
        },
        {
            "inputs": [
                {
                    "internalType": "address",
                    "name": "_lab",
                    "type": "address"
                },
                {
                    "internalType": "address",
                    "name": "_sc_adr",
                    "type": "address"
                }
            ],
            "name": "deleteLab",
            "outputs": [],
            "stateMutability": "nonpayable",
            "type": "function"
        },
        {
            "inputs": [
                {
                    "internalType": "uint256",
                    "name": "_identifier",
                    "type": "uint256"
                }
            ],
            "name": "denySol",
            "outputs": [],
            "stateMutability": "nonpayable",
            "type": "function"
        },
        {
            "inputs": [
                {
                    "internalType": "address",
                    "name": "_alices_address",
                    "type": "address"
                },
                {
                    "internalType": "address",
                    "name": "_entity_address",
                    "type": "address"
                }
            ],
            "name": "getAliceDocs",
            "outputs": [],
            "stateMutability": "nonpayable",
            "type": "function"
        },
        {
            "inputs": [
                {
                    "internalType": "address",
                    "name": "adr_Lab",
                    "type": "address"
                }
            ],
            "name": "getLabName",
            "outputs": [
                {
                    "internalType": "string",
                    "name": "",
                    "type": "string"
                }
            ],
            "stateMutability": "view",
            "type": "function"
        },
        {
            "inputs": [
                {
                    "internalType": "address",
                    "name": "adr_Lab",
                    "type": "address"
                }
            ],
            "name": "getLabSC",
            "outputs": [
                {
                    "internalType": "address",
                    "name": "",
                    "type": "address"
                }
            ],
            "stateMutability": "view",
            "type": "function"
        },
        {
            "inputs": [
                {
                    "internalType": "address",
                    "name": "adr_Lab",
                    "type": "address"
                }
            ],
            "name": "getLabState",
            "outputs": [
                {
                    "internalType": "bool",
                    "name": "",
                    "type": "bool"
                }
            ],
            "stateMutability": "view",
            "type": "function"
        },
        {
            "inputs": [],
            "name": "getLabsCount",
            "outputs": [
                {
                    "internalType": "uint256",
                    "name": "",
                    "type": "uint256"
                }
            ],
            "stateMutability": "view",
            "type": "function"
        },
        {
            "inputs": [],
            "name": "getNumRequests",
            "outputs": [
                {
                    "internalType": "uint256",
                    "name": "",
                    "type": "uint256"
                }
            ],
            "stateMutability": "view",
            "type": "function"
        },
        {
            "inputs": [
                {
                    "internalType": "address",
                    "name": "adr_User",
                    "type": "address"
                }
            ],
            "name": "getUserSC",
            "outputs": [
                {
                    "internalType": "address",
                    "name": "",
                    "type": "address"
                }
            ],
            "stateMutability": "view",
            "type": "function"
        },
        {
            "inputs": [
                {
                    "internalType": "uint256",
                    "name": "_identifier",
                    "type": "uint256"
                }
            ],
            "name": "obtainRequests",
            "outputs": [
                {
                    "internalType": "address",
                    "name": "alice_address",
                    "type": "address"
                },
                {
                    "internalType": "address",
                    "name": "entityReq",
                    "type": "address"
                }
            ],
            "stateMutability": "view",
            "type": "function"
        },
        {
            "inputs": [
                {
                    "internalType": "address payable",
                    "name": "_lab",
                    "type": "address"
                },
                {
                    "internalType": "string",
                    "name": "_name",
                    "type": "string"
                }
            ],
            "name": "registerLab",
            "outputs": [],
            "stateMutability": "nonpayable",
            "type": "function"
        },
        {
            "inputs": [
                {
                    "internalType": "address",
                    "name": "_owner",
                    "type": "address"
                },
                {
                    "internalType": "string",
                    "name": "_pubKey",
                    "type": "string"
                }
            ],
            "name": "registerUser",
            "outputs": [
                {
                    "internalType": "address",
                    "name": "",
                    "type": "address"
                }
            ],
            "stateMutability": "nonpayable",
            "type": "function"
        },
        {
            "inputs": [
                {
                    "internalType": "uint256",
                    "name": "",
                    "type": "uint256"
                }
            ],
            "name": "requests",
            "outputs": [
                {
                    "internalType": "bool",
                    "name": "resolved",
                    "type": "bool"
                },
                {
                    "internalType": "address",
                    "name": "alice_address",
                    "type": "address"
                },
                {
                    "internalType": "address",
                    "name": "entity",
                    "type": "address"
                }
            ],
            "stateMutability": "view",
            "type": "function"
        },
        {
            "inputs": [
                {
                    "internalType": "uint256",
                    "name": "_identifier",
                    "type": "uint256"
                }
            ],
            "name": "resolveAliceDocs",
            "outputs": [],
            "stateMutability": "nonpayable",
            "type": "function"
        },
        {
            "inputs": [
                {
                    "internalType": "address",
                    "name": "",
                    "type": "address"
                }
            ],
            "name": "userSC",
            "outputs": [
                {
                    "internalType": "address",
                    "name": "",
                    "type": "address"
                }
            ],
            "stateMutability": "view",
            "type": "function"
        }
    ],
    "bytecode": "6080604052600080546001600160a01b0319167370f6714dca2f53a17558c5dff99d572959f77d9c17815560045534801561003957600080fd5b50600180546001600160a01b031916301790556132008061005b6000396000f3fe60806040523480156200001157600080fd5b5060043610620001395760003560e01c8063887ca0d311620000bb578063c0632116116200007a578063c06321161462000339578063c27139671462000350578063cf64cd821462000388578063ef0b39c41462000392578063f4e7f8fa14620003a957600080fd5b8063887ca0d314620002a657806394af50e614620002cc57806397ed646014620002e35780639e9c747314620002fa578063a3d1594e146200031157600080fd5b8063489c34831162000108578063489c348314620001df5780634b8cd04114620001f657806360259fe9146200020f5780637bc90108146200022657806381d12c58146200023d57600080fd5b80630ea126f9146200013e5780633880997e14620001725780633befa1b8146200018b57806341fd25b314620001b7575b600080fd5b620001556200014f36600462001112565b620003d8565b6040516001600160a01b0390911681526020015b60405180910390f35b620001896200018336600462001168565b620004d2565b005b620001556200019c366004620010eb565b6007602052600090815260409020546001600160a01b031681565b620001ce620001c8366004620010eb565b62000639565b604051901515815260200162000169565b62000189620001f036600462001112565b620006a8565b6200020062000832565b60405190815260200162000169565b620001896200022036600462001168565b6200087d565b6200018962000237366004620011e7565b62000a20565b6200027e6200024e366004620011e7565b6005602052600090815260409020805460019091015460ff8216916001600160a01b036101009091048116911683565b6040805193151584526001600160a01b03928316602085015291169082015260600162000169565b620002bd620002b7366004620010eb565b62000b0a565b604051620001699190620012b6565b62000189620002dd366004620011c6565b62000c00565b62000155620002f4366004620010eb565b62000cf7565b620001896200030b366004620011e7565b62000d62565b6200032862000322366004620010eb565b62000dc0565b6040516200016993929190620012f7565b620001556200034a366004620011e7565b62000e80565b6200036762000361366004620011e7565b62000eab565b604080516001600160a01b0393841681529290911660208301520162000169565b6200020062000f38565b62000155620003a3366004620011e7565b62000f83565b62000155620003ba366004620010eb565b6001600160a01b039081166000908152600760205260409020541690565b60015460405160009184918391839186916001600160a01b031690620003fe9062000f94565b6200040c939291906200127f565b604051809103906000f08015801562000429573d6000803e3d6000fd5b5060038054600181019091557fc2575a0e9e593c00f959f8c92f12db2869c3395a3b0502d05e2516446f71f85b0180546001600160a01b03199081166001600160a01b0386811691821790935560008181526007602090815260409182902080549094169486169490941790925590519081529192507f2449b149f88e6eb459a7d3af8ea2c659fdf1499c81539604353c270f65908aca910160405180910390a1949350505050565b60048054600090815260056020908152604080832080546001600160a01b0380891661010002610100600160a81b0319909216919091179091558454845281842060010180548783166001600160a01b0319909116811790915585548552828520805460ff1916905584526007835292819020548151600162dff2d560e01b031981529151931693849363ff200d2b9383830193909290829003018186803b1580156200057e57600080fd5b505afa15801562000593573d6000803e3d6000fd5b505050506040513d601f19601f82011682018060405250810190620005b99190620011a6565b15620006215760015460048054604051630f79202160e31b8152918201526001600160a01b0390911690637bc9010890602401600060405180830381600087803b1580156200060757600080fd5b505af11580156200061c573d6000803e3d6000fd5b505050505b6004546200063190600162001396565b600455505050565b600080546001600160a01b03163314806200065e57506001546001600160a01b031633145b620006865760405162461bcd60e51b81526004016200067d906200132c565b60405180910390fd5b506001600160a01b031660009081526006602052604090206001015460ff1690565b6000546001600160a01b0316331480620006cc57506001546001600160a01b031633145b620006eb5760405162461bcd60e51b81526004016200067d906200132c565b60015460405183916001600160a01b031690620007089062000fa2565b6001600160a01b03928316815291166020820152604001604051809103906000f0801580156200073c573d6000803e3d6000fd5b506001600160a01b0380841660008181526006602090815260408220600180820180549790961661010002610100600160a81b0319909716969096179094556002805495860190557f405787fa12a823e0f2b7631cc41b3ba8828b3321ca811111fa75cd3aa3bb5ace90940180546001600160a01b03191683179055528251620007c99284019062000fb0565b506001600160a01b038216600090815260066020526040908190206001908101805460ff19169091179055517f681d10e7ef9b9b1c9955e8cfb39c8982d63b7f4185f90016e1e0fd8563d44f8c90620008269083908590620012cb565b60405180910390a15050565b600080546001600160a01b03163314806200085757506001546001600160a01b031633145b620008765760405162461bcd60e51b81526004016200067d906200132c565b5060045490565b6000546001600160a01b0316331480620008a157506001546001600160a01b031633145b620008c05760405162461bcd60e51b81526004016200067d906200132c565b6001600160a01b03808316600090815260066020526040808220600101805460ff1916905580516315b45ce360e11b8152905192841692632b68b9c69260048084019391929182900301818387803b1580156200091c57600080fd5b505af115801562000931573d6000803e3d6000fd5b505050506001600160a01b038216600090815260066020526040812080546200095a90620013bd565b80601f01602080910402602001604051908101604052809291908181526020018280546200098890620013bd565b8015620009d95780601f10620009ad57610100808354040283529160200191620009d9565b820191906000526020600020905b815481529060010190602001808311620009bb57829003601f168201915b505050505090507f926527f0f0dd76e1673947dc8a186146efd897ed51ddafada1849ff9d70c78fb838260405162000a1392919062001251565b60405180910390a1505050565b6000546001600160a01b031633148062000a4457506001546001600160a01b031633145b62000a635760405162461bcd60e51b81526004016200067d906200132c565b600081815260056020818152604080842080546001600160a01b03610100820481168088526007865284882054978990529590945260018083015460ff199092161790915590516376367fbd60e11b81529082166004820181905292939091169190829063ec6cff7a90602401600060405180830381600087803b15801562000aeb57600080fd5b505af115801562000b00573d6000803e3d6000fd5b5050505050505050565b6000546060906001600160a01b031633148062000b3157506001546001600160a01b031633145b62000b505760405162461bcd60e51b81526004016200067d906200132c565b6001600160a01b0382166000908152600660205260409020805462000b7590620013bd565b80601f016020809104026020016040519081016040528092919081815260200182805462000ba390620013bd565b801562000bf45780601f1062000bc85761010080835404028352916020019162000bf4565b820191906000526020600020905b81548152906001019060200180831162000bd657829003601f168201915b50505050509050919050565b6000546001600160a01b031633148062000c2457506001546001600160a01b031633145b62000c435760405162461bcd60e51b81526004016200067d906200132c565b6001600160a01b0381811660009081526007602052604090819020549051636efd971360e11b81528415156004820152911690819063ddfb2e2690602401600060405180830381600087803b15801562000c9c57600080fd5b505af115801562000cb1573d6000803e3d6000fd5b5050604080516001600160a01b038616815286151560208201527ffb1fe99bdd0ab633267cc6c574aa5521b20cbcb196b776b9d40b7d81f9afc554935001905062000a13565b600080546001600160a01b031633148062000d1c57506001546001600160a01b031633145b62000d3b5760405162461bcd60e51b81526004016200067d906200132c565b506001600160a01b0390811660009081526006602052604090206001015461010090041690565b6000546001600160a01b031633148062000d8657506001546001600160a01b031633145b62000da55760405162461bcd60e51b81526004016200067d906200132c565b6000908152600560205260409020805460ff19166001179055565b60066020526000908152604090208054819062000ddd90620013bd565b80601f016020809104026020016040519081016040528092919081815260200182805462000e0b90620013bd565b801562000e5c5780601f1062000e305761010080835404028352916020019162000e5c565b820191906000526020600020905b81548152906001019060200180831162000e3e57829003601f168201915b5050506001909301549192505060ff8116906001600160a01b036101009091041683565b6002818154811062000e9157600080fd5b6000918252602090912001546001600160a01b0316905081565b6000805481906001600160a01b031633148062000ed257506001546001600160a01b031633145b62000ef15760405162461bcd60e51b81526004016200067d906200132c565b60008381526005602052604090205460ff1662000f33575050600081815260056020526040902080546001909101546001600160a01b03610100909204821691165b915091565b600080546001600160a01b031633148062000f5d57506001546001600160a01b031633145b62000f7c5760405162461bcd60e51b81526004016200067d906200132c565b5060025490565b6003818154811062000e9157600080fd5b61192c806200143983390190565b6104668062002d6583390190565b82805462000fbe90620013bd565b90600052602060002090601f01602090048101928262000fe257600085556200102d565b82601f1062000ffd57805160ff19168380011785556200102d565b828001600101855582156200102d579182015b828111156200102d57825182559160200191906001019062001010565b506200103b9291506200103f565b5090565b5b808211156200103b576000815560010162001040565b600082601f8301126200106857600080fd5b813567ffffffffffffffff80821115620010865762001086620013fa565b604051601f8301601f19908116603f01168101908282118183101715620010b157620010b1620013fa565b81604052838152866020858801011115620010cb57600080fd5b836020870160208301376000602085830101528094505050505092915050565b600060208284031215620010fe57600080fd5b81356200110b8162001410565b9392505050565b600080604083850312156200112657600080fd5b8235620011338162001410565b9150602083013567ffffffffffffffff8111156200115057600080fd5b6200115e8582860162001056565b9150509250929050565b600080604083850312156200117c57600080fd5b8235620011898162001410565b915060208301356200119b8162001410565b809150509250929050565b600060208284031215620011b957600080fd5b81516200110b8162001429565b60008060408385031215620011da57600080fd5b8235620011898162001429565b600060208284031215620011fa57600080fd5b5035919050565b6000815180845260005b8181101562001229576020818501810151868301820152016200120b565b818111156200123c576000602083870101525b50601f01601f19169290920160200192915050565b6001600160a01b0383168152604060208201819052600090620012779083018462001201565b949350505050565b600060018060a01b03808616835260606020840152620012a3606084018662001201565b9150808416604084015250949350505050565b6020815260006200110b602083018462001201565b604081526000620012e0604083018562001201565b905060018060a01b03831660208301529392505050565b6060815260006200130c606083018662001201565b9315156020830152506001600160a01b0391909116604090910152919050565b60208082526044908201527f4c2761647265736120717565206861207265616c69747a6174206c612063726960408201527f6461206e6f20746520656c73207065726d6973736f732064652070726f7069656060820152633a30ba1760e11b608082015260a00190565b60008219821115620013b857634e487b7160e01b600052601160045260246000fd5b500190565b600181811c90821680620013d257607f821691505b60208210811415620013f457634e487b7160e01b600052602260045260246000fd5b50919050565b634e487b7160e01b600052604160045260246000fd5b6001600160a01b03811681146200142657600080fd5b50565b80151581146200142657600080fdfe608060405260006007553480156200001657600080fd5b506040516200192c3803806200192c833981016040819052620000399162000163565b600580546001600160a01b038086166001600160a01b031992831617909255600480548216301790556006805492841692909116919091179055815162000088906000906020850190620000a0565b50506006805460ff60a01b1916905550620002bb9050565b828054620000ae9062000268565b90600052602060002090601f016020900481019282620000d257600085556200011d565b82601f10620000ed57805160ff19168380011785556200011d565b828001600101855582156200011d579182015b828111156200011d57825182559160200191906001019062000100565b506200012b9291506200012f565b5090565b5b808211156200012b576000815560010162000130565b80516001600160a01b03811681146200015e57600080fd5b919050565b6000806000606084860312156200017957600080fd5b620001848462000146565b602085810151919450906001600160401b0380821115620001a457600080fd5b818701915087601f830112620001b957600080fd5b815181811115620001ce57620001ce620002a5565b604051601f8201601f19908116603f01168101908382118183101715620001f957620001f9620002a5565b816040528281528a868487010111156200021257600080fd5b600093505b8284101562000236578484018601518185018701529285019262000217565b82841115620002485760008684830101525b8097505050505050506200025f6040850162000146565b90509250925092565b600181811c908216806200027d57607f821691505b602082108114156200029f57634e487b7160e01b600052602260045260246000fd5b50919050565b634e487b7160e01b600052604160045260246000fd5b61166180620002cb6000396000f3fe608060405234801561001057600080fd5b506004361061014d5760003560e01c806381d12c58116100c3578063d74143f21161007c578063d74143f2146102fe578063ddfb2e2614610321578063e2626cca14610334578063ec6cff7a14610358578063f6a0576d1461036b578063ff200d2b1461037e57600080fd5b806381d12c58146102335780638b5fec8f1461028557806391aacb01146102b0578063b07ce2a0146102b8578063c2713967146102c0578063d12399e9146102eb57600080fd5b80634b8cd041116101155780634b8cd041146101bc5780635f3d3753146101d25780636839bab0146101e757806369b4431e146101fa57806375c8de241461020d5780637769ef3a1461022057600080fd5b806323389c5a1461015257806330348b251461017b57806336b6fd0c1461018e57806345419b71146101a15780634ad02ef1146101b4575b600080fd5b6101656101603660046113cb565b61039b565b604051610172919061142c565b60405180910390f35b6101656101893660046113cb565b610447565b61016561019c3660046113cb565b61052b565b6101656101af3660046113cb565b61056b565b61016561057b565b6101c461060d565b604051908152602001610172565b6101e56101e0366004611258565b610641565b005b6101e56101f53660046112f9565b610682565b6101656102083660046113cb565b6107a5565b6101e561021b3660046113cb565b6107e5565b6101c461022e366004611258565b61082a565b6102666102413660046113cb565b600a6020526000908152604090205460ff81169061010090046001600160a01b031682565b6040805192151583526001600160a01b03909116602083015201610172565b6101c4610293366004611258565b805160208183018101805160088252928201919093012091525481565b6101c461087d565b6101c46108b1565b6102d36102ce3660046113cb565b6108e5565b6040516001600160a01b039091168152602001610172565b6101656102f93660046113cb565b610949565b61031161030c366004611258565b610959565b604051610172949392919061143f565b6101e561032f366004611236565b610c4f565b610347610342366004611258565b610c97565b604051610172959493929190611497565b6101e5610366366004611206565b610f78565b6101e5610379366004611295565b610ff3565b600654600160a01b900460ff166040519015158152602001610172565b600181815481106103ab57600080fd5b9060005260206000200160009150905080546103c6906115c4565b80601f01602080910402602001604051908101604052809291908181526020018280546103f2906115c4565b801561043f5780601f106104145761010080835404028352916020019161043f565b820191906000526020600020905b81548152906001019060200180831161042257829003601f168201915b505050505081565b6005546060906001600160a01b0316331461047d5760405162461bcd60e51b815260040161047490611504565b60405180910390fd5b60018281548110610490576104906115ff565b9060005260206000200180546104a5906115c4565b80601f01602080910402602001604051908101604052809291908181526020018280546104d1906115c4565b801561051e5780601f106104f35761010080835404028352916020019161051e565b820191906000526020600020905b81548152906001019060200180831161050157829003601f168201915b505050505090505b919050565b6005546060906001600160a01b031633146105585760405162461bcd60e51b815260040161047490611504565b60038281548110610490576104906115ff565b600381815481106103ab57600080fd5b60606000805461058a906115c4565b80601f01602080910402602001604051908101604052809291908181526020018280546105b6906115c4565b80156106035780601f106105d857610100808354040283529160200191610603565b820191906000526020600020905b8154815290600101906020018083116105e657829003601f168201915b5050505050905090565b6005546000906001600160a01b0316331461063a5760405162461bcd60e51b815260040161047490611504565b5060075490565b6005546001600160a01b0316331461066b5760405162461bcd60e51b815260040161047490611504565b805161067e9060009060208401906110e0565b5050565b6003805460018101825560009190915285516106c5917fc2575a0e9e593c00f959f8c92f12db2869c3395a3b0502d05e2516446f71f85b019060208801906110e0565b50836009866040516106d79190611410565b908152602001604051809103902060010190805190602001906106fb9291906110e0565b508260098660405161070d9190611410565b908152602001604051809103902060020190805190602001906107319291906110e0565b50816009866040516107439190611410565b908152602001604051809103902060030190805190602001906107679291906110e0565b50806009866040516107799190611410565b9081526020016040518091039020600401908051906020019061079d9291906110e0565b505050505050565b6005546060906001600160a01b031633146107d25760405162461bcd60e51b815260040161047490611504565b60028281548110610490576104906115ff565b6005546001600160a01b0316331461080f5760405162461bcd60e51b815260040161047490611504565b6000908152600a60205260409020805460ff19166001179055565b6005546000906001600160a01b031633146108575760405162461bcd60e51b815260040161047490611504565b6008826040516108679190611410565b9081526020016040518091039020549050919050565b6005546000906001600160a01b031633146108aa5760405162461bcd60e51b815260040161047490611504565b5060035490565b6005546000906001600160a01b031633146108de5760405162461bcd60e51b815260040161047490611504565b5060015490565b6005546000906001600160a01b031633146109125760405162461bcd60e51b815260040161047490611504565b6000828152600a602052604090205460ff1661052657506000908152600a602052604090205461010090046001600160a01b031690565b600281815481106103ab57600080fd5b6005546060908190819081906001600160a01b0316331461098c5760405162461bcd60e51b815260040161047490611504565b60098560405161099c9190611410565b90815260200160405180910390206001016009866040516109bd9190611410565b90815260200160405180910390206002016009876040516109de9190611410565b90815260200160405180910390206003016009886040516109ff9190611410565b9081526020016040518091039020600401838054610a1c906115c4565b80601f0160208091040260200160405190810160405280929190818152602001828054610a48906115c4565b8015610a955780601f10610a6a57610100808354040283529160200191610a95565b820191906000526020600020905b815481529060010190602001808311610a7857829003601f168201915b50505050509350828054610aa8906115c4565b80601f0160208091040260200160405190810160405280929190818152602001828054610ad4906115c4565b8015610b215780601f10610af657610100808354040283529160200191610b21565b820191906000526020600020905b815481529060010190602001808311610b0457829003601f168201915b50505050509250818054610b34906115c4565b80601f0160208091040260200160405190810160405280929190818152602001828054610b60906115c4565b8015610bad5780601f10610b8257610100808354040283529160200191610bad565b820191906000526020600020905b815481529060010190602001808311610b9057829003601f168201915b50505050509150808054610bc0906115c4565b80601f0160208091040260200160405190810160405280929190818152602001828054610bec906115c4565b8015610c395780601f10610c0e57610100808354040283529160200191610c39565b820191906000526020600020905b815481529060010190602001808311610c1c57829003601f168201915b5050505050905093509350935093509193509193565b6006546001600160a01b03163314610c795760405162461bcd60e51b815260040161047490611504565b60068054911515600160a01b0260ff60a01b19909216919091179055565b8051602081830181018051600982529282019190930120915280548190610cbd906115c4565b80601f0160208091040260200160405190810160405280929190818152602001828054610ce9906115c4565b8015610d365780601f10610d0b57610100808354040283529160200191610d36565b820191906000526020600020905b815481529060010190602001808311610d1957829003601f168201915b505050505090806001018054610d4b906115c4565b80601f0160208091040260200160405190810160405280929190818152602001828054610d77906115c4565b8015610dc45780601f10610d9957610100808354040283529160200191610dc4565b820191906000526020600020905b815481529060010190602001808311610da757829003601f168201915b505050505090806002018054610dd9906115c4565b80601f0160208091040260200160405190810160405280929190818152602001828054610e05906115c4565b8015610e525780601f10610e2757610100808354040283529160200191610e52565b820191906000526020600020905b815481529060010190602001808311610e3557829003601f168201915b505050505090806003018054610e67906115c4565b80601f0160208091040260200160405190810160405280929190818152602001828054610e93906115c4565b8015610ee05780601f10610eb557610100808354040283529160200191610ee0565b820191906000526020600020905b815481529060010190602001808311610ec357829003601f168201915b505050505090806004018054610ef5906115c4565b80601f0160208091040260200160405190810160405280929190818152602001828054610f21906115c4565b8015610f6e5780601f10610f4357610100808354040283529160200191610f6e565b820191906000526020600020905b815481529060010190602001808311610f5157829003601f168201915b5050505050905085565b6006546001600160a01b03163314610fa25760405162461bcd60e51b815260040161047490611504565b600780546000908152600a60205260408082208054610100600160a81b0319166101006001600160a01b03871602179055825482529020805460ff1916905554610fed90600161156e565b60075550565b6001546040518190600890611009908690611410565b9081526040516020918190038201902091909155600280546001810182556000919091528351611060927f405787fa12a823e0f2b7631cc41b3ba8828b3321ca811111fa75cd3aa3bb5ace909201918501906110e0565b5060018054808201825560009190915283516110a3917fb10e2d527612073b26eecdfd717e6a320cf44b4afac2b0732d9fcbe2b7fa0cf6019060208601906110e0565b507fc9d3eebce49314de171aef180ee3d8275f98728488db5fe2835492be5b5a0556836040516110d3919061142c565b60405180910390a1505050565b8280546110ec906115c4565b90600052602060002090601f01602090048101928261110e5760008555611154565b82601f1061112757805160ff1916838001178555611154565b82800160010185558215611154579182015b82811115611154578251825591602001919060010190611139565b50611160929150611164565b5090565b5b808211156111605760008155600101611165565b600082601f83011261118a57600080fd5b813567ffffffffffffffff808211156111a5576111a5611615565b604051601f8301601f19908116603f011681019082821181831017156111cd576111cd611615565b816040528381528660208588010111156111e657600080fd5b836020870160208301376000602085830101528094505050505092915050565b60006020828403121561121857600080fd5b81356001600160a01b038116811461122f57600080fd5b9392505050565b60006020828403121561124857600080fd5b8135801515811461122f57600080fd5b60006020828403121561126a57600080fd5b813567ffffffffffffffff81111561128157600080fd5b61128d84828501611179565b949350505050565b600080604083850312156112a857600080fd5b823567ffffffffffffffff808211156112c057600080fd5b6112cc86838701611179565b935060208501359150808211156112e257600080fd5b506112ef85828601611179565b9150509250929050565b600080600080600060a0868803121561131157600080fd5b853567ffffffffffffffff8082111561132957600080fd5b61133589838a01611179565b9650602088013591508082111561134b57600080fd5b61135789838a01611179565b9550604088013591508082111561136d57600080fd5b61137989838a01611179565b9450606088013591508082111561138f57600080fd5b61139b89838a01611179565b935060808801359150808211156113b157600080fd5b506113be88828901611179565b9150509295509295909350565b6000602082840312156113dd57600080fd5b5035919050565b600081518084526113fc816020860160208601611594565b601f01601f19169290920160200192915050565b60008251611422818460208701611594565b9190910192915050565b60208152600061122f60208301846113e4565b60808152600061145260808301876113e4565b828103602084015261146481876113e4565b9050828103604084015261147881866113e4565b9050828103606084015261148c81856113e4565b979650505050505050565b60a0815260006114aa60a08301886113e4565b82810360208401526114bc81886113e4565b905082810360408401526114d081876113e4565b905082810360608401526114e481866113e4565b905082810360808401526114f881856113e4565b98975050505050505050565b60208082526044908201527f4c2761647265736120717565206861207265616c69747a6174206c612063726960408201527f6461206e6f20746520656c73207065726d6973736f732064652070726f7069656060820152633a30ba1760e11b608082015260a00190565b6000821982111561158f57634e487b7160e01b600052601160045260246000fd5b500190565b60005b838110156115af578181015183820152602001611597565b838111156115be576000848401525b50505050565b600181811c908216806115d857607f821691505b602082108114156115f957634e487b7160e01b600052602260045260246000fd5b50919050565b634e487b7160e01b600052603260045260246000fd5b634e487b7160e01b600052604160045260246000fdfea2646970667358221220aa942683dedd4d0bae96f0d6352d402b864e41da34d371bd801497c467e5fe0d64736f6c63430008060033608060405234801561001057600080fd5b5060405161046638038061046683398101604081905261002f91610060565b600080546001600160a01b039384166001600160a01b031991821617909155600280549290931691161790556100b2565b6000806040838503121561007357600080fd5b825161007e8161009a565b602084015190925061008f8161009a565b809150509250929050565b6001600160a01b03811681146100af57600080fd5b50565b6103a5806100c16000396000f3fe608060405234801561001057600080fd5b50600436106100365760003560e01c80632b68b9c61461003b578063349d6f7c14610045575b600080fd5b610043610058565b005b6100436100533660046101f2565b610099565b6002546001600160a01b0316331461008b5760405162461bcd60e51b8152600401610082906102ef565b60405180910390fd5b6000546001600160a01b0316ff5b6000546001600160a01b031633146100c35760405162461bcd60e51b8152600401610082906102ef565b60405163f6a0576d60e01b81526001600160a01b0384169063f6a0576d906100f190859085906004016102c1565b600060405180830381600087803b15801561010b57600080fd5b505af115801561011f573d6000803e3d6000fd5b50506040516001600160a01b03861681527ff3c2359da4b62ab6d95f9cbe80f73519366be835dff25574414cf316ecc00af79250602001905060405180910390a1505050565b600082601f83011261017657600080fd5b813567ffffffffffffffff8082111561019157610191610359565b604051601f8301601f19908116603f011681019082821181831017156101b9576101b9610359565b816040528381528660208588010111156101d257600080fd5b836020870160208301376000602085830101528094505050505092915050565b60008060006060848603121561020757600080fd5b83356001600160a01b038116811461021e57600080fd5b9250602084013567ffffffffffffffff8082111561023b57600080fd5b61024787838801610165565b9350604086013591508082111561025d57600080fd5b5061026a86828701610165565b9150509250925092565b6000815180845260005b8181101561029a5760208185018101518683018201520161027e565b818111156102ac576000602083870101525b50601f01601f19169290920160200192915050565b6040815260006102d46040830185610274565b82810360208401526102e68185610274565b95945050505050565b60208082526044908201527f4c2761647265736120717565206861207265616c69747a6174206c612063726960408201527f6461206e6f20746520656c73207065726d6973736f732064652070726f7069656060820152633a30ba1760e11b608082015260a00190565b634e487b7160e01b600052604160045260246000fdfea264697066735822122050bc5f33c98afc74b24c0ba0356032fb4a09a617abeaaefe4e97d39767ec694064736f6c63430008060033a2646970667358221220c78e2dd652fde257a395f074b53aa26dabd96b0b9915419ae322386caa1218d764736f6c63430008060033",
    "sourcePath": "c:/Users/Usuario/Documents/UIB/TFG/Covid-Pasport-master/contracts/pasport_sc.sol",
    "compiler": {
        "name": "solc",
        "version": "0.8.6+commit.11564f7e"
    },
    "functionHashes": {
        "Active_Labs(uint256)": "c0632116",
        "Active_Users(uint256)": "ef0b39c4",
        "Entity(bool,address)": "94af50e6",
        "Lab(address)": "a3d1594e",
        "deleteLab(address,address)": "60259fe9",
        "denySol(uint256)": "9e9c7473",
        "getAliceDocs(address,address)": "3880997e",
        "getLabName(address)": "887ca0d3",
        "getLabSC(address)": "97ed6460",
        "getLabState(address)": "41fd25b3",
        "getLabsCount()": "cf64cd82",
        "getNumRequests()": "4b8cd041",
        "getUserSC(address)": "f4e7f8fa",
        "obtainRequests(uint256)": "c2713967",
        "registerLab(address,string)": "489c3483",
        "registerUser(address,string)": "0ea126f9",
        "requests(uint256)": "81d12c58",
        "resolveAliceDocs(uint256)": "7bc90108",
        "userSC(address)": "3befa1b8"
    },
    "gasEstimates": {
        "creation": {
            "codeDepositCost": "2560000",
            "executionCost": "56237",
            "totalCost": "2616237"
        },
        "external": {
            "Active_Labs(uint256)": "4625",
            "Active_Users(uint256)": "4691",
            "Entity(bool,address)": "infinite",
            "Lab(address)": "infinite",
            "deleteLab(address,address)": "infinite",
            "denySol(uint256)": "28885",
            "getAliceDocs(address,address)": "infinite",
            "getLabName(address)": "infinite",
            "getLabSC(address)": "6936",
            "getLabState(address)": "6941",
            "getLabsCount()": "6663",
            "getNumRequests()": "6642",
            "getUserSC(address)": "2660",
            "obtainRequests(uint256)": "11190",
            "registerLab(address,string)": "infinite",
            "registerUser(address,string)": "infinite",
            "requests(uint256)": "4786",
            "resolveAliceDocs(uint256)": "infinite",
            "userSC(address)": "2609"
        }
    }
}