{
    "contractName": "who",
    "abi": [
        {
            "anonymous": false,
            "inputs": [
                {
                    "indexed": false,
                    "internalType": "address",
                    "name": "",
                    "type": "address"
                },
                {
                    "indexed": false,
                    "internalType": "bool",
                    "name": "",
                    "type": "bool"
                }
            ],
            "name": "entity",
            "type": "event"
        },
        {
            "anonymous": false,
            "inputs": [
                {
                    "indexed": false,
                    "internalType": "string",
                    "name": "",
                    "type": "string"
                },
                {
                    "indexed": false,
                    "internalType": "address",
                    "name": "",
                    "type": "address"
                }
            ],
            "name": "newLab",
            "type": "event"
        },
        {
            "anonymous": false,
            "inputs": [
                {
                    "indexed": false,
                    "internalType": "address",
                    "name": "",
                    "type": "address"
                }
            ],
            "name": "new_User",
            "type": "event"
        },
        {
            "inputs": [
                {
                    "internalType": "uint256",
                    "name": "",
                    "type": "uint256"
                }
            ],
            "name": "Active_Labs",
            "outputs": [
                {
                    "internalType": "address",
                    "name": "",
                    "type": "address"
                }
            ],
            "stateMutability": "view",
            "type": "function"
        },
        {
            "inputs": [
                {
                    "internalType": "uint256",
                    "name": "",
                    "type": "uint256"
                }
            ],
            "name": "Active_Users",
            "outputs": [
                {
                    "internalType": "address",
                    "name": "",
                    "type": "address"
                }
            ],
            "stateMutability": "view",
            "type": "function"
        },
        {
            "inputs": [
                {
                    "internalType": "bool",
                    "name": "active",
                    "type": "bool"
                },
                {
                    "internalType": "address",
                    "name": "_entityAdr",
                    "type": "address"
                }
            ],
            "name": "Entity",
            "outputs": [],
            "stateMutability": "nonpayable",
            "type": "function"
        },
        {
            "inputs": [
                {
                    "internalType": "address",
                    "name": "",
                    "type": "address"
                }
            ],
            "name": "Lab",
            "outputs": [
                {
                    "internalType": "string",
                    "name": "name",
                    "type": "string"
                },
                {
                    "internalType": "bool",
                    "name": "active",
                    "type": "bool"
                },
                {
                    "internalType": "address",
                    "name": "sc_adr",
                    "type": "address"
                }
            ],
            "stateMutability": "view",
            "type": "function"
        },
        {
            "inputs": [
                {
                    "internalType": "address",
                    "name": "_lab",
                    "type": "address"
                },
                {
                    "internalType": "address",
                    "name": "_sc_adr",
                    "type": "address"
                }
            ],
            "name": "deleteLab",
            "outputs": [],
            "stateMutability": "nonpayable",
            "type": "function"
        },
        {
            "inputs": [
                {
                    "internalType": "address",
                    "name": "adr_Lab",
                    "type": "address"
                }
            ],
            "name": "getLabName",
            "outputs": [
                {
                    "internalType": "string",
                    "name": "",
                    "type": "string"
                }
            ],
            "stateMutability": "view",
            "type": "function"
        },
        {
            "inputs": [
                {
                    "internalType": "address",
                    "name": "adr_Lab",
                    "type": "address"
                }
            ],
            "name": "getLabSC",
            "outputs": [
                {
                    "internalType": "address",
                    "name": "",
                    "type": "address"
                }
            ],
            "stateMutability": "view",
            "type": "function"
        },
        {
            "inputs": [
                {
                    "internalType": "address",
                    "name": "adr_Lab",
                    "type": "address"
                }
            ],
            "name": "getLabState",
            "outputs": [
                {
                    "internalType": "bool",
                    "name": "",
                    "type": "bool"
                }
            ],
            "stateMutability": "view",
            "type": "function"
        },
        {
            "inputs": [],
            "name": "getLabsCount",
            "outputs": [
                {
                    "internalType": "uint256",
                    "name": "",
                    "type": "uint256"
                }
            ],
            "stateMutability": "view",
            "type": "function"
        },
        {
            "inputs": [
                {
                    "internalType": "address",
                    "name": "adr_User",
                    "type": "address"
                }
            ],
            "name": "getUserSC",
            "outputs": [
                {
                    "internalType": "address",
                    "name": "",
                    "type": "address"
                }
            ],
            "stateMutability": "view",
            "type": "function"
        },
        {
            "inputs": [
                {
                    "internalType": "address payable",
                    "name": "_lab",
                    "type": "address"
                },
                {
                    "internalType": "string",
                    "name": "_name",
                    "type": "string"
                }
            ],
            "name": "registerLab",
            "outputs": [],
            "stateMutability": "nonpayable",
            "type": "function"
        },
        {
            "inputs": [
                {
                    "internalType": "address",
                    "name": "_owner",
                    "type": "address"
                },
                {
                    "internalType": "string",
                    "name": "_pubKey",
                    "type": "string"
                }
            ],
            "name": "registerUser",
            "outputs": [
                {
                    "internalType": "address",
                    "name": "",
                    "type": "address"
                }
            ],
            "stateMutability": "nonpayable",
            "type": "function"
        },
        {
            "inputs": [
                {
                    "internalType": "address",
                    "name": "",
                    "type": "address"
                }
            ],
            "name": "userSC",
            "outputs": [
                {
                    "internalType": "address",
                    "name": "",
                    "type": "address"
                }
            ],
            "stateMutability": "view",
            "type": "function"
        }
    ],
    "bytecode": "6080604052600080546001600160a01b0319167370f6714dca2f53a17558c5dff99d572959f77d9c17905534801561003657600080fd5b50612a53806100466000396000f3fe60806040523480156200001157600080fd5b5060043610620000e05760003560e01c806394af50e61162000097578063c0632116116200006e578063c06321161462000219578063cf64cd821462000230578063ef0b39c41462000249578063f4e7f8fa146200026057600080fd5b806394af50e614620001c357806397ed646014620001da578063a3d1594e14620001f157600080fd5b80630ea126f914620000e55780633befa1b8146200011957806341fd25b31462000145578063489c3483146200016d57806360259fe91462000186578063887ca0d3146200019d575b600080fd5b620000fc620000f636600462000b66565b62000277565b6040516001600160a01b0390911681526020015b60405180910390f35b620000fc6200012a36600462000aaf565b6004602052600090815260409020546001600160a01b031681565b6200015c6200015636600462000aaf565b62000362565b604051901515815260200162000110565b620001846200017e36600462000ad5565b620003bb565b005b620001846200019736600462000b29565b62000519565b620001b4620001ae36600462000aaf565b620005bf565b60405162000110919062000c31565b62000184620001d436600462000b79565b6200069f565b620000fc620001eb36600462000aaf565b6200078b565b620002086200020236600462000aaf565b620007e0565b604051620001109392919062000c72565b620000fc6200022a36600462000b9c565b620008a0565b6200023a620008cb565b60405190815260200162000110565b620000fc6200025a36600462000b9c565b62000900565b620000fc6200027136600462000aaf565b62000911565b600080839050600081846040516200028f906200095e565b6200029c92919062000c03565b604051809103906000f080158015620002b9573d6000803e3d6000fd5b5060028054600181019091557f405787fa12a823e0f2b7631cc41b3ba8828b3321ca811111fa75cd3aa3bb5ace0180546001600160a01b03199081166001600160a01b0386811691821790935560008181526004602090815260409182902080549094169486169490941790925590519081529192507f2449b149f88e6eb459a7d3af8ea2c659fdf1499c81539604353c270f65908aca910160405180910390a1949350505050565b600080546001600160a01b03163314620003995760405162461bcd60e51b8152600401620003909062000ca7565b60405180910390fd5b506001600160a01b031660009081526003602052604090206001015460ff1690565b6000546001600160a01b03163314620003e85760405162461bcd60e51b8152600401620003909062000ca7565b81604051620003f7906200096c565b6001600160a01b039091168152602001604051809103906000f08015801562000424573d6000803e3d6000fd5b506001600160a01b0380841660008181526003602090815260408220600180820180549790961661010002610100600160a81b03199097169690961790945584548086019095557fb10e2d527612073b26eecdfd717e6a320cf44b4afac2b0732d9fcbe2b7fa0cf690940180546001600160a01b03191683179055528251620004b0928401906200097a565b506001600160a01b038216600090815260036020526040908190206001908101805460ff19169091179055517f681d10e7ef9b9b1c9955e8cfb39c8982d63b7f4185f90016e1e0fd8563d44f8c906200050d908390859062000c46565b60405180910390a15050565b6000546001600160a01b03163314620005465760405162461bcd60e51b8152600401620003909062000ca7565b6001600160a01b03808316600090815260036020526040808220600101805460ff1916905580516315b45ce360e11b8152905192841692632b68b9c69260048084019391929182900301818387803b158015620005a257600080fd5b505af1158015620005b7573d6000803e3d6000fd5b505050505050565b6000546060906001600160a01b03163314620005ef5760405162461bcd60e51b8152600401620003909062000ca7565b6001600160a01b03821660009081526003602052604090208054620006149062000d11565b80601f0160208091040260200160405190810160405280929190818152602001828054620006429062000d11565b8015620006935780601f10620006675761010080835404028352916020019162000693565b820191906000526020600020905b8154815290600101906020018083116200067557829003601f168201915b50505050509050919050565b6000546001600160a01b03163314620006cc5760405162461bcd60e51b8152600401620003909062000ca7565b6001600160a01b03818116600090815260046020819052604091829020549151636efd971360e11b815285151591810191909152911690819063ddfb2e2690602401600060405180830381600087803b1580156200072957600080fd5b505af11580156200073e573d6000803e3d6000fd5b5050604080516001600160a01b038616815286151560208201527ffb1fe99bdd0ab633267cc6c574aa5521b20cbcb196b776b9d40b7d81f9afc554935001905060405180910390a1505050565b600080546001600160a01b03163314620007b95760405162461bcd60e51b8152600401620003909062000ca7565b506001600160a01b0390811660009081526003602052604090206001015461010090041690565b600360205260009081526040902080548190620007fd9062000d11565b80601f01602080910402602001604051908101604052809291908181526020018280546200082b9062000d11565b80156200087c5780601f1062000850576101008083540402835291602001916200087c565b820191906000526020600020905b8154815290600101906020018083116200085e57829003601f168201915b5050506001909301549192505060ff8116906001600160a01b036101009091041683565b60018181548110620008b157600080fd5b6000918252602090912001546001600160a01b0316905081565b600080546001600160a01b03163314620008f95760405162461bcd60e51b8152600401620003909062000ca7565b5060015490565b60028181548110620008b157600080fd5b600080546001600160a01b031633146200093f5760405162461bcd60e51b8152600401620003909062000ca7565b506001600160a01b039081166000908152600460205260409020541690565b6116d28062000d7e83390190565b6105ce806200245083390190565b828054620009889062000d11565b90600052602060002090601f016020900481019282620009ac5760008555620009f7565b82601f10620009c757805160ff1916838001178555620009f7565b82800160010185558215620009f7579182015b82811115620009f7578251825591602001919060010190620009da565b5062000a0592915062000a09565b5090565b5b8082111562000a05576000815560010162000a0a565b600082601f83011262000a31578081fd5b813567ffffffffffffffff8082111562000a4f5762000a4f62000d4e565b604051601f8301601f19908116603f0116810190828211818310171562000a7a5762000a7a62000d4e565b8160405283815286602085880101111562000a93578485fd5b8360208701602083013792830160200193909352509392505050565b60006020828403121562000ac1578081fd5b813562000ace8162000d64565b9392505050565b6000806040838503121562000ae8578081fd5b823562000af58162000d64565b9150602083013567ffffffffffffffff81111562000b11578182fd5b62000b1f8582860162000a20565b9150509250929050565b6000806040838503121562000b3c578182fd5b823562000b498162000d64565b9150602083013562000b5b8162000d64565b809150509250929050565b6000806040838503121562000ae8578182fd5b6000806040838503121562000b8c578182fd5b8235801515811462000b49578283fd5b60006020828403121562000bae578081fd5b5035919050565b60008151808452815b8181101562000bdc5760208185018101518683018201520162000bbe565b8181111562000bee5782602083870101525b50601f01601f19169290920160200192915050565b6001600160a01b038316815260406020820181905260009062000c299083018462000bb5565b949350505050565b60208152600062000ace602083018462000bb5565b60408152600062000c5b604083018562000bb5565b905060018060a01b03831660208301529392505050565b60608152600062000c87606083018662000bb5565b9315156020830152506001600160a01b0391909116604090910152919050565b60208082526044908201527f4c2761647265736120717565206861207265616c69747a6174206c612063726960408201527f6461206e6f20746520656c73207065726d6973736f732064652070726f7069656060820152633a30ba1760e11b608082015260a00190565b600181811c9082168062000d2657607f821691505b6020821081141562000d4857634e487b7160e01b600052602260045260246000fd5b50919050565b634e487b7160e01b600052604160045260246000fd5b6001600160a01b038116811462000d7a57600080fd5b5056fe60806040523480156200001157600080fd5b50604051620016d2380380620016d283398101604081905262000034916200012e565b600580546001600160a01b0384166001600160a01b031991821617909155600480549091163017905580516200007290600090602084019062000088565b50506005805460ff60a01b19169055506200027a565b828054620000969062000227565b90600052602060002090601f016020900481019282620000ba576000855562000105565b82601f10620000d557805160ff191683800117855562000105565b8280016001018555821562000105579182015b8281111562000105578251825591602001919060010190620000e8565b506200011392915062000117565b5090565b5b8082111562000113576000815560010162000118565b6000806040838503121562000141578182fd5b82516001600160a01b038116811462000158578283fd5b602084810151919350906001600160401b038082111562000177578384fd5b818601915086601f8301126200018b578384fd5b815181811115620001a057620001a062000264565b604051601f8201601f19908116603f01168101908382118183101715620001cb57620001cb62000264565b816040528281528986848701011115620001e3578687fd5b8693505b82841015620002065784840186015181850187015292850192620001e7565b828411156200021757868684830101525b8096505050505050509250929050565b600181811c908216806200023c57607f821691505b602082108114156200025e57634e487b7160e01b600052602260045260246000fd5b50919050565b634e487b7160e01b600052604160045260246000fd5b611448806200028a6000396000f3fe608060405234801561001057600080fd5b50600436106101215760003560e01c80637769ef3a116100ad578063d74143f211610071578063d74143f21461025a578063ddfb2e261461027d578063e2626cca14610290578063f6a0576d146102b4578063ff200d2b146102c757600080fd5b80637769ef3a146101eb5780638b5fec8f1461020c57806391aacb0114610237578063b07ce2a01461023f578063d12399e91461024757600080fd5b806345419b71116100f457806345419b71146101955780634ad02ef1146101a85780635f3d3753146101b05780636839bab0146101c557806369b4431e146101d857600080fd5b806323389c5a1461012657806330348b251461014f57806332a2c5d01461016257806336b6fd0c14610182575b600080fd5b6101396101343660046111ef565b6102e4565b604051610146919061124f565b60405180910390f35b61013961015d3660046111ef565b610390565b61016a610481565b6040516001600160a01b039091168152602001610146565b6101396101903660046111ef565b6104be565b6101396101a33660046111ef565b61050c565b61013961051c565b6101c36101be366004611087565b6105ae565b005b6101c36101d3366004611123565b6105ef565b6101396101e63660046111ef565b610712565b6101fe6101f9366004611087565b610760565b604051908152602001610146565b6101fe61021a366004611087565b805160208183018101805160068252928201919093012091525481565b6101fe6107b3565b6101fe6107e7565b6101396102553660046111ef565b61081b565b61026d610268366004611087565b61082b565b6040516101469493929190611262565b6101c361028b366004611060565b610b21565b6102a361029e366004611087565b610b72565b6040516101469594939291906112ba565b6101c36102c23660046110c2565b610e53565b600554600160a01b900460ff166040519015158152602001610146565b600181815481106102f457600080fd5b90600052602060002001600091509050805461030f906113c1565b80601f016020809104026020016040519081016040528092919081815260200182805461033b906113c1565b80156103885780601f1061035d57610100808354040283529160200191610388565b820191906000526020600020905b81548152906001019060200180831161036b57829003601f168201915b505050505081565b6005546060906001600160a01b031633146103c65760405162461bcd60e51b81526004016103bd90611327565b60405180910390fd5b600182815481106103e757634e487b7160e01b600052603260045260246000fd5b9060005260206000200180546103fc906113c1565b80601f0160208091040260200160405190810160405280929190818152602001828054610428906113c1565b80156104755780601f1061044a57610100808354040283529160200191610475565b820191906000526020600020905b81548152906001019060200180831161045857829003601f168201915b50505050509050919050565b6005546000906001600160a01b031633146104ae5760405162461bcd60e51b81526004016103bd90611327565b506004546001600160a01b031690565b6005546060906001600160a01b031633146104eb5760405162461bcd60e51b81526004016103bd90611327565b600382815481106103e757634e487b7160e01b600052603260045260246000fd5b600381815481106102f457600080fd5b60606000805461052b906113c1565b80601f0160208091040260200160405190810160405280929190818152602001828054610557906113c1565b80156105a45780601f10610579576101008083540402835291602001916105a4565b820191906000526020600020905b81548152906001019060200180831161058757829003601f168201915b5050505050905090565b6005546001600160a01b031633146105d85760405162461bcd60e51b81526004016103bd90611327565b80516105eb906000906020840190610f40565b5050565b600380546001810182556000919091528551610632917fc2575a0e9e593c00f959f8c92f12db2869c3395a3b0502d05e2516446f71f85b01906020880190610f40565b50836007866040516106449190611233565b90815260200160405180910390206001019080519060200190610668929190610f40565b508260078660405161067a9190611233565b9081526020016040518091039020600201908051906020019061069e929190610f40565b50816007866040516106b09190611233565b908152602001604051809103902060030190805190602001906106d4929190610f40565b50806007866040516106e69190611233565b9081526020016040518091039020600401908051906020019061070a929190610f40565b505050505050565b6005546060906001600160a01b0316331461073f5760405162461bcd60e51b81526004016103bd90611327565b600282815481106103e757634e487b7160e01b600052603260045260246000fd5b6005546000906001600160a01b0316331461078d5760405162461bcd60e51b81526004016103bd90611327565b60068260405161079d9190611233565b9081526020016040518091039020549050919050565b6005546000906001600160a01b031633146107e05760405162461bcd60e51b81526004016103bd90611327565b5060035490565b6005546000906001600160a01b031633146108145760405162461bcd60e51b81526004016103bd90611327565b5060015490565b600281815481106102f457600080fd5b6005546060908190819081906001600160a01b0316331461085e5760405162461bcd60e51b81526004016103bd90611327565b60078560405161086e9190611233565b908152602001604051809103902060010160078660405161088f9190611233565b90815260200160405180910390206002016007876040516108b09190611233565b90815260200160405180910390206003016007886040516108d19190611233565b90815260200160405180910390206004018380546108ee906113c1565b80601f016020809104026020016040519081016040528092919081815260200182805461091a906113c1565b80156109675780601f1061093c57610100808354040283529160200191610967565b820191906000526020600020905b81548152906001019060200180831161094a57829003601f168201915b5050505050935082805461097a906113c1565b80601f01602080910402602001604051908101604052809291908181526020018280546109a6906113c1565b80156109f35780601f106109c8576101008083540402835291602001916109f3565b820191906000526020600020905b8154815290600101906020018083116109d657829003601f168201915b50505050509250818054610a06906113c1565b80601f0160208091040260200160405190810160405280929190818152602001828054610a32906113c1565b8015610a7f5780601f10610a5457610100808354040283529160200191610a7f565b820191906000526020600020905b815481529060010190602001808311610a6257829003601f168201915b50505050509150808054610a92906113c1565b80601f0160208091040260200160405190810160405280929190818152602001828054610abe906113c1565b8015610b0b5780601f10610ae057610100808354040283529160200191610b0b565b820191906000526020600020905b815481529060010190602001808311610aee57829003601f168201915b5050505050905093509350935093509193509193565b7370f6714dca2f53a17558c5dff99d572959f77d9c3314610b545760405162461bcd60e51b81526004016103bd90611327565b60058054911515600160a01b0260ff60a01b19909216919091179055565b8051602081830181018051600782529282019190930120915280548190610b98906113c1565b80601f0160208091040260200160405190810160405280929190818152602001828054610bc4906113c1565b8015610c115780601f10610be657610100808354040283529160200191610c11565b820191906000526020600020905b815481529060010190602001808311610bf457829003601f168201915b505050505090806001018054610c26906113c1565b80601f0160208091040260200160405190810160405280929190818152602001828054610c52906113c1565b8015610c9f5780601f10610c7457610100808354040283529160200191610c9f565b820191906000526020600020905b815481529060010190602001808311610c8257829003601f168201915b505050505090806002018054610cb4906113c1565b80601f0160208091040260200160405190810160405280929190818152602001828054610ce0906113c1565b8015610d2d5780601f10610d0257610100808354040283529160200191610d2d565b820191906000526020600020905b815481529060010190602001808311610d1057829003601f168201915b505050505090806003018054610d42906113c1565b80601f0160208091040260200160405190810160405280929190818152602001828054610d6e906113c1565b8015610dbb5780601f10610d9057610100808354040283529160200191610dbb565b820191906000526020600020905b815481529060010190602001808311610d9e57829003601f168201915b505050505090806004018054610dd0906113c1565b80601f0160208091040260200160405190810160405280929190818152602001828054610dfc906113c1565b8015610e495780601f10610e1e57610100808354040283529160200191610e49565b820191906000526020600020905b815481529060010190602001808311610e2c57829003601f168201915b5050505050905085565b6003546040518190600690610e69908690611233565b9081526040516020918190038201902091909155600280546001810182556000919091528351610ec0927f405787fa12a823e0f2b7631cc41b3ba8828b3321ca811111fa75cd3aa3bb5ace90920191850190610f40565b506001805480820182556000919091528351610f03917fb10e2d527612073b26eecdfd717e6a320cf44b4afac2b0732d9fcbe2b7fa0cf601906020860190610f40565b507fc9d3eebce49314de171aef180ee3d8275f98728488db5fe2835492be5b5a055683604051610f33919061124f565b60405180910390a1505050565b828054610f4c906113c1565b90600052602060002090601f016020900481019282610f6e5760008555610fb4565b82601f10610f8757805160ff1916838001178555610fb4565b82800160010185558215610fb4579182015b82811115610fb4578251825591602001919060010190610f99565b50610fc0929150610fc4565b5090565b5b80821115610fc05760008155600101610fc5565b600082601f830112610fe9578081fd5b813567ffffffffffffffff80821115611004576110046113fc565b604051601f8301601f19908116603f0116810190828211818310171561102c5761102c6113fc565b81604052838152866020858801011115611044578485fd5b8360208701602083013792830160200193909352509392505050565b600060208284031215611071578081fd5b81358015158114611080578182fd5b9392505050565b600060208284031215611098578081fd5b813567ffffffffffffffff8111156110ae578182fd5b6110ba84828501610fd9565b949350505050565b600080604083850312156110d4578081fd5b823567ffffffffffffffff808211156110eb578283fd5b6110f786838701610fd9565b9350602085013591508082111561110c578283fd5b5061111985828601610fd9565b9150509250929050565b600080600080600060a0868803121561113a578081fd5b853567ffffffffffffffff80821115611151578283fd5b61115d89838a01610fd9565b96506020880135915080821115611172578283fd5b61117e89838a01610fd9565b95506040880135915080821115611193578283fd5b61119f89838a01610fd9565b945060608801359150808211156111b4578283fd5b6111c089838a01610fd9565b935060808801359150808211156111d5578283fd5b506111e288828901610fd9565b9150509295509295909350565b600060208284031215611200578081fd5b5035919050565b6000815180845261121f816020860160208601611391565b601f01601f19169290920160200192915050565b60008251611245818460208701611391565b9190910192915050565b6020815260006110806020830184611207565b6080815260006112756080830187611207565b82810360208401526112878187611207565b9050828103604084015261129b8186611207565b905082810360608401526112af8185611207565b979650505050505050565b60a0815260006112cd60a0830188611207565b82810360208401526112df8188611207565b905082810360408401526112f38187611207565b905082810360608401526113078186611207565b9050828103608084015261131b8185611207565b98975050505050505050565b60208082526044908201527f4c2761647265736120717565206861207265616c69747a6174206c612063726960408201527f6461206e6f20746520656c73207065726d6973736f732064652070726f7069656060820152633a30ba1760e11b608082015260a00190565b60005b838110156113ac578181015183820152602001611394565b838111156113bb576000848401525b50505050565b600181811c908216806113d557607f821691505b602082108114156113f657634e487b7160e01b600052602260045260246000fd5b50919050565b634e487b7160e01b600052604160045260246000fdfea2646970667358221220888bfd429e104fafc8a35d40d92be87d8eda623f0c2df01b5cd5427b80711c1d64736f6c63430008040033608060405234801561001057600080fd5b506040516105ce3803806105ce83398101604081905261002f9161005d565b600080546001600160a01b039092166001600160a01b0319928316179055600180549091163017905561008b565b60006020828403121561006e578081fd5b81516001600160a01b0381168114610084578182fd5b9392505050565b6105348061009a6000396000f3fe608060405234801561001057600080fd5b50600436106100415760003560e01c80632b68b9c614610046578063349d6f7c14610050578063893d20e814610079575b600080fd5b61004e610094565b005b61006361005e36600461039c565b6100a2565b6040516100709190610465565b60405180910390f35b6000546040516001600160a01b039091168152602001610070565b6000546001600160a01b0316ff5b6000546060906001600160a01b031633146101375760405162461bcd60e51b8152602060048201526044602482018190527f4c2761647265736120717565206861207265616c69747a6174206c6120637269908201527f6461206e6f20746520656c73207065726d6973736f732064652070726f7069656064820152633a30ba1760e11b608482015260a40160405180910390fd5b825161014a90600290602086019061027c565b5060405163f6a0576d60e01b81526001600160a01b0385169063f6a0576d90610179908690869060040161047f565b600060405180830381600087803b15801561019357600080fd5b505af11580156101a7573d6000803e3d6000fd5b50506040516001600160a01b03871681527ff3c2359da4b62ab6d95f9cbe80f73519366be835dff25574414cf316ecc00af79250602001905060405180910390a1600280546101f5906104ad565b80601f0160208091040260200160405190810160405280929190818152602001828054610221906104ad565b801561026e5780601f106102435761010080835404028352916020019161026e565b820191906000526020600020905b81548152906001019060200180831161025157829003601f168201915b505050505090509392505050565b828054610288906104ad565b90600052602060002090601f0160209004810192826102aa57600085556102f0565b82601f106102c357805160ff19168380011785556102f0565b828001600101855582156102f0579182015b828111156102f05782518255916020019190600101906102d5565b506102fc929150610300565b5090565b5b808211156102fc5760008155600101610301565b600082601f830112610325578081fd5b813567ffffffffffffffff80821115610340576103406104e8565b604051601f8301601f19908116603f01168101908282118183101715610368576103686104e8565b81604052838152866020858801011115610380578485fd5b8360208701602083013792830160200193909352509392505050565b6000806000606084860312156103b0578283fd5b83356001600160a01b03811681146103c6578384fd5b9250602084013567ffffffffffffffff808211156103e2578384fd5b6103ee87838801610315565b93506040860135915080821115610403578283fd5b5061041086828701610315565b9150509250925092565b60008151808452815b8181101561043f57602081850181015186830182015201610423565b818111156104505782602083870101525b50601f01601f19169290920160200192915050565b602081526000610478602083018461041a565b9392505050565b604081526000610492604083018561041a565b82810360208401526104a4818561041a565b95945050505050565b600181811c908216806104c157607f821691505b602082108114156104e257634e487b7160e01b600052602260045260246000fd5b50919050565b634e487b7160e01b600052604160045260246000fdfea26469706673582212208cdbce3c2c745724e04e2e5aab64273da640b2ab040f1ade86e1300636f2208564736f6c63430008040033a2646970667358221220e0d671b63f01e597fef4c94339c7b413d896cf95a774042905dd63e615be75bc64736f6c63430008040033",
    "sourcePath": "c:/Users/Usuario/Documents/UIB/TFG/Covid-Pasport-master/contracts/pasport_sc.sol",
    "compiler": {
        "name": "solc",
        "version": "0.8.4+commit.c7e474f2"
    },
    "functionHashes": {
        "Active_Labs(uint256)": "c0632116",
        "Active_Users(uint256)": "ef0b39c4",
        "Entity(bool,address)": "94af50e6",
        "Lab(address)": "a3d1594e",
        "deleteLab(address,address)": "60259fe9",
        "getLabName(address)": "887ca0d3",
        "getLabSC(address)": "97ed6460",
        "getLabState(address)": "41fd25b3",
        "getLabsCount()": "cf64cd82",
        "getUserSC(address)": "f4e7f8fa",
        "registerLab(address,string)": "489c3483",
        "registerUser(address,string)": "0ea126f9",
        "userSC(address)": "3befa1b8"
    },
    "gasEstimates": {
        "creation": {
            "codeDepositCost": "2167000",
            "executionCost": "23145",
            "totalCost": "2190145"
        },
        "external": {
            "Active_Labs(uint256)": "2025",
            "Active_Users(uint256)": "2069",
            "Entity(bool,address)": "infinite",
            "Lab(address)": "infinite",
            "deleteLab(address,address)": "infinite",
            "getLabName(address)": "infinite",
            "getLabSC(address)": "2169",
            "getLabState(address)": "2151",
            "getLabsCount()": "1896",
            "getUserSC(address)": "2195",
            "registerLab(address,string)": "infinite",
            "registerUser(address,string)": "infinite",
            "userSC(address)": "1264"
        }
    }
}