{
  "_format": "hh-sol-artifact-1",
  "contractName": "lab",
  "sourceName": "contracts/pasport_sc.sol",
  "abi": [
    {
      "inputs": [
        {
          "internalType": "address payable",
          "name": "_lab",
          "type": "address"
        },
        {
          "internalType": "address",
          "name": "_whoSC_Addr",
          "type": "address"
        }
      ],
      "stateMutability": "nonpayable",
      "type": "constructor"
    },
    {
      "anonymous": false,
      "inputs": [
        {
          "indexed": false,
          "internalType": "address",
          "name": "",
          "type": "address"
        }
      ],
      "name": "labRemoval",
      "type": "event"
    },
    {
      "anonymous": false,
      "inputs": [
        {
          "indexed": false,
          "internalType": "address",
          "name": "",
          "type": "address"
        }
      ],
      "name": "newDocument",
      "type": "event"
    },
    {
      "inputs": [],
      "name": "destruct",
      "outputs": [],
      "stateMutability": "nonpayable",
      "type": "function"
    },
    {
      "inputs": [],
      "name": "getOwner",
      "outputs": [
        {
          "internalType": "address",
          "name": "labOwner",
          "type": "address"
        }
      ],
      "stateMutability": "view",
      "type": "function"
    },
    {
      "inputs": [
        {
          "internalType": "address",
          "name": "_alice_SC_Adr",
          "type": "address"
        },
        {
          "internalType": "string",
          "name": "_hashDoc",
          "type": "string"
        },
        {
          "internalType": "string",
          "name": "_capsule",
          "type": "string"
        }
      ],
      "name": "uploadCert",
      "outputs": [],
      "stateMutability": "nonpayable",
      "type": "function"
    }
  ],
  "bytecode": "0x608060405234801561001057600080fd5b506040516104fd3803806104fd8339818101604052604081101561003357600080fd5b508051602090910151600080546001600160a01b039384166001600160a01b031991821617909155600280549390921692169190911790556104838061007a6000396000f3fe608060405234801561001057600080fd5b50600436106100415760003560e01c80632b68b9c61461004657806363bf703e14610050578063893d20e81461018d575b600080fd5b61004e6101b1565b005b61004e6004803603606081101561006657600080fd5b6001600160a01b03823516919081019060408101602082013564010000000081111561009157600080fd5b8201836020820111156100a357600080fd5b803590602001918460018302840111640100000000831117156100c557600080fd5b91908080601f016020809104026020016040519081016040528093929190818152602001838380828437600092019190915250929594936020810193503591505064010000000081111561011857600080fd5b82018360208201111561012a57600080fd5b8035906020019184600183028401116401000000008311171561014c57600080fd5b91908080601f016020809104026020016040519081016040528093929190818152602001838380828437600092019190915250929550610247945050505050565b6101956103fa565b604080516001600160a01b039092168252519081900360200190f35b6002546001600160a01b031633146101fa5760405162461bcd60e51b815260040180806020018281038252604481526020018061040a6044913960600191505060405180910390fd5b600054604080516001600160a01b039092168252517f55547a22c7e9b5d3a54dfb4f6ac739551847561a3347b7484040455fc8b188949181900360200190a16000546001600160a01b0316ff5b6000546001600160a01b031633146102905760405162461bcd60e51b815260040180806020018281038252604481526020018061040a6044913960600191505060405180910390fd5b6040805163f6a0576d60e01b8152600481019182528351604482015283516001600160a01b0386169263f6a0576d9286928692918291602482019160640190602087019080838360005b838110156102f25781810151838201526020016102da565b50505050905090810190601f16801561031f5780820380516001836020036101000a031916815260200191505b50838103825284518152845160209182019186019080838360005b8381101561035257818101518382015260200161033a565b50505050905090810190601f16801561037f5780820380516001836020036101000a031916815260200191505b50945050505050600060405180830381600087803b1580156103a057600080fd5b505af11580156103b4573d6000803e3d6000fd5b5050604080516001600160a01b038716815290517ff3c2359da4b62ab6d95f9cbe80f73519366be835dff25574414cf316ecc00af79350908190036020019150a1505050565b6000546001600160a01b03169056fe4c2761647265736120717565206861207265616c69747a6174206c61206372696461206e6f20746520656c73207065726d6973736f732064652070726f7069657461742ea2646970667358221220b999c4931419fb53510d935b8d7b99f7c553a7cf20a95264739e5b52ea216a8164736f6c63430007060033",
  "linkReferences": {},
  "deployedLinkReferences": {}
}