{
  "_format": "hh-sol-artifact-1",
  "contractName": "user",
  "sourceName": "contracts/pasport_sc.sol",
  "abi": [
    {
      "inputs": [
        {
          "internalType": "address",
          "name": "_owner",
          "type": "address"
        },
        {
          "internalType": "string",
          "name": "_pubKey",
          "type": "string"
        },
        {
          "internalType": "address",
          "name": "_whoSC_Addr",
          "type": "address"
        }
      ],
      "stateMutability": "nonpayable",
      "type": "constructor"
    },
    {
      "inputs": [
        {
          "internalType": "bool",
          "name": "_active",
          "type": "bool"
        }
      ],
      "name": "activeEntity",
      "outputs": [],
      "stateMutability": "nonpayable",
      "type": "function"
    },
    {
      "inputs": [
        {
          "internalType": "uint256",
          "name": "",
          "type": "uint256"
        }
      ],
      "name": "capsule",
      "outputs": [
        {
          "internalType": "string",
          "name": "",
          "type": "string"
        }
      ],
      "stateMutability": "view",
      "type": "function"
    },
    {
      "inputs": [
        {
          "internalType": "uint256",
          "name": "",
          "type": "uint256"
        }
      ],
      "name": "docs",
      "outputs": [
        {
          "internalType": "string",
          "name": "",
          "type": "string"
        }
      ],
      "stateMutability": "view",
      "type": "function"
    },
    {
      "inputs": [
        {
          "internalType": "string",
          "name": "",
          "type": "string"
        }
      ],
      "name": "extDocParams",
      "outputs": [
        {
          "internalType": "string",
          "name": "exthash",
          "type": "string"
        },
        {
          "internalType": "string",
          "name": "extPubKey",
          "type": "string"
        },
        {
          "internalType": "string",
          "name": "capsule",
          "type": "string"
        },
        {
          "internalType": "string",
          "name": "kfrag0",
          "type": "string"
        },
        {
          "internalType": "string",
          "name": "verifyingKey",
          "type": "string"
        }
      ],
      "stateMutability": "view",
      "type": "function"
    },
    {
      "inputs": [
        {
          "internalType": "uint256",
          "name": "",
          "type": "uint256"
        }
      ],
      "name": "extDocs",
      "outputs": [
        {
          "internalType": "string",
          "name": "",
          "type": "string"
        }
      ],
      "stateMutability": "view",
      "type": "function"
    },
    {
      "inputs": [
        {
          "internalType": "uint256",
          "name": "_index",
          "type": "uint256"
        }
      ],
      "name": "getDocsInfo",
      "outputs": [
        {
          "internalType": "string",
          "name": "",
          "type": "string"
        },
        {
          "internalType": "string",
          "name": "",
          "type": "string"
        }
      ],
      "stateMutability": "view",
      "type": "function"
    },
    {
      "inputs": [],
      "name": "getEntity",
      "outputs": [
        {
          "internalType": "bool",
          "name": "",
          "type": "bool"
        }
      ],
      "stateMutability": "view",
      "type": "function"
    },
    {
      "inputs": [
        {
          "internalType": "uint256",
          "name": "_index",
          "type": "uint256"
        }
      ],
      "name": "getExtDocs",
      "outputs": [
        {
          "internalType": "string",
          "name": "",
          "type": "string"
        }
      ],
      "stateMutability": "view",
      "type": "function"
    },
    {
      "inputs": [
        {
          "internalType": "string",
          "name": "_hash",
          "type": "string"
        }
      ],
      "name": "getExtInfo",
      "outputs": [
        {
          "internalType": "string",
          "name": "",
          "type": "string"
        },
        {
          "internalType": "string",
          "name": "",
          "type": "string"
        },
        {
          "internalType": "string",
          "name": "",
          "type": "string"
        },
        {
          "internalType": "string",
          "name": "",
          "type": "string"
        }
      ],
      "stateMutability": "view",
      "type": "function"
    },
    {
      "inputs": [
        {
          "internalType": "string",
          "name": "_hash",
          "type": "string"
        }
      ],
      "name": "getIndexDoc",
      "outputs": [
        {
          "internalType": "uint256",
          "name": "index",
          "type": "uint256"
        }
      ],
      "stateMutability": "view",
      "type": "function"
    },
    {
      "inputs": [],
      "name": "getNumRequests",
      "outputs": [
        {
          "internalType": "uint256",
          "name": "",
          "type": "uint256"
        }
      ],
      "stateMutability": "view",
      "type": "function"
    },
    {
      "inputs": [],
      "name": "getPubKey",
      "outputs": [
        {
          "internalType": "string",
          "name": "publicKey",
          "type": "string"
        }
      ],
      "stateMutability": "view",
      "type": "function"
    },
    {
      "inputs": [
        {
          "internalType": "string",
          "name": "",
          "type": "string"
        }
      ],
      "name": "indexDocs",
      "outputs": [
        {
          "internalType": "uint256",
          "name": "",
          "type": "uint256"
        }
      ],
      "stateMutability": "view",
      "type": "function"
    },
    {
      "inputs": [],
      "name": "lengthDocArray",
      "outputs": [
        {
          "internalType": "uint256",
          "name": "",
          "type": "uint256"
        }
      ],
      "stateMutability": "view",
      "type": "function"
    },
    {
      "inputs": [],
      "name": "lengthExtDocArray",
      "outputs": [
        {
          "internalType": "uint256",
          "name": "",
          "type": "uint256"
        }
      ],
      "stateMutability": "view",
      "type": "function"
    },
    {
      "inputs": [
        {
          "internalType": "string",
          "name": "_hash",
          "type": "string"
        },
        {
          "internalType": "string",
          "name": "_capsule",
          "type": "string"
        }
      ],
      "name": "newDoc",
      "outputs": [],
      "stateMutability": "nonpayable",
      "type": "function"
    },
    {
      "inputs": [
        {
          "internalType": "string",
          "name": "_hash",
          "type": "string"
        },
        {
          "internalType": "string",
          "name": "_pubKeyUser",
          "type": "string"
        },
        {
          "internalType": "string",
          "name": "_capsule",
          "type": "string"
        },
        {
          "internalType": "string",
          "name": "_kfrag0",
          "type": "string"
        },
        {
          "internalType": "string",
          "name": "_alicesVerifyingKey",
          "type": "string"
        }
      ],
      "name": "newExtDoc",
      "outputs": [],
      "stateMutability": "nonpayable",
      "type": "function"
    },
    {
      "inputs": [
        {
          "internalType": "address",
          "name": "_entityAdr",
          "type": "address"
        }
      ],
      "name": "newSol",
      "outputs": [],
      "stateMutability": "nonpayable",
      "type": "function"
    },
    {
      "inputs": [
        {
          "internalType": "uint256",
          "name": "_identifier",
          "type": "uint256"
        }
      ],
      "name": "obtainRequests",
      "outputs": [
        {
          "internalType": "address",
          "name": "entityReq",
          "type": "address"
        }
      ],
      "stateMutability": "view",
      "type": "function"
    },
    {
      "inputs": [
        {
          "internalType": "uint256",
          "name": "",
          "type": "uint256"
        }
      ],
      "name": "requests",
      "outputs": [
        {
          "internalType": "bool",
          "name": "resolved",
          "type": "bool"
        },
        {
          "internalType": "address",
          "name": "entity_address",
          "type": "address"
        }
      ],
      "stateMutability": "view",
      "type": "function"
    },
    {
      "inputs": [
        {
          "internalType": "uint256",
          "name": "_identifier",
          "type": "uint256"
        }
      ],
      "name": "resolveSol",
      "outputs": [],
      "stateMutability": "nonpayable",
      "type": "function"
    }
  ],
  "bytecode": "0x608060405260006006553480156200001657600080fd5b50604051620025c8380380620025c8833981810160405260608110156200003c57600080fd5b8151602083018051604051929492938301929190846401000000008211156200006457600080fd5b9083019060208201858111156200007a57600080fd5b82516401000000008111828201881017156200009557600080fd5b82525081516020918201929091019080838360005b83811015620000c4578181015183820152602001620000aa565b50505050905090810190601f168015620000f25780820380516001836020036101000a031916815260200191505b50604052602090810151600480546001600160a01b038089166001600160a01b031992831617909255600580549284169290911691909117905584519093506200014392506000918501906200015b565b50506005805460ff60a01b1916905550620002079050565b828054600181600116156101000203166002900490600052602060002090601f016020900481019282620001935760008555620001de565b82601f10620001ae57805160ff1916838001178555620001de565b82800160010185558215620001de579182015b82811115620001de578251825591602001919060010190620001c1565b50620001ec929150620001f0565b5090565b5b80821115620001ec5760008155600101620001f1565b6123b180620002176000396000f3fe608060405234801561001057600080fd5b50600436106101375760003560e01c806391aacb01116100b8578063ddfb2e261161007c578063ddfb2e261461093d578063e5e4fd141461095c578063e76d674d14610c10578063ec6cff7a14610d0b578063f6a0576d14610d31578063ff200d2b14610e5a57610137565b806391aacb0114610689578063b07ce2a014610691578063c271396714610699578063d12399e9146106d2578063d74143f2146106ef57610137565b80636839bab0116100ff5780636839bab01461022a57806375c8de24146104e45780637769ef3a1461050157806381d12c58146105a55780638b5fec8f146105e557610137565b806323389c5a1461013c57806336b6fd0c146101ce57806345419b71146101eb5780634ad02ef1146102085780634b8cd04114610210575b600080fd5b6101596004803603602081101561015257600080fd5b5035610e76565b6040805160208082528351818301528351919283929083019185019080838360005b8381101561019357818101518382015260200161017b565b50505050905090810190601f1680156101c05780820380516001836020036101000a031916815260200191505b509250505060405180910390f35b610159600480360360208110156101e457600080fd5b5035610f1f565b6101596004803603602081101561020157600080fd5b5035611013565b610159611023565b6102186110b9565b60408051918252519081900360200190f35b6104e2600480360360a081101561024057600080fd5b810190602081018135600160201b81111561025a57600080fd5b82018360208201111561026c57600080fd5b803590602001918460018302840111600160201b8311171561028d57600080fd5b91908080601f0160208091040260200160405190810160405280939291908181526020018383808284376000920191909152509295949360208101935035915050600160201b8111156102df57600080fd5b8201836020820111156102f157600080fd5b803590602001918460018302840111600160201b8311171561031257600080fd5b91908080601f0160208091040260200160405190810160405280939291908181526020018383808284376000920191909152509295949360208101935035915050600160201b81111561036457600080fd5b82018360208201111561037657600080fd5b803590602001918460018302840111600160201b8311171561039757600080fd5b91908080601f0160208091040260200160405190810160405280939291908181526020018383808284376000920191909152509295949360208101935035915050600160201b8111156103e957600080fd5b8201836020820111156103fb57600080fd5b803590602001918460018302840111600160201b8311171561041c57600080fd5b91908080601f0160208091040260200160405190810160405280939291908181526020018383808284376000920191909152509295949360208101935035915050600160201b81111561046e57600080fd5b82018360208201111561048057600080fd5b803590602001918460018302840111600160201b831117156104a157600080fd5b91908080601f01602080910402602001604051908101604052809392919081815260200183838082843760009201919091525092955061110c945050505050565b005b6104e2600480360360208110156104fa57600080fd5b50356113fa565b6102186004803603602081101561051757600080fd5b810190602081018135600160201b81111561053157600080fd5b82018360208201111561054357600080fd5b803590602001918460018302840111600160201b8311171561056457600080fd5b91908080601f01602080910402602001604051908101604052809392919081815260200183838082843760009201919091525092955061145e945050505050565b6105c2600480360360208110156105bb57600080fd5b5035611510565b6040805192151583526001600160a01b0390911660208301528051918290030190f35b610218600480360360208110156105fb57600080fd5b810190602081018135600160201b81111561061557600080fd5b82018360208201111561062757600080fd5b803590602001918460018302840111600160201b8311171561064857600080fd5b91908080601f016020809104026020016040519081016040528093929190818152602001838380828437600092019190915250929550611535945050505050565b610218611552565b6102186115a5565b6106b6600480360360208110156106af57600080fd5b50356115f8565b604080516001600160a01b039092168252519081900360200190f35b610159600480360360208110156106e857600080fd5b503561167d565b6107936004803603602081101561070557600080fd5b810190602081018135600160201b81111561071f57600080fd5b82018360208201111561073157600080fd5b803590602001918460018302840111600160201b8311171561075257600080fd5b91908080601f01602080910402602001604051908101604052809392919081815260200183838082843760009201919091525092955061168d945050505050565b6040518080602001806020018060200180602001858103855289818151815260200191508051906020019080838360005b838110156107dc5781810151838201526020016107c4565b50505050905090810190601f1680156108095780820380516001836020036101000a031916815260200191505b5085810384528851815288516020918201918a019080838360005b8381101561083c578181015183820152602001610824565b50505050905090810190601f1680156108695780820380516001836020036101000a031916815260200191505b50858103835287518152875160209182019189019080838360005b8381101561089c578181015183820152602001610884565b50505050905090810190601f1680156108c95780820380516001836020036101000a031916815260200191505b50858103825286518152865160209182019188019080838360005b838110156108fc5781810151838201526020016108e4565b50505050905090810190601f1680156109295780820380516001836020036101000a031916815260200191505b509850505050505050505060405180910390f35b6104e26004803603602081101561095357600080fd5b50351515611ac5565b610a006004803603602081101561097257600080fd5b810190602081018135600160201b81111561098c57600080fd5b82018360208201111561099e57600080fd5b803590602001918460018302840111600160201b831117156109bf57600080fd5b91908080601f016020809104026020016040519081016040528093929190818152602001838380828437600092019190915250929550611b2c945050505050565b60405180806020018060200180602001806020018060200186810386528b818151815260200191508051906020019080838360005b83811015610a4d578181015183820152602001610a35565b50505050905090810190601f168015610a7a5780820380516001836020036101000a031916815260200191505b5086810385528a5181528a516020918201918c019080838360005b83811015610aad578181015183820152602001610a95565b50505050905090810190601f168015610ada5780820380516001836020036101000a031916815260200191505b5086810384528951815289516020918201918b019080838360005b83811015610b0d578181015183820152602001610af5565b50505050905090810190601f168015610b3a5780820380516001836020036101000a031916815260200191505b5086810383528851815288516020918201918a019080838360005b83811015610b6d578181015183820152602001610b55565b50505050905090810190601f168015610b9a5780820380516001836020036101000a031916815260200191505b50868103825287518152875160209182019189019080838360005b83811015610bcd578181015183820152602001610bb5565b50505050905090810190601f168015610bfa5780820380516001836020036101000a031916815260200191505b509a505050505050505050505060405180910390f35b610c2d60048036036020811015610c2657600080fd5b5035611e29565b604051808060200180602001838103835285818151815260200191508051906020019080838360005b83811015610c6e578181015183820152602001610c56565b50505050905090810190601f168015610c9b5780820380516001836020036101000a031916815260200191505b50838103825284518152845160209182019186019080838360005b83811015610cce578181015183820152602001610cb6565b50505050905090810190601f168015610cfb5780820380516001836020036101000a031916815260200191505b5094505050505060405180910390f35b6104e260048036036020811015610d2157600080fd5b50356001600160a01b0316611fcd565b6104e260048036036040811015610d4757600080fd5b810190602081018135600160201b811115610d6157600080fd5b820183602082011115610d7357600080fd5b803590602001918460018302840111600160201b83111715610d9457600080fd5b91908080601f0160208091040260200160405190810160405280939291908181526020018383808284376000920191909152509295949360208101935035915050600160201b811115610de657600080fd5b820183602082011115610df857600080fd5b803590602001918460018302840111600160201b83111715610e1957600080fd5b91908080601f016020809104026020016040519081016040528093929190818152602001838380828437600092019190915250929550612067945050505050565b610e62612286565b604080519115158252519081900360200190f35b60018181548110610e8657600080fd5b600091825260209182902001805460408051601f6002600019610100600187161502019094169390930492830185900485028101850190915281815293509091830182828015610f175780601f10610eec57610100808354040283529160200191610f17565b820191906000526020600020905b815481529060010190602001808311610efa57829003601f168201915b505050505081565b6004546060906001600160a01b03163314610f6b5760405162461bcd60e51b81526004018080602001828103825260448152602001806123386044913960600191505060405180910390fd5b60038281548110610f7857fe5b600091825260209182902001805460408051601f60026000196101006001871615020190941693909304928301859004850281018501909152818152928301828280156110065780601f10610fdb57610100808354040283529160200191611006565b820191906000526020600020905b815481529060010190602001808311610fe957829003601f168201915b505050505090505b919050565b60038181548110610e8657600080fd5b60008054604080516020601f60026000196101006001881615020190951694909404938401819004810282018101909252828152606093909290918301828280156110af5780601f10611084576101008083540402835291602001916110af565b820191906000526020600020905b81548152906001019060200180831161109257829003601f168201915b5050505050905090565b6004546000906001600160a01b031633146111055760405162461bcd60e51b81526004018080602001828103825260448152602001806123386044913960600191505060405180910390fd5b5060065490565b60055460408051637a73fc7d60e11b815233600482015290516001600160a01b039092169163f4e7f8fa91602480820192602092909190829003018186803b15801561115757600080fd5b505afa15801561116b573d6000803e3d6000fd5b505050506040513d602081101561118157600080fd5b50516001600160a01b03166111c75760405162461bcd60e51b81526004018080602001828103825260448152602001806123386044913960600191505060405180910390fd5b60038054600181018255600091909152855161120a917fc2575a0e9e593c00f959f8c92f12db2869c3395a3b0502d05e2516446f71f85b01906020880190612296565b50836008866040518082805190602001908083835b6020831061123e5780518252601f19909201916020918201910161121f565b6001836020036101000a03801982511681845116808217855250505050505090500191505090815260200160405180910390206001019080519060200190611287929190612296565b50826008866040518082805190602001908083835b602083106112bb5780518252601f19909201916020918201910161129c565b51815160209384036101000a60001901801990921691161790529201948552506040519384900381019093208451611300956002909201949190910192509050612296565b50816008866040518082805190602001908083835b602083106113345780518252601f199092019160209182019101611315565b51815160209384036101000a60001901801990921691161790529201948552506040519384900381019093208451611379956003909201949190910192509050612296565b50806008866040518082805190602001908083835b602083106113ad5780518252601f19909201916020918201910161138e565b51815160209384036101000a600019018019909216911617905292019485525060405193849003810190932084516113f2956004909201949190910192509050612296565b505050505050565b6004546001600160a01b031633146114435760405162461bcd60e51b81526004018080602001828103825260448152602001806123386044913960600191505060405180910390fd5b6000908152600960205260409020805460ff19166001179055565b6004546000906001600160a01b031633146114aa5760405162461bcd60e51b81526004018080602001828103825260448152602001806123386044913960600191505060405180910390fd5b6007826040518082805190602001908083835b602083106114dc5780518252601f1990920191602091820191016114bd565b51815160209384036101000a6000190180199092169116179052920194855250604051938490030190922054949350505050565b60096020526000908152604090205460ff81169061010090046001600160a01b031682565b805160208183018101805160078252928201919093012091525481565b6004546000906001600160a01b0316331461159e5760405162461bcd60e51b81526004018080602001828103825260448152602001806123386044913960600191505060405180910390fd5b5060035490565b6004546000906001600160a01b031633146115f15760405162461bcd60e51b81526004018080602001828103825260448152602001806123386044913960600191505060405180910390fd5b5060015490565b6004546000906001600160a01b031633146116445760405162461bcd60e51b81526004018080602001828103825260448152602001806123386044913960600191505060405180910390fd5b60008281526009602052604090205460ff1661100e575060008181526009602052604090205461010090046001600160a01b031661100e565b60028181548110610e8657600080fd5b6004546060908190819081906001600160a01b031633146116df5760405162461bcd60e51b81526004018080602001828103825260448152602001806123386044913960600191505060405180910390fd5b6008856040518082805190602001908083835b602083106117115780518252601f1990920191602091820191016116f2565b6001836020036101000a03801982511681845116808217855250505050505090500191505090815260200160405180910390206001016008866040518082805190602001908083835b602083106117795780518252601f19909201916020918201910161175a565b6001836020036101000a03801982511681845116808217855250505050505090500191505090815260200160405180910390206002016008876040518082805190602001908083835b602083106117e15780518252601f1990920191602091820191016117c2565b6001836020036101000a03801982511681845116808217855250505050505090500191505090815260200160405180910390206003016008886040518082805190602001908083835b602083106118495780518252601f19909201916020918201910161182a565b518151600019602094850361010090810a820192831692199390931691909117909252949092019687526040805197889003820188208b54601f600260018316159098029095011695909504928301829004820288018201905281875260049093019594508893509184019050828280156119055780601f106118da57610100808354040283529160200191611905565b820191906000526020600020905b8154815290600101906020018083116118e857829003601f168201915b5050865460408051602060026001851615610100026000190190941693909304601f8101849004840282018401909252818152959950889450925084019050828280156119935780601f1061196857610100808354040283529160200191611993565b820191906000526020600020905b81548152906001019060200180831161197657829003601f168201915b5050855460408051602060026001851615610100026000190190941693909304601f810184900484028201840190925281815295985087945092508401905082828015611a215780601f106119f657610100808354040283529160200191611a21565b820191906000526020600020905b815481529060010190602001808311611a0457829003601f168201915b5050845460408051602060026001851615610100026000190190941693909304601f810184900484028201840190925281815295975086945092508401905082828015611aaf5780601f10611a8457610100808354040283529160200191611aaf565b820191906000526020600020905b815481529060010190602001808311611a9257829003601f168201915b5050505050905093509350935093509193509193565b6005546001600160a01b03163314611b0e5760405162461bcd60e51b81526004018080602001828103825260448152602001806123386044913960600191505060405180910390fd5b60058054911515600160a01b0260ff60a01b19909216919091179055565b805160208183018101805160088252928201938201939093209190925280546040805160026001841615610100026000190190931692909204601f8101859004850283018501909152808252919290918391830182828015611bcf5780601f10611ba457610100808354040283529160200191611bcf565b820191906000526020600020905b815481529060010190602001808311611bb257829003601f168201915b505050505090806001018054600181600116156101000203166002900480601f016020809104026020016040519081016040528092919081815260200182805460018160011615610100020316600290048015611c6d5780601f10611c4257610100808354040283529160200191611c6d565b820191906000526020600020905b815481529060010190602001808311611c5057829003601f168201915b50505060028085018054604080516020601f6000196101006001871615020190941695909504928301859004850281018501909152818152959695945090925090830182828015611cff5780601f10611cd457610100808354040283529160200191611cff565b820191906000526020600020905b815481529060010190602001808311611ce257829003601f168201915b5050505060038301805460408051602060026001851615610100026000190190941693909304601f8101849004840282018401909252818152949594935090830182828015611d8f5780601f10611d6457610100808354040283529160200191611d8f565b820191906000526020600020905b815481529060010190602001808311611d7257829003601f168201915b5050505060048301805460408051602060026001851615610100026000190190941693909304601f8101849004840282018401909252818152949594935090830182828015611e1f5780601f10611df457610100808354040283529160200191611e1f565b820191906000526020600020905b815481529060010190602001808311611e0257829003601f168201915b5050505050905085565b60045460609081906001600160a01b03163314611e775760405162461bcd60e51b81526004018080602001828103825260448152602001806123386044913960600191505060405180910390fd5b60018381548110611e8457fe5b9060005260206000200160028481548110611e9b57fe5b600091825260209182902083546040805160026001841615610100026000190190931692909204601f8101869004860283018601909152808252929091019290918491830182828015611f2f5780601f10611f0457610100808354040283529160200191611f2f565b820191906000526020600020905b815481529060010190602001808311611f1257829003601f168201915b5050845460408051602060026001851615610100026000190190941693909304601f810184900484028201840190925281815295975086945092508401905082828015611fbd5780601f10611f9257610100808354040283529160200191611fbd565b820191906000526020600020905b815481529060010190602001808311611fa057829003601f168201915b5050505050905091509150915091565b6005546001600160a01b031633146120165760405162461bcd60e51b81526004018080602001828103825260448152602001806123386044913960600191505060405180910390fd5b6006805460009081526009602052604080822080546001600160a01b0390951661010002610100600160a81b0319909516949094179093558154815291909120805460ff1916905580546001019055565b6000336001600160a01b031663893d20e86040518163ffffffff1660e01b815260040160206040518083038186803b1580156120a257600080fd5b505afa1580156120b6573d6000803e3d6000fd5b505050506040513d60208110156120cc57600080fd5b5051600554604080516304bf6b2360e51b81526001600160a01b03808516600483015291519394509116916397ed646091602480820192602092909190829003018186803b15801561211d57600080fd5b505afa158015612131573d6000803e3d6000fd5b505050506040513d602081101561214757600080fd5b50516001600160a01b031661218d5760405162461bcd60e51b81526004018080602001828103825260448152602001806123386044913960600191505060405180910390fd5b60015460405184518291600791879190819060208401908083835b602083106121c75780518252601f1990920191602091820191016121a8565b51815160209384036101000a6000190180199092169116179052920194855250604051938490038101909320939093555060028054600181018255600091909152855161223c93507f405787fa12a823e0f2b7631cc41b3ba8828b3321ca811111fa75cd3aa3bb5ace90910191860190612296565b50600180548082018255600091909152845161227f917fb10e2d527612073b26eecdfd717e6a320cf44b4afac2b0732d9fcbe2b7fa0cf601906020870190612296565b5050505050565b600554600160a01b900460ff1690565b828054600181600116156101000203166002900490600052602060002090601f0160209004810192826122cc5760008555612312565b82601f106122e557805160ff1916838001178555612312565b82800160010185558215612312579182015b828111156123125782518255916020019190600101906122f7565b5061231e929150612322565b5090565b5b8082111561231e576000815560010161232356fe4c2761647265736120717565206861207265616c69747a6174206c61206372696461206e6f20746520656c73207065726d6973736f732064652070726f7069657461742ea2646970667358221220e55b5cccc20d90b51f5a46aad1692e87ebb409a6130cce19cc59bebac95128bf64736f6c63430007060033",
  "linkReferences": {},
  "deployedLinkReferences": {}
}