{
  "_format": "hh-sol-artifact-1",
  "contractName": "who",
  "sourceName": "contracts/pasport_sc.sol",
  "abi": [
    {
      "inputs": [],
      "stateMutability": "nonpayable",
      "type": "constructor"
    },
    {
      "anonymous": false,
      "inputs": [
        {
          "indexed": false,
          "internalType": "address",
          "name": "",
          "type": "address"
        },
        {
          "indexed": false,
          "internalType": "bool",
          "name": "",
          "type": "bool"
        }
      ],
      "name": "entity",
      "type": "event"
    },
    {
      "anonymous": false,
      "inputs": [
        {
          "indexed": false,
          "internalType": "address",
          "name": "adr_lab",
          "type": "address"
        },
        {
          "indexed": false,
          "internalType": "string",
          "name": "labname",
          "type": "string"
        }
      ],
      "name": "labDeleted",
      "type": "event"
    },
    {
      "anonymous": false,
      "inputs": [
        {
          "indexed": false,
          "internalType": "string",
          "name": "labName",
          "type": "string"
        },
        {
          "indexed": false,
          "internalType": "address",
          "name": "adr_lab",
          "type": "address"
        }
      ],
      "name": "newLab",
      "type": "event"
    },
    {
      "anonymous": false,
      "inputs": [
        {
          "indexed": false,
          "internalType": "address",
          "name": "",
          "type": "address"
        }
      ],
      "name": "new_User",
      "type": "event"
    },
    {
      "inputs": [
        {
          "internalType": "uint256",
          "name": "",
          "type": "uint256"
        }
      ],
      "name": "Active_Labs",
      "outputs": [
        {
          "internalType": "address",
          "name": "",
          "type": "address"
        }
      ],
      "stateMutability": "view",
      "type": "function"
    },
    {
      "inputs": [
        {
          "internalType": "uint256",
          "name": "",
          "type": "uint256"
        }
      ],
      "name": "Active_Users",
      "outputs": [
        {
          "internalType": "address",
          "name": "",
          "type": "address"
        }
      ],
      "stateMutability": "view",
      "type": "function"
    },
    {
      "inputs": [
        {
          "internalType": "bool",
          "name": "active",
          "type": "bool"
        },
        {
          "internalType": "address",
          "name": "_entityAdr",
          "type": "address"
        }
      ],
      "name": "Entity",
      "outputs": [],
      "stateMutability": "nonpayable",
      "type": "function"
    },
    {
      "inputs": [
        {
          "internalType": "address",
          "name": "",
          "type": "address"
        }
      ],
      "name": "Lab",
      "outputs": [
        {
          "internalType": "string",
          "name": "name",
          "type": "string"
        },
        {
          "internalType": "bool",
          "name": "active",
          "type": "bool"
        },
        {
          "internalType": "address",
          "name": "sc_adr",
          "type": "address"
        }
      ],
      "stateMutability": "view",
      "type": "function"
    },
    {
      "inputs": [
        {
          "internalType": "address",
          "name": "_lab",
          "type": "address"
        },
        {
          "internalType": "address",
          "name": "_sc_adr",
          "type": "address"
        }
      ],
      "name": "deleteLab",
      "outputs": [],
      "stateMutability": "nonpayable",
      "type": "function"
    },
    {
      "inputs": [
        {
          "internalType": "uint256",
          "name": "_identifier",
          "type": "uint256"
        }
      ],
      "name": "denySol",
      "outputs": [],
      "stateMutability": "nonpayable",
      "type": "function"
    },
    {
      "inputs": [
        {
          "internalType": "address",
          "name": "_alices_address",
          "type": "address"
        },
        {
          "internalType": "address",
          "name": "_entity_address",
          "type": "address"
        }
      ],
      "name": "getAliceDocs",
      "outputs": [],
      "stateMutability": "nonpayable",
      "type": "function"
    },
    {
      "inputs": [
        {
          "internalType": "address",
          "name": "adr_Lab",
          "type": "address"
        }
      ],
      "name": "getLabInfo",
      "outputs": [
        {
          "internalType": "string",
          "name": "",
          "type": "string"
        },
        {
          "internalType": "bool",
          "name": "",
          "type": "bool"
        }
      ],
      "stateMutability": "view",
      "type": "function"
    },
    {
      "inputs": [
        {
          "internalType": "address",
          "name": "adr_Lab",
          "type": "address"
        }
      ],
      "name": "getLabSC",
      "outputs": [
        {
          "internalType": "address",
          "name": "",
          "type": "address"
        }
      ],
      "stateMutability": "view",
      "type": "function"
    },
    {
      "inputs": [],
      "name": "getLabsCount",
      "outputs": [
        {
          "internalType": "uint256",
          "name": "",
          "type": "uint256"
        }
      ],
      "stateMutability": "view",
      "type": "function"
    },
    {
      "inputs": [],
      "name": "getNumRequests",
      "outputs": [
        {
          "internalType": "uint256",
          "name": "",
          "type": "uint256"
        }
      ],
      "stateMutability": "view",
      "type": "function"
    },
    {
      "inputs": [
        {
          "internalType": "address",
          "name": "adr_User",
          "type": "address"
        }
      ],
      "name": "getUserSC",
      "outputs": [
        {
          "internalType": "address",
          "name": "",
          "type": "address"
        }
      ],
      "stateMutability": "view",
      "type": "function"
    },
    {
      "inputs": [
        {
          "internalType": "uint256",
          "name": "_identifier",
          "type": "uint256"
        }
      ],
      "name": "obtainRequests",
      "outputs": [
        {
          "internalType": "address",
          "name": "alice_address",
          "type": "address"
        },
        {
          "internalType": "address",
          "name": "entityReq",
          "type": "address"
        }
      ],
      "stateMutability": "view",
      "type": "function"
    },
    {
      "inputs": [
        {
          "internalType": "address payable",
          "name": "_lab",
          "type": "address"
        },
        {
          "internalType": "string",
          "name": "_name",
          "type": "string"
        }
      ],
      "name": "registerLab",
      "outputs": [],
      "stateMutability": "nonpayable",
      "type": "function"
    },
    {
      "inputs": [
        {
          "internalType": "address",
          "name": "_owner",
          "type": "address"
        },
        {
          "internalType": "string",
          "name": "_pubKey",
          "type": "string"
        }
      ],
      "name": "registerUser",
      "outputs": [
        {
          "internalType": "address",
          "name": "",
          "type": "address"
        }
      ],
      "stateMutability": "nonpayable",
      "type": "function"
    },
    {
      "inputs": [
        {
          "internalType": "uint256",
          "name": "",
          "type": "uint256"
        }
      ],
      "name": "requests",
      "outputs": [
        {
          "internalType": "bool",
          "name": "resolved",
          "type": "bool"
        },
        {
          "internalType": "address",
          "name": "alice_address",
          "type": "address"
        },
        {
          "internalType": "address",
          "name": "entity",
          "type": "address"
        }
      ],
      "stateMutability": "view",
      "type": "function"
    },
    {
      "inputs": [
        {
          "internalType": "uint256",
          "name": "_identifier",
          "type": "uint256"
        }
      ],
      "name": "resolveAliceDocs",
      "outputs": [],
      "stateMutability": "nonpayable",
      "type": "function"
    },
    {
      "inputs": [
        {
          "internalType": "address",
          "name": "",
          "type": "address"
        }
      ],
      "name": "userSC",
      "outputs": [
        {
          "internalType": "address",
          "name": "",
          "type": "address"
        }
      ],
      "stateMutability": "view",
      "type": "function"
    }
  ],
  "bytecode": "0x6080604052600080546001600160a01b03191673959fd7ef9089b7142b6b908dc3a8af7aa8ff0fa117815560045534801561003957600080fd5b50600180546001600160a01b031916301790556140398061005b6000396000f3fe60806040523480156200001157600080fd5b5060043610620001305760003560e01c806394af50e611620000b1578063c0632116116200007b578063c063211614620005c0578063c271396714620005e0578063cf64cd82146200062f578063ef0b39c41462000639578063f4e7f8fa14620006595762000130565b806394af50e6146200048957806397ed646014620004ba5780639e9c747314620004e3578063a3d1594e14620005035762000130565b8063489c348311620000ff578063489c348314620003165780634b8cd04114620003d257806360259fe914620003ee5780637bc90108146200041f57806381d12c58146200043f5762000130565b80630d79f60614620001355780630ea126f914620001e25780633880997e14620002ba5780633befa1b814620002ed575b600080fd5b6200015e600480360360208110156200014d57600080fd5b50356001600160a01b031662000682565b60405180806020018315158152602001828103825284818151815260200191508051906020019080838360005b83811015620001a55781810151838201526020016200018b565b50505050905090810190601f168015620001d35780820380516001836020036101000a031916815260200191505b50935050505060405180910390f35b6200029e60048036036040811015620001fa57600080fd5b6001600160a01b0382351691908101906040810160208201356401000000008111156200022657600080fd5b8201836020820111156200023957600080fd5b803590602001918460018302840111640100000000831117156200025c57600080fd5b91908080601f016020809104026020016040519081016040528093929190818152602001838380828437600092019190915250929550620007ab945050505050565b604080516001600160a01b039092168252519081900360200190f35b620002eb60048036036040811015620002d257600080fd5b506001600160a01b03813581169160200135166200091d565b005b6200029e600480360360208110156200030557600080fd5b50356001600160a01b031662000ac7565b620002eb600480360360408110156200032e57600080fd5b6001600160a01b0382351691908101906040810160208201356401000000008111156200035a57600080fd5b8201836020820111156200036d57600080fd5b803590602001918460018302840111640100000000831117156200039057600080fd5b91908080601f01602080910402602001604051908101604052809392919081815260200183838082843760009201919091525092955062000ae2945050505050565b620003dc62000cf6565b60408051918252519081900360200190f35b620002eb600480360360408110156200040657600080fd5b506001600160a01b038135811691602001351662000d5f565b620002eb600480360360208110156200043757600080fd5b503562000f0c565b6200045f600480360360208110156200045757600080fd5b503562001016565b6040805193151584526001600160a01b039283166020850152911682820152519081900360600190f35b620002eb60048036036040811015620004a157600080fd5b508035151590602001356001600160a01b031662001046565b6200029e60048036036020811015620004d257600080fd5b50356001600160a01b031662001163565b620002eb60048036036020811015620004fb57600080fd5b503562001189565b6200052c600480360360208110156200051b57600080fd5b50356001600160a01b031662001205565b60405180806020018415158152602001836001600160a01b03168152602001828103825285818151815260200191508051906020019080838360005b838110156200058257818101518382015260200162000568565b50505050905090810190601f168015620005b05780820380516001836020036101000a031916815260200191505b5094505050505060405180910390f35b6200029e60048036036020811015620005d857600080fd5b5035620012c4565b6200060060048036036020811015620005f857600080fd5b5035620012ef565b60405180836001600160a01b03168152602001826001600160a01b031681526020019250505060405180910390f35b620003dc6200139a565b6200029e600480360360208110156200065157600080fd5b503562001403565b6200029e600480360360208110156200067157600080fd5b50356001600160a01b031662001414565b60008054606091906001600160a01b0316331480620006ab57506001546001600160a01b031633145b620006e85760405162461bcd60e51b815260040180806020018281038252604481526020018062003fc06044913960600191505060405180910390fd5b6001600160a01b03831660009081526006602090815260409182902060018082015482548551600261010094831615949094026000190190911692909204601f8101859004850283018501909552848252919360ff90921692909184918301828280156200079a5780601f106200076e576101008083540402835291602001916200079a565b820191906000526020600020905b8154815290600101906020018083116200077c57829003601f168201915b50505050509150915091505b915091565b60015460405160009184918391839186916001600160a01b031690620007d19062001432565b6001600160a01b03808516825282166040820152606060208083018281528551928401929092528451608084019186019080838360005b838110156200082257818101518382015260200162000808565b50505050905090810190601f168015620008505780820380516001836020036101000a031916815260200191505b50945050505050604051809103906000f08015801562000874573d6000803e3d6000fd5b5060038054600181019091557fc2575a0e9e593c00f959f8c92f12db2869c3395a3b0502d05e2516446f71f85b0180546001600160a01b038086166001600160a01b0319928316811790935560008381526007602090815260409182902080549387169390941692909217909255815192835290519293507f2449b149f88e6eb459a7d3af8ea2c659fdf1499c81539604353c270f65908aca92918290030190a1949350505050565b620009283362001414565b6001600160a01b03166200096e5760405162461bcd60e51b815260040180806020018281038252604481526020018062003fc06044913960600191505060405180910390fd5b60048054600090815260056020908152604080832080546001600160a01b0380891661010002610100600160a81b0319909216919091179091558454845281842060010180548783166001600160a01b0319909116811790915585548552828520805460ff1916905584526007835292819020548151600162dff2d560e01b031981529151931693849363ff200d2b9383830193909290829003018186803b15801562000a1a57600080fd5b505afa15801562000a2f573d6000803e3d6000fd5b505050506040513d602081101562000a4657600080fd5b50511562000ab9576001546004805460408051630f79202160e31b815292830191909152516001600160a01b0390921691637bc901089160248082019260009290919082900301818387803b15801562000a9f57600080fd5b505af115801562000ab4573d6000803e3d6000fd5b505050505b505060048054600101905550565b6007602052600090815260409020546001600160a01b031681565b6000546001600160a01b031633148062000b0657506001546001600160a01b031633145b62000b435760405162461bcd60e51b815260040180806020018281038252604481526020018062003fc06044913960600191505060405180910390fd5b60015460405183916001600160a01b03169062000b609062001440565b6001600160a01b03928316815291166020820152604080519182900301906000f08015801562000b94573d6000803e3d6000fd5b506001600160a01b0380841660008181526006602090815260408220600180820180549790961661010002610100600160a81b0319909716969096179094556002805495860190557f405787fa12a823e0f2b7631cc41b3ba8828b3321ca811111fa75cd3aa3bb5ace90940180546001600160a01b0319168317905552825162000c21928401906200144e565b506001600160a01b03821660008181526006602090815260408083206001908101805460ff1916909117905580518083019490945280845284519084015283517f681d10e7ef9b9b1c9955e8cfb39c8982d63b7f4185f90016e1e0fd8563d44f8c938593879391928392606084019290870191908190849084905b8381101562000cb657818101518382015260200162000c9c565b50505050905090810190601f16801562000ce45780820380516001836020036101000a031916815260200191505b50935050505060405180910390a15050565b600080546001600160a01b031633148062000d1b57506001546001600160a01b031633145b62000d585760405162461bcd60e51b815260040180806020018281038252604481526020018062003fc06044913960600191505060405180910390fd5b5060045490565b6000546001600160a01b031633148062000d8357506001546001600160a01b031633145b62000dc05760405162461bcd60e51b815260040180806020018281038252604481526020018062003fc06044913960600191505060405180910390fd5b6001600160a01b03808316600090815260066020526040808220600101805460ff1916905580516315b45ce360e11b8152905192841692632b68b9c69260048084019391929182900301818387803b15801562000e1c57600080fd5b505af115801562000e31573d6000803e3d6000fd5b5050506001600160a01b03831660008181526006602090815260409182902082519384529083018281528154600260001961010060018416150201909116049284018390529093507f926527f0f0dd76e1673947dc8a186146efd897ed51ddafada1849ff9d70c78fb92869285929060608301908490801562000ef85780601f1062000ecc5761010080835404028352916020019162000ef8565b820191906000526020600020905b81548152906001019060200180831162000eda57829003601f168201915b5050935050505060405180910390a1505050565b6000546001600160a01b031633148062000f3057506001546001600160a01b031633145b62000f6d5760405162461bcd60e51b815260040180806020018281038252604481526020018062003fc06044913960600191505060405180910390fd5b600081815260056020818152604080842080546001600160a01b036101008204811680885260078652848820548989529690955260018084015460ff199093161790925582516376367fbd60e11b8152908216600482018190529251939594909116939192849263ec6cff7a926024808201939182900301818387803b15801562000ff757600080fd5b505af11580156200100c573d6000803e3d6000fd5b5050505050505050565b6005602052600090815260409020805460019091015460ff8216916001600160a01b036101009091048116911683565b6000546001600160a01b03163314806200106a57506001546001600160a01b031633145b620010a75760405162461bcd60e51b815260040180806020018281038252604481526020018062003fc06044913960600191505060405180910390fd5b6001600160a01b03808216600090815260076020526040808220548151636efd971360e11b815286151560048201529151931692839263ddfb2e26926024808201939182900301818387803b1580156200110057600080fd5b505af115801562001115573d6000803e3d6000fd5b5050604080516001600160a01b0386168152861515602082015281517ffb1fe99bdd0ab633267cc6c574aa5521b20cbcb196b776b9d40b7d81f9afc5549450908190039091019150a1505050565b6001600160a01b0390811660009081526006602052604090206001015461010090041690565b6000546001600160a01b0316331480620011ad57506001546001600160a01b031633145b620011ea5760405162461bcd60e51b815260040180806020018281038252604481526020018062003fc06044913960600191505060405180910390fd5b6000908152600560205260409020805460ff19166001179055565b60066020908152600091825260409182902080548351601f60026000196101006001861615020190931692909204918201849004840281018401909452808452909291839190830182828015620012a05780601f106200127457610100808354040283529160200191620012a0565b820191906000526020600020905b8154815290600101906020018083116200128257829003601f168201915b5050506001909301549192505060ff8116906001600160a01b036101009091041683565b60028181548110620012d557600080fd5b6000918252602090912001546001600160a01b0316905081565b6000805481906001600160a01b03163314806200131657506001546001600160a01b031633145b620013535760405162461bcd60e51b815260040180806020018281038252604481526020018062003fc06044913960600191505060405180910390fd5b60008381526005602052604090205460ff16620007a6575050600081815260056020526040902080546001909101546001600160a01b0361010090920482169116620007a6565b600080546001600160a01b0316331480620013bf57506001546001600160a01b031633145b620013fc5760405162461bcd60e51b815260040180806020018281038252604481526020018062003fc06044913960600191505060405180910390fd5b5060025490565b60038181548110620012d557600080fd5b6001600160a01b039081166000908152600760205260409020541690565b6125c880620014fb83390190565b6104fd8062003ac383390190565b828054600181600116156101000203166002900490600052602060002090601f016020900481019282620014865760008555620014d1565b82601f10620014a157805160ff1916838001178555620014d1565b82800160010185558215620014d1579182015b82811115620014d1578251825591602001919060010190620014b4565b50620014df929150620014e3565b5090565b5b80821115620014df5760008155600101620014e456fe608060405260006006553480156200001657600080fd5b50604051620025c8380380620025c8833981810160405260608110156200003c57600080fd5b8151602083018051604051929492938301929190846401000000008211156200006457600080fd5b9083019060208201858111156200007a57600080fd5b82516401000000008111828201881017156200009557600080fd5b82525081516020918201929091019080838360005b83811015620000c4578181015183820152602001620000aa565b50505050905090810190601f168015620000f25780820380516001836020036101000a031916815260200191505b50604052602090810151600480546001600160a01b038089166001600160a01b031992831617909255600580549284169290911691909117905584519093506200014392506000918501906200015b565b50506005805460ff60a01b1916905550620002079050565b828054600181600116156101000203166002900490600052602060002090601f016020900481019282620001935760008555620001de565b82601f10620001ae57805160ff1916838001178555620001de565b82800160010185558215620001de579182015b82811115620001de578251825591602001919060010190620001c1565b50620001ec929150620001f0565b5090565b5b80821115620001ec5760008155600101620001f1565b6123b180620002176000396000f3fe608060405234801561001057600080fd5b50600436106101375760003560e01c806391aacb01116100b8578063ddfb2e261161007c578063ddfb2e261461093d578063e5e4fd141461095c578063e76d674d14610c10578063ec6cff7a14610d0b578063f6a0576d14610d31578063ff200d2b14610e5a57610137565b806391aacb0114610689578063b07ce2a014610691578063c271396714610699578063d12399e9146106d2578063d74143f2146106ef57610137565b80636839bab0116100ff5780636839bab01461022a57806375c8de24146104e45780637769ef3a1461050157806381d12c58146105a55780638b5fec8f146105e557610137565b806323389c5a1461013c57806336b6fd0c146101ce57806345419b71146101eb5780634ad02ef1146102085780634b8cd04114610210575b600080fd5b6101596004803603602081101561015257600080fd5b5035610e76565b6040805160208082528351818301528351919283929083019185019080838360005b8381101561019357818101518382015260200161017b565b50505050905090810190601f1680156101c05780820380516001836020036101000a031916815260200191505b509250505060405180910390f35b610159600480360360208110156101e457600080fd5b5035610f1f565b6101596004803603602081101561020157600080fd5b5035611013565b610159611023565b6102186110b9565b60408051918252519081900360200190f35b6104e2600480360360a081101561024057600080fd5b810190602081018135600160201b81111561025a57600080fd5b82018360208201111561026c57600080fd5b803590602001918460018302840111600160201b8311171561028d57600080fd5b91908080601f0160208091040260200160405190810160405280939291908181526020018383808284376000920191909152509295949360208101935035915050600160201b8111156102df57600080fd5b8201836020820111156102f157600080fd5b803590602001918460018302840111600160201b8311171561031257600080fd5b91908080601f0160208091040260200160405190810160405280939291908181526020018383808284376000920191909152509295949360208101935035915050600160201b81111561036457600080fd5b82018360208201111561037657600080fd5b803590602001918460018302840111600160201b8311171561039757600080fd5b91908080601f0160208091040260200160405190810160405280939291908181526020018383808284376000920191909152509295949360208101935035915050600160201b8111156103e957600080fd5b8201836020820111156103fb57600080fd5b803590602001918460018302840111600160201b8311171561041c57600080fd5b91908080601f0160208091040260200160405190810160405280939291908181526020018383808284376000920191909152509295949360208101935035915050600160201b81111561046e57600080fd5b82018360208201111561048057600080fd5b803590602001918460018302840111600160201b831117156104a157600080fd5b91908080601f01602080910402602001604051908101604052809392919081815260200183838082843760009201919091525092955061110c945050505050565b005b6104e2600480360360208110156104fa57600080fd5b50356113fa565b6102186004803603602081101561051757600080fd5b810190602081018135600160201b81111561053157600080fd5b82018360208201111561054357600080fd5b803590602001918460018302840111600160201b8311171561056457600080fd5b91908080601f01602080910402602001604051908101604052809392919081815260200183838082843760009201919091525092955061145e945050505050565b6105c2600480360360208110156105bb57600080fd5b5035611510565b6040805192151583526001600160a01b0390911660208301528051918290030190f35b610218600480360360208110156105fb57600080fd5b810190602081018135600160201b81111561061557600080fd5b82018360208201111561062757600080fd5b803590602001918460018302840111600160201b8311171561064857600080fd5b91908080601f016020809104026020016040519081016040528093929190818152602001838380828437600092019190915250929550611535945050505050565b610218611552565b6102186115a5565b6106b6600480360360208110156106af57600080fd5b50356115f8565b604080516001600160a01b039092168252519081900360200190f35b610159600480360360208110156106e857600080fd5b503561167d565b6107936004803603602081101561070557600080fd5b810190602081018135600160201b81111561071f57600080fd5b82018360208201111561073157600080fd5b803590602001918460018302840111600160201b8311171561075257600080fd5b91908080601f01602080910402602001604051908101604052809392919081815260200183838082843760009201919091525092955061168d945050505050565b6040518080602001806020018060200180602001858103855289818151815260200191508051906020019080838360005b838110156107dc5781810151838201526020016107c4565b50505050905090810190601f1680156108095780820380516001836020036101000a031916815260200191505b5085810384528851815288516020918201918a019080838360005b8381101561083c578181015183820152602001610824565b50505050905090810190601f1680156108695780820380516001836020036101000a031916815260200191505b50858103835287518152875160209182019189019080838360005b8381101561089c578181015183820152602001610884565b50505050905090810190601f1680156108c95780820380516001836020036101000a031916815260200191505b50858103825286518152865160209182019188019080838360005b838110156108fc5781810151838201526020016108e4565b50505050905090810190601f1680156109295780820380516001836020036101000a031916815260200191505b509850505050505050505060405180910390f35b6104e26004803603602081101561095357600080fd5b50351515611ac5565b610a006004803603602081101561097257600080fd5b810190602081018135600160201b81111561098c57600080fd5b82018360208201111561099e57600080fd5b803590602001918460018302840111600160201b831117156109bf57600080fd5b91908080601f016020809104026020016040519081016040528093929190818152602001838380828437600092019190915250929550611b2c945050505050565b60405180806020018060200180602001806020018060200186810386528b818151815260200191508051906020019080838360005b83811015610a4d578181015183820152602001610a35565b50505050905090810190601f168015610a7a5780820380516001836020036101000a031916815260200191505b5086810385528a5181528a516020918201918c019080838360005b83811015610aad578181015183820152602001610a95565b50505050905090810190601f168015610ada5780820380516001836020036101000a031916815260200191505b5086810384528951815289516020918201918b019080838360005b83811015610b0d578181015183820152602001610af5565b50505050905090810190601f168015610b3a5780820380516001836020036101000a031916815260200191505b5086810383528851815288516020918201918a019080838360005b83811015610b6d578181015183820152602001610b55565b50505050905090810190601f168015610b9a5780820380516001836020036101000a031916815260200191505b50868103825287518152875160209182019189019080838360005b83811015610bcd578181015183820152602001610bb5565b50505050905090810190601f168015610bfa5780820380516001836020036101000a031916815260200191505b509a505050505050505050505060405180910390f35b610c2d60048036036020811015610c2657600080fd5b5035611e29565b604051808060200180602001838103835285818151815260200191508051906020019080838360005b83811015610c6e578181015183820152602001610c56565b50505050905090810190601f168015610c9b5780820380516001836020036101000a031916815260200191505b50838103825284518152845160209182019186019080838360005b83811015610cce578181015183820152602001610cb6565b50505050905090810190601f168015610cfb5780820380516001836020036101000a031916815260200191505b5094505050505060405180910390f35b6104e260048036036020811015610d2157600080fd5b50356001600160a01b0316611fcd565b6104e260048036036040811015610d4757600080fd5b810190602081018135600160201b811115610d6157600080fd5b820183602082011115610d7357600080fd5b803590602001918460018302840111600160201b83111715610d9457600080fd5b91908080601f0160208091040260200160405190810160405280939291908181526020018383808284376000920191909152509295949360208101935035915050600160201b811115610de657600080fd5b820183602082011115610df857600080fd5b803590602001918460018302840111600160201b83111715610e1957600080fd5b91908080601f016020809104026020016040519081016040528093929190818152602001838380828437600092019190915250929550612067945050505050565b610e62612286565b604080519115158252519081900360200190f35b60018181548110610e8657600080fd5b600091825260209182902001805460408051601f6002600019610100600187161502019094169390930492830185900485028101850190915281815293509091830182828015610f175780601f10610eec57610100808354040283529160200191610f17565b820191906000526020600020905b815481529060010190602001808311610efa57829003601f168201915b505050505081565b6004546060906001600160a01b03163314610f6b5760405162461bcd60e51b81526004018080602001828103825260448152602001806123386044913960600191505060405180910390fd5b60038281548110610f7857fe5b600091825260209182902001805460408051601f60026000196101006001871615020190941693909304928301859004850281018501909152818152928301828280156110065780601f10610fdb57610100808354040283529160200191611006565b820191906000526020600020905b815481529060010190602001808311610fe957829003601f168201915b505050505090505b919050565b60038181548110610e8657600080fd5b60008054604080516020601f60026000196101006001881615020190951694909404938401819004810282018101909252828152606093909290918301828280156110af5780601f10611084576101008083540402835291602001916110af565b820191906000526020600020905b81548152906001019060200180831161109257829003601f168201915b5050505050905090565b6004546000906001600160a01b031633146111055760405162461bcd60e51b81526004018080602001828103825260448152602001806123386044913960600191505060405180910390fd5b5060065490565b60055460408051637a73fc7d60e11b815233600482015290516001600160a01b039092169163f4e7f8fa91602480820192602092909190829003018186803b15801561115757600080fd5b505afa15801561116b573d6000803e3d6000fd5b505050506040513d602081101561118157600080fd5b50516001600160a01b03166111c75760405162461bcd60e51b81526004018080602001828103825260448152602001806123386044913960600191505060405180910390fd5b60038054600181018255600091909152855161120a917fc2575a0e9e593c00f959f8c92f12db2869c3395a3b0502d05e2516446f71f85b01906020880190612296565b50836008866040518082805190602001908083835b6020831061123e5780518252601f19909201916020918201910161121f565b6001836020036101000a03801982511681845116808217855250505050505090500191505090815260200160405180910390206001019080519060200190611287929190612296565b50826008866040518082805190602001908083835b602083106112bb5780518252601f19909201916020918201910161129c565b51815160209384036101000a60001901801990921691161790529201948552506040519384900381019093208451611300956002909201949190910192509050612296565b50816008866040518082805190602001908083835b602083106113345780518252601f199092019160209182019101611315565b51815160209384036101000a60001901801990921691161790529201948552506040519384900381019093208451611379956003909201949190910192509050612296565b50806008866040518082805190602001908083835b602083106113ad5780518252601f19909201916020918201910161138e565b51815160209384036101000a600019018019909216911617905292019485525060405193849003810190932084516113f2956004909201949190910192509050612296565b505050505050565b6004546001600160a01b031633146114435760405162461bcd60e51b81526004018080602001828103825260448152602001806123386044913960600191505060405180910390fd5b6000908152600960205260409020805460ff19166001179055565b6004546000906001600160a01b031633146114aa5760405162461bcd60e51b81526004018080602001828103825260448152602001806123386044913960600191505060405180910390fd5b6007826040518082805190602001908083835b602083106114dc5780518252601f1990920191602091820191016114bd565b51815160209384036101000a6000190180199092169116179052920194855250604051938490030190922054949350505050565b60096020526000908152604090205460ff81169061010090046001600160a01b031682565b805160208183018101805160078252928201919093012091525481565b6004546000906001600160a01b0316331461159e5760405162461bcd60e51b81526004018080602001828103825260448152602001806123386044913960600191505060405180910390fd5b5060035490565b6004546000906001600160a01b031633146115f15760405162461bcd60e51b81526004018080602001828103825260448152602001806123386044913960600191505060405180910390fd5b5060015490565b6004546000906001600160a01b031633146116445760405162461bcd60e51b81526004018080602001828103825260448152602001806123386044913960600191505060405180910390fd5b60008281526009602052604090205460ff1661100e575060008181526009602052604090205461010090046001600160a01b031661100e565b60028181548110610e8657600080fd5b6004546060908190819081906001600160a01b031633146116df5760405162461bcd60e51b81526004018080602001828103825260448152602001806123386044913960600191505060405180910390fd5b6008856040518082805190602001908083835b602083106117115780518252601f1990920191602091820191016116f2565b6001836020036101000a03801982511681845116808217855250505050505090500191505090815260200160405180910390206001016008866040518082805190602001908083835b602083106117795780518252601f19909201916020918201910161175a565b6001836020036101000a03801982511681845116808217855250505050505090500191505090815260200160405180910390206002016008876040518082805190602001908083835b602083106117e15780518252601f1990920191602091820191016117c2565b6001836020036101000a03801982511681845116808217855250505050505090500191505090815260200160405180910390206003016008886040518082805190602001908083835b602083106118495780518252601f19909201916020918201910161182a565b518151600019602094850361010090810a820192831692199390931691909117909252949092019687526040805197889003820188208b54601f600260018316159098029095011695909504928301829004820288018201905281875260049093019594508893509184019050828280156119055780601f106118da57610100808354040283529160200191611905565b820191906000526020600020905b8154815290600101906020018083116118e857829003601f168201915b5050865460408051602060026001851615610100026000190190941693909304601f8101849004840282018401909252818152959950889450925084019050828280156119935780601f1061196857610100808354040283529160200191611993565b820191906000526020600020905b81548152906001019060200180831161197657829003601f168201915b5050855460408051602060026001851615610100026000190190941693909304601f810184900484028201840190925281815295985087945092508401905082828015611a215780601f106119f657610100808354040283529160200191611a21565b820191906000526020600020905b815481529060010190602001808311611a0457829003601f168201915b5050845460408051602060026001851615610100026000190190941693909304601f810184900484028201840190925281815295975086945092508401905082828015611aaf5780601f10611a8457610100808354040283529160200191611aaf565b820191906000526020600020905b815481529060010190602001808311611a9257829003601f168201915b5050505050905093509350935093509193509193565b6005546001600160a01b03163314611b0e5760405162461bcd60e51b81526004018080602001828103825260448152602001806123386044913960600191505060405180910390fd5b60058054911515600160a01b0260ff60a01b19909216919091179055565b805160208183018101805160088252928201938201939093209190925280546040805160026001841615610100026000190190931692909204601f8101859004850283018501909152808252919290918391830182828015611bcf5780601f10611ba457610100808354040283529160200191611bcf565b820191906000526020600020905b815481529060010190602001808311611bb257829003601f168201915b505050505090806001018054600181600116156101000203166002900480601f016020809104026020016040519081016040528092919081815260200182805460018160011615610100020316600290048015611c6d5780601f10611c4257610100808354040283529160200191611c6d565b820191906000526020600020905b815481529060010190602001808311611c5057829003601f168201915b50505060028085018054604080516020601f6000196101006001871615020190941695909504928301859004850281018501909152818152959695945090925090830182828015611cff5780601f10611cd457610100808354040283529160200191611cff565b820191906000526020600020905b815481529060010190602001808311611ce257829003601f168201915b5050505060038301805460408051602060026001851615610100026000190190941693909304601f8101849004840282018401909252818152949594935090830182828015611d8f5780601f10611d6457610100808354040283529160200191611d8f565b820191906000526020600020905b815481529060010190602001808311611d7257829003601f168201915b5050505060048301805460408051602060026001851615610100026000190190941693909304601f8101849004840282018401909252818152949594935090830182828015611e1f5780601f10611df457610100808354040283529160200191611e1f565b820191906000526020600020905b815481529060010190602001808311611e0257829003601f168201915b5050505050905085565b60045460609081906001600160a01b03163314611e775760405162461bcd60e51b81526004018080602001828103825260448152602001806123386044913960600191505060405180910390fd5b60018381548110611e8457fe5b9060005260206000200160028481548110611e9b57fe5b600091825260209182902083546040805160026001841615610100026000190190931692909204601f8101869004860283018601909152808252929091019290918491830182828015611f2f5780601f10611f0457610100808354040283529160200191611f2f565b820191906000526020600020905b815481529060010190602001808311611f1257829003601f168201915b5050845460408051602060026001851615610100026000190190941693909304601f810184900484028201840190925281815295975086945092508401905082828015611fbd5780601f10611f9257610100808354040283529160200191611fbd565b820191906000526020600020905b815481529060010190602001808311611fa057829003601f168201915b5050505050905091509150915091565b6005546001600160a01b031633146120165760405162461bcd60e51b81526004018080602001828103825260448152602001806123386044913960600191505060405180910390fd5b6006805460009081526009602052604080822080546001600160a01b0390951661010002610100600160a81b0319909516949094179093558154815291909120805460ff1916905580546001019055565b6000336001600160a01b031663893d20e86040518163ffffffff1660e01b815260040160206040518083038186803b1580156120a257600080fd5b505afa1580156120b6573d6000803e3d6000fd5b505050506040513d60208110156120cc57600080fd5b5051600554604080516304bf6b2360e51b81526001600160a01b03808516600483015291519394509116916397ed646091602480820192602092909190829003018186803b15801561211d57600080fd5b505afa158015612131573d6000803e3d6000fd5b505050506040513d602081101561214757600080fd5b50516001600160a01b031661218d5760405162461bcd60e51b81526004018080602001828103825260448152602001806123386044913960600191505060405180910390fd5b60015460405184518291600791879190819060208401908083835b602083106121c75780518252601f1990920191602091820191016121a8565b51815160209384036101000a6000190180199092169116179052920194855250604051938490038101909320939093555060028054600181018255600091909152855161223c93507f405787fa12a823e0f2b7631cc41b3ba8828b3321ca811111fa75cd3aa3bb5ace90910191860190612296565b50600180548082018255600091909152845161227f917fb10e2d527612073b26eecdfd717e6a320cf44b4afac2b0732d9fcbe2b7fa0cf601906020870190612296565b5050505050565b600554600160a01b900460ff1690565b828054600181600116156101000203166002900490600052602060002090601f0160209004810192826122cc5760008555612312565b82601f106122e557805160ff1916838001178555612312565b82800160010185558215612312579182015b828111156123125782518255916020019190600101906122f7565b5061231e929150612322565b5090565b5b8082111561231e576000815560010161232356fe4c2761647265736120717565206861207265616c69747a6174206c61206372696461206e6f20746520656c73207065726d6973736f732064652070726f7069657461742ea2646970667358221220e55b5cccc20d90b51f5a46aad1692e87ebb409a6130cce19cc59bebac95128bf64736f6c63430007060033608060405234801561001057600080fd5b506040516104fd3803806104fd8339818101604052604081101561003357600080fd5b508051602090910151600080546001600160a01b039384166001600160a01b031991821617909155600280549390921692169190911790556104838061007a6000396000f3fe608060405234801561001057600080fd5b50600436106100415760003560e01c80632b68b9c61461004657806363bf703e14610050578063893d20e81461018d575b600080fd5b61004e6101b1565b005b61004e6004803603606081101561006657600080fd5b6001600160a01b03823516919081019060408101602082013564010000000081111561009157600080fd5b8201836020820111156100a357600080fd5b803590602001918460018302840111640100000000831117156100c557600080fd5b91908080601f016020809104026020016040519081016040528093929190818152602001838380828437600092019190915250929594936020810193503591505064010000000081111561011857600080fd5b82018360208201111561012a57600080fd5b8035906020019184600183028401116401000000008311171561014c57600080fd5b91908080601f016020809104026020016040519081016040528093929190818152602001838380828437600092019190915250929550610247945050505050565b6101956103fa565b604080516001600160a01b039092168252519081900360200190f35b6002546001600160a01b031633146101fa5760405162461bcd60e51b815260040180806020018281038252604481526020018061040a6044913960600191505060405180910390fd5b600054604080516001600160a01b039092168252517f55547a22c7e9b5d3a54dfb4f6ac739551847561a3347b7484040455fc8b188949181900360200190a16000546001600160a01b0316ff5b6000546001600160a01b031633146102905760405162461bcd60e51b815260040180806020018281038252604481526020018061040a6044913960600191505060405180910390fd5b6040805163f6a0576d60e01b8152600481019182528351604482015283516001600160a01b0386169263f6a0576d9286928692918291602482019160640190602087019080838360005b838110156102f25781810151838201526020016102da565b50505050905090810190601f16801561031f5780820380516001836020036101000a031916815260200191505b50838103825284518152845160209182019186019080838360005b8381101561035257818101518382015260200161033a565b50505050905090810190601f16801561037f5780820380516001836020036101000a031916815260200191505b50945050505050600060405180830381600087803b1580156103a057600080fd5b505af11580156103b4573d6000803e3d6000fd5b5050604080516001600160a01b038716815290517ff3c2359da4b62ab6d95f9cbe80f73519366be835dff25574414cf316ecc00af79350908190036020019150a1505050565b6000546001600160a01b03169056fe4c2761647265736120717565206861207265616c69747a6174206c61206372696461206e6f20746520656c73207065726d6973736f732064652070726f7069657461742ea2646970667358221220b999c4931419fb53510d935b8d7b99f7c553a7cf20a95264739e5b52ea216a8164736f6c634300070600334c2761647265736120717565206861207265616c69747a6174206c61206372696461206e6f20746520656c73207065726d6973736f732064652070726f7069657461742ea264697066735822122075a1596dc9c4aaf15b5e9c0a86a4097638d568df0a2c16d837295e0c78860f3364736f6c63430007060033",
  "linkReferences": {},
  "deployedLinkReferences": {}
}