{
  "abi": [
    {
      "anonymous": false,
      "inputs": [
        {
          "indexed": false,
          "internalType": "address",
          "name": "",
          "type": "address"
        },
        {
          "indexed": false,
          "internalType": "bool",
          "name": "",
          "type": "bool"
        }
      ],
      "name": "entity",
      "type": "event",
      "signature": "0xfb1fe99bdd0ab633267cc6c574aa5521b20cbcb196b776b9d40b7d81f9afc554"
    },
    {
      "anonymous": false,
      "inputs": [
        {
          "indexed": false,
          "internalType": "string",
          "name": "",
          "type": "string"
        },
        {
          "indexed": false,
          "internalType": "address",
          "name": "",
          "type": "address"
        }
      ],
      "name": "newLab",
      "type": "event",
      "signature": "0x681d10e7ef9b9b1c9955e8cfb39c8982d63b7f4185f90016e1e0fd8563d44f8c"
    },
    {
      "anonymous": false,
      "inputs": [
        {
          "indexed": false,
          "internalType": "address",
          "name": "",
          "type": "address"
        }
      ],
      "name": "new_User",
      "type": "event",
      "signature": "0x2449b149f88e6eb459a7d3af8ea2c659fdf1499c81539604353c270f65908aca"
    },
    {
      "inputs": [
        {
          "internalType": "uint256",
          "name": "",
          "type": "uint256"
        }
      ],
      "name": "Active_Labs",
      "outputs": [
        {
          "internalType": "address",
          "name": "",
          "type": "address"
        }
      ],
      "stateMutability": "view",
      "type": "function",
      "constant": true,
      "signature": "0xc0632116"
    },
    {
      "inputs": [
        {
          "internalType": "uint256",
          "name": "",
          "type": "uint256"
        }
      ],
      "name": "Active_Users",
      "outputs": [
        {
          "internalType": "address",
          "name": "",
          "type": "address"
        }
      ],
      "stateMutability": "view",
      "type": "function",
      "constant": true,
      "signature": "0xef0b39c4"
    },
    {
      "inputs": [
        {
          "internalType": "bool",
          "name": "active",
          "type": "bool"
        },
        {
          "internalType": "address",
          "name": "_entityAdr",
          "type": "address"
        }
      ],
      "name": "Entity",
      "outputs": [],
      "stateMutability": "nonpayable",
      "type": "function",
      "signature": "0x94af50e6"
    },
    {
      "inputs": [
        {
          "internalType": "address",
          "name": "",
          "type": "address"
        }
      ],
      "name": "Lab",
      "outputs": [
        {
          "internalType": "string",
          "name": "name",
          "type": "string"
        },
        {
          "internalType": "bool",
          "name": "active",
          "type": "bool"
        },
        {
          "internalType": "address",
          "name": "sc_adr",
          "type": "address"
        }
      ],
      "stateMutability": "view",
      "type": "function",
      "constant": true,
      "signature": "0xa3d1594e"
    },
    {
      "inputs": [
        {
          "internalType": "address",
          "name": "_lab",
          "type": "address"
        },
        {
          "internalType": "address",
          "name": "_sc_adr",
          "type": "address"
        }
      ],
      "name": "deleteLab",
      "outputs": [],
      "stateMutability": "nonpayable",
      "type": "function",
      "signature": "0x60259fe9"
    },
    {
      "inputs": [
        {
          "internalType": "address",
          "name": "adr_Lab",
          "type": "address"
        }
      ],
      "name": "getLabName",
      "outputs": [
        {
          "internalType": "string",
          "name": "",
          "type": "string"
        }
      ],
      "stateMutability": "view",
      "type": "function",
      "constant": true,
      "signature": "0x887ca0d3"
    },
    {
      "inputs": [
        {
          "internalType": "address",
          "name": "adr_Lab",
          "type": "address"
        }
      ],
      "name": "getLabSC",
      "outputs": [
        {
          "internalType": "address",
          "name": "",
          "type": "address"
        }
      ],
      "stateMutability": "view",
      "type": "function",
      "constant": true,
      "signature": "0x97ed6460"
    },
    {
      "inputs": [
        {
          "internalType": "address",
          "name": "adr_Lab",
          "type": "address"
        }
      ],
      "name": "getLabState",
      "outputs": [
        {
          "internalType": "bool",
          "name": "",
          "type": "bool"
        }
      ],
      "stateMutability": "view",
      "type": "function",
      "constant": true,
      "signature": "0x41fd25b3"
    },
    {
      "inputs": [],
      "name": "getLabsCount",
      "outputs": [
        {
          "internalType": "uint256",
          "name": "",
          "type": "uint256"
        }
      ],
      "stateMutability": "view",
      "type": "function",
      "constant": true,
      "signature": "0xcf64cd82"
    },
    {
      "inputs": [
        {
          "internalType": "address",
          "name": "adr_User",
          "type": "address"
        }
      ],
      "name": "getUserSC",
      "outputs": [
        {
          "internalType": "address",
          "name": "",
          "type": "address"
        }
      ],
      "stateMutability": "view",
      "type": "function",
      "constant": true,
      "signature": "0xf4e7f8fa"
    },
    {
      "inputs": [
        {
          "internalType": "address payable",
          "name": "_lab",
          "type": "address"
        },
        {
          "internalType": "string",
          "name": "_name",
          "type": "string"
        }
      ],
      "name": "registerLab",
      "outputs": [],
      "stateMutability": "nonpayable",
      "type": "function",
      "signature": "0x489c3483"
    },
    {
      "inputs": [
        {
          "internalType": "address",
          "name": "_owner",
          "type": "address"
        },
        {
          "internalType": "string",
          "name": "_pubKey",
          "type": "string"
        }
      ],
      "name": "registerUser",
      "outputs": [
        {
          "internalType": "address",
          "name": "",
          "type": "address"
        }
      ],
      "stateMutability": "nonpayable",
      "type": "function",
      "signature": "0x0ea126f9"
    },
    {
      "inputs": [
        {
          "internalType": "address",
          "name": "",
          "type": "address"
        }
      ],
      "name": "userSC",
      "outputs": [
        {
          "internalType": "address",
          "name": "",
          "type": "address"
        }
      ],
      "stateMutability": "view",
      "type": "function",
      "constant": true,
      "signature": "0x3befa1b8"
    }
  ],
  "devdoc": {
    "kind": "dev",
    "methods": {},
    "version": 1
  },
  "evm": {
    "assembly": "    /* \"pasport_sc.sol\":58:2694  contract who{... */\n  mstore(0x40, 0x80)\n    /* \"pasport_sc.sol\":124:166  0x70F6714dCa2f53A17558C5dff99D572959f77D9c */\n  0x70f6714dca2f53a17558c5dff99d572959f77d9c\n    /* \"pasport_sc.sol\":108:166  address owner = 0x70F6714dCa2f53A17558C5dff99D572959f77D9c */\n  0x00\n  dup1\n  0x0100\n  exp\n  dup2\n  sload\n  dup2\n  0xffffffffffffffffffffffffffffffffffffffff\n  mul\n  not\n  and\n  swap1\n  dup4\n  0xffffffffffffffffffffffffffffffffffffffff\n  and\n  mul\n  or\n  swap1\n  sstore\n  pop\n    /* \"pasport_sc.sol\":58:2694  contract who{... */\n  callvalue\n  dup1\n  iszero\n  tag_1\n  jumpi\n  0x00\n  dup1\n  revert\ntag_1:\n  pop\n  dataSize(sub_0)\n  dup1\n  dataOffset(sub_0)\n  0x00\n  codecopy\n  0x00\n  return\nstop\n\nsub_0: assembly {\n        /* \"pasport_sc.sol\":58:2694  contract who{... */\n      mstore(0x40, 0x80)\n      callvalue\n      dup1\n      iszero\n      tag_1\n      jumpi\n      0x00\n      dup1\n      revert\n    tag_1:\n      pop\n      jumpi(tag_2, lt(calldatasize, 0x04))\n      shr(0xe0, calldataload(0x00))\n      dup1\n      0x94af50e6\n      gt\n      tag_16\n      jumpi\n      dup1\n      0xc0632116\n      gt\n      tag_17\n      jumpi\n      dup1\n      0xc0632116\n      eq\n      tag_12\n      jumpi\n      dup1\n      0xcf64cd82\n      eq\n      tag_13\n      jumpi\n      dup1\n      0xef0b39c4\n      eq\n      tag_14\n      jumpi\n      dup1\n      0xf4e7f8fa\n      eq\n      tag_15\n      jumpi\n      jump(tag_2)\n    tag_17:\n      dup1\n      0x94af50e6\n      eq\n      tag_9\n      jumpi\n      dup1\n      0x97ed6460\n      eq\n      tag_10\n      jumpi\n      dup1\n      0xa3d1594e\n      eq\n      tag_11\n      jumpi\n      jump(tag_2)\n    tag_16:\n      dup1\n      0x0ea126f9\n      eq\n      tag_3\n      jumpi\n      dup1\n      0x3befa1b8\n      eq\n      tag_4\n      jumpi\n      dup1\n      0x41fd25b3\n      eq\n      tag_5\n      jumpi\n      dup1\n      0x489c3483\n      eq\n      tag_6\n      jumpi\n      dup1\n      0x60259fe9\n      eq\n      tag_7\n      jumpi\n      dup1\n      0x887ca0d3\n      eq\n      tag_8\n      jumpi\n    tag_2:\n      0x00\n      dup1\n      revert\n        /* \"pasport_sc.sol\":786:1123  function registerUser(address _owner, string memory _pubKey) external returns (address) {... */\n    tag_3:\n      tag_18\n      0x04\n      dup1\n      calldatasize\n      sub\n      0x40\n      dup2\n      lt\n      iszero\n      tag_19\n      jumpi\n      0x00\n      dup1\n      revert\n    tag_19:\n      dup2\n      add\n      swap1\n      dup1\n      dup1\n      calldataload\n      0xffffffffffffffffffffffffffffffffffffffff\n      and\n      swap1\n      0x20\n      add\n      swap1\n      swap3\n      swap2\n      swap1\n      dup1\n      calldataload\n      swap1\n      0x20\n      add\n      swap1\n      0x0100000000\n      dup2\n      gt\n      iszero\n      tag_20\n      jumpi\n      0x00\n      dup1\n      revert\n    tag_20:\n      dup3\n      add\n      dup4\n      0x20\n      dup3\n      add\n      gt\n      iszero\n      tag_21\n      jumpi\n      0x00\n      dup1\n      revert\n    tag_21:\n      dup1\n      calldataload\n      swap1\n      0x20\n      add\n      swap2\n      dup5\n      0x01\n      dup4\n      mul\n      dup5\n      add\n      gt\n      0x0100000000\n      dup4\n      gt\n      or\n      iszero\n      tag_22\n      jumpi\n      0x00\n      dup1\n      revert\n    tag_22:\n      swap2\n      swap1\n      dup1\n      dup1\n      0x1f\n      add\n      0x20\n      dup1\n      swap2\n      div\n      mul\n      0x20\n      add\n      mload(0x40)\n      swap1\n      dup2\n      add\n      0x40\n      mstore\n      dup1\n      swap4\n      swap3\n      swap2\n      swap1\n      dup2\n      dup2\n      mstore\n      0x20\n      add\n      dup4\n      dup4\n      dup1\n      dup3\n      dup5\n      calldatacopy\n      0x00\n      dup2\n      dup5\n      add\n      mstore\n      not(0x1f)\n      0x1f\n      dup3\n      add\n      and\n      swap1\n      pop\n      dup1\n      dup4\n      add\n      swap3\n      pop\n      pop\n      pop\n      pop\n      pop\n      pop\n      pop\n      swap2\n      swap3\n      swap2\n      swap3\n      swap1\n      pop\n      pop\n      pop\n      tag_23\n      jump\t// in\n    tag_18:\n      mload(0x40)\n      dup1\n      dup3\n      0xffffffffffffffffffffffffffffffffffffffff\n      and\n      dup2\n      mstore\n      0x20\n      add\n      swap2\n      pop\n      pop\n      mload(0x40)\n      dup1\n      swap2\n      sub\n      swap1\n      return\n        /* \"pasport_sc.sol\":294:336  mapping (address => address) public userSC */\n    tag_4:\n      tag_24\n      0x04\n      dup1\n      calldatasize\n      sub\n      0x20\n      dup2\n      lt\n      iszero\n      tag_25\n      jumpi\n      0x00\n      dup1\n      revert\n    tag_25:\n      dup2\n      add\n      swap1\n      dup1\n      dup1\n      calldataload\n      0xffffffffffffffffffffffffffffffffffffffff\n      and\n      swap1\n      0x20\n      add\n      swap1\n      swap3\n      swap2\n      swap1\n      pop\n      pop\n      pop\n      tag_26\n      jump\t// in\n    tag_24:\n      mload(0x40)\n      dup1\n      dup3\n      0xffffffffffffffffffffffffffffffffffffffff\n      and\n      dup2\n      mstore\n      0x20\n      add\n      swap2\n      pop\n      pop\n      mload(0x40)\n      dup1\n      swap2\n      sub\n      swap1\n      return\n        /* \"pasport_sc.sol\":1883:2001  function getLabState(address adr_Lab) public view onlyOwner() returns(bool){... */\n    tag_5:\n      tag_27\n      0x04\n      dup1\n      calldatasize\n      sub\n      0x20\n      dup2\n      lt\n      iszero\n      tag_28\n      jumpi\n      0x00\n      dup1\n      revert\n    tag_28:\n      dup2\n      add\n      swap1\n      dup1\n      dup1\n      calldataload\n      0xffffffffffffffffffffffffffffffffffffffff\n      and\n      swap1\n      0x20\n      add\n      swap1\n      swap3\n      swap2\n      swap1\n      pop\n      pop\n      pop\n      tag_29\n      jump\t// in\n    tag_27:\n      mload(0x40)\n      dup1\n      dup3\n      iszero\n      iszero\n      dup2\n      mstore\n      0x20\n      add\n      swap2\n      pop\n      pop\n      mload(0x40)\n      dup1\n      swap2\n      sub\n      swap1\n      return\n        /* \"pasport_sc.sol\":477:747  function registerLab(address payable _lab, string memory _name) public onlyOwner() {... */\n    tag_6:\n      tag_30\n      0x04\n      dup1\n      calldatasize\n      sub\n      0x40\n      dup2\n      lt\n      iszero\n      tag_31\n      jumpi\n      0x00\n      dup1\n      revert\n    tag_31:\n      dup2\n      add\n      swap1\n      dup1\n      dup1\n      calldataload\n      0xffffffffffffffffffffffffffffffffffffffff\n      and\n      swap1\n      0x20\n      add\n      swap1\n      swap3\n      swap2\n      swap1\n      dup1\n      calldataload\n      swap1\n      0x20\n      add\n      swap1\n      0x0100000000\n      dup2\n      gt\n      iszero\n      tag_32\n      jumpi\n      0x00\n      dup1\n      revert\n    tag_32:\n      dup3\n      add\n      dup4\n      0x20\n      dup3\n      add\n      gt\n      iszero\n      tag_33\n      jumpi\n      0x00\n      dup1\n      revert\n    tag_33:\n      dup1\n      calldataload\n      swap1\n      0x20\n      add\n      swap2\n      dup5\n      0x01\n      dup4\n      mul\n      dup5\n      add\n      gt\n      0x0100000000\n      dup4\n      gt\n      or\n      iszero\n      tag_34\n      jumpi\n      0x00\n      dup1\n      revert\n    tag_34:\n      swap2\n      swap1\n      dup1\n      dup1\n      0x1f\n      add\n      0x20\n      dup1\n      swap2\n      div\n      mul\n      0x20\n      add\n      mload(0x40)\n      swap1\n      dup2\n      add\n      0x40\n      mstore\n      dup1\n      swap4\n      swap3\n      swap2\n      swap1\n      dup2\n      dup2\n      mstore\n      0x20\n      add\n      dup4\n      dup4\n      dup1\n      dup3\n      dup5\n      calldatacopy\n      0x00\n      dup2\n      dup5\n      add\n      mstore\n      not(0x1f)\n      0x1f\n      dup3\n      add\n      and\n      swap1\n      pop\n      dup1\n      dup4\n      add\n      swap3\n      pop\n      pop\n      pop\n      pop\n      pop\n      pop\n      pop\n      swap2\n      swap3\n      swap2\n      swap3\n      swap1\n      pop\n      pop\n      pop\n      tag_35\n      jump\t// in\n    tag_30:\n      stop\n        /* \"pasport_sc.sol\":2250:2392  function deleteLab(address _lab, address _sc_adr) public onlyOwner(){... */\n    tag_7:\n      tag_36\n      0x04\n      dup1\n      calldatasize\n      sub\n      0x40\n      dup2\n      lt\n      iszero\n      tag_37\n      jumpi\n      0x00\n      dup1\n      revert\n    tag_37:\n      dup2\n      add\n      swap1\n      dup1\n      dup1\n      calldataload\n      0xffffffffffffffffffffffffffffffffffffffff\n      and\n      swap1\n      0x20\n      add\n      swap1\n      swap3\n      swap2\n      swap1\n      dup1\n      calldataload\n      0xffffffffffffffffffffffffffffffffffffffff\n      and\n      swap1\n      0x20\n      add\n      swap1\n      swap3\n      swap2\n      swap1\n      pop\n      pop\n      pop\n      tag_38\n      jump\t// in\n    tag_36:\n      stop\n        /* \"pasport_sc.sol\":1749:1873  function getLabName(address adr_Lab) public view onlyOwner() returns(string memory){... */\n    tag_8:\n      tag_39\n      0x04\n      dup1\n      calldatasize\n      sub\n      0x20\n      dup2\n      lt\n      iszero\n      tag_40\n      jumpi\n      0x00\n      dup1\n      revert\n    tag_40:\n      dup2\n      add\n      swap1\n      dup1\n      dup1\n      calldataload\n      0xffffffffffffffffffffffffffffffffffffffff\n      and\n      swap1\n      0x20\n      add\n      swap1\n      swap3\n      swap2\n      swap1\n      pop\n      pop\n      pop\n      tag_41\n      jump\t// in\n    tag_39:\n      mload(0x40)\n      dup1\n      dup1\n      0x20\n      add\n      dup3\n      dup2\n      sub\n      dup3\n      mstore\n      dup4\n      dup2\n      dup2\n      mload\n      dup2\n      mstore\n      0x20\n      add\n      swap2\n      pop\n      dup1\n      mload\n      swap1\n      0x20\n      add\n      swap1\n      dup1\n      dup4\n      dup4\n      0x00\n    tag_42:\n      dup4\n      dup2\n      lt\n      iszero\n      tag_44\n      jumpi\n      dup1\n      dup3\n      add\n      mload\n      dup2\n      dup5\n      add\n      mstore\n      0x20\n      dup2\n      add\n      swap1\n      pop\n      jump(tag_42)\n    tag_44:\n      pop\n      pop\n      pop\n      pop\n      swap1\n      pop\n      swap1\n      dup2\n      add\n      swap1\n      0x1f\n      and\n      dup1\n      iszero\n      tag_45\n      jumpi\n      dup1\n      dup3\n      sub\n      dup1\n      mload\n      0x01\n      dup4\n      0x20\n      sub\n      0x0100\n      exp\n      sub\n      not\n      and\n      dup2\n      mstore\n      0x20\n      add\n      swap2\n      pop\n    tag_45:\n      pop\n      swap3\n      pop\n      pop\n      pop\n      mload(0x40)\n      dup1\n      swap2\n      sub\n      swap1\n      return\n        /* \"pasport_sc.sol\":1166:1373  function Entity(bool active, address _entityAdr) public onlyOwner(){... */\n    tag_9:\n      tag_46\n      0x04\n      dup1\n      calldatasize\n      sub\n      0x40\n      dup2\n      lt\n      iszero\n      tag_47\n      jumpi\n      0x00\n      dup1\n      revert\n    tag_47:\n      dup2\n      add\n      swap1\n      dup1\n      dup1\n      calldataload\n      iszero\n      iszero\n      swap1\n      0x20\n      add\n      swap1\n      swap3\n      swap2\n      swap1\n      dup1\n      calldataload\n      0xffffffffffffffffffffffffffffffffffffffff\n      and\n      swap1\n      0x20\n      add\n      swap1\n      swap3\n      swap2\n      swap1\n      pop\n      pop\n      pop\n      tag_48\n      jump\t// in\n    tag_46:\n      stop\n        /* \"pasport_sc.sol\":2011:2117  function getLabSC(address adr_Lab) public view returns(address){... */\n    tag_10:\n      tag_49\n      0x04\n      dup1\n      calldatasize\n      sub\n      0x20\n      dup2\n      lt\n      iszero\n      tag_50\n      jumpi\n      0x00\n      dup1\n      revert\n    tag_50:\n      dup2\n      add\n      swap1\n      dup1\n      dup1\n      calldataload\n      0xffffffffffffffffffffffffffffffffffffffff\n      and\n      swap1\n      0x20\n      add\n      swap1\n      swap3\n      swap2\n      swap1\n      pop\n      pop\n      pop\n      tag_51\n      jump\t// in\n    tag_49:\n      mload(0x40)\n      dup1\n      dup3\n      0xffffffffffffffffffffffffffffffffffffffff\n      and\n      dup2\n      mstore\n      0x20\n      add\n      swap2\n      pop\n      pop\n      mload(0x40)\n      dup1\n      swap2\n      sub\n      swap1\n      return\n        /* \"pasport_sc.sol\":246:288  mapping (address => struct_Lab) public Lab */\n    tag_11:\n      tag_52\n      0x04\n      dup1\n      calldatasize\n      sub\n      0x20\n      dup2\n      lt\n      iszero\n      tag_53\n      jumpi\n      0x00\n      dup1\n      revert\n    tag_53:\n      dup2\n      add\n      swap1\n      dup1\n      dup1\n      calldataload\n      0xffffffffffffffffffffffffffffffffffffffff\n      and\n      swap1\n      0x20\n      add\n      swap1\n      swap3\n      swap2\n      swap1\n      pop\n      pop\n      pop\n      tag_54\n      jump\t// in\n    tag_52:\n      mload(0x40)\n      dup1\n      dup1\n      0x20\n      add\n      dup5\n      iszero\n      iszero\n      dup2\n      mstore\n      0x20\n      add\n      dup4\n      0xffffffffffffffffffffffffffffffffffffffff\n      and\n      dup2\n      mstore\n      0x20\n      add\n      dup3\n      dup2\n      sub\n      dup3\n      mstore\n      dup6\n      dup2\n      dup2\n      mload\n      dup2\n      mstore\n      0x20\n      add\n      swap2\n      pop\n      dup1\n      mload\n      swap1\n      0x20\n      add\n      swap1\n      dup1\n      dup4\n      dup4\n      0x00\n    tag_55:\n      dup4\n      dup2\n      lt\n      iszero\n      tag_57\n      jumpi\n      dup1\n      dup3\n      add\n      mload\n      dup2\n      dup5\n      add\n      mstore\n      0x20\n      dup2\n      add\n      swap1\n      pop\n      jump(tag_55)\n    tag_57:\n      pop\n      pop\n      pop\n      pop\n      swap1\n      pop\n      swap1\n      dup2\n      add\n      swap1\n      0x1f\n      and\n      dup1\n      iszero\n      tag_58\n      jumpi\n      dup1\n      dup3\n      sub\n      dup1\n      mload\n      0x01\n      dup4\n      0x20\n      sub\n      0x0100\n      exp\n      sub\n      not\n      and\n      dup2\n      mstore\n      0x20\n      add\n      swap2\n      pop\n    tag_58:\n      pop\n      swap5\n      pop\n      pop\n      pop\n      pop\n      pop\n      mload(0x40)\n      dup1\n      swap2\n      sub\n      swap1\n      return\n        /* \"pasport_sc.sol\":177:205  address[] public Active_Labs */\n    tag_12:\n      tag_59\n      0x04\n      dup1\n      calldatasize\n      sub\n      0x20\n      dup2\n      lt\n      iszero\n      tag_60\n      jumpi\n      0x00\n      dup1\n      revert\n    tag_60:\n      dup2\n      add\n      swap1\n      dup1\n      dup1\n      calldataload\n      swap1\n      0x20\n      add\n      swap1\n      swap3\n      swap2\n      swap1\n      pop\n      pop\n      pop\n      tag_61\n      jump\t// in\n    tag_59:\n      mload(0x40)\n      dup1\n      dup3\n      0xffffffffffffffffffffffffffffffffffffffff\n      and\n      dup2\n      mstore\n      0x20\n      add\n      swap2\n      pop\n      pop\n      mload(0x40)\n      dup1\n      swap2\n      sub\n      swap1\n      return\n        /* \"pasport_sc.sol\":1383:1496  function getLabsCount()public view onlyOwner() returns(uint256){... */\n    tag_13:\n      tag_62\n      tag_63\n      jump\t// in\n    tag_62:\n      mload(0x40)\n      dup1\n      dup3\n      dup2\n      mstore\n      0x20\n      add\n      swap2\n      pop\n      pop\n      mload(0x40)\n      dup1\n      swap2\n      sub\n      swap1\n      return\n        /* \"pasport_sc.sol\":211:240  address[] public Active_Users */\n    tag_14:\n      tag_64\n      0x04\n      dup1\n      calldatasize\n      sub\n      0x20\n      dup2\n      lt\n      iszero\n      tag_65\n      jumpi\n      0x00\n      dup1\n      revert\n    tag_65:\n      dup2\n      add\n      swap1\n      dup1\n      dup1\n      calldataload\n      swap1\n      0x20\n      add\n      swap1\n      swap3\n      swap2\n      swap1\n      pop\n      pop\n      pop\n      tag_66\n      jump\t// in\n    tag_64:\n      mload(0x40)\n      dup1\n      dup3\n      0xffffffffffffffffffffffffffffffffffffffff\n      and\n      dup2\n      mstore\n      0x20\n      add\n      swap2\n      pop\n      pop\n      mload(0x40)\n      dup1\n      swap2\n      sub\n      swap1\n      return\n        /* \"pasport_sc.sol\":2127:2244  function getUserSC(address adr_User) public view onlyOwner() returns(address){... */\n    tag_15:\n      tag_67\n      0x04\n      dup1\n      calldatasize\n      sub\n      0x20\n      dup2\n      lt\n      iszero\n      tag_68\n      jumpi\n      0x00\n      dup1\n      revert\n    tag_68:\n      dup2\n      add\n      swap1\n      dup1\n      dup1\n      calldataload\n      0xffffffffffffffffffffffffffffffffffffffff\n      and\n      swap1\n      0x20\n      add\n      swap1\n      swap3\n      swap2\n      swap1\n      pop\n      pop\n      pop\n      tag_69\n      jump\t// in\n    tag_67:\n      mload(0x40)\n      dup1\n      dup3\n      0xffffffffffffffffffffffffffffffffffffffff\n      and\n      dup2\n      mstore\n      0x20\n      add\n      swap2\n      pop\n      pop\n      mload(0x40)\n      dup1\n      swap2\n      sub\n      swap1\n      return\n        /* \"pasport_sc.sol\":786:1123  function registerUser(address _owner, string memory _pubKey) external returns (address) {... */\n    tag_23:\n        /* \"pasport_sc.sol\":865:872  address */\n      0x00\n        /* \"pasport_sc.sol\":884:901  address userOwner */\n      dup1\n        /* \"pasport_sc.sol\":904:910  _owner */\n      dup4\n        /* \"pasport_sc.sol\":884:910  address userOwner = _owner */\n      swap1\n      pop\n        /* \"pasport_sc.sol\":920:934  address sc_adr */\n      0x00\n        /* \"pasport_sc.sol\":954:963  userOwner */\n      dup2\n        /* \"pasport_sc.sol\":965:972  _pubKey */\n      dup5\n        /* \"pasport_sc.sol\":945:973  new user(userOwner, _pubKey) */\n      mload(0x40)\n      tag_71\n      swap1\n      tag_72\n      jump\t// in\n    tag_71:\n      dup1\n      dup4\n      0xffffffffffffffffffffffffffffffffffffffff\n      and\n      dup2\n      mstore\n      0x20\n      add\n      dup1\n      0x20\n      add\n      dup3\n      dup2\n      sub\n      dup3\n      mstore\n      dup4\n      dup2\n      dup2\n      mload\n      dup2\n      mstore\n      0x20\n      add\n      swap2\n      pop\n      dup1\n      mload\n      swap1\n      0x20\n      add\n      swap1\n      dup1\n      dup4\n      dup4\n      0x00\n    tag_73:\n      dup4\n      dup2\n      lt\n      iszero\n      tag_75\n      jumpi\n      dup1\n      dup3\n      add\n      mload\n      dup2\n      dup5\n      add\n      mstore\n      0x20\n      dup2\n      add\n      swap1\n      pop\n      jump(tag_73)\n    tag_75:\n      pop\n      pop\n      pop\n      pop\n      swap1\n      pop\n      swap1\n      dup2\n      add\n      swap1\n      0x1f\n      and\n      dup1\n      iszero\n      tag_76\n      jumpi\n      dup1\n      dup3\n      sub\n      dup1\n      mload\n      0x01\n      dup4\n      0x20\n      sub\n      0x0100\n      exp\n      sub\n      not\n      and\n      dup2\n      mstore\n      0x20\n      add\n      swap2\n      pop\n    tag_76:\n      pop\n      swap4\n      pop\n      pop\n      pop\n      pop\n      mload(0x40)\n      dup1\n      swap2\n      sub\n      swap1\n      0x00\n      create\n      dup1\n      iszero\n      dup1\n      iszero\n      tag_77\n      jumpi\n      returndatasize\n      0x00\n      dup1\n      returndatacopy\n      revert(0x00, returndatasize)\n    tag_77:\n      pop\n        /* \"pasport_sc.sol\":920:974  address sc_adr = address(new user(userOwner, _pubKey)) */\n      swap1\n      pop\n        /* \"pasport_sc.sol\":984:996  Active_Users */\n      0x02\n        /* \"pasport_sc.sol\":1002:1011  userOwner */\n      dup3\n        /* \"pasport_sc.sol\":984:1012  Active_Users.push(userOwner) */\n      swap1\n      dup1\n      0x01\n      dup2\n      sload\n      add\n      dup1\n      dup3\n      sstore\n      dup1\n      swap2\n      pop\n      pop\n      0x01\n      swap1\n      sub\n      swap1\n      0x00\n      mstore\n      keccak256(0x00, 0x20)\n      add\n      0x00\n      swap1\n      swap2\n      swap1\n      swap2\n      swap1\n      swap2\n      0x0100\n      exp\n      dup2\n      sload\n      dup2\n      0xffffffffffffffffffffffffffffffffffffffff\n      mul\n      not\n      and\n      swap1\n      dup4\n      0xffffffffffffffffffffffffffffffffffffffff\n      and\n      mul\n      or\n      swap1\n      sstore\n      pop\n        /* \"pasport_sc.sol\":1042:1048  sc_adr */\n      dup1\n        /* \"pasport_sc.sol\":1022:1028  userSC */\n      0x04\n        /* \"pasport_sc.sol\":1022:1039  userSC[userOwner] */\n      0x00\n        /* \"pasport_sc.sol\":1029:1038  userOwner */\n      dup5\n        /* \"pasport_sc.sol\":1022:1039  userSC[userOwner] */\n      0xffffffffffffffffffffffffffffffffffffffff\n      and\n      0xffffffffffffffffffffffffffffffffffffffff\n      and\n      dup2\n      mstore\n      0x20\n      add\n      swap1\n      dup2\n      mstore\n      0x20\n      add\n      0x00\n      keccak256\n      0x00\n        /* \"pasport_sc.sol\":1022:1048  userSC[userOwner] = sc_adr */\n      0x0100\n      exp\n      dup2\n      sload\n      dup2\n      0xffffffffffffffffffffffffffffffffffffffff\n      mul\n      not\n      and\n      swap1\n      dup4\n      0xffffffffffffffffffffffffffffffffffffffff\n      and\n      mul\n      or\n      swap1\n      sstore\n      pop\n        /* \"pasport_sc.sol\":1072:1091  new_User(userOwner) */\n      0x2449b149f88e6eb459a7d3af8ea2c659fdf1499c81539604353c270f65908aca\n        /* \"pasport_sc.sol\":1081:1090  userOwner */\n      dup3\n        /* \"pasport_sc.sol\":1072:1091  new_User(userOwner) */\n      mload(0x40)\n      dup1\n      dup3\n      0xffffffffffffffffffffffffffffffffffffffff\n      and\n      dup2\n      mstore\n      0x20\n      add\n      swap2\n      pop\n      pop\n      mload(0x40)\n      dup1\n      swap2\n      sub\n      swap1\n      log1\n        /* \"pasport_sc.sol\":1109:1115  sc_adr */\n      dup1\n        /* \"pasport_sc.sol\":1101:1116  return (sc_adr) */\n      swap3\n      pop\n      pop\n      pop\n        /* \"pasport_sc.sol\":786:1123  function registerUser(address _owner, string memory _pubKey) external returns (address) {... */\n      swap3\n      swap2\n      pop\n      pop\n      jump\t// out\n        /* \"pasport_sc.sol\":294:336  mapping (address => address) public userSC */\n    tag_26:\n      mstore(0x20, 0x04)\n      dup1\n      0x00\n      mstore\n      keccak256(0x00, 0x40)\n      0x00\n      swap2\n      pop\n      sload\n      swap1\n      0x0100\n      exp\n      swap1\n      div\n      0xffffffffffffffffffffffffffffffffffffffff\n      and\n      dup2\n      jump\t// out\n        /* \"pasport_sc.sol\":1883:2001  function getLabState(address adr_Lab) public view onlyOwner() returns(bool){... */\n    tag_29:\n        /* \"pasport_sc.sol\":1953:1957  bool */\n      0x00\n        /* \"pasport_sc.sol\":2454:2459  owner */\n      dup1\n      0x00\n      swap1\n      sload\n      swap1\n      0x0100\n      exp\n      swap1\n      div\n      0xffffffffffffffffffffffffffffffffffffffff\n      and\n        /* \"pasport_sc.sol\":2440:2459  msg.sender == owner */\n      0xffffffffffffffffffffffffffffffffffffffff\n      and\n        /* \"pasport_sc.sol\":2440:2450  msg.sender */\n      caller\n        /* \"pasport_sc.sol\":2440:2459  msg.sender == owner */\n      0xffffffffffffffffffffffffffffffffffffffff\n      and\n      eq\n        /* \"pasport_sc.sol\":2432:2532  require(msg.sender == owner, \"L'adresa que ha realitzat la crida no te els permissos de propietat.\") */\n      tag_80\n      jumpi\n      mload(0x40)\n      0x08c379a000000000000000000000000000000000000000000000000000000000\n      dup2\n      mstore\n      0x04\n      add\n      dup1\n      dup1\n      0x20\n      add\n      dup3\n      dup2\n      sub\n      dup3\n      mstore\n      0x44\n      dup2\n      mstore\n      0x20\n      add\n      dup1\n      data_8fd21b189046372f20933c3de1d276841fd6d95a5c0874d12875e1f8e9d2ec1b\n      0x44\n      swap2\n      codecopy\n      0x60\n      add\n      swap2\n      pop\n      pop\n      mload(0x40)\n      dup1\n      swap2\n      sub\n      swap1\n      revert\n    tag_80:\n        /* \"pasport_sc.sol\":1975:1978  Lab */\n      0x03\n        /* \"pasport_sc.sol\":1975:1987  Lab[adr_Lab] */\n      0x00\n        /* \"pasport_sc.sol\":1979:1986  adr_Lab */\n      dup4\n        /* \"pasport_sc.sol\":1975:1987  Lab[adr_Lab] */\n      0xffffffffffffffffffffffffffffffffffffffff\n      and\n      0xffffffffffffffffffffffffffffffffffffffff\n      and\n      dup2\n      mstore\n      0x20\n      add\n      swap1\n      dup2\n      mstore\n      0x20\n      add\n      0x00\n      keccak256\n        /* \"pasport_sc.sol\":1975:1994  Lab[adr_Lab].active */\n      0x01\n      add\n      0x00\n      swap1\n      sload\n      swap1\n      0x0100\n      exp\n      swap1\n      div\n      0xff\n      and\n        /* \"pasport_sc.sol\":1968:1994  return Lab[adr_Lab].active */\n      swap1\n      pop\n        /* \"pasport_sc.sol\":1883:2001  function getLabState(address adr_Lab) public view onlyOwner() returns(bool){... */\n      swap2\n      swap1\n      pop\n      jump\t// out\n        /* \"pasport_sc.sol\":477:747  function registerLab(address payable _lab, string memory _name) public onlyOwner() {... */\n    tag_35:\n        /* \"pasport_sc.sol\":2454:2459  owner */\n      0x00\n      dup1\n      sload\n      swap1\n      0x0100\n      exp\n      swap1\n      div\n      0xffffffffffffffffffffffffffffffffffffffff\n      and\n        /* \"pasport_sc.sol\":2440:2459  msg.sender == owner */\n      0xffffffffffffffffffffffffffffffffffffffff\n      and\n        /* \"pasport_sc.sol\":2440:2450  msg.sender */\n      caller\n        /* \"pasport_sc.sol\":2440:2459  msg.sender == owner */\n      0xffffffffffffffffffffffffffffffffffffffff\n      and\n      eq\n        /* \"pasport_sc.sol\":2432:2532  require(msg.sender == owner, \"L'adresa que ha realitzat la crida no te els permissos de propietat.\") */\n      tag_83\n      jumpi\n      mload(0x40)\n      0x08c379a000000000000000000000000000000000000000000000000000000000\n      dup2\n      mstore\n      0x04\n      add\n      dup1\n      dup1\n      0x20\n      add\n      dup3\n      dup2\n      sub\n      dup3\n      mstore\n      0x44\n      dup2\n      mstore\n      0x20\n      add\n      dup1\n      data_8fd21b189046372f20933c3de1d276841fd6d95a5c0874d12875e1f8e9d2ec1b\n      0x44\n      swap2\n      codecopy\n      0x60\n      add\n      swap2\n      pop\n      pop\n      mload(0x40)\n      dup1\n      swap2\n      sub\n      swap1\n      revert\n    tag_83:\n        /* \"pasport_sc.sol\":605:609  _lab */\n      dup2\n        /* \"pasport_sc.sol\":597:610  new lab(_lab) */\n      mload(0x40)\n      tag_85\n      swap1\n      tag_86\n      jump\t// in\n    tag_85:\n      dup1\n      dup3\n      0xffffffffffffffffffffffffffffffffffffffff\n      and\n      dup2\n      mstore\n      0x20\n      add\n      swap2\n      pop\n      pop\n      mload(0x40)\n      dup1\n      swap2\n      sub\n      swap1\n      0x00\n      create\n      dup1\n      iszero\n      dup1\n      iszero\n      tag_87\n      jumpi\n      returndatasize\n      0x00\n      dup1\n      returndatacopy\n      revert(0x00, returndatasize)\n    tag_87:\n      pop\n        /* \"pasport_sc.sol\":570:573  Lab */\n      0x03\n        /* \"pasport_sc.sol\":570:579  Lab[_lab] */\n      0x00\n        /* \"pasport_sc.sol\":574:578  _lab */\n      dup5\n        /* \"pasport_sc.sol\":570:579  Lab[_lab] */\n      0xffffffffffffffffffffffffffffffffffffffff\n      and\n      0xffffffffffffffffffffffffffffffffffffffff\n      and\n      dup2\n      mstore\n      0x20\n      add\n      swap1\n      dup2\n      mstore\n      0x20\n      add\n      0x00\n      keccak256\n        /* \"pasport_sc.sol\":570:586  Lab[_lab].sc_adr */\n      0x01\n      add\n      0x01\n        /* \"pasport_sc.sol\":570:611  Lab[_lab].sc_adr = address(new lab(_lab)) */\n      0x0100\n      exp\n      dup2\n      sload\n      dup2\n      0xffffffffffffffffffffffffffffffffffffffff\n      mul\n      not\n      and\n      swap1\n      dup4\n      0xffffffffffffffffffffffffffffffffffffffff\n      and\n      mul\n      or\n      swap1\n      sstore\n      pop\n        /* \"pasport_sc.sol\":621:632  Active_Labs */\n      0x01\n        /* \"pasport_sc.sol\":638:642  _lab */\n      dup3\n        /* \"pasport_sc.sol\":621:643  Active_Labs.push(_lab) */\n      swap1\n      dup1\n      0x01\n      dup2\n      sload\n      add\n      dup1\n      dup3\n      sstore\n      dup1\n      swap2\n      pop\n      pop\n      0x01\n      swap1\n      sub\n      swap1\n      0x00\n      mstore\n      keccak256(0x00, 0x20)\n      add\n      0x00\n      swap1\n      swap2\n      swap1\n      swap2\n      swap1\n      swap2\n      0x0100\n      exp\n      dup2\n      sload\n      dup2\n      0xffffffffffffffffffffffffffffffffffffffff\n      mul\n      not\n      and\n      swap1\n      dup4\n      0xffffffffffffffffffffffffffffffffffffffff\n      and\n      mul\n      or\n      swap1\n      sstore\n      pop\n        /* \"pasport_sc.sol\":668:673  _name */\n      dup1\n        /* \"pasport_sc.sol\":653:656  Lab */\n      0x03\n        /* \"pasport_sc.sol\":653:662  Lab[_lab] */\n      0x00\n        /* \"pasport_sc.sol\":657:661  _lab */\n      dup5\n        /* \"pasport_sc.sol\":653:662  Lab[_lab] */\n      0xffffffffffffffffffffffffffffffffffffffff\n      and\n      0xffffffffffffffffffffffffffffffffffffffff\n      and\n      dup2\n      mstore\n      0x20\n      add\n      swap1\n      dup2\n      mstore\n      0x20\n      add\n      0x00\n      keccak256\n        /* \"pasport_sc.sol\":653:667  Lab[_lab].name */\n      0x00\n      add\n        /* \"pasport_sc.sol\":653:673  Lab[_lab].name=_name */\n      swap1\n      dup1\n      mload\n      swap1\n      0x20\n      add\n      swap1\n      tag_89\n      swap3\n      swap2\n      swap1\n      tag_90\n      jump\t// in\n    tag_89:\n      pop\n        /* \"pasport_sc.sol\":702:706  true */\n      0x01\n        /* \"pasport_sc.sol\":683:686  Lab */\n      0x03\n        /* \"pasport_sc.sol\":683:692  Lab[_lab] */\n      0x00\n        /* \"pasport_sc.sol\":687:691  _lab */\n      dup5\n        /* \"pasport_sc.sol\":683:692  Lab[_lab] */\n      0xffffffffffffffffffffffffffffffffffffffff\n      and\n      0xffffffffffffffffffffffffffffffffffffffff\n      and\n      dup2\n      mstore\n      0x20\n      add\n      swap1\n      dup2\n      mstore\n      0x20\n      add\n      0x00\n      keccak256\n        /* \"pasport_sc.sol\":683:699  Lab[_lab].active */\n      0x01\n      add\n      0x00\n        /* \"pasport_sc.sol\":683:706  Lab[_lab].active = true */\n      0x0100\n      exp\n      dup2\n      sload\n      dup2\n      0xff\n      mul\n      not\n      and\n      swap1\n      dup4\n      iszero\n      iszero\n      mul\n      or\n      swap1\n      sstore\n      pop\n        /* \"pasport_sc.sol\":721:740  newLab(_name, _lab) */\n      0x681d10e7ef9b9b1c9955e8cfb39c8982d63b7f4185f90016e1e0fd8563d44f8c\n        /* \"pasport_sc.sol\":728:733  _name */\n      dup2\n        /* \"pasport_sc.sol\":735:739  _lab */\n      dup4\n        /* \"pasport_sc.sol\":721:740  newLab(_name, _lab) */\n      mload(0x40)\n      dup1\n      dup1\n      0x20\n      add\n      dup4\n      0xffffffffffffffffffffffffffffffffffffffff\n      and\n      dup2\n      mstore\n      0x20\n      add\n      dup3\n      dup2\n      sub\n      dup3\n      mstore\n      dup5\n      dup2\n      dup2\n      mload\n      dup2\n      mstore\n      0x20\n      add\n      swap2\n      pop\n      dup1\n      mload\n      swap1\n      0x20\n      add\n      swap1\n      dup1\n      dup4\n      dup4\n      0x00\n    tag_91:\n      dup4\n      dup2\n      lt\n      iszero\n      tag_93\n      jumpi\n      dup1\n      dup3\n      add\n      mload\n      dup2\n      dup5\n      add\n      mstore\n      0x20\n      dup2\n      add\n      swap1\n      pop\n      jump(tag_91)\n    tag_93:\n      pop\n      pop\n      pop\n      pop\n      swap1\n      pop\n      swap1\n      dup2\n      add\n      swap1\n      0x1f\n      and\n      dup1\n      iszero\n      tag_94\n      jumpi\n      dup1\n      dup3\n      sub\n      dup1\n      mload\n      0x01\n      dup4\n      0x20\n      sub\n      0x0100\n      exp\n      sub\n      not\n      and\n      dup2\n      mstore\n      0x20\n      add\n      swap2\n      pop\n    tag_94:\n      pop\n      swap4\n      pop\n      pop\n      pop\n      pop\n      mload(0x40)\n      dup1\n      swap2\n      sub\n      swap1\n      log1\n        /* \"pasport_sc.sol\":477:747  function registerLab(address payable _lab, string memory _name) public onlyOwner() {... */\n      pop\n      pop\n      jump\t// out\n        /* \"pasport_sc.sol\":2250:2392  function deleteLab(address _lab, address _sc_adr) public onlyOwner(){... */\n    tag_38:\n        /* \"pasport_sc.sol\":2454:2459  owner */\n      0x00\n      dup1\n      sload\n      swap1\n      0x0100\n      exp\n      swap1\n      div\n      0xffffffffffffffffffffffffffffffffffffffff\n      and\n        /* \"pasport_sc.sol\":2440:2459  msg.sender == owner */\n      0xffffffffffffffffffffffffffffffffffffffff\n      and\n        /* \"pasport_sc.sol\":2440:2450  msg.sender */\n      caller\n        /* \"pasport_sc.sol\":2440:2459  msg.sender == owner */\n      0xffffffffffffffffffffffffffffffffffffffff\n      and\n      eq\n        /* \"pasport_sc.sol\":2432:2532  require(msg.sender == owner, \"L'adresa que ha realitzat la crida no te els permissos de propietat.\") */\n      tag_96\n      jumpi\n      mload(0x40)\n      0x08c379a000000000000000000000000000000000000000000000000000000000\n      dup2\n      mstore\n      0x04\n      add\n      dup1\n      dup1\n      0x20\n      add\n      dup3\n      dup2\n      sub\n      dup3\n      mstore\n      0x44\n      dup2\n      mstore\n      0x20\n      add\n      dup1\n      data_8fd21b189046372f20933c3de1d276841fd6d95a5c0874d12875e1f8e9d2ec1b\n      0x44\n      swap2\n      codecopy\n      0x60\n      add\n      swap2\n      pop\n      pop\n      mload(0x40)\n      dup1\n      swap2\n      sub\n      swap1\n      revert\n    tag_96:\n        /* \"pasport_sc.sol\":2347:2352  false */\n      0x00\n        /* \"pasport_sc.sol\":2328:2331  Lab */\n      0x03\n        /* \"pasport_sc.sol\":2328:2337  Lab[_lab] */\n      0x00\n        /* \"pasport_sc.sol\":2332:2336  _lab */\n      dup5\n        /* \"pasport_sc.sol\":2328:2337  Lab[_lab] */\n      0xffffffffffffffffffffffffffffffffffffffff\n      and\n      0xffffffffffffffffffffffffffffffffffffffff\n      and\n      dup2\n      mstore\n      0x20\n      add\n      swap1\n      dup2\n      mstore\n      0x20\n      add\n      0x00\n      keccak256\n        /* \"pasport_sc.sol\":2328:2344  Lab[_lab].active */\n      0x01\n      add\n      0x00\n        /* \"pasport_sc.sol\":2328:2352  Lab[_lab].active = false */\n      0x0100\n      exp\n      dup2\n      sload\n      dup2\n      0xff\n      mul\n      not\n      and\n      swap1\n      dup4\n      iszero\n      iszero\n      mul\n      or\n      swap1\n      sstore\n      pop\n        /* \"pasport_sc.sol\":2366:2373  _sc_adr */\n      dup1\n        /* \"pasport_sc.sol\":2362:2383  lab(_sc_adr).destruct */\n      0xffffffffffffffffffffffffffffffffffffffff\n      and\n      0x2b68b9c6\n        /* \"pasport_sc.sol\":2362:2385  lab(_sc_adr).destruct() */\n      mload(0x40)\n      dup2\n      0xffffffff\n      and\n      0xe0\n      shl\n      dup2\n      mstore\n      0x04\n      add\n      0x00\n      mload(0x40)\n      dup1\n      dup4\n      sub\n      dup2\n      0x00\n      dup8\n      dup1\n      extcodesize\n      iszero\n      dup1\n      iszero\n      tag_98\n      jumpi\n      0x00\n      dup1\n      revert\n    tag_98:\n      pop\n      gas\n      call\n      iszero\n      dup1\n      iszero\n      tag_100\n      jumpi\n      returndatasize\n      0x00\n      dup1\n      returndatacopy\n      revert(0x00, returndatasize)\n    tag_100:\n      pop\n      pop\n      pop\n      pop\n        /* \"pasport_sc.sol\":2250:2392  function deleteLab(address _lab, address _sc_adr) public onlyOwner(){... */\n      pop\n      pop\n      jump\t// out\n        /* \"pasport_sc.sol\":1749:1873  function getLabName(address adr_Lab) public view onlyOwner() returns(string memory){... */\n    tag_41:\n        /* \"pasport_sc.sol\":1818:1831  string memory */\n      0x60\n        /* \"pasport_sc.sol\":2454:2459  owner */\n      0x00\n      dup1\n      sload\n      swap1\n      0x0100\n      exp\n      swap1\n      div\n      0xffffffffffffffffffffffffffffffffffffffff\n      and\n        /* \"pasport_sc.sol\":2440:2459  msg.sender == owner */\n      0xffffffffffffffffffffffffffffffffffffffff\n      and\n        /* \"pasport_sc.sol\":2440:2450  msg.sender */\n      caller\n        /* \"pasport_sc.sol\":2440:2459  msg.sender == owner */\n      0xffffffffffffffffffffffffffffffffffffffff\n      and\n      eq\n        /* \"pasport_sc.sol\":2432:2532  require(msg.sender == owner, \"L'adresa que ha realitzat la crida no te els permissos de propietat.\") */\n      tag_102\n      jumpi\n      mload(0x40)\n      0x08c379a000000000000000000000000000000000000000000000000000000000\n      dup2\n      mstore\n      0x04\n      add\n      dup1\n      dup1\n      0x20\n      add\n      dup3\n      dup2\n      sub\n      dup3\n      mstore\n      0x44\n      dup2\n      mstore\n      0x20\n      add\n      dup1\n      data_8fd21b189046372f20933c3de1d276841fd6d95a5c0874d12875e1f8e9d2ec1b\n      0x44\n      swap2\n      codecopy\n      0x60\n      add\n      swap2\n      pop\n      pop\n      mload(0x40)\n      dup1\n      swap2\n      sub\n      swap1\n      revert\n    tag_102:\n        /* \"pasport_sc.sol\":1849:1852  Lab */\n      0x03\n        /* \"pasport_sc.sol\":1849:1861  Lab[adr_Lab] */\n      0x00\n        /* \"pasport_sc.sol\":1853:1860  adr_Lab */\n      dup4\n        /* \"pasport_sc.sol\":1849:1861  Lab[adr_Lab] */\n      0xffffffffffffffffffffffffffffffffffffffff\n      and\n      0xffffffffffffffffffffffffffffffffffffffff\n      and\n      dup2\n      mstore\n      0x20\n      add\n      swap1\n      dup2\n      mstore\n      0x20\n      add\n      0x00\n      keccak256\n        /* \"pasport_sc.sol\":1849:1866  Lab[adr_Lab].name */\n      0x00\n      add\n        /* \"pasport_sc.sol\":1842:1866  return Lab[adr_Lab].name */\n      dup1\n      sload\n      0x01\n      dup2\n      0x01\n      and\n      iszero\n      0x0100\n      mul\n      sub\n      and\n      0x02\n      swap1\n      div\n      dup1\n      0x1f\n      add\n      0x20\n      dup1\n      swap2\n      div\n      mul\n      0x20\n      add\n      mload(0x40)\n      swap1\n      dup2\n      add\n      0x40\n      mstore\n      dup1\n      swap3\n      swap2\n      swap1\n      dup2\n      dup2\n      mstore\n      0x20\n      add\n      dup3\n      dup1\n      sload\n      0x01\n      dup2\n      0x01\n      and\n      iszero\n      0x0100\n      mul\n      sub\n      and\n      0x02\n      swap1\n      div\n      dup1\n      iszero\n      tag_104\n      jumpi\n      dup1\n      0x1f\n      lt\n      tag_105\n      jumpi\n      0x0100\n      dup1\n      dup4\n      sload\n      div\n      mul\n      dup4\n      mstore\n      swap2\n      0x20\n      add\n      swap2\n      jump(tag_104)\n    tag_105:\n      dup3\n      add\n      swap2\n      swap1\n      0x00\n      mstore\n      keccak256(0x00, 0x20)\n      swap1\n    tag_106:\n      dup2\n      sload\n      dup2\n      mstore\n      swap1\n      0x01\n      add\n      swap1\n      0x20\n      add\n      dup1\n      dup4\n      gt\n      tag_106\n      jumpi\n      dup3\n      swap1\n      sub\n      0x1f\n      and\n      dup3\n      add\n      swap2\n    tag_104:\n      pop\n      pop\n      pop\n      pop\n      pop\n      swap1\n      pop\n        /* \"pasport_sc.sol\":1749:1873  function getLabName(address adr_Lab) public view onlyOwner() returns(string memory){... */\n      swap2\n      swap1\n      pop\n      jump\t// out\n        /* \"pasport_sc.sol\":1166:1373  function Entity(bool active, address _entityAdr) public onlyOwner(){... */\n    tag_48:\n        /* \"pasport_sc.sol\":2454:2459  owner */\n      0x00\n      dup1\n      sload\n      swap1\n      0x0100\n      exp\n      swap1\n      div\n      0xffffffffffffffffffffffffffffffffffffffff\n      and\n        /* \"pasport_sc.sol\":2440:2459  msg.sender == owner */\n      0xffffffffffffffffffffffffffffffffffffffff\n      and\n        /* \"pasport_sc.sol\":2440:2450  msg.sender */\n      caller\n        /* \"pasport_sc.sol\":2440:2459  msg.sender == owner */\n      0xffffffffffffffffffffffffffffffffffffffff\n      and\n      eq\n        /* \"pasport_sc.sol\":2432:2532  require(msg.sender == owner, \"L'adresa que ha realitzat la crida no te els permissos de propietat.\") */\n      tag_108\n      jumpi\n      mload(0x40)\n      0x08c379a000000000000000000000000000000000000000000000000000000000\n      dup2\n      mstore\n      0x04\n      add\n      dup1\n      dup1\n      0x20\n      add\n      dup3\n      dup2\n      sub\n      dup3\n      mstore\n      0x44\n      dup2\n      mstore\n      0x20\n      add\n      dup1\n      data_8fd21b189046372f20933c3de1d276841fd6d95a5c0874d12875e1f8e9d2ec1b\n      0x44\n      swap2\n      codecopy\n      0x60\n      add\n      swap2\n      pop\n      pop\n      mload(0x40)\n      dup1\n      swap2\n      sub\n      swap1\n      revert\n    tag_108:\n        /* \"pasport_sc.sol\":1243:1259  address entitySC */\n      0x00\n        /* \"pasport_sc.sol\":1262:1268  userSC */\n      0x04\n        /* \"pasport_sc.sol\":1262:1280  userSC[_entityAdr] */\n      0x00\n        /* \"pasport_sc.sol\":1269:1279  _entityAdr */\n      dup4\n        /* \"pasport_sc.sol\":1262:1280  userSC[_entityAdr] */\n      0xffffffffffffffffffffffffffffffffffffffff\n      and\n      0xffffffffffffffffffffffffffffffffffffffff\n      and\n      dup2\n      mstore\n      0x20\n      add\n      swap1\n      dup2\n      mstore\n      0x20\n      add\n      0x00\n      keccak256\n      0x00\n      swap1\n      sload\n      swap1\n      0x0100\n      exp\n      swap1\n      div\n      0xffffffffffffffffffffffffffffffffffffffff\n      and\n        /* \"pasport_sc.sol\":1243:1280  address entitySC = userSC[_entityAdr] */\n      swap1\n      pop\n        /* \"pasport_sc.sol\":1295:1303  entitySC */\n      dup1\n        /* \"pasport_sc.sol\":1290:1317  user(entitySC).activeEntity */\n      0xffffffffffffffffffffffffffffffffffffffff\n      and\n      0xddfb2e26\n        /* \"pasport_sc.sol\":1318:1324  active */\n      dup5\n        /* \"pasport_sc.sol\":1290:1325  user(entitySC).activeEntity(active) */\n      mload(0x40)\n      dup3\n      0xffffffff\n      and\n      0xe0\n      shl\n      dup2\n      mstore\n      0x04\n      add\n      dup1\n      dup3\n      iszero\n      iszero\n      dup2\n      mstore\n      0x20\n      add\n      swap2\n      pop\n      pop\n      0x00\n      mload(0x40)\n      dup1\n      dup4\n      sub\n      dup2\n      0x00\n      dup8\n      dup1\n      extcodesize\n      iszero\n      dup1\n      iszero\n      tag_110\n      jumpi\n      0x00\n      dup1\n      revert\n    tag_110:\n      pop\n      gas\n      call\n      iszero\n      dup1\n      iszero\n      tag_112\n      jumpi\n      returndatasize\n      0x00\n      dup1\n      returndatacopy\n      revert(0x00, returndatasize)\n    tag_112:\n      pop\n      pop\n      pop\n      pop\n        /* \"pasport_sc.sol\":1340:1366  entity(_entityAdr, active) */\n      0xfb1fe99bdd0ab633267cc6c574aa5521b20cbcb196b776b9d40b7d81f9afc554\n        /* \"pasport_sc.sol\":1347:1357  _entityAdr */\n      dup3\n        /* \"pasport_sc.sol\":1359:1365  active */\n      dup5\n        /* \"pasport_sc.sol\":1340:1366  entity(_entityAdr, active) */\n      mload(0x40)\n      dup1\n      dup4\n      0xffffffffffffffffffffffffffffffffffffffff\n      and\n      dup2\n      mstore\n      0x20\n      add\n      dup3\n      iszero\n      iszero\n      dup2\n      mstore\n      0x20\n      add\n      swap3\n      pop\n      pop\n      pop\n      mload(0x40)\n      dup1\n      swap2\n      sub\n      swap1\n      log1\n        /* \"pasport_sc.sol\":2542:2543  _ */\n      pop\n        /* \"pasport_sc.sol\":1166:1373  function Entity(bool active, address _entityAdr) public onlyOwner(){... */\n      pop\n      pop\n      jump\t// out\n        /* \"pasport_sc.sol\":2011:2117  function getLabSC(address adr_Lab) public view returns(address){... */\n    tag_51:\n        /* \"pasport_sc.sol\":2066:2073  address */\n      0x00\n        /* \"pasport_sc.sol\":2091:2094  Lab */\n      0x03\n        /* \"pasport_sc.sol\":2091:2103  Lab[adr_Lab] */\n      0x00\n        /* \"pasport_sc.sol\":2095:2102  adr_Lab */\n      dup4\n        /* \"pasport_sc.sol\":2091:2103  Lab[adr_Lab] */\n      0xffffffffffffffffffffffffffffffffffffffff\n      and\n      0xffffffffffffffffffffffffffffffffffffffff\n      and\n      dup2\n      mstore\n      0x20\n      add\n      swap1\n      dup2\n      mstore\n      0x20\n      add\n      0x00\n      keccak256\n        /* \"pasport_sc.sol\":2091:2110  Lab[adr_Lab].sc_adr */\n      0x01\n      add\n      0x01\n      swap1\n      sload\n      swap1\n      0x0100\n      exp\n      swap1\n      div\n      0xffffffffffffffffffffffffffffffffffffffff\n      and\n        /* \"pasport_sc.sol\":2084:2110  return Lab[adr_Lab].sc_adr */\n      swap1\n      pop\n        /* \"pasport_sc.sol\":2011:2117  function getLabSC(address adr_Lab) public view returns(address){... */\n      swap2\n      swap1\n      pop\n      jump\t// out\n        /* \"pasport_sc.sol\":246:288  mapping (address => struct_Lab) public Lab */\n    tag_54:\n      mstore(0x20, 0x03)\n      dup1\n      0x00\n      mstore\n      keccak256(0x00, 0x40)\n      0x00\n      swap2\n      pop\n      swap1\n      pop\n      dup1\n      0x00\n      add\n      dup1\n      sload\n      0x01\n      dup2\n      0x01\n      and\n      iszero\n      0x0100\n      mul\n      sub\n      and\n      0x02\n      swap1\n      div\n      dup1\n      0x1f\n      add\n      0x20\n      dup1\n      swap2\n      div\n      mul\n      0x20\n      add\n      mload(0x40)\n      swap1\n      dup2\n      add\n      0x40\n      mstore\n      dup1\n      swap3\n      swap2\n      swap1\n      dup2\n      dup2\n      mstore\n      0x20\n      add\n      dup3\n      dup1\n      sload\n      0x01\n      dup2\n      0x01\n      and\n      iszero\n      0x0100\n      mul\n      sub\n      and\n      0x02\n      swap1\n      div\n      dup1\n      iszero\n      tag_114\n      jumpi\n      dup1\n      0x1f\n      lt\n      tag_115\n      jumpi\n      0x0100\n      dup1\n      dup4\n      sload\n      div\n      mul\n      dup4\n      mstore\n      swap2\n      0x20\n      add\n      swap2\n      jump(tag_114)\n    tag_115:\n      dup3\n      add\n      swap2\n      swap1\n      0x00\n      mstore\n      keccak256(0x00, 0x20)\n      swap1\n    tag_116:\n      dup2\n      sload\n      dup2\n      mstore\n      swap1\n      0x01\n      add\n      swap1\n      0x20\n      add\n      dup1\n      dup4\n      gt\n      tag_116\n      jumpi\n      dup3\n      swap1\n      sub\n      0x1f\n      and\n      dup3\n      add\n      swap2\n    tag_114:\n      pop\n      pop\n      pop\n      pop\n      pop\n      swap1\n      dup1\n      0x01\n      add\n      0x00\n      swap1\n      sload\n      swap1\n      0x0100\n      exp\n      swap1\n      div\n      0xff\n      and\n      swap1\n      dup1\n      0x01\n      add\n      0x01\n      swap1\n      sload\n      swap1\n      0x0100\n      exp\n      swap1\n      div\n      0xffffffffffffffffffffffffffffffffffffffff\n      and\n      swap1\n      pop\n      dup4\n      jump\t// out\n        /* \"pasport_sc.sol\":177:205  address[] public Active_Labs */\n    tag_61:\n      0x01\n      dup2\n      dup2\n      sload\n      dup2\n      lt\n      tag_117\n      jumpi\n      0x00\n      dup1\n      revert\n    tag_117:\n      swap1\n      0x00\n      mstore\n      keccak256(0x00, 0x20)\n      add\n      0x00\n      swap2\n      pop\n      sload\n      swap1\n      0x0100\n      exp\n      swap1\n      div\n      0xffffffffffffffffffffffffffffffffffffffff\n      and\n      dup2\n      jump\t// out\n        /* \"pasport_sc.sol\":1383:1496  function getLabsCount()public view onlyOwner() returns(uint256){... */\n    tag_63:\n        /* \"pasport_sc.sol\":1438:1445  uint256 */\n      0x00\n        /* \"pasport_sc.sol\":2454:2459  owner */\n      dup1\n      0x00\n      swap1\n      sload\n      swap1\n      0x0100\n      exp\n      swap1\n      div\n      0xffffffffffffffffffffffffffffffffffffffff\n      and\n        /* \"pasport_sc.sol\":2440:2459  msg.sender == owner */\n      0xffffffffffffffffffffffffffffffffffffffff\n      and\n        /* \"pasport_sc.sol\":2440:2450  msg.sender */\n      caller\n        /* \"pasport_sc.sol\":2440:2459  msg.sender == owner */\n      0xffffffffffffffffffffffffffffffffffffffff\n      and\n      eq\n        /* \"pasport_sc.sol\":2432:2532  require(msg.sender == owner, \"L'adresa que ha realitzat la crida no te els permissos de propietat.\") */\n      tag_120\n      jumpi\n      mload(0x40)\n      0x08c379a000000000000000000000000000000000000000000000000000000000\n      dup2\n      mstore\n      0x04\n      add\n      dup1\n      dup1\n      0x20\n      add\n      dup3\n      dup2\n      sub\n      dup3\n      mstore\n      0x44\n      dup2\n      mstore\n      0x20\n      add\n      dup1\n      data_8fd21b189046372f20933c3de1d276841fd6d95a5c0874d12875e1f8e9d2ec1b\n      0x44\n      swap2\n      codecopy\n      0x60\n      add\n      swap2\n      pop\n      pop\n      mload(0x40)\n      dup1\n      swap2\n      sub\n      swap1\n      revert\n    tag_120:\n        /* \"pasport_sc.sol\":1463:1474  Active_Labs */\n      0x01\n        /* \"pasport_sc.sol\":1463:1481  Active_Labs.length */\n      dup1\n      sload\n      swap1\n      pop\n        /* \"pasport_sc.sol\":1456:1481  return Active_Labs.length */\n      swap1\n      pop\n        /* \"pasport_sc.sol\":1383:1496  function getLabsCount()public view onlyOwner() returns(uint256){... */\n      swap1\n      jump\t// out\n        /* \"pasport_sc.sol\":211:240  address[] public Active_Users */\n    tag_66:\n      0x02\n      dup2\n      dup2\n      sload\n      dup2\n      lt\n      tag_122\n      jumpi\n      0x00\n      dup1\n      revert\n    tag_122:\n      swap1\n      0x00\n      mstore\n      keccak256(0x00, 0x20)\n      add\n      0x00\n      swap2\n      pop\n      sload\n      swap1\n      0x0100\n      exp\n      swap1\n      div\n      0xffffffffffffffffffffffffffffffffffffffff\n      and\n      dup2\n      jump\t// out\n        /* \"pasport_sc.sol\":2127:2244  function getUserSC(address adr_User) public view onlyOwner() returns(address){... */\n    tag_69:\n        /* \"pasport_sc.sol\":2196:2203  address */\n      0x00\n        /* \"pasport_sc.sol\":2454:2459  owner */\n      dup1\n      0x00\n      swap1\n      sload\n      swap1\n      0x0100\n      exp\n      swap1\n      div\n      0xffffffffffffffffffffffffffffffffffffffff\n      and\n        /* \"pasport_sc.sol\":2440:2459  msg.sender == owner */\n      0xffffffffffffffffffffffffffffffffffffffff\n      and\n        /* \"pasport_sc.sol\":2440:2450  msg.sender */\n      caller\n        /* \"pasport_sc.sol\":2440:2459  msg.sender == owner */\n      0xffffffffffffffffffffffffffffffffffffffff\n      and\n      eq\n        /* \"pasport_sc.sol\":2432:2532  require(msg.sender == owner, \"L'adresa que ha realitzat la crida no te els permissos de propietat.\") */\n      tag_125\n      jumpi\n      mload(0x40)\n      0x08c379a000000000000000000000000000000000000000000000000000000000\n      dup2\n      mstore\n      0x04\n      add\n      dup1\n      dup1\n      0x20\n      add\n      dup3\n      dup2\n      sub\n      dup3\n      mstore\n      0x44\n      dup2\n      mstore\n      0x20\n      add\n      dup1\n      data_8fd21b189046372f20933c3de1d276841fd6d95a5c0874d12875e1f8e9d2ec1b\n      0x44\n      swap2\n      codecopy\n      0x60\n      add\n      swap2\n      pop\n      pop\n      mload(0x40)\n      dup1\n      swap2\n      sub\n      swap1\n      revert\n    tag_125:\n        /* \"pasport_sc.sol\":2221:2227  userSC */\n      0x04\n        /* \"pasport_sc.sol\":2221:2237  userSC[adr_User] */\n      0x00\n        /* \"pasport_sc.sol\":2228:2236  adr_User */\n      dup4\n        /* \"pasport_sc.sol\":2221:2237  userSC[adr_User] */\n      0xffffffffffffffffffffffffffffffffffffffff\n      and\n      0xffffffffffffffffffffffffffffffffffffffff\n      and\n      dup2\n      mstore\n      0x20\n      add\n      swap1\n      dup2\n      mstore\n      0x20\n      add\n      0x00\n      keccak256\n      0x00\n      swap1\n      sload\n      swap1\n      0x0100\n      exp\n      swap1\n      div\n      0xffffffffffffffffffffffffffffffffffffffff\n      and\n        /* \"pasport_sc.sol\":2214:2237  return userSC[adr_User] */\n      swap1\n      pop\n        /* \"pasport_sc.sol\":2127:2244  function getUserSC(address adr_User) public view onlyOwner() returns(address){... */\n      swap2\n      swap1\n      pop\n      jump\t// out\n    tag_72:\n      dataSize(sub_0)\n      dup1\n      dataOffset(sub_0)\n      dup4\n      codecopy\n      add\n      swap1\n      jump\t// out\n    tag_86:\n      dataSize(sub_1)\n      dup1\n      dataOffset(sub_1)\n      dup4\n      codecopy\n      add\n      swap1\n      jump\t// out\n    tag_90:\n      dup3\n      dup1\n      sload\n      0x01\n      dup2\n      0x01\n      and\n      iszero\n      0x0100\n      mul\n      sub\n      and\n      0x02\n      swap1\n      div\n      swap1\n      0x00\n      mstore\n      keccak256(0x00, 0x20)\n      swap1\n      0x1f\n      add\n      0x20\n      swap1\n      div\n      dup2\n      add\n      swap3\n      dup3\n      tag_128\n      jumpi\n      0x00\n      dup6\n      sstore\n      jump(tag_127)\n    tag_128:\n      dup3\n      0x1f\n      lt\n      tag_129\n      jumpi\n      dup1\n      mload\n      not(0xff)\n      and\n      dup4\n      dup1\n      add\n      or\n      dup6\n      sstore\n      jump(tag_127)\n    tag_129:\n      dup3\n      dup1\n      add\n      0x01\n      add\n      dup6\n      sstore\n      dup3\n      iszero\n      tag_127\n      jumpi\n      swap2\n      dup3\n      add\n    tag_130:\n      dup3\n      dup2\n      gt\n      iszero\n      tag_131\n      jumpi\n      dup3\n      mload\n      dup3\n      sstore\n      swap2\n      0x20\n      add\n      swap2\n      swap1\n      0x01\n      add\n      swap1\n      jump(tag_130)\n    tag_131:\n    tag_127:\n      pop\n      swap1\n      pop\n      tag_132\n      swap2\n      swap1\n      tag_133\n      jump\t// in\n    tag_132:\n      pop\n      swap1\n      jump\t// out\n    tag_133:\n    tag_134:\n      dup1\n      dup3\n      gt\n      iszero\n      tag_135\n      jumpi\n      0x00\n      dup2\n      0x00\n      swap1\n      sstore\n      pop\n      0x01\n      add\n      jump(tag_134)\n    tag_135:\n      pop\n      swap1\n      jump\t// out\n    stop\n    data_8fd21b189046372f20933c3de1d276841fd6d95a5c0874d12875e1f8e9d2ec1b 4c2761647265736120717565206861207265616c69747a6174206c61206372696461206e6f20746520656c73207065726d6973736f732064652070726f7069657461742e\n\n    sub_0: assembly {\n            /* \"pasport_sc.sol\":3747:7984  contract user{ ... */\n          mstore(0x40, 0x80)\n            /* \"pasport_sc.sol\":4349:4532  constructor(address _owner, string memory  _pubKey) {... */\n          callvalue\n          dup1\n          iszero\n          tag_1\n          jumpi\n          0x00\n          dup1\n          revert\n        tag_1:\n          pop\n          mload(0x40)\n          sub(codesize, bytecodeSize)\n          dup1\n          bytecodeSize\n          dup4\n          codecopy\n          dup2\n          dup2\n          add\n          0x40\n          mstore\n          0x40\n          dup2\n          lt\n          iszero\n          tag_2\n          jumpi\n          0x00\n          dup1\n          revert\n        tag_2:\n          dup2\n          add\n          swap1\n          dup1\n          dup1\n          mload\n          swap1\n          0x20\n          add\n          swap1\n          swap3\n          swap2\n          swap1\n          dup1\n          mload\n          mload(0x40)\n          swap4\n          swap3\n          swap2\n          swap1\n          dup5\n          0x0100000000\n          dup3\n          gt\n          iszero\n          tag_3\n          jumpi\n          0x00\n          dup1\n          revert\n        tag_3:\n          dup4\n          dup3\n          add\n          swap2\n          pop\n          0x20\n          dup3\n          add\n          dup6\n          dup2\n          gt\n          iszero\n          tag_4\n          jumpi\n          0x00\n          dup1\n          revert\n        tag_4:\n          dup3\n          mload\n          dup7\n          0x01\n          dup3\n          mul\n          dup4\n          add\n          gt\n          0x0100000000\n          dup3\n          gt\n          or\n          iszero\n          tag_5\n          jumpi\n          0x00\n          dup1\n          revert\n        tag_5:\n          dup1\n          dup4\n          mstore\n          0x20\n          dup4\n          add\n          swap3\n          pop\n          pop\n          pop\n          swap1\n          dup1\n          mload\n          swap1\n          0x20\n          add\n          swap1\n          dup1\n          dup4\n          dup4\n          0x00\n        tag_6:\n          dup4\n          dup2\n          lt\n          iszero\n          tag_8\n          jumpi\n          dup1\n          dup3\n          add\n          mload\n          dup2\n          dup5\n          add\n          mstore\n          0x20\n          dup2\n          add\n          swap1\n          pop\n          jump(tag_6)\n        tag_8:\n          pop\n          pop\n          pop\n          pop\n          swap1\n          pop\n          swap1\n          dup2\n          add\n          swap1\n          0x1f\n          and\n          dup1\n          iszero\n          tag_9\n          jumpi\n          dup1\n          dup3\n          sub\n          dup1\n          mload\n          0x01\n          dup4\n          0x20\n          sub\n          0x0100\n          exp\n          sub\n          not\n          and\n          dup2\n          mstore\n          0x20\n          add\n          swap2\n          pop\n        tag_9:\n          pop\n          0x40\n          mstore\n          pop\n          pop\n          pop\n            /* \"pasport_sc.sol\":4419:4425  _owner */\n          dup2\n            /* \"pasport_sc.sol\":4411:4416  owner */\n          0x05\n          0x00\n            /* \"pasport_sc.sol\":4411:4425  owner = _owner */\n          0x0100\n          exp\n          dup2\n          sload\n          dup2\n          0xffffffffffffffffffffffffffffffffffffffff\n          mul\n          not\n          and\n          swap1\n          dup4\n          0xffffffffffffffffffffffffffffffffffffffff\n          and\n          mul\n          or\n          swap1\n          sstore\n          pop\n            /* \"pasport_sc.sol\":4468:4472  this */\n          address\n            /* \"pasport_sc.sol\":4435:4441  sc_adr */\n          0x04\n          0x00\n            /* \"pasport_sc.sol\":4435:4475  sc_adr = address(uint160(address(this))) */\n          0x0100\n          exp\n          dup2\n          sload\n          dup2\n          0xffffffffffffffffffffffffffffffffffffffff\n          mul\n          not\n          and\n          swap1\n          dup4\n          0xffffffffffffffffffffffffffffffffffffffff\n          and\n          mul\n          or\n          swap1\n          sstore\n          pop\n            /* \"pasport_sc.sol\":4494:4501  _pubKey */\n          dup1\n            /* \"pasport_sc.sol\":4485:4491  pubKey */\n          0x00\n            /* \"pasport_sc.sol\":4485:4501  pubKey = _pubKey */\n          swap1\n          dup1\n          mload\n          swap1\n          0x20\n          add\n          swap1\n          tag_12\n          swap3\n          swap2\n          swap1\n          tag_13\n          jump\t// in\n        tag_12:\n          pop\n            /* \"pasport_sc.sol\":4520:4525  false */\n          0x00\n            /* \"pasport_sc.sol\":4511:4517  entity */\n          0x05\n          0x14\n            /* \"pasport_sc.sol\":4511:4525  entity = false */\n          0x0100\n          exp\n          dup2\n          sload\n          dup2\n          0xff\n          mul\n          not\n          and\n          swap1\n          dup4\n          iszero\n          iszero\n          mul\n          or\n          swap1\n          sstore\n          pop\n            /* \"pasport_sc.sol\":4349:4532  constructor(address _owner, string memory  _pubKey) {... */\n          pop\n          pop\n            /* \"pasport_sc.sol\":3747:7984  contract user{ ... */\n          jump(tag_14)\n        tag_13:\n          dup3\n          dup1\n          sload\n          0x01\n          dup2\n          0x01\n          and\n          iszero\n          0x0100\n          mul\n          sub\n          and\n          0x02\n          swap1\n          div\n          swap1\n          0x00\n          mstore\n          keccak256(0x00, 0x20)\n          swap1\n          0x1f\n          add\n          0x20\n          swap1\n          div\n          dup2\n          add\n          swap3\n          dup3\n          tag_16\n          jumpi\n          0x00\n          dup6\n          sstore\n          jump(tag_15)\n        tag_16:\n          dup3\n          0x1f\n          lt\n          tag_17\n          jumpi\n          dup1\n          mload\n          not(0xff)\n          and\n          dup4\n          dup1\n          add\n          or\n          dup6\n          sstore\n          jump(tag_15)\n        tag_17:\n          dup3\n          dup1\n          add\n          0x01\n          add\n          dup6\n          sstore\n          dup3\n          iszero\n          tag_15\n          jumpi\n          swap2\n          dup3\n          add\n        tag_18:\n          dup3\n          dup2\n          gt\n          iszero\n          tag_19\n          jumpi\n          dup3\n          mload\n          dup3\n          sstore\n          swap2\n          0x20\n          add\n          swap2\n          swap1\n          0x01\n          add\n          swap1\n          jump(tag_18)\n        tag_19:\n        tag_15:\n          pop\n          swap1\n          pop\n          tag_20\n          swap2\n          swap1\n          tag_21\n          jump\t// in\n        tag_20:\n          pop\n          swap1\n          jump\t// out\n        tag_21:\n        tag_22:\n          dup1\n          dup3\n          gt\n          iszero\n          tag_23\n          jumpi\n          0x00\n          dup2\n          0x00\n          swap1\n          sstore\n          pop\n          0x01\n          add\n          jump(tag_22)\n        tag_23:\n          pop\n          swap1\n          jump\t// out\n        tag_14:\n          dataSize(sub_0)\n          dup1\n          dataOffset(sub_0)\n          0x00\n          codecopy\n          0x00\n          return\n        stop\n\n        sub_0: assembly {\n                /* \"pasport_sc.sol\":3747:7984  contract user{ ... */\n              mstore(0x40, 0x80)\n              callvalue\n              dup1\n              iszero\n              tag_1\n              jumpi\n              0x00\n              dup1\n              revert\n            tag_1:\n              pop\n              jumpi(tag_2, lt(calldatasize, 0x04))\n              shr(0xe0, calldataload(0x00))\n              dup1\n              0x7769ef3a\n              gt\n              tag_22\n              jumpi\n              dup1\n              0xd74143f2\n              gt\n              tag_23\n              jumpi\n              dup1\n              0xd74143f2\n              eq\n              tag_17\n              jumpi\n              dup1\n              0xddfb2e26\n              eq\n              tag_18\n              jumpi\n              dup1\n              0xe2626cca\n              eq\n              tag_19\n              jumpi\n              dup1\n              0xf6a0576d\n              eq\n              tag_20\n              jumpi\n              dup1\n              0xff200d2b\n              eq\n              tag_21\n              jumpi\n              jump(tag_2)\n            tag_23:\n              dup1\n              0x7769ef3a\n              eq\n              tag_12\n              jumpi\n              dup1\n              0x8b5fec8f\n              eq\n              tag_13\n              jumpi\n              dup1\n              0x91aacb01\n              eq\n              tag_14\n              jumpi\n              dup1\n              0xb07ce2a0\n              eq\n              tag_15\n              jumpi\n              dup1\n              0xd12399e9\n              eq\n              tag_16\n              jumpi\n              jump(tag_2)\n            tag_22:\n              dup1\n              0x45419b71\n              gt\n              tag_24\n              jumpi\n              dup1\n              0x45419b71\n              eq\n              tag_7\n              jumpi\n              dup1\n              0x4ad02ef1\n              eq\n              tag_8\n              jumpi\n              dup1\n              0x5f3d3753\n              eq\n              tag_9\n              jumpi\n              dup1\n              0x6839bab0\n              eq\n              tag_10\n              jumpi\n              dup1\n              0x69b4431e\n              eq\n              tag_11\n              jumpi\n              jump(tag_2)\n            tag_24:\n              dup1\n              0x23389c5a\n              eq\n              tag_3\n              jumpi\n              dup1\n              0x30348b25\n              eq\n              tag_4\n              jumpi\n              dup1\n              0x32a2c5d0\n              eq\n              tag_5\n              jumpi\n              dup1\n              0x36b6fd0c\n              eq\n              tag_6\n              jumpi\n            tag_2:\n              0x00\n              dup1\n              revert\n                /* \"pasport_sc.sol\":3791:3812  string [] public docs */\n            tag_3:\n              tag_25\n              0x04\n              dup1\n              calldatasize\n              sub\n              0x20\n              dup2\n              lt\n              iszero\n              tag_26\n              jumpi\n              0x00\n              dup1\n              revert\n            tag_26:\n              dup2\n              add\n              swap1\n              dup1\n              dup1\n              calldataload\n              swap1\n              0x20\n              add\n              swap1\n              swap3\n              swap2\n              swap1\n              pop\n              pop\n              pop\n              tag_27\n              jump\t// in\n            tag_25:\n              mload(0x40)\n              dup1\n              dup1\n              0x20\n              add\n              dup3\n              dup2\n              sub\n              dup3\n              mstore\n              dup4\n              dup2\n              dup2\n              mload\n              dup2\n              mstore\n              0x20\n              add\n              swap2\n              pop\n              dup1\n              mload\n              swap1\n              0x20\n              add\n              swap1\n              dup1\n              dup4\n              dup4\n              0x00\n            tag_28:\n              dup4\n              dup2\n              lt\n              iszero\n              tag_30\n              jumpi\n              dup1\n              dup3\n              add\n              mload\n              dup2\n              dup5\n              add\n              mstore\n              0x20\n              dup2\n              add\n              swap1\n              pop\n              jump(tag_28)\n            tag_30:\n              pop\n              pop\n              pop\n              pop\n              swap1\n              pop\n              swap1\n              dup2\n              add\n              swap1\n              0x1f\n              and\n              dup1\n              iszero\n              tag_31\n              jumpi\n              dup1\n              dup3\n              sub\n              dup1\n              mload\n              0x01\n              dup4\n              0x20\n              sub\n              0x0100\n              exp\n              sub\n              not\n              and\n              dup2\n              mstore\n              0x20\n              add\n              swap2\n              pop\n            tag_31:\n              pop\n              swap3\n              pop\n              pop\n              pop\n              mload(0x40)\n              dup1\n              swap2\n              sub\n              swap1\n              return\n                /* \"pasport_sc.sol\":5902:6018  function getDocsHash(uint _index) public view onlyOwner() returns(string memory){... */\n            tag_4:\n              tag_32\n              0x04\n              dup1\n              calldatasize\n              sub\n              0x20\n              dup2\n              lt\n              iszero\n              tag_33\n              jumpi\n              0x00\n              dup1\n              revert\n            tag_33:\n              dup2\n              add\n              swap1\n              dup1\n              dup1\n              calldataload\n              swap1\n              0x20\n              add\n              swap1\n              swap3\n              swap2\n              swap1\n              pop\n              pop\n              pop\n              tag_34\n              jump\t// in\n            tag_32:\n              mload(0x40)\n              dup1\n              dup1\n              0x20\n              add\n              dup3\n              dup2\n              sub\n              dup3\n              mstore\n              dup4\n              dup2\n              dup2\n              mload\n              dup2\n              mstore\n              0x20\n              add\n              swap2\n              pop\n              dup1\n              mload\n              swap1\n              0x20\n              add\n              swap1\n              dup1\n              dup4\n              dup4\n              0x00\n            tag_35:\n              dup4\n              dup2\n              lt\n              iszero\n              tag_37\n              jumpi\n              dup1\n              dup3\n              add\n              mload\n              dup2\n              dup5\n              add\n              mstore\n              0x20\n              dup2\n              add\n              swap1\n              pop\n              jump(tag_35)\n            tag_37:\n              pop\n              pop\n              pop\n              pop\n              swap1\n              pop\n              swap1\n              dup2\n              add\n              swap1\n              0x1f\n              and\n              dup1\n              iszero\n              tag_38\n              jumpi\n              dup1\n              dup3\n              sub\n              dup1\n              mload\n              0x01\n              dup4\n              0x20\n              sub\n              0x0100\n              exp\n              sub\n              not\n              and\n              dup2\n              mstore\n              0x20\n              add\n              swap2\n              pop\n            tag_38:\n              pop\n              swap3\n              pop\n              pop\n              pop\n              mload(0x40)\n              dup1\n              swap2\n              sub\n              swap1\n              return\n                /* \"pasport_sc.sol\":7119:7218  function getContractAddress()public view onlyOwner() returns(address){... */\n            tag_5:\n              tag_39\n              tag_40\n              jump\t// in\n            tag_39:\n              mload(0x40)\n              dup1\n              dup3\n              0xffffffffffffffffffffffffffffffffffffffff\n              and\n              dup2\n              mstore\n              0x20\n              add\n              swap2\n              pop\n              pop\n              mload(0x40)\n              dup1\n              swap2\n              sub\n              swap1\n              return\n                /* \"pasport_sc.sol\":6157:6276  function getExtDocs(uint _index) public view onlyOwner() returns(string memory) {... */\n            tag_6:\n              tag_41\n              0x04\n              dup1\n              calldatasize\n              sub\n              0x20\n              dup2\n              lt\n              iszero\n              tag_42\n              jumpi\n              0x00\n              dup1\n              revert\n            tag_42:\n              dup2\n              add\n              swap1\n              dup1\n              dup1\n              calldataload\n              swap1\n              0x20\n              add\n              swap1\n              swap3\n              swap2\n              swap1\n              pop\n              pop\n              pop\n              tag_43\n              jump\t// in\n            tag_41:\n              mload(0x40)\n              dup1\n              dup1\n              0x20\n              add\n              dup3\n              dup2\n              sub\n              dup3\n              mstore\n              dup4\n              dup2\n              dup2\n              mload\n              dup2\n              mstore\n              0x20\n              add\n              swap2\n              pop\n              dup1\n              mload\n              swap1\n              0x20\n              add\n              swap1\n              dup1\n              dup4\n              dup4\n              0x00\n            tag_44:\n              dup4\n              dup2\n              lt\n              iszero\n              tag_46\n              jumpi\n              dup1\n              dup3\n              add\n              mload\n              dup2\n              dup5\n              add\n              mstore\n              0x20\n              dup2\n              add\n              swap1\n              pop\n              jump(tag_44)\n            tag_46:\n              pop\n              pop\n              pop\n              pop\n              swap1\n              pop\n              swap1\n              dup2\n              add\n              swap1\n              0x1f\n              and\n              dup1\n              iszero\n              tag_47\n              jumpi\n              dup1\n              dup3\n              sub\n              dup1\n              mload\n              0x01\n              dup4\n              0x20\n              sub\n              0x0100\n              exp\n              sub\n              not\n              and\n              dup2\n              mstore\n              0x20\n              add\n              swap2\n              pop\n            tag_47:\n              pop\n              swap3\n              pop\n              pop\n              pop\n              mload(0x40)\n              dup1\n              swap2\n              sub\n              swap1\n              return\n                /* \"pasport_sc.sol\":3848:3872  string [] public extDocs */\n            tag_7:\n              tag_48\n              0x04\n              dup1\n              calldatasize\n              sub\n              0x20\n              dup2\n              lt\n              iszero\n              tag_49\n              jumpi\n              0x00\n              dup1\n              revert\n            tag_49:\n              dup2\n              add\n              swap1\n              dup1\n              dup1\n              calldataload\n              swap1\n              0x20\n              add\n              swap1\n              swap3\n              swap2\n              swap1\n              pop\n              pop\n              pop\n              tag_50\n              jump\t// in\n            tag_48:\n              mload(0x40)\n              dup1\n              dup1\n              0x20\n              add\n              dup3\n              dup2\n              sub\n              dup3\n              mstore\n              dup4\n              dup2\n              dup2\n              mload\n              dup2\n              mstore\n              0x20\n              add\n              swap2\n              pop\n              dup1\n              mload\n              swap1\n              0x20\n              add\n              swap1\n              dup1\n              dup4\n              dup4\n              0x00\n            tag_51:\n              dup4\n              dup2\n              lt\n              iszero\n              tag_53\n              jumpi\n              dup1\n              dup3\n              add\n              mload\n              dup2\n              dup5\n              add\n              mstore\n              0x20\n              dup2\n              add\n              swap1\n              pop\n              jump(tag_51)\n            tag_53:\n              pop\n              pop\n              pop\n              pop\n              swap1\n              pop\n              swap1\n              dup2\n              add\n              swap1\n              0x1f\n              and\n              dup1\n              iszero\n              tag_54\n              jumpi\n              dup1\n              dup3\n              sub\n              dup1\n              mload\n              0x01\n              dup4\n              0x20\n              sub\n              0x0100\n              exp\n              sub\n              not\n              and\n              dup2\n              mstore\n              0x20\n              add\n              swap2\n              pop\n            tag_54:\n              pop\n              swap3\n              pop\n              pop\n              pop\n              mload(0x40)\n              dup1\n              swap2\n              sub\n              swap1\n              return\n                /* \"pasport_sc.sol\":4792:4890  function getPubKey() view public returns(string memory publicKey){... */\n            tag_8:\n              tag_55\n              tag_56\n              jump\t// in\n            tag_55:\n              mload(0x40)\n              dup1\n              dup1\n              0x20\n              add\n              dup3\n              dup2\n              sub\n              dup3\n              mstore\n              dup4\n              dup2\n              dup2\n              mload\n              dup2\n              mstore\n              0x20\n              add\n              swap2\n              pop\n              dup1\n              mload\n              swap1\n              0x20\n              add\n              swap1\n              dup1\n              dup4\n              dup4\n              0x00\n            tag_57:\n              dup4\n              dup2\n              lt\n              iszero\n              tag_59\n              jumpi\n              dup1\n              dup3\n              add\n              mload\n              dup2\n              dup5\n              add\n              mstore\n              0x20\n              dup2\n              add\n              swap1\n              pop\n              jump(tag_57)\n            tag_59:\n              pop\n              pop\n              pop\n              pop\n              swap1\n              pop\n              swap1\n              dup2\n              add\n              swap1\n              0x1f\n              and\n              dup1\n              iszero\n              tag_60\n              jumpi\n              dup1\n              dup3\n              sub\n              dup1\n              mload\n              0x01\n              dup4\n              0x20\n              sub\n              0x0100\n              exp\n              sub\n              not\n              and\n              dup2\n              mstore\n              0x20\n              add\n              swap2\n              pop\n            tag_60:\n              pop\n              swap3\n              pop\n              pop\n              pop\n              mload(0x40)\n              dup1\n              swap2\n              sub\n              swap1\n              return\n                /* \"pasport_sc.sol\":4896:4989  function newPubKey(string memory _pubKey) public onlyOwner(){... */\n            tag_9:\n              tag_61\n              0x04\n              dup1\n              calldatasize\n              sub\n              0x20\n              dup2\n              lt\n              iszero\n              tag_62\n              jumpi\n              0x00\n              dup1\n              revert\n            tag_62:\n              dup2\n              add\n              swap1\n              dup1\n              dup1\n              calldataload\n              swap1\n              0x20\n              add\n              swap1\n              0x0100000000\n              dup2\n              gt\n              iszero\n              tag_63\n              jumpi\n              0x00\n              dup1\n              revert\n            tag_63:\n              dup3\n              add\n              dup4\n              0x20\n              dup3\n              add\n              gt\n              iszero\n              tag_64\n              jumpi\n              0x00\n              dup1\n              revert\n            tag_64:\n              dup1\n              calldataload\n              swap1\n              0x20\n              add\n              swap2\n              dup5\n              0x01\n              dup4\n              mul\n              dup5\n              add\n              gt\n              0x0100000000\n              dup4\n              gt\n              or\n              iszero\n              tag_65\n              jumpi\n              0x00\n              dup1\n              revert\n            tag_65:\n              swap2\n              swap1\n              dup1\n              dup1\n              0x1f\n              add\n              0x20\n              dup1\n              swap2\n              div\n              mul\n              0x20\n              add\n              mload(0x40)\n              swap1\n              dup2\n              add\n              0x40\n              mstore\n              dup1\n              swap4\n              swap3\n              swap2\n              swap1\n              dup2\n              dup2\n              mstore\n              0x20\n              add\n              dup4\n              dup4\n              dup1\n              dup3\n              dup5\n              calldatacopy\n              0x00\n              dup2\n              dup5\n              add\n              mstore\n              not(0x1f)\n              0x1f\n              dup3\n              add\n              and\n              swap1\n              pop\n              dup1\n              dup4\n              add\n              swap3\n              pop\n              pop\n              pop\n              pop\n              pop\n              pop\n              pop\n              swap2\n              swap3\n              swap2\n              swap3\n              swap1\n              pop\n              pop\n              pop\n              tag_66\n              jump\t// in\n            tag_61:\n              stop\n                /* \"pasport_sc.sol\":5402:5896  function newExtDoc(string memory _hash, string memory _pubKeyUser, string memory _capsule, string memory _kfrag0, string memory _alicesVerifyingKey ) public{... */\n            tag_10:\n              tag_67\n              0x04\n              dup1\n              calldatasize\n              sub\n              0xa0\n              dup2\n              lt\n              iszero\n              tag_68\n              jumpi\n              0x00\n              dup1\n              revert\n            tag_68:\n              dup2\n              add\n              swap1\n              dup1\n              dup1\n              calldataload\n              swap1\n              0x20\n              add\n              swap1\n              0x0100000000\n              dup2\n              gt\n              iszero\n              tag_69\n              jumpi\n              0x00\n              dup1\n              revert\n            tag_69:\n              dup3\n              add\n              dup4\n              0x20\n              dup3\n              add\n              gt\n              iszero\n              tag_70\n              jumpi\n              0x00\n              dup1\n              revert\n            tag_70:\n              dup1\n              calldataload\n              swap1\n              0x20\n              add\n              swap2\n              dup5\n              0x01\n              dup4\n              mul\n              dup5\n              add\n              gt\n              0x0100000000\n              dup4\n              gt\n              or\n              iszero\n              tag_71\n              jumpi\n              0x00\n              dup1\n              revert\n            tag_71:\n              swap2\n              swap1\n              dup1\n              dup1\n              0x1f\n              add\n              0x20\n              dup1\n              swap2\n              div\n              mul\n              0x20\n              add\n              mload(0x40)\n              swap1\n              dup2\n              add\n              0x40\n              mstore\n              dup1\n              swap4\n              swap3\n              swap2\n              swap1\n              dup2\n              dup2\n              mstore\n              0x20\n              add\n              dup4\n              dup4\n              dup1\n              dup3\n              dup5\n              calldatacopy\n              0x00\n              dup2\n              dup5\n              add\n              mstore\n              not(0x1f)\n              0x1f\n              dup3\n              add\n              and\n              swap1\n              pop\n              dup1\n              dup4\n              add\n              swap3\n              pop\n              pop\n              pop\n              pop\n              pop\n              pop\n              pop\n              swap2\n              swap3\n              swap2\n              swap3\n              swap1\n              dup1\n              calldataload\n              swap1\n              0x20\n              add\n              swap1\n              0x0100000000\n              dup2\n              gt\n              iszero\n              tag_72\n              jumpi\n              0x00\n              dup1\n              revert\n            tag_72:\n              dup3\n              add\n              dup4\n              0x20\n              dup3\n              add\n              gt\n              iszero\n              tag_73\n              jumpi\n              0x00\n              dup1\n              revert\n            tag_73:\n              dup1\n              calldataload\n              swap1\n              0x20\n              add\n              swap2\n              dup5\n              0x01\n              dup4\n              mul\n              dup5\n              add\n              gt\n              0x0100000000\n              dup4\n              gt\n              or\n              iszero\n              tag_74\n              jumpi\n              0x00\n              dup1\n              revert\n            tag_74:\n              swap2\n              swap1\n              dup1\n              dup1\n              0x1f\n              add\n              0x20\n              dup1\n              swap2\n              div\n              mul\n              0x20\n              add\n              mload(0x40)\n              swap1\n              dup2\n              add\n              0x40\n              mstore\n              dup1\n              swap4\n              swap3\n              swap2\n              swap1\n              dup2\n              dup2\n              mstore\n              0x20\n              add\n              dup4\n              dup4\n              dup1\n              dup3\n              dup5\n              calldatacopy\n              0x00\n              dup2\n              dup5\n              add\n              mstore\n              not(0x1f)\n              0x1f\n              dup3\n              add\n              and\n              swap1\n              pop\n              dup1\n              dup4\n              add\n              swap3\n              pop\n              pop\n              pop\n              pop\n              pop\n              pop\n              pop\n              swap2\n              swap3\n              swap2\n              swap3\n              swap1\n              dup1\n              calldataload\n              swap1\n              0x20\n              add\n              swap1\n              0x0100000000\n              dup2\n              gt\n              iszero\n              tag_75\n              jumpi\n              0x00\n              dup1\n              revert\n            tag_75:\n              dup3\n              add\n              dup4\n              0x20\n              dup3\n              add\n              gt\n              iszero\n              tag_76\n              jumpi\n              0x00\n              dup1\n              revert\n            tag_76:\n              dup1\n              calldataload\n              swap1\n              0x20\n              add\n              swap2\n              dup5\n              0x01\n              dup4\n              mul\n              dup5\n              add\n              gt\n              0x0100000000\n              dup4\n              gt\n              or\n              iszero\n              tag_77\n              jumpi\n              0x00\n              dup1\n              revert\n            tag_77:\n              swap2\n              swap1\n              dup1\n              dup1\n              0x1f\n              add\n              0x20\n              dup1\n              swap2\n              div\n              mul\n              0x20\n              add\n              mload(0x40)\n              swap1\n              dup2\n              add\n              0x40\n              mstore\n              dup1\n              swap4\n              swap3\n              swap2\n              swap1\n              dup2\n              dup2\n              mstore\n              0x20\n              add\n              dup4\n              dup4\n              dup1\n              dup3\n              dup5\n              calldatacopy\n              0x00\n              dup2\n              dup5\n              add\n              mstore\n              not(0x1f)\n              0x1f\n              dup3\n              add\n              and\n              swap1\n              pop\n              dup1\n              dup4\n              add\n              swap3\n              pop\n              pop\n              pop\n              pop\n              pop\n              pop\n              pop\n              swap2\n              swap3\n              swap2\n              swap3\n              swap1\n              dup1\n              calldataload\n              swap1\n              0x20\n              add\n              swap1\n              0x0100000000\n              dup2\n              gt\n              iszero\n              tag_78\n              jumpi\n              0x00\n              dup1\n              revert\n            tag_78:\n              dup3\n              add\n              dup4\n              0x20\n              dup3\n              add\n              gt\n              iszero\n              tag_79\n              jumpi\n              0x00\n              dup1\n              revert\n            tag_79:\n              dup1\n              calldataload\n              swap1\n              0x20\n              add\n              swap2\n              dup5\n              0x01\n              dup4\n              mul\n              dup5\n              add\n              gt\n              0x0100000000\n              dup4\n              gt\n              or\n              iszero\n              tag_80\n              jumpi\n              0x00\n              dup1\n              revert\n            tag_80:\n              swap2\n              swap1\n              dup1\n              dup1\n              0x1f\n              add\n              0x20\n              dup1\n              swap2\n              div\n              mul\n              0x20\n              add\n              mload(0x40)\n              swap1\n              dup2\n              add\n              0x40\n              mstore\n              dup1\n              swap4\n              swap3\n              swap2\n              swap1\n              dup2\n              dup2\n              mstore\n              0x20\n              add\n              dup4\n              dup4\n              dup1\n              dup3\n              dup5\n              calldatacopy\n              0x00\n              dup2\n              dup5\n              add\n              mstore\n              not(0x1f)\n              0x1f\n              dup3\n              add\n              and\n              swap1\n              pop\n              dup1\n              dup4\n              add\n              swap3\n              pop\n              pop\n              pop\n              pop\n              pop\n              pop\n              pop\n              swap2\n              swap3\n              swap2\n              swap3\n              swap1\n              dup1\n              calldataload\n              swap1\n              0x20\n              add\n              swap1\n              0x0100000000\n              dup2\n              gt\n              iszero\n              tag_81\n              jumpi\n              0x00\n              dup1\n              revert\n            tag_81:\n              dup3\n              add\n              dup4\n              0x20\n              dup3\n              add\n              gt\n              iszero\n              tag_82\n              jumpi\n              0x00\n              dup1\n              revert\n            tag_82:\n              dup1\n              calldataload\n              swap1\n              0x20\n              add\n              swap2\n              dup5\n              0x01\n              dup4\n              mul\n              dup5\n              add\n              gt\n              0x0100000000\n              dup4\n              gt\n              or\n              iszero\n              tag_83\n              jumpi\n              0x00\n              dup1\n              revert\n            tag_83:\n              swap2\n              swap1\n              dup1\n              dup1\n              0x1f\n              add\n              0x20\n              dup1\n              swap2\n              div\n              mul\n              0x20\n              add\n              mload(0x40)\n              swap1\n              dup2\n              add\n              0x40\n              mstore\n              dup1\n              swap4\n              swap3\n              swap2\n              swap1\n              dup2\n              dup2\n              mstore\n              0x20\n              add\n              dup4\n              dup4\n              dup1\n              dup3\n              dup5\n              calldatacopy\n              0x00\n              dup2\n              dup5\n              add\n              mstore\n              not(0x1f)\n              0x1f\n              dup3\n              add\n              and\n              swap1\n              pop\n              dup1\n              dup4\n              add\n              swap3\n              pop\n              pop\n              pop\n              pop\n              pop\n              pop\n              pop\n              swap2\n              swap3\n              swap2\n              swap3\n              swap1\n              pop\n              pop\n              pop\n              tag_84\n              jump\t// in\n            tag_67:\n              stop\n                /* \"pasport_sc.sol\":6024:6147  function getDocsCapsule(uint _index) public view onlyOwner() returns (string memory){... */\n            tag_11:\n              tag_85\n              0x04\n              dup1\n              calldatasize\n              sub\n              0x20\n              dup2\n              lt\n              iszero\n              tag_86\n              jumpi\n              0x00\n              dup1\n              revert\n            tag_86:\n              dup2\n              add\n              swap1\n              dup1\n              dup1\n              calldataload\n              swap1\n              0x20\n              add\n              swap1\n              swap3\n              swap2\n              swap1\n              pop\n              pop\n              pop\n              tag_87\n              jump\t// in\n            tag_85:\n              mload(0x40)\n              dup1\n              dup1\n              0x20\n              add\n              dup3\n              dup2\n              sub\n              dup3\n              mstore\n              dup4\n              dup2\n              dup2\n              mload\n              dup2\n              mstore\n              0x20\n              add\n              swap2\n              pop\n              dup1\n              mload\n              swap1\n              0x20\n              add\n              swap1\n              dup1\n              dup4\n              dup4\n              0x00\n            tag_88:\n              dup4\n              dup2\n              lt\n              iszero\n              tag_90\n              jumpi\n              dup1\n              dup3\n              add\n              mload\n              dup2\n              dup5\n              add\n              mstore\n              0x20\n              dup2\n              add\n              swap1\n              pop\n              jump(tag_88)\n            tag_90:\n              pop\n              pop\n              pop\n              pop\n              swap1\n              pop\n              swap1\n              dup2\n              add\n              swap1\n              0x1f\n              and\n              dup1\n              iszero\n              tag_91\n              jumpi\n              dup1\n              dup3\n              sub\n              dup1\n              mload\n              0x01\n              dup4\n              0x20\n              sub\n              0x0100\n              exp\n              sub\n              not\n              and\n              dup2\n              mstore\n              0x20\n              add\n              swap2\n              pop\n            tag_91:\n              pop\n              swap3\n              pop\n              pop\n              pop\n              mload(0x40)\n              dup1\n              swap2\n              sub\n              swap1\n              return\n                /* \"pasport_sc.sol\":5263:5392  function getIndexDoc(string memory _hash) public view onlyOwner() returns (uint256 index){... */\n            tag_12:\n              tag_92\n              0x04\n              dup1\n              calldatasize\n              sub\n              0x20\n              dup2\n              lt\n              iszero\n              tag_93\n              jumpi\n              0x00\n              dup1\n              revert\n            tag_93:\n              dup2\n              add\n              swap1\n              dup1\n              dup1\n              calldataload\n              swap1\n              0x20\n              add\n              swap1\n              0x0100000000\n              dup2\n              gt\n              iszero\n              tag_94\n              jumpi\n              0x00\n              dup1\n              revert\n            tag_94:\n              dup3\n              add\n              dup4\n              0x20\n              dup3\n              add\n              gt\n              iszero\n              tag_95\n              jumpi\n              0x00\n              dup1\n              revert\n            tag_95:\n              dup1\n              calldataload\n              swap1\n              0x20\n              add\n              swap2\n              dup5\n              0x01\n              dup4\n              mul\n              dup5\n              add\n              gt\n              0x0100000000\n              dup4\n              gt\n              or\n              iszero\n              tag_96\n              jumpi\n              0x00\n              dup1\n              revert\n            tag_96:\n              swap2\n              swap1\n              dup1\n              dup1\n              0x1f\n              add\n              0x20\n              dup1\n              swap2\n              div\n              mul\n              0x20\n              add\n              mload(0x40)\n              swap1\n              dup2\n              add\n              0x40\n              mstore\n              dup1\n              swap4\n              swap3\n              swap2\n              swap1\n              dup2\n              dup2\n              mstore\n              0x20\n              add\n              dup4\n              dup4\n              dup1\n              dup3\n              dup5\n              calldatacopy\n              0x00\n              dup2\n              dup5\n              add\n              mstore\n              not(0x1f)\n              0x1f\n              dup3\n              add\n              and\n              swap1\n              pop\n              dup1\n              dup4\n              add\n              swap3\n              pop\n              pop\n              pop\n              pop\n              pop\n              pop\n              pop\n              swap2\n              swap3\n              swap2\n              swap3\n              swap1\n              pop\n              pop\n              pop\n              tag_97\n              jump\t// in\n            tag_92:\n              mload(0x40)\n              dup1\n              dup3\n              dup2\n              mstore\n              0x20\n              add\n              swap2\n              pop\n              pop\n              mload(0x40)\n              dup1\n              swap2\n              sub\n              swap1\n              return\n                /* \"pasport_sc.sol\":4044:4088  mapping (string => uint256) public indexDocs */\n            tag_13:\n              tag_98\n              0x04\n              dup1\n              calldatasize\n              sub\n              0x20\n              dup2\n              lt\n              iszero\n              tag_99\n              jumpi\n              0x00\n              dup1\n              revert\n            tag_99:\n              dup2\n              add\n              swap1\n              dup1\n              dup1\n              calldataload\n              swap1\n              0x20\n              add\n              swap1\n              0x0100000000\n              dup2\n              gt\n              iszero\n              tag_100\n              jumpi\n              0x00\n              dup1\n              revert\n            tag_100:\n              dup3\n              add\n              dup4\n              0x20\n              dup3\n              add\n              gt\n              iszero\n              tag_101\n              jumpi\n              0x00\n              dup1\n              revert\n            tag_101:\n              dup1\n              calldataload\n              swap1\n              0x20\n              add\n              swap2\n              dup5\n              0x01\n              dup4\n              mul\n              dup5\n              add\n              gt\n              0x0100000000\n              dup4\n              gt\n              or\n              iszero\n              tag_102\n              jumpi\n              0x00\n              dup1\n              revert\n            tag_102:\n              swap2\n              swap1\n              dup1\n              dup1\n              0x1f\n              add\n              0x20\n              dup1\n              swap2\n              div\n              mul\n              0x20\n              add\n              mload(0x40)\n              swap1\n              dup2\n              add\n              0x40\n              mstore\n              dup1\n              swap4\n              swap3\n              swap2\n              swap1\n              dup2\n              dup2\n              mstore\n              0x20\n              add\n              dup4\n              dup4\n              dup1\n              dup3\n              dup5\n              calldatacopy\n              0x00\n              dup2\n              dup5\n              add\n              mstore\n              not(0x1f)\n              0x1f\n              dup3\n              add\n              and\n              swap1\n              pop\n              dup1\n              dup4\n              add\n              swap3\n              pop\n              pop\n              pop\n              pop\n              pop\n              pop\n              pop\n              swap2\n              swap3\n              swap2\n              swap3\n              swap1\n              pop\n              pop\n              pop\n              tag_103\n              jump\t// in\n            tag_98:\n              mload(0x40)\n              dup1\n              dup3\n              dup2\n              mstore\n              0x20\n              add\n              swap2\n              pop\n              pop\n              mload(0x40)\n              dup1\n              swap2\n              sub\n              swap1\n              return\n                /* \"pasport_sc.sol\":7328:7432  function lengthExtDocArray() public view onlyOwner() returns(uint){... */\n            tag_14:\n              tag_104\n              tag_105\n              jump\t// in\n            tag_104:\n              mload(0x40)\n              dup1\n              dup3\n              dup2\n              mstore\n              0x20\n              add\n              swap2\n              pop\n              pop\n              mload(0x40)\n              dup1\n              swap2\n              sub\n              swap1\n              return\n                /* \"pasport_sc.sol\":7224:7322  function lengthDocArray() public view onlyOwner() returns(uint){... */\n            tag_15:\n              tag_106\n              tag_107\n              jump\t// in\n            tag_106:\n              mload(0x40)\n              dup1\n              dup3\n              dup2\n              mstore\n              0x20\n              add\n              swap2\n              pop\n              pop\n              mload(0x40)\n              dup1\n              swap2\n              sub\n              swap1\n              return\n                /* \"pasport_sc.sol\":3818:3842  string [] public capsule */\n            tag_16:\n              tag_108\n              0x04\n              dup1\n              calldatasize\n              sub\n              0x20\n              dup2\n              lt\n              iszero\n              tag_109\n              jumpi\n              0x00\n              dup1\n              revert\n            tag_109:\n              dup2\n              add\n              swap1\n              dup1\n              dup1\n              calldataload\n              swap1\n              0x20\n              add\n              swap1\n              swap3\n              swap2\n              swap1\n              pop\n              pop\n              pop\n              tag_110\n              jump\t// in\n            tag_108:\n              mload(0x40)\n              dup1\n              dup1\n              0x20\n              add\n              dup3\n              dup2\n              sub\n              dup3\n              mstore\n              dup4\n              dup2\n              dup2\n              mload\n              dup2\n              mstore\n              0x20\n              add\n              swap2\n              pop\n              dup1\n              mload\n              swap1\n              0x20\n              add\n              swap1\n              dup1\n              dup4\n              dup4\n              0x00\n            tag_111:\n              dup4\n              dup2\n              lt\n              iszero\n              tag_113\n              jumpi\n              dup1\n              dup3\n              add\n              mload\n              dup2\n              dup5\n              add\n              mstore\n              0x20\n              dup2\n              add\n              swap1\n              pop\n              jump(tag_111)\n            tag_113:\n              pop\n              pop\n              pop\n              pop\n              swap1\n              pop\n              swap1\n              dup2\n              add\n              swap1\n              0x1f\n              and\n              dup1\n              iszero\n              tag_114\n              jumpi\n              dup1\n              dup3\n              sub\n              dup1\n              mload\n              0x01\n              dup4\n              0x20\n              sub\n              0x0100\n              exp\n              sub\n              not\n              and\n              dup2\n              mstore\n              0x20\n              add\n              swap2\n              pop\n            tag_114:\n              pop\n              swap3\n              pop\n              pop\n              pop\n              mload(0x40)\n              dup1\n              swap2\n              sub\n              swap1\n              return\n                /* \"pasport_sc.sol\":6831:7082  function getExtInfo(string memory _hash) public view onlyOwner() returns (string memory, string memory, string memory, string memory){... */\n            tag_17:\n              tag_115\n              0x04\n              dup1\n              calldatasize\n              sub\n              0x20\n              dup2\n              lt\n              iszero\n              tag_116\n              jumpi\n              0x00\n              dup1\n              revert\n            tag_116:\n              dup2\n              add\n              swap1\n              dup1\n              dup1\n              calldataload\n              swap1\n              0x20\n              add\n              swap1\n              0x0100000000\n              dup2\n              gt\n              iszero\n              tag_117\n              jumpi\n              0x00\n              dup1\n              revert\n            tag_117:\n              dup3\n              add\n              dup4\n              0x20\n              dup3\n              add\n              gt\n              iszero\n              tag_118\n              jumpi\n              0x00\n              dup1\n              revert\n            tag_118:\n              dup1\n              calldataload\n              swap1\n              0x20\n              add\n              swap2\n              dup5\n              0x01\n              dup4\n              mul\n              dup5\n              add\n              gt\n              0x0100000000\n              dup4\n              gt\n              or\n              iszero\n              tag_119\n              jumpi\n              0x00\n              dup1\n              revert\n            tag_119:\n              swap2\n              swap1\n              dup1\n              dup1\n              0x1f\n              add\n              0x20\n              dup1\n              swap2\n              div\n              mul\n              0x20\n              add\n              mload(0x40)\n              swap1\n              dup2\n              add\n              0x40\n              mstore\n              dup1\n              swap4\n              swap3\n              swap2\n              swap1\n              dup2\n              dup2\n              mstore\n              0x20\n              add\n              dup4\n              dup4\n              dup1\n              dup3\n              dup5\n              calldatacopy\n              0x00\n              dup2\n              dup5\n              add\n              mstore\n              not(0x1f)\n              0x1f\n              dup3\n              add\n              and\n              swap1\n              pop\n              dup1\n              dup4\n              add\n              swap3\n              pop\n              pop\n              pop\n              pop\n              pop\n              pop\n              pop\n              swap2\n              swap3\n              swap2\n              swap3\n              swap1\n              pop\n              pop\n              pop\n              tag_120\n              jump\t// in\n            tag_115:\n              mload(0x40)\n              dup1\n              dup1\n              0x20\n              add\n              dup1\n              0x20\n              add\n              dup1\n              0x20\n              add\n              dup1\n              0x20\n              add\n              dup6\n              dup2\n              sub\n              dup6\n              mstore\n              dup10\n              dup2\n              dup2\n              mload\n              dup2\n              mstore\n              0x20\n              add\n              swap2\n              pop\n              dup1\n              mload\n              swap1\n              0x20\n              add\n              swap1\n              dup1\n              dup4\n              dup4\n              0x00\n            tag_121:\n              dup4\n              dup2\n              lt\n              iszero\n              tag_123\n              jumpi\n              dup1\n              dup3\n              add\n              mload\n              dup2\n              dup5\n              add\n              mstore\n              0x20\n              dup2\n              add\n              swap1\n              pop\n              jump(tag_121)\n            tag_123:\n              pop\n              pop\n              pop\n              pop\n              swap1\n              pop\n              swap1\n              dup2\n              add\n              swap1\n              0x1f\n              and\n              dup1\n              iszero\n              tag_124\n              jumpi\n              dup1\n              dup3\n              sub\n              dup1\n              mload\n              0x01\n              dup4\n              0x20\n              sub\n              0x0100\n              exp\n              sub\n              not\n              and\n              dup2\n              mstore\n              0x20\n              add\n              swap2\n              pop\n            tag_124:\n              pop\n              dup6\n              dup2\n              sub\n              dup5\n              mstore\n              dup9\n              dup2\n              dup2\n              mload\n              dup2\n              mstore\n              0x20\n              add\n              swap2\n              pop\n              dup1\n              mload\n              swap1\n              0x20\n              add\n              swap1\n              dup1\n              dup4\n              dup4\n              0x00\n            tag_125:\n              dup4\n              dup2\n              lt\n              iszero\n              tag_127\n              jumpi\n              dup1\n              dup3\n              add\n              mload\n              dup2\n              dup5\n              add\n              mstore\n              0x20\n              dup2\n              add\n              swap1\n              pop\n              jump(tag_125)\n            tag_127:\n              pop\n              pop\n              pop\n              pop\n              swap1\n              pop\n              swap1\n              dup2\n              add\n              swap1\n              0x1f\n              and\n              dup1\n              iszero\n              tag_128\n              jumpi\n              dup1\n              dup3\n              sub\n              dup1\n              mload\n              0x01\n              dup4\n              0x20\n              sub\n              0x0100\n              exp\n              sub\n              not\n              and\n              dup2\n              mstore\n              0x20\n              add\n              swap2\n              pop\n            tag_128:\n              pop\n              dup6\n              dup2\n              sub\n              dup4\n              mstore\n              dup8\n              dup2\n              dup2\n              mload\n              dup2\n              mstore\n              0x20\n              add\n              swap2\n              pop\n              dup1\n              mload\n              swap1\n              0x20\n              add\n              swap1\n              dup1\n              dup4\n              dup4\n              0x00\n            tag_129:\n              dup4\n              dup2\n              lt\n              iszero\n              tag_131\n              jumpi\n              dup1\n              dup3\n              add\n              mload\n              dup2\n              dup5\n              add\n              mstore\n              0x20\n              dup2\n              add\n              swap1\n              pop\n              jump(tag_129)\n            tag_131:\n              pop\n              pop\n              pop\n              pop\n              swap1\n              pop\n              swap1\n              dup2\n              add\n              swap1\n              0x1f\n              and\n              dup1\n              iszero\n              tag_132\n              jumpi\n              dup1\n              dup3\n              sub\n              dup1\n              mload\n              0x01\n              dup4\n              0x20\n              sub\n              0x0100\n              exp\n              sub\n              not\n              and\n              dup2\n              mstore\n              0x20\n              add\n              swap2\n              pop\n            tag_132:\n              pop\n              dup6\n              dup2\n              sub\n              dup3\n              mstore\n              dup7\n              dup2\n              dup2\n              mload\n              dup2\n              mstore\n              0x20\n              add\n              swap2\n              pop\n              dup1\n              mload\n              swap1\n              0x20\n              add\n              swap1\n              dup1\n              dup4\n              dup4\n              0x00\n            tag_133:\n              dup4\n              dup2\n              lt\n              iszero\n              tag_135\n              jumpi\n              dup1\n              dup3\n              add\n              mload\n              dup2\n              dup5\n              add\n              mstore\n              0x20\n              dup2\n              add\n              swap1\n              pop\n              jump(tag_133)\n            tag_135:\n              pop\n              pop\n              pop\n              pop\n              swap1\n              pop\n              swap1\n              dup2\n              add\n              swap1\n              0x1f\n              and\n              dup1\n              iszero\n              tag_136\n              jumpi\n              dup1\n              dup3\n              sub\n              dup1\n              mload\n              0x01\n              dup4\n              0x20\n              sub\n              0x0100\n              exp\n              sub\n              not\n              and\n              dup2\n              mstore\n              0x20\n              add\n              swap2\n              pop\n            tag_136:\n              pop\n              swap9\n              pop\n              pop\n              pop\n              pop\n              pop\n              pop\n              pop\n              pop\n              pop\n              mload(0x40)\n              dup1\n              swap2\n              sub\n              swap1\n              return\n                /* \"pasport_sc.sol\":7445:7531  function activeEntity(bool _active) public onlyWHO() {... */\n            tag_18:\n              tag_137\n              0x04\n              dup1\n              calldatasize\n              sub\n              0x20\n              dup2\n              lt\n              iszero\n              tag_138\n              jumpi\n              0x00\n              dup1\n              revert\n            tag_138:\n              dup2\n              add\n              swap1\n              dup1\n              dup1\n              calldataload\n              iszero\n              iszero\n              swap1\n              0x20\n              add\n              swap1\n              swap3\n              swap2\n              swap1\n              pop\n              pop\n              pop\n              tag_139\n              jump\t// in\n            tag_137:\n              stop\n                /* \"pasport_sc.sol\":4143:4182  mapping (string => kfrags) public kfrag */\n            tag_19:\n              tag_140\n              0x04\n              dup1\n              calldatasize\n              sub\n              0x20\n              dup2\n              lt\n              iszero\n              tag_141\n              jumpi\n              0x00\n              dup1\n              revert\n            tag_141:\n              dup2\n              add\n              swap1\n              dup1\n              dup1\n              calldataload\n              swap1\n              0x20\n              add\n              swap1\n              0x0100000000\n              dup2\n              gt\n              iszero\n              tag_142\n              jumpi\n              0x00\n              dup1\n              revert\n            tag_142:\n              dup3\n              add\n              dup4\n              0x20\n              dup3\n              add\n              gt\n              iszero\n              tag_143\n              jumpi\n              0x00\n              dup1\n              revert\n            tag_143:\n              dup1\n              calldataload\n              swap1\n              0x20\n              add\n              swap2\n              dup5\n              0x01\n              dup4\n              mul\n              dup5\n              add\n              gt\n              0x0100000000\n              dup4\n              gt\n              or\n              iszero\n              tag_144\n              jumpi\n              0x00\n              dup1\n              revert\n            tag_144:\n              swap2\n              swap1\n              dup1\n              dup1\n              0x1f\n              add\n              0x20\n              dup1\n              swap2\n              div\n              mul\n              0x20\n              add\n              mload(0x40)\n              swap1\n              dup2\n              add\n              0x40\n              mstore\n              dup1\n              swap4\n              swap3\n              swap2\n              swap1\n              dup2\n              dup2\n              mstore\n              0x20\n              add\n              dup4\n              dup4\n              dup1\n              dup3\n              dup5\n              calldatacopy\n              0x00\n              dup2\n              dup5\n              add\n              mstore\n              not(0x1f)\n              0x1f\n              dup3\n              add\n              and\n              swap1\n              pop\n              dup1\n              dup4\n              add\n              swap3\n              pop\n              pop\n              pop\n              pop\n              pop\n              pop\n              pop\n              swap2\n              swap3\n              swap2\n              swap3\n              swap1\n              pop\n              pop\n              pop\n              tag_145\n              jump\t// in\n            tag_140:\n              mload(0x40)\n              dup1\n              dup1\n              0x20\n              add\n              dup1\n              0x20\n              add\n              dup1\n              0x20\n              add\n              dup1\n              0x20\n              add\n              dup1\n              0x20\n              add\n              dup7\n              dup2\n              sub\n              dup7\n              mstore\n              dup12\n              dup2\n              dup2\n              mload\n              dup2\n              mstore\n              0x20\n              add\n              swap2\n              pop\n              dup1\n              mload\n              swap1\n              0x20\n              add\n              swap1\n              dup1\n              dup4\n              dup4\n              0x00\n            tag_146:\n              dup4\n              dup2\n              lt\n              iszero\n              tag_148\n              jumpi\n              dup1\n              dup3\n              add\n              mload\n              dup2\n              dup5\n              add\n              mstore\n              0x20\n              dup2\n              add\n              swap1\n              pop\n              jump(tag_146)\n            tag_148:\n              pop\n              pop\n              pop\n              pop\n              swap1\n              pop\n              swap1\n              dup2\n              add\n              swap1\n              0x1f\n              and\n              dup1\n              iszero\n              tag_149\n              jumpi\n              dup1\n              dup3\n              sub\n              dup1\n              mload\n              0x01\n              dup4\n              0x20\n              sub\n              0x0100\n              exp\n              sub\n              not\n              and\n              dup2\n              mstore\n              0x20\n              add\n              swap2\n              pop\n            tag_149:\n              pop\n              dup7\n              dup2\n              sub\n              dup6\n              mstore\n              dup11\n              dup2\n              dup2\n              mload\n              dup2\n              mstore\n              0x20\n              add\n              swap2\n              pop\n              dup1\n              mload\n              swap1\n              0x20\n              add\n              swap1\n              dup1\n              dup4\n              dup4\n              0x00\n            tag_150:\n              dup4\n              dup2\n              lt\n              iszero\n              tag_152\n              jumpi\n              dup1\n              dup3\n              add\n              mload\n              dup2\n              dup5\n              add\n              mstore\n              0x20\n              dup2\n              add\n              swap1\n              pop\n              jump(tag_150)\n            tag_152:\n              pop\n              pop\n              pop\n              pop\n              swap1\n              pop\n              swap1\n              dup2\n              add\n              swap1\n              0x1f\n              and\n              dup1\n              iszero\n              tag_153\n              jumpi\n              dup1\n              dup3\n              sub\n              dup1\n              mload\n              0x01\n              dup4\n              0x20\n              sub\n              0x0100\n              exp\n              sub\n              not\n              and\n              dup2\n              mstore\n              0x20\n              add\n              swap2\n              pop\n            tag_153:\n              pop\n              dup7\n              dup2\n              sub\n              dup5\n              mstore\n              dup10\n              dup2\n              dup2\n              mload\n              dup2\n              mstore\n              0x20\n              add\n              swap2\n              pop\n              dup1\n              mload\n              swap1\n              0x20\n              add\n              swap1\n              dup1\n              dup4\n              dup4\n              0x00\n            tag_154:\n              dup4\n              dup2\n              lt\n              iszero\n              tag_156\n              jumpi\n              dup1\n              dup3\n              add\n              mload\n              dup2\n              dup5\n              add\n              mstore\n              0x20\n              dup2\n              add\n              swap1\n              pop\n              jump(tag_154)\n            tag_156:\n              pop\n              pop\n              pop\n              pop\n              swap1\n              pop\n              swap1\n              dup2\n              add\n              swap1\n              0x1f\n              and\n              dup1\n              iszero\n              tag_157\n              jumpi\n              dup1\n              dup3\n              sub\n              dup1\n              mload\n              0x01\n              dup4\n              0x20\n              sub\n              0x0100\n              exp\n              sub\n              not\n              and\n              dup2\n              mstore\n              0x20\n              add\n              swap2\n              pop\n            tag_157:\n              pop\n              dup7\n              dup2\n              sub\n              dup4\n              mstore\n              dup9\n              dup2\n              dup2\n              mload\n              dup2\n              mstore\n              0x20\n              add\n              swap2\n              pop\n              dup1\n              mload\n              swap1\n              0x20\n              add\n              swap1\n              dup1\n              dup4\n              dup4\n              0x00\n            tag_158:\n              dup4\n              dup2\n              lt\n              iszero\n              tag_160\n              jumpi\n              dup1\n              dup3\n              add\n              mload\n              dup2\n              dup5\n              add\n              mstore\n              0x20\n              dup2\n              add\n              swap1\n              pop\n              jump(tag_158)\n            tag_160:\n              pop\n              pop\n              pop\n              pop\n              swap1\n              pop\n              swap1\n              dup2\n              add\n              swap1\n              0x1f\n              and\n              dup1\n              iszero\n              tag_161\n              jumpi\n              dup1\n              dup3\n              sub\n              dup1\n              mload\n              0x01\n              dup4\n              0x20\n              sub\n              0x0100\n              exp\n              sub\n              not\n              and\n              dup2\n              mstore\n              0x20\n              add\n              swap2\n              pop\n            tag_161:\n              pop\n              dup7\n              dup2\n              sub\n              dup3\n              mstore\n              dup8\n              dup2\n              dup2\n              mload\n              dup2\n              mstore\n              0x20\n              add\n              swap2\n              pop\n              dup1\n              mload\n              swap1\n              0x20\n              add\n              swap1\n              dup1\n              dup4\n              dup4\n              0x00\n            tag_162:\n              dup4\n              dup2\n              lt\n              iszero\n              tag_164\n              jumpi\n              dup1\n              dup3\n              add\n              mload\n              dup2\n              dup5\n              add\n              mstore\n              0x20\n              dup2\n              add\n              swap1\n              pop\n              jump(tag_162)\n            tag_164:\n              pop\n              pop\n              pop\n              pop\n              swap1\n              pop\n              swap1\n              dup2\n              add\n              swap1\n              0x1f\n              and\n              dup1\n              iszero\n              tag_165\n              jumpi\n              dup1\n              dup3\n              sub\n              dup1\n              mload\n              0x01\n              dup4\n              0x20\n              sub\n              0x0100\n              exp\n              sub\n              not\n              and\n              dup2\n              mstore\n              0x20\n              add\n              swap2\n              pop\n            tag_165:\n              pop\n              swap11\n              pop\n              pop\n              pop\n              pop\n              pop\n              pop\n              pop\n              pop\n              pop\n              pop\n              pop\n              mload(0x40)\n              dup1\n              swap2\n              sub\n              swap1\n              return\n                /* \"pasport_sc.sol\":4999:5231  function newDoc(string memory _hash, string memory _capsule)public{... */\n            tag_20:\n              tag_166\n              0x04\n              dup1\n              calldatasize\n              sub\n              0x40\n              dup2\n              lt\n              iszero\n              tag_167\n              jumpi\n              0x00\n              dup1\n              revert\n            tag_167:\n              dup2\n              add\n              swap1\n              dup1\n              dup1\n              calldataload\n              swap1\n              0x20\n              add\n              swap1\n              0x0100000000\n              dup2\n              gt\n              iszero\n              tag_168\n              jumpi\n              0x00\n              dup1\n              revert\n            tag_168:\n              dup3\n              add\n              dup4\n              0x20\n              dup3\n              add\n              gt\n              iszero\n              tag_169\n              jumpi\n              0x00\n              dup1\n              revert\n            tag_169:\n              dup1\n              calldataload\n              swap1\n              0x20\n              add\n              swap2\n              dup5\n              0x01\n              dup4\n              mul\n              dup5\n              add\n              gt\n              0x0100000000\n              dup4\n              gt\n              or\n              iszero\n              tag_170\n              jumpi\n              0x00\n              dup1\n              revert\n            tag_170:\n              swap2\n              swap1\n              dup1\n              dup1\n              0x1f\n              add\n              0x20\n              dup1\n              swap2\n              div\n              mul\n              0x20\n              add\n              mload(0x40)\n              swap1\n              dup2\n              add\n              0x40\n              mstore\n              dup1\n              swap4\n              swap3\n              swap2\n              swap1\n              dup2\n              dup2\n              mstore\n              0x20\n              add\n              dup4\n              dup4\n              dup1\n              dup3\n              dup5\n              calldatacopy\n              0x00\n              dup2\n              dup5\n              add\n              mstore\n              not(0x1f)\n              0x1f\n              dup3\n              add\n              and\n              swap1\n              pop\n              dup1\n              dup4\n              add\n              swap3\n              pop\n              pop\n              pop\n              pop\n              pop\n              pop\n              pop\n              swap2\n              swap3\n              swap2\n              swap3\n              swap1\n              dup1\n              calldataload\n              swap1\n              0x20\n              add\n              swap1\n              0x0100000000\n              dup2\n              gt\n              iszero\n              tag_171\n              jumpi\n              0x00\n              dup1\n              revert\n            tag_171:\n              dup3\n              add\n              dup4\n              0x20\n              dup3\n              add\n              gt\n              iszero\n              tag_172\n              jumpi\n              0x00\n              dup1\n              revert\n            tag_172:\n              dup1\n              calldataload\n              swap1\n              0x20\n              add\n              swap2\n              dup5\n              0x01\n              dup4\n              mul\n              dup5\n              add\n              gt\n              0x0100000000\n              dup4\n              gt\n              or\n              iszero\n              tag_173\n              jumpi\n              0x00\n              dup1\n              revert\n            tag_173:\n              swap2\n              swap1\n              dup1\n              dup1\n              0x1f\n              add\n              0x20\n              dup1\n              swap2\n              div\n              mul\n              0x20\n              add\n              mload(0x40)\n              swap1\n              dup2\n              add\n              0x40\n              mstore\n              dup1\n              swap4\n              swap3\n              swap2\n              swap1\n              dup2\n              dup2\n              mstore\n              0x20\n              add\n              dup4\n              dup4\n              dup1\n              dup3\n              dup5\n              calldatacopy\n              0x00\n              dup2\n              dup5\n              add\n              mstore\n              not(0x1f)\n              0x1f\n              dup3\n              add\n              and\n              swap1\n              pop\n              dup1\n              dup4\n              add\n              swap3\n              pop\n              pop\n              pop\n              pop\n              pop\n              pop\n              pop\n              swap2\n              swap3\n              swap2\n              swap3\n              swap1\n              pop\n              pop\n              pop\n              tag_174\n              jump\t// in\n            tag_166:\n              stop\n                /* \"pasport_sc.sol\":7541:7617  function getEntity()public view returns (bool){... */\n            tag_21:\n              tag_175\n              tag_176\n              jump\t// in\n            tag_175:\n              mload(0x40)\n              dup1\n              dup3\n              iszero\n              iszero\n              dup2\n              mstore\n              0x20\n              add\n              swap2\n              pop\n              pop\n              mload(0x40)\n              dup1\n              swap2\n              sub\n              swap1\n              return\n                /* \"pasport_sc.sol\":3791:3812  string [] public docs */\n            tag_27:\n              0x01\n              dup2\n              dup2\n              sload\n              dup2\n              lt\n              tag_177\n              jumpi\n              0x00\n              dup1\n              revert\n            tag_177:\n              swap1\n              0x00\n              mstore\n              keccak256(0x00, 0x20)\n              add\n              0x00\n              swap2\n              pop\n              swap1\n              pop\n              dup1\n              sload\n              0x01\n              dup2\n              0x01\n              and\n              iszero\n              0x0100\n              mul\n              sub\n              and\n              0x02\n              swap1\n              div\n              dup1\n              0x1f\n              add\n              0x20\n              dup1\n              swap2\n              div\n              mul\n              0x20\n              add\n              mload(0x40)\n              swap1\n              dup2\n              add\n              0x40\n              mstore\n              dup1\n              swap3\n              swap2\n              swap1\n              dup2\n              dup2\n              mstore\n              0x20\n              add\n              dup3\n              dup1\n              sload\n              0x01\n              dup2\n              0x01\n              and\n              iszero\n              0x0100\n              mul\n              sub\n              and\n              0x02\n              swap1\n              div\n              dup1\n              iszero\n              tag_179\n              jumpi\n              dup1\n              0x1f\n              lt\n              tag_180\n              jumpi\n              0x0100\n              dup1\n              dup4\n              sload\n              div\n              mul\n              dup4\n              mstore\n              swap2\n              0x20\n              add\n              swap2\n              jump(tag_179)\n            tag_180:\n              dup3\n              add\n              swap2\n              swap1\n              0x00\n              mstore\n              keccak256(0x00, 0x20)\n              swap1\n            tag_181:\n              dup2\n              sload\n              dup2\n              mstore\n              swap1\n              0x01\n              add\n              swap1\n              0x20\n              add\n              dup1\n              dup4\n              gt\n              tag_181\n              jumpi\n              dup3\n              swap1\n              sub\n              0x1f\n              and\n              dup3\n              add\n              swap2\n            tag_179:\n              pop\n              pop\n              pop\n              pop\n              pop\n              dup2\n              jump\t// out\n                /* \"pasport_sc.sol\":5902:6018  function getDocsHash(uint _index) public view onlyOwner() returns(string memory){... */\n            tag_34:\n                /* \"pasport_sc.sol\":5968:5981  string memory */\n              0x60\n                /* \"pasport_sc.sol\":7693:7698  owner */\n              0x05\n              0x00\n              swap1\n              sload\n              swap1\n              0x0100\n              exp\n              swap1\n              div\n              0xffffffffffffffffffffffffffffffffffffffff\n              and\n                /* \"pasport_sc.sol\":7679:7698  msg.sender == owner */\n              0xffffffffffffffffffffffffffffffffffffffff\n              and\n                /* \"pasport_sc.sol\":7679:7689  msg.sender */\n              caller\n                /* \"pasport_sc.sol\":7679:7698  msg.sender == owner */\n              0xffffffffffffffffffffffffffffffffffffffff\n              and\n              eq\n                /* \"pasport_sc.sol\":7671:7771  require(msg.sender == owner, \"L'adresa que ha realitzat la crida no te els permissos de propietat.\") */\n              tag_183\n              jumpi\n              mload(0x40)\n              0x08c379a000000000000000000000000000000000000000000000000000000000\n              dup2\n              mstore\n              0x04\n              add\n              dup1\n              dup1\n              0x20\n              add\n              dup3\n              dup2\n              sub\n              dup3\n              mstore\n              0x44\n              dup2\n              mstore\n              0x20\n              add\n              dup1\n              data_8fd21b189046372f20933c3de1d276841fd6d95a5c0874d12875e1f8e9d2ec1b\n              0x44\n              swap2\n              codecopy\n              0x60\n              add\n              swap2\n              pop\n              pop\n              mload(0x40)\n              dup1\n              swap2\n              sub\n              swap1\n              revert\n            tag_183:\n                /* \"pasport_sc.sol\":5999:6003  docs */\n              0x01\n                /* \"pasport_sc.sol\":6004:6010  _index */\n              dup3\n                /* \"pasport_sc.sol\":5999:6011  docs[_index] */\n              dup2\n              sload\n              dup2\n              lt\n              tag_185\n              jumpi\n              invalid\n            tag_185:\n              swap1\n              0x00\n              mstore\n              keccak256(0x00, 0x20)\n              add\n                /* \"pasport_sc.sol\":5992:6011  return docs[_index] */\n              dup1\n              sload\n              0x01\n              dup2\n              0x01\n              and\n              iszero\n              0x0100\n              mul\n              sub\n              and\n              0x02\n              swap1\n              div\n              dup1\n              0x1f\n              add\n              0x20\n              dup1\n              swap2\n              div\n              mul\n              0x20\n              add\n              mload(0x40)\n              swap1\n              dup2\n              add\n              0x40\n              mstore\n              dup1\n              swap3\n              swap2\n              swap1\n              dup2\n              dup2\n              mstore\n              0x20\n              add\n              dup3\n              dup1\n              sload\n              0x01\n              dup2\n              0x01\n              and\n              iszero\n              0x0100\n              mul\n              sub\n              and\n              0x02\n              swap1\n              div\n              dup1\n              iszero\n              tag_187\n              jumpi\n              dup1\n              0x1f\n              lt\n              tag_188\n              jumpi\n              0x0100\n              dup1\n              dup4\n              sload\n              div\n              mul\n              dup4\n              mstore\n              swap2\n              0x20\n              add\n              swap2\n              jump(tag_187)\n            tag_188:\n              dup3\n              add\n              swap2\n              swap1\n              0x00\n              mstore\n              keccak256(0x00, 0x20)\n              swap1\n            tag_189:\n              dup2\n              sload\n              dup2\n              mstore\n              swap1\n              0x01\n              add\n              swap1\n              0x20\n              add\n              dup1\n              dup4\n              gt\n              tag_189\n              jumpi\n              dup3\n              swap1\n              sub\n              0x1f\n              and\n              dup3\n              add\n              swap2\n            tag_187:\n              pop\n              pop\n              pop\n              pop\n              pop\n              swap1\n              pop\n                /* \"pasport_sc.sol\":5902:6018  function getDocsHash(uint _index) public view onlyOwner() returns(string memory){... */\n              swap2\n              swap1\n              pop\n              jump\t// out\n                /* \"pasport_sc.sol\":7119:7218  function getContractAddress()public view onlyOwner() returns(address){... */\n            tag_40:\n                /* \"pasport_sc.sol\":7180:7187  address */\n              0x00\n                /* \"pasport_sc.sol\":7693:7698  owner */\n              0x05\n              0x00\n              swap1\n              sload\n              swap1\n              0x0100\n              exp\n              swap1\n              div\n              0xffffffffffffffffffffffffffffffffffffffff\n              and\n                /* \"pasport_sc.sol\":7679:7698  msg.sender == owner */\n              0xffffffffffffffffffffffffffffffffffffffff\n              and\n                /* \"pasport_sc.sol\":7679:7689  msg.sender */\n              caller\n                /* \"pasport_sc.sol\":7679:7698  msg.sender == owner */\n              0xffffffffffffffffffffffffffffffffffffffff\n              and\n              eq\n                /* \"pasport_sc.sol\":7671:7771  require(msg.sender == owner, \"L'adresa que ha realitzat la crida no te els permissos de propietat.\") */\n              tag_191\n              jumpi\n              mload(0x40)\n              0x08c379a000000000000000000000000000000000000000000000000000000000\n              dup2\n              mstore\n              0x04\n              add\n              dup1\n              dup1\n              0x20\n              add\n              dup3\n              dup2\n              sub\n              dup3\n              mstore\n              0x44\n              dup2\n              mstore\n              0x20\n              add\n              dup1\n              data_8fd21b189046372f20933c3de1d276841fd6d95a5c0874d12875e1f8e9d2ec1b\n              0x44\n              swap2\n              codecopy\n              0x60\n              add\n              swap2\n              pop\n              pop\n              mload(0x40)\n              dup1\n              swap2\n              sub\n              swap1\n              revert\n            tag_191:\n                /* \"pasport_sc.sol\":7205:7211  sc_adr */\n              0x04\n              0x00\n              swap1\n              sload\n              swap1\n              0x0100\n              exp\n              swap1\n              div\n              0xffffffffffffffffffffffffffffffffffffffff\n              and\n                /* \"pasport_sc.sol\":7198:7211  return sc_adr */\n              swap1\n              pop\n                /* \"pasport_sc.sol\":7119:7218  function getContractAddress()public view onlyOwner() returns(address){... */\n              swap1\n              jump\t// out\n                /* \"pasport_sc.sol\":6157:6276  function getExtDocs(uint _index) public view onlyOwner() returns(string memory) {... */\n            tag_43:\n                /* \"pasport_sc.sol\":6222:6235  string memory */\n              0x60\n                /* \"pasport_sc.sol\":7693:7698  owner */\n              0x05\n              0x00\n              swap1\n              sload\n              swap1\n              0x0100\n              exp\n              swap1\n              div\n              0xffffffffffffffffffffffffffffffffffffffff\n              and\n                /* \"pasport_sc.sol\":7679:7698  msg.sender == owner */\n              0xffffffffffffffffffffffffffffffffffffffff\n              and\n                /* \"pasport_sc.sol\":7679:7689  msg.sender */\n              caller\n                /* \"pasport_sc.sol\":7679:7698  msg.sender == owner */\n              0xffffffffffffffffffffffffffffffffffffffff\n              and\n              eq\n                /* \"pasport_sc.sol\":7671:7771  require(msg.sender == owner, \"L'adresa que ha realitzat la crida no te els permissos de propietat.\") */\n              tag_194\n              jumpi\n              mload(0x40)\n              0x08c379a000000000000000000000000000000000000000000000000000000000\n              dup2\n              mstore\n              0x04\n              add\n              dup1\n              dup1\n              0x20\n              add\n              dup3\n              dup2\n              sub\n              dup3\n              mstore\n              0x44\n              dup2\n              mstore\n              0x20\n              add\n              dup1\n              data_8fd21b189046372f20933c3de1d276841fd6d95a5c0874d12875e1f8e9d2ec1b\n              0x44\n              swap2\n              codecopy\n              0x60\n              add\n              swap2\n              pop\n              pop\n              mload(0x40)\n              dup1\n              swap2\n              sub\n              swap1\n              revert\n            tag_194:\n                /* \"pasport_sc.sol\":6254:6261  extDocs */\n              0x03\n                /* \"pasport_sc.sol\":6262:6268  _index */\n              dup3\n                /* \"pasport_sc.sol\":6254:6269  extDocs[_index] */\n              dup2\n              sload\n              dup2\n              lt\n              tag_196\n              jumpi\n              invalid\n            tag_196:\n              swap1\n              0x00\n              mstore\n              keccak256(0x00, 0x20)\n              add\n                /* \"pasport_sc.sol\":6247:6269  return extDocs[_index] */\n              dup1\n              sload\n              0x01\n              dup2\n              0x01\n              and\n              iszero\n              0x0100\n              mul\n              sub\n              and\n              0x02\n              swap1\n              div\n              dup1\n              0x1f\n              add\n              0x20\n              dup1\n              swap2\n              div\n              mul\n              0x20\n              add\n              mload(0x40)\n              swap1\n              dup2\n              add\n              0x40\n              mstore\n              dup1\n              swap3\n              swap2\n              swap1\n              dup2\n              dup2\n              mstore\n              0x20\n              add\n              dup3\n              dup1\n              sload\n              0x01\n              dup2\n              0x01\n              and\n              iszero\n              0x0100\n              mul\n              sub\n              and\n              0x02\n              swap1\n              div\n              dup1\n              iszero\n              tag_198\n              jumpi\n              dup1\n              0x1f\n              lt\n              tag_199\n              jumpi\n              0x0100\n              dup1\n              dup4\n              sload\n              div\n              mul\n              dup4\n              mstore\n              swap2\n              0x20\n              add\n              swap2\n              jump(tag_198)\n            tag_199:\n              dup3\n              add\n              swap2\n              swap1\n              0x00\n              mstore\n              keccak256(0x00, 0x20)\n              swap1\n            tag_200:\n              dup2\n              sload\n              dup2\n              mstore\n              swap1\n              0x01\n              add\n              swap1\n              0x20\n              add\n              dup1\n              dup4\n              gt\n              tag_200\n              jumpi\n              dup3\n              swap1\n              sub\n              0x1f\n              and\n              dup3\n              add\n              swap2\n            tag_198:\n              pop\n              pop\n              pop\n              pop\n              pop\n              swap1\n              pop\n                /* \"pasport_sc.sol\":6157:6276  function getExtDocs(uint _index) public view onlyOwner() returns(string memory) {... */\n              swap2\n              swap1\n              pop\n              jump\t// out\n                /* \"pasport_sc.sol\":3848:3872  string [] public extDocs */\n            tag_50:\n              0x03\n              dup2\n              dup2\n              sload\n              dup2\n              lt\n              tag_201\n              jumpi\n              0x00\n              dup1\n              revert\n            tag_201:\n              swap1\n              0x00\n              mstore\n              keccak256(0x00, 0x20)\n              add\n              0x00\n              swap2\n              pop\n              swap1\n              pop\n              dup1\n              sload\n              0x01\n              dup2\n              0x01\n              and\n              iszero\n              0x0100\n              mul\n              sub\n              and\n              0x02\n              swap1\n              div\n              dup1\n              0x1f\n              add\n              0x20\n              dup1\n              swap2\n              div\n              mul\n              0x20\n              add\n              mload(0x40)\n              swap1\n              dup2\n              add\n              0x40\n              mstore\n              dup1\n              swap3\n              swap2\n              swap1\n              dup2\n              dup2\n              mstore\n              0x20\n              add\n              dup3\n              dup1\n              sload\n              0x01\n              dup2\n              0x01\n              and\n              iszero\n              0x0100\n              mul\n              sub\n              and\n              0x02\n              swap1\n              div\n              dup1\n              iszero\n              tag_203\n              jumpi\n              dup1\n              0x1f\n              lt\n              tag_204\n              jumpi\n              0x0100\n              dup1\n              dup4\n              sload\n              div\n              mul\n              dup4\n              mstore\n              swap2\n              0x20\n              add\n              swap2\n              jump(tag_203)\n            tag_204:\n              dup3\n              add\n              swap2\n              swap1\n              0x00\n              mstore\n              keccak256(0x00, 0x20)\n              swap1\n            tag_205:\n              dup2\n              sload\n              dup2\n              mstore\n              swap1\n              0x01\n              add\n              swap1\n              0x20\n              add\n              dup1\n              dup4\n              gt\n              tag_205\n              jumpi\n              dup3\n              swap1\n              sub\n              0x1f\n              and\n              dup3\n              add\n              swap2\n            tag_203:\n              pop\n              pop\n              pop\n              pop\n              pop\n              dup2\n              jump\t// out\n                /* \"pasport_sc.sol\":4792:4890  function getPubKey() view public returns(string memory publicKey){... */\n            tag_56:\n                /* \"pasport_sc.sol\":4833:4856  string memory publicKey */\n              0x60\n                /* \"pasport_sc.sol\":4875:4881  pubKey */\n              0x00\n                /* \"pasport_sc.sol\":4867:4882  return (pubKey) */\n              dup1\n              sload\n              0x01\n              dup2\n              0x01\n              and\n              iszero\n              0x0100\n              mul\n              sub\n              and\n              0x02\n              swap1\n              div\n              dup1\n              0x1f\n              add\n              0x20\n              dup1\n              swap2\n              div\n              mul\n              0x20\n              add\n              mload(0x40)\n              swap1\n              dup2\n              add\n              0x40\n              mstore\n              dup1\n              swap3\n              swap2\n              swap1\n              dup2\n              dup2\n              mstore\n              0x20\n              add\n              dup3\n              dup1\n              sload\n              0x01\n              dup2\n              0x01\n              and\n              iszero\n              0x0100\n              mul\n              sub\n              and\n              0x02\n              swap1\n              div\n              dup1\n              iszero\n              tag_207\n              jumpi\n              dup1\n              0x1f\n              lt\n              tag_208\n              jumpi\n              0x0100\n              dup1\n              dup4\n              sload\n              div\n              mul\n              dup4\n              mstore\n              swap2\n              0x20\n              add\n              swap2\n              jump(tag_207)\n            tag_208:\n              dup3\n              add\n              swap2\n              swap1\n              0x00\n              mstore\n              keccak256(0x00, 0x20)\n              swap1\n            tag_209:\n              dup2\n              sload\n              dup2\n              mstore\n              swap1\n              0x01\n              add\n              swap1\n              0x20\n              add\n              dup1\n              dup4\n              gt\n              tag_209\n              jumpi\n              dup3\n              swap1\n              sub\n              0x1f\n              and\n              dup3\n              add\n              swap2\n            tag_207:\n              pop\n              pop\n              pop\n              pop\n              pop\n              swap1\n              pop\n                /* \"pasport_sc.sol\":4792:4890  function getPubKey() view public returns(string memory publicKey){... */\n              swap1\n              jump\t// out\n                /* \"pasport_sc.sol\":4896:4989  function newPubKey(string memory _pubKey) public onlyOwner(){... */\n            tag_66:\n                /* \"pasport_sc.sol\":7693:7698  owner */\n              0x05\n              0x00\n              swap1\n              sload\n              swap1\n              0x0100\n              exp\n              swap1\n              div\n              0xffffffffffffffffffffffffffffffffffffffff\n              and\n                /* \"pasport_sc.sol\":7679:7698  msg.sender == owner */\n              0xffffffffffffffffffffffffffffffffffffffff\n              and\n                /* \"pasport_sc.sol\":7679:7689  msg.sender */\n              caller\n                /* \"pasport_sc.sol\":7679:7698  msg.sender == owner */\n              0xffffffffffffffffffffffffffffffffffffffff\n              and\n              eq\n                /* \"pasport_sc.sol\":7671:7771  require(msg.sender == owner, \"L'adresa que ha realitzat la crida no te els permissos de propietat.\") */\n              tag_211\n              jumpi\n              mload(0x40)\n              0x08c379a000000000000000000000000000000000000000000000000000000000\n              dup2\n              mstore\n              0x04\n              add\n              dup1\n              dup1\n              0x20\n              add\n              dup3\n              dup2\n              sub\n              dup3\n              mstore\n              0x44\n              dup2\n              mstore\n              0x20\n              add\n              dup1\n              data_8fd21b189046372f20933c3de1d276841fd6d95a5c0874d12875e1f8e9d2ec1b\n              0x44\n              swap2\n              codecopy\n              0x60\n              add\n              swap2\n              pop\n              pop\n              mload(0x40)\n              dup1\n              swap2\n              sub\n              swap1\n              revert\n            tag_211:\n                /* \"pasport_sc.sol\":4975:4982  _pubKey */\n              dup1\n                /* \"pasport_sc.sol\":4966:4972  pubKey */\n              0x00\n                /* \"pasport_sc.sol\":4966:4982  pubKey = _pubKey */\n              swap1\n              dup1\n              mload\n              swap1\n              0x20\n              add\n              swap1\n              tag_213\n              swap3\n              swap2\n              swap1\n              tag_214\n              jump\t// in\n            tag_213:\n              pop\n                /* \"pasport_sc.sol\":4896:4989  function newPubKey(string memory _pubKey) public onlyOwner(){... */\n              pop\n              jump\t// out\n                /* \"pasport_sc.sol\":5402:5896  function newExtDoc(string memory _hash, string memory _pubKeyUser, string memory _capsule, string memory _kfrag0, string memory _alicesVerifyingKey ) public{... */\n            tag_84:\n                /* \"pasport_sc.sol\":5687:5694  extDocs */\n              0x03\n                /* \"pasport_sc.sol\":5700:5705  _hash */\n              dup6\n                /* \"pasport_sc.sol\":5687:5706  extDocs.push(_hash) */\n              swap1\n              dup1\n              0x01\n              dup2\n              sload\n              add\n              dup1\n              dup3\n              sstore\n              dup1\n              swap2\n              pop\n              pop\n              0x01\n              swap1\n              sub\n              swap1\n              0x00\n              mstore\n              keccak256(0x00, 0x20)\n              add\n              0x00\n              swap1\n              swap2\n              swap1\n              swap2\n              swap1\n              swap2\n              pop\n              swap1\n              dup1\n              mload\n              swap1\n              0x20\n              add\n              swap1\n              tag_217\n              swap3\n              swap2\n              swap1\n              tag_214\n              jump\t// in\n            tag_217:\n              pop\n                /* \"pasport_sc.sol\":5741:5752  _pubKeyUser */\n              dup4\n                /* \"pasport_sc.sol\":5716:5721  kfrag */\n              0x07\n                /* \"pasport_sc.sol\":5722:5727  _hash */\n              dup7\n                /* \"pasport_sc.sol\":5716:5728  kfrag[_hash] */\n              mload(0x40)\n              dup1\n              dup3\n              dup1\n              mload\n              swap1\n              0x20\n              add\n              swap1\n              dup1\n              dup4\n              dup4\n            tag_218:\n              0x20\n              dup4\n              lt\n              tag_220\n              jumpi\n              dup1\n              mload\n              dup3\n              mstore\n              0x20\n              dup3\n              add\n              swap2\n              pop\n              0x20\n              dup2\n              add\n              swap1\n              pop\n              0x20\n              dup4\n              sub\n              swap3\n              pop\n              jump(tag_218)\n            tag_220:\n              0x01\n              dup4\n              0x20\n              sub\n              0x0100\n              exp\n              sub\n              dup1\n              not\n              dup3\n              mload\n              and\n              dup2\n              dup5\n              mload\n              and\n              dup1\n              dup3\n              or\n              dup6\n              mstore\n              pop\n              pop\n              pop\n              pop\n              pop\n              pop\n              swap1\n              pop\n              add\n              swap2\n              pop\n              pop\n              swap1\n              dup2\n              mstore\n              0x20\n              add\n              mload(0x40)\n              dup1\n              swap2\n              sub\n              swap1\n              keccak256\n                /* \"pasport_sc.sol\":5716:5738  kfrag[_hash].extPubKey */\n              0x01\n              add\n                /* \"pasport_sc.sol\":5716:5752  kfrag[_hash].extPubKey = _pubKeyUser */\n              swap1\n              dup1\n              mload\n              swap1\n              0x20\n              add\n              swap1\n              tag_221\n              swap3\n              swap2\n              swap1\n              tag_214\n              jump\t// in\n            tag_221:\n              pop\n                /* \"pasport_sc.sol\":5785:5793  _capsule */\n              dup3\n                /* \"pasport_sc.sol\":5762:5767  kfrag */\n              0x07\n                /* \"pasport_sc.sol\":5768:5773  _hash */\n              dup7\n                /* \"pasport_sc.sol\":5762:5774  kfrag[_hash] */\n              mload(0x40)\n              dup1\n              dup3\n              dup1\n              mload\n              swap1\n              0x20\n              add\n              swap1\n              dup1\n              dup4\n              dup4\n            tag_222:\n              0x20\n              dup4\n              lt\n              tag_224\n              jumpi\n              dup1\n              mload\n              dup3\n              mstore\n              0x20\n              dup3\n              add\n              swap2\n              pop\n              0x20\n              dup2\n              add\n              swap1\n              pop\n              0x20\n              dup4\n              sub\n              swap3\n              pop\n              jump(tag_222)\n            tag_224:\n              0x01\n              dup4\n              0x20\n              sub\n              0x0100\n              exp\n              sub\n              dup1\n              not\n              dup3\n              mload\n              and\n              dup2\n              dup5\n              mload\n              and\n              dup1\n              dup3\n              or\n              dup6\n              mstore\n              pop\n              pop\n              pop\n              pop\n              pop\n              pop\n              swap1\n              pop\n              add\n              swap2\n              pop\n              pop\n              swap1\n              dup2\n              mstore\n              0x20\n              add\n              mload(0x40)\n              dup1\n              swap2\n              sub\n              swap1\n              keccak256\n                /* \"pasport_sc.sol\":5762:5782  kfrag[_hash].capsule */\n              0x02\n              add\n                /* \"pasport_sc.sol\":5762:5793  kfrag[_hash].capsule = _capsule */\n              swap1\n              dup1\n              mload\n              swap1\n              0x20\n              add\n              swap1\n              tag_225\n              swap3\n              swap2\n              swap1\n              tag_214\n              jump\t// in\n            tag_225:\n              pop\n                /* \"pasport_sc.sol\":5825:5832  _kfrag0 */\n              dup2\n                /* \"pasport_sc.sol\":5803:5808  kfrag */\n              0x07\n                /* \"pasport_sc.sol\":5809:5814  _hash */\n              dup7\n                /* \"pasport_sc.sol\":5803:5815  kfrag[_hash] */\n              mload(0x40)\n              dup1\n              dup3\n              dup1\n              mload\n              swap1\n              0x20\n              add\n              swap1\n              dup1\n              dup4\n              dup4\n            tag_226:\n              0x20\n              dup4\n              lt\n              tag_228\n              jumpi\n              dup1\n              mload\n              dup3\n              mstore\n              0x20\n              dup3\n              add\n              swap2\n              pop\n              0x20\n              dup2\n              add\n              swap1\n              pop\n              0x20\n              dup4\n              sub\n              swap3\n              pop\n              jump(tag_226)\n            tag_228:\n              0x01\n              dup4\n              0x20\n              sub\n              0x0100\n              exp\n              sub\n              dup1\n              not\n              dup3\n              mload\n              and\n              dup2\n              dup5\n              mload\n              and\n              dup1\n              dup3\n              or\n              dup6\n              mstore\n              pop\n              pop\n              pop\n              pop\n              pop\n              pop\n              swap1\n              pop\n              add\n              swap2\n              pop\n              pop\n              swap1\n              dup2\n              mstore\n              0x20\n              add\n              mload(0x40)\n              dup1\n              swap2\n              sub\n              swap1\n              keccak256\n                /* \"pasport_sc.sol\":5803:5822  kfrag[_hash].kfrag0 */\n              0x03\n              add\n                /* \"pasport_sc.sol\":5803:5832  kfrag[_hash].kfrag0 = _kfrag0 */\n              swap1\n              dup1\n              mload\n              swap1\n              0x20\n              add\n              swap1\n              tag_229\n              swap3\n              swap2\n              swap1\n              tag_214\n              jump\t// in\n            tag_229:\n              pop\n                /* \"pasport_sc.sol\":5870:5889  _alicesVerifyingKey */\n              dup1\n                /* \"pasport_sc.sol\":5842:5847  kfrag */\n              0x07\n                /* \"pasport_sc.sol\":5848:5853  _hash */\n              dup7\n                /* \"pasport_sc.sol\":5842:5854  kfrag[_hash] */\n              mload(0x40)\n              dup1\n              dup3\n              dup1\n              mload\n              swap1\n              0x20\n              add\n              swap1\n              dup1\n              dup4\n              dup4\n            tag_230:\n              0x20\n              dup4\n              lt\n              tag_232\n              jumpi\n              dup1\n              mload\n              dup3\n              mstore\n              0x20\n              dup3\n              add\n              swap2\n              pop\n              0x20\n              dup2\n              add\n              swap1\n              pop\n              0x20\n              dup4\n              sub\n              swap3\n              pop\n              jump(tag_230)\n            tag_232:\n              0x01\n              dup4\n              0x20\n              sub\n              0x0100\n              exp\n              sub\n              dup1\n              not\n              dup3\n              mload\n              and\n              dup2\n              dup5\n              mload\n              and\n              dup1\n              dup3\n              or\n              dup6\n              mstore\n              pop\n              pop\n              pop\n              pop\n              pop\n              pop\n              swap1\n              pop\n              add\n              swap2\n              pop\n              pop\n              swap1\n              dup2\n              mstore\n              0x20\n              add\n              mload(0x40)\n              dup1\n              swap2\n              sub\n              swap1\n              keccak256\n                /* \"pasport_sc.sol\":5842:5867  kfrag[_hash].verifyingKey */\n              0x04\n              add\n                /* \"pasport_sc.sol\":5842:5889  kfrag[_hash].verifyingKey = _alicesVerifyingKey */\n              swap1\n              dup1\n              mload\n              swap1\n              0x20\n              add\n              swap1\n              tag_233\n              swap3\n              swap2\n              swap1\n              tag_214\n              jump\t// in\n            tag_233:\n              pop\n                /* \"pasport_sc.sol\":5402:5896  function newExtDoc(string memory _hash, string memory _pubKeyUser, string memory _capsule, string memory _kfrag0, string memory _alicesVerifyingKey ) public{... */\n              pop\n              pop\n              pop\n              pop\n              pop\n              jump\t// out\n                /* \"pasport_sc.sol\":6024:6147  function getDocsCapsule(uint _index) public view onlyOwner() returns (string memory){... */\n            tag_87:\n                /* \"pasport_sc.sol\":6094:6107  string memory */\n              0x60\n                /* \"pasport_sc.sol\":7693:7698  owner */\n              0x05\n              0x00\n              swap1\n              sload\n              swap1\n              0x0100\n              exp\n              swap1\n              div\n              0xffffffffffffffffffffffffffffffffffffffff\n              and\n                /* \"pasport_sc.sol\":7679:7698  msg.sender == owner */\n              0xffffffffffffffffffffffffffffffffffffffff\n              and\n                /* \"pasport_sc.sol\":7679:7689  msg.sender */\n              caller\n                /* \"pasport_sc.sol\":7679:7698  msg.sender == owner */\n              0xffffffffffffffffffffffffffffffffffffffff\n              and\n              eq\n                /* \"pasport_sc.sol\":7671:7771  require(msg.sender == owner, \"L'adresa que ha realitzat la crida no te els permissos de propietat.\") */\n              tag_235\n              jumpi\n              mload(0x40)\n              0x08c379a000000000000000000000000000000000000000000000000000000000\n              dup2\n              mstore\n              0x04\n              add\n              dup1\n              dup1\n              0x20\n              add\n              dup3\n              dup2\n              sub\n              dup3\n              mstore\n              0x44\n              dup2\n              mstore\n              0x20\n              add\n              dup1\n              data_8fd21b189046372f20933c3de1d276841fd6d95a5c0874d12875e1f8e9d2ec1b\n              0x44\n              swap2\n              codecopy\n              0x60\n              add\n              swap2\n              pop\n              pop\n              mload(0x40)\n              dup1\n              swap2\n              sub\n              swap1\n              revert\n            tag_235:\n                /* \"pasport_sc.sol\":6125:6132  capsule */\n              0x02\n                /* \"pasport_sc.sol\":6133:6139  _index */\n              dup3\n                /* \"pasport_sc.sol\":6125:6140  capsule[_index] */\n              dup2\n              sload\n              dup2\n              lt\n              tag_237\n              jumpi\n              invalid\n            tag_237:\n              swap1\n              0x00\n              mstore\n              keccak256(0x00, 0x20)\n              add\n                /* \"pasport_sc.sol\":6118:6140  return capsule[_index] */\n              dup1\n              sload\n              0x01\n              dup2\n              0x01\n              and\n              iszero\n              0x0100\n              mul\n              sub\n              and\n              0x02\n              swap1\n              div\n              dup1\n              0x1f\n              add\n              0x20\n              dup1\n              swap2\n              div\n              mul\n              0x20\n              add\n              mload(0x40)\n              swap1\n              dup2\n              add\n              0x40\n              mstore\n              dup1\n              swap3\n              swap2\n              swap1\n              dup2\n              dup2\n              mstore\n              0x20\n              add\n              dup3\n              dup1\n              sload\n              0x01\n              dup2\n              0x01\n              and\n              iszero\n              0x0100\n              mul\n              sub\n              and\n              0x02\n              swap1\n              div\n              dup1\n              iszero\n              tag_239\n              jumpi\n              dup1\n              0x1f\n              lt\n              tag_240\n              jumpi\n              0x0100\n              dup1\n              dup4\n              sload\n              div\n              mul\n              dup4\n              mstore\n              swap2\n              0x20\n              add\n              swap2\n              jump(tag_239)\n            tag_240:\n              dup3\n              add\n              swap2\n              swap1\n              0x00\n              mstore\n              keccak256(0x00, 0x20)\n              swap1\n            tag_241:\n              dup2\n              sload\n              dup2\n              mstore\n              swap1\n              0x01\n              add\n              swap1\n              0x20\n              add\n              dup1\n              dup4\n              gt\n              tag_241\n              jumpi\n              dup3\n              swap1\n              sub\n              0x1f\n              and\n              dup3\n              add\n              swap2\n            tag_239:\n              pop\n              pop\n              pop\n              pop\n              pop\n              swap1\n              pop\n                /* \"pasport_sc.sol\":6024:6147  function getDocsCapsule(uint _index) public view onlyOwner() returns (string memory){... */\n              swap2\n              swap1\n              pop\n              jump\t// out\n                /* \"pasport_sc.sol\":5263:5392  function getIndexDoc(string memory _hash) public view onlyOwner() returns (uint256 index){... */\n            tag_97:\n                /* \"pasport_sc.sol\":5338:5351  uint256 index */\n              0x00\n                /* \"pasport_sc.sol\":7693:7698  owner */\n              0x05\n              0x00\n              swap1\n              sload\n              swap1\n              0x0100\n              exp\n              swap1\n              div\n              0xffffffffffffffffffffffffffffffffffffffff\n              and\n                /* \"pasport_sc.sol\":7679:7698  msg.sender == owner */\n              0xffffffffffffffffffffffffffffffffffffffff\n              and\n                /* \"pasport_sc.sol\":7679:7689  msg.sender */\n              caller\n                /* \"pasport_sc.sol\":7679:7698  msg.sender == owner */\n              0xffffffffffffffffffffffffffffffffffffffff\n              and\n              eq\n                /* \"pasport_sc.sol\":7671:7771  require(msg.sender == owner, \"L'adresa que ha realitzat la crida no te els permissos de propietat.\") */\n              tag_243\n              jumpi\n              mload(0x40)\n              0x08c379a000000000000000000000000000000000000000000000000000000000\n              dup2\n              mstore\n              0x04\n              add\n              dup1\n              dup1\n              0x20\n              add\n              dup3\n              dup2\n              sub\n              dup3\n              mstore\n              0x44\n              dup2\n              mstore\n              0x20\n              add\n              dup1\n              data_8fd21b189046372f20933c3de1d276841fd6d95a5c0874d12875e1f8e9d2ec1b\n              0x44\n              swap2\n              codecopy\n              0x60\n              add\n              swap2\n              pop\n              pop\n              mload(0x40)\n              dup1\n              swap2\n              sub\n              swap1\n              revert\n            tag_243:\n                /* \"pasport_sc.sol\":5369:5378  indexDocs */\n              0x06\n                /* \"pasport_sc.sol\":5379:5384  _hash */\n              dup3\n                /* \"pasport_sc.sol\":5369:5385  indexDocs[_hash] */\n              mload(0x40)\n              dup1\n              dup3\n              dup1\n              mload\n              swap1\n              0x20\n              add\n              swap1\n              dup1\n              dup4\n              dup4\n            tag_245:\n              0x20\n              dup4\n              lt\n              tag_247\n              jumpi\n              dup1\n              mload\n              dup3\n              mstore\n              0x20\n              dup3\n              add\n              swap2\n              pop\n              0x20\n              dup2\n              add\n              swap1\n              pop\n              0x20\n              dup4\n              sub\n              swap3\n              pop\n              jump(tag_245)\n            tag_247:\n              0x01\n              dup4\n              0x20\n              sub\n              0x0100\n              exp\n              sub\n              dup1\n              not\n              dup3\n              mload\n              and\n              dup2\n              dup5\n              mload\n              and\n              dup1\n              dup3\n              or\n              dup6\n              mstore\n              pop\n              pop\n              pop\n              pop\n              pop\n              pop\n              swap1\n              pop\n              add\n              swap2\n              pop\n              pop\n              swap1\n              dup2\n              mstore\n              0x20\n              add\n              mload(0x40)\n              dup1\n              swap2\n              sub\n              swap1\n              keccak256\n              sload\n                /* \"pasport_sc.sol\":5362:5385  return indexDocs[_hash] */\n              swap1\n              pop\n                /* \"pasport_sc.sol\":5263:5392  function getIndexDoc(string memory _hash) public view onlyOwner() returns (uint256 index){... */\n              swap2\n              swap1\n              pop\n              jump\t// out\n                /* \"pasport_sc.sol\":4044:4088  mapping (string => uint256) public indexDocs */\n            tag_103:\n              0x06\n              dup2\n              dup1\n              mload\n              0x20\n              dup2\n              add\n              dup3\n              add\n              dup1\n              mload\n              dup5\n              dup3\n              mstore\n              0x20\n              dup4\n              add\n              0x20\n              dup6\n              add\n              keccak256\n              dup2\n              dup4\n              mstore\n              dup1\n              swap6\n              pop\n              pop\n              pop\n              pop\n              pop\n              pop\n              0x00\n              swap2\n              pop\n              swap1\n              pop\n              sload\n              dup2\n              jump\t// out\n                /* \"pasport_sc.sol\":7328:7432  function lengthExtDocArray() public view onlyOwner() returns(uint){... */\n            tag_105:\n                /* \"pasport_sc.sol\":7389:7393  uint */\n              0x00\n                /* \"pasport_sc.sol\":7693:7698  owner */\n              0x05\n              0x00\n              swap1\n              sload\n              swap1\n              0x0100\n              exp\n              swap1\n              div\n              0xffffffffffffffffffffffffffffffffffffffff\n              and\n                /* \"pasport_sc.sol\":7679:7698  msg.sender == owner */\n              0xffffffffffffffffffffffffffffffffffffffff\n              and\n                /* \"pasport_sc.sol\":7679:7689  msg.sender */\n              caller\n                /* \"pasport_sc.sol\":7679:7698  msg.sender == owner */\n              0xffffffffffffffffffffffffffffffffffffffff\n              and\n              eq\n                /* \"pasport_sc.sol\":7671:7771  require(msg.sender == owner, \"L'adresa que ha realitzat la crida no te els permissos de propietat.\") */\n              tag_249\n              jumpi\n              mload(0x40)\n              0x08c379a000000000000000000000000000000000000000000000000000000000\n              dup2\n              mstore\n              0x04\n              add\n              dup1\n              dup1\n              0x20\n              add\n              dup3\n              dup2\n              sub\n              dup3\n              mstore\n              0x44\n              dup2\n              mstore\n              0x20\n              add\n              dup1\n              data_8fd21b189046372f20933c3de1d276841fd6d95a5c0874d12875e1f8e9d2ec1b\n              0x44\n              swap2\n              codecopy\n              0x60\n              add\n              swap2\n              pop\n              pop\n              mload(0x40)\n              dup1\n              swap2\n              sub\n              swap1\n              revert\n            tag_249:\n                /* \"pasport_sc.sol\":7411:7418  extDocs */\n              0x03\n                /* \"pasport_sc.sol\":7411:7425  extDocs.length */\n              dup1\n              sload\n              swap1\n              pop\n                /* \"pasport_sc.sol\":7404:7425  return extDocs.length */\n              swap1\n              pop\n                /* \"pasport_sc.sol\":7328:7432  function lengthExtDocArray() public view onlyOwner() returns(uint){... */\n              swap1\n              jump\t// out\n                /* \"pasport_sc.sol\":7224:7322  function lengthDocArray() public view onlyOwner() returns(uint){... */\n            tag_107:\n                /* \"pasport_sc.sol\":7282:7286  uint */\n              0x00\n                /* \"pasport_sc.sol\":7693:7698  owner */\n              0x05\n              0x00\n              swap1\n              sload\n              swap1\n              0x0100\n              exp\n              swap1\n              div\n              0xffffffffffffffffffffffffffffffffffffffff\n              and\n                /* \"pasport_sc.sol\":7679:7698  msg.sender == owner */\n              0xffffffffffffffffffffffffffffffffffffffff\n              and\n                /* \"pasport_sc.sol\":7679:7689  msg.sender */\n              caller\n                /* \"pasport_sc.sol\":7679:7698  msg.sender == owner */\n              0xffffffffffffffffffffffffffffffffffffffff\n              and\n              eq\n                /* \"pasport_sc.sol\":7671:7771  require(msg.sender == owner, \"L'adresa que ha realitzat la crida no te els permissos de propietat.\") */\n              tag_252\n              jumpi\n              mload(0x40)\n              0x08c379a000000000000000000000000000000000000000000000000000000000\n              dup2\n              mstore\n              0x04\n              add\n              dup1\n              dup1\n              0x20\n              add\n              dup3\n              dup2\n              sub\n              dup3\n              mstore\n              0x44\n              dup2\n              mstore\n              0x20\n              add\n              dup1\n              data_8fd21b189046372f20933c3de1d276841fd6d95a5c0874d12875e1f8e9d2ec1b\n              0x44\n              swap2\n              codecopy\n              0x60\n              add\n              swap2\n              pop\n              pop\n              mload(0x40)\n              dup1\n              swap2\n              sub\n              swap1\n              revert\n            tag_252:\n                /* \"pasport_sc.sol\":7304:7308  docs */\n              0x01\n                /* \"pasport_sc.sol\":7304:7315  docs.length */\n              dup1\n              sload\n              swap1\n              pop\n                /* \"pasport_sc.sol\":7297:7315  return docs.length */\n              swap1\n              pop\n                /* \"pasport_sc.sol\":7224:7322  function lengthDocArray() public view onlyOwner() returns(uint){... */\n              swap1\n              jump\t// out\n                /* \"pasport_sc.sol\":3818:3842  string [] public capsule */\n            tag_110:\n              0x02\n              dup2\n              dup2\n              sload\n              dup2\n              lt\n              tag_254\n              jumpi\n              0x00\n              dup1\n              revert\n            tag_254:\n              swap1\n              0x00\n              mstore\n              keccak256(0x00, 0x20)\n              add\n              0x00\n              swap2\n              pop\n              swap1\n              pop\n              dup1\n              sload\n              0x01\n              dup2\n              0x01\n              and\n              iszero\n              0x0100\n              mul\n              sub\n              and\n              0x02\n              swap1\n              div\n              dup1\n              0x1f\n              add\n              0x20\n              dup1\n              swap2\n              div\n              mul\n              0x20\n              add\n              mload(0x40)\n              swap1\n              dup2\n              add\n              0x40\n              mstore\n              dup1\n              swap3\n              swap2\n              swap1\n              dup2\n              dup2\n              mstore\n              0x20\n              add\n              dup3\n              dup1\n              sload\n              0x01\n              dup2\n              0x01\n              and\n              iszero\n              0x0100\n              mul\n              sub\n              and\n              0x02\n              swap1\n              div\n              dup1\n              iszero\n              tag_256\n              jumpi\n              dup1\n              0x1f\n              lt\n              tag_257\n              jumpi\n              0x0100\n              dup1\n              dup4\n              sload\n              div\n              mul\n              dup4\n              mstore\n              swap2\n              0x20\n              add\n              swap2\n              jump(tag_256)\n            tag_257:\n              dup3\n              add\n              swap2\n              swap1\n              0x00\n              mstore\n              keccak256(0x00, 0x20)\n              swap1\n            tag_258:\n              dup2\n              sload\n              dup2\n              mstore\n              swap1\n              0x01\n              add\n              swap1\n              0x20\n              add\n              dup1\n              dup4\n              gt\n              tag_258\n              jumpi\n              dup3\n              swap1\n              sub\n              0x1f\n              and\n              dup3\n              add\n              swap2\n            tag_256:\n              pop\n              pop\n              pop\n              pop\n              pop\n              dup2\n              jump\t// out\n                /* \"pasport_sc.sol\":6831:7082  function getExtInfo(string memory _hash) public view onlyOwner() returns (string memory, string memory, string memory, string memory){... */\n            tag_120:\n                /* \"pasport_sc.sol\":6905:6918  string memory */\n              0x60\n                /* \"pasport_sc.sol\":6920:6933  string memory */\n              dup1\n                /* \"pasport_sc.sol\":6935:6948  string memory */\n              0x60\n                /* \"pasport_sc.sol\":6950:6963  string memory */\n              dup1\n                /* \"pasport_sc.sol\":7693:7698  owner */\n              0x05\n              0x00\n              swap1\n              sload\n              swap1\n              0x0100\n              exp\n              swap1\n              div\n              0xffffffffffffffffffffffffffffffffffffffff\n              and\n                /* \"pasport_sc.sol\":7679:7698  msg.sender == owner */\n              0xffffffffffffffffffffffffffffffffffffffff\n              and\n                /* \"pasport_sc.sol\":7679:7689  msg.sender */\n              caller\n                /* \"pasport_sc.sol\":7679:7698  msg.sender == owner */\n              0xffffffffffffffffffffffffffffffffffffffff\n              and\n              eq\n                /* \"pasport_sc.sol\":7671:7771  require(msg.sender == owner, \"L'adresa que ha realitzat la crida no te els permissos de propietat.\") */\n              tag_260\n              jumpi\n              mload(0x40)\n              0x08c379a000000000000000000000000000000000000000000000000000000000\n              dup2\n              mstore\n              0x04\n              add\n              dup1\n              dup1\n              0x20\n              add\n              dup3\n              dup2\n              sub\n              dup3\n              mstore\n              0x44\n              dup2\n              mstore\n              0x20\n              add\n              dup1\n              data_8fd21b189046372f20933c3de1d276841fd6d95a5c0874d12875e1f8e9d2ec1b\n              0x44\n              swap2\n              codecopy\n              0x60\n              add\n              swap2\n              pop\n              pop\n              mload(0x40)\n              dup1\n              swap2\n              sub\n              swap1\n              revert\n            tag_260:\n                /* \"pasport_sc.sol\":6982:6987  kfrag */\n              0x07\n                /* \"pasport_sc.sol\":6988:6993  _hash */\n              dup6\n                /* \"pasport_sc.sol\":6982:6994  kfrag[_hash] */\n              mload(0x40)\n              dup1\n              dup3\n              dup1\n              mload\n              swap1\n              0x20\n              add\n              swap1\n              dup1\n              dup4\n              dup4\n            tag_262:\n              0x20\n              dup4\n              lt\n              tag_264\n              jumpi\n              dup1\n              mload\n              dup3\n              mstore\n              0x20\n              dup3\n              add\n              swap2\n              pop\n              0x20\n              dup2\n              add\n              swap1\n              pop\n              0x20\n              dup4\n              sub\n              swap3\n              pop\n              jump(tag_262)\n            tag_264:\n              0x01\n              dup4\n              0x20\n              sub\n              0x0100\n              exp\n              sub\n              dup1\n              not\n              dup3\n              mload\n              and\n              dup2\n              dup5\n              mload\n              and\n              dup1\n              dup3\n              or\n              dup6\n              mstore\n              pop\n              pop\n              pop\n              pop\n              pop\n              pop\n              swap1\n              pop\n              add\n              swap2\n              pop\n              pop\n              swap1\n              dup2\n              mstore\n              0x20\n              add\n              mload(0x40)\n              dup1\n              swap2\n              sub\n              swap1\n              keccak256\n                /* \"pasport_sc.sol\":6982:7004  kfrag[_hash].extPubKey */\n              0x01\n              add\n                /* \"pasport_sc.sol\":7006:7011  kfrag */\n              0x07\n                /* \"pasport_sc.sol\":7012:7017  _hash */\n              dup7\n                /* \"pasport_sc.sol\":7006:7018  kfrag[_hash] */\n              mload(0x40)\n              dup1\n              dup3\n              dup1\n              mload\n              swap1\n              0x20\n              add\n              swap1\n              dup1\n              dup4\n              dup4\n            tag_265:\n              0x20\n              dup4\n              lt\n              tag_267\n              jumpi\n              dup1\n              mload\n              dup3\n              mstore\n              0x20\n              dup3\n              add\n              swap2\n              pop\n              0x20\n              dup2\n              add\n              swap1\n              pop\n              0x20\n              dup4\n              sub\n              swap3\n              pop\n              jump(tag_265)\n            tag_267:\n              0x01\n              dup4\n              0x20\n              sub\n              0x0100\n              exp\n              sub\n              dup1\n              not\n              dup3\n              mload\n              and\n              dup2\n              dup5\n              mload\n              and\n              dup1\n              dup3\n              or\n              dup6\n              mstore\n              pop\n              pop\n              pop\n              pop\n              pop\n              pop\n              swap1\n              pop\n              add\n              swap2\n              pop\n              pop\n              swap1\n              dup2\n              mstore\n              0x20\n              add\n              mload(0x40)\n              dup1\n              swap2\n              sub\n              swap1\n              keccak256\n                /* \"pasport_sc.sol\":7006:7026  kfrag[_hash].capsule */\n              0x02\n              add\n                /* \"pasport_sc.sol\":7028:7033  kfrag */\n              0x07\n                /* \"pasport_sc.sol\":7034:7039  _hash */\n              dup8\n                /* \"pasport_sc.sol\":7028:7040  kfrag[_hash] */\n              mload(0x40)\n              dup1\n              dup3\n              dup1\n              mload\n              swap1\n              0x20\n              add\n              swap1\n              dup1\n              dup4\n              dup4\n            tag_268:\n              0x20\n              dup4\n              lt\n              tag_270\n              jumpi\n              dup1\n              mload\n              dup3\n              mstore\n              0x20\n              dup3\n              add\n              swap2\n              pop\n              0x20\n              dup2\n              add\n              swap1\n              pop\n              0x20\n              dup4\n              sub\n              swap3\n              pop\n              jump(tag_268)\n            tag_270:\n              0x01\n              dup4\n              0x20\n              sub\n              0x0100\n              exp\n              sub\n              dup1\n              not\n              dup3\n              mload\n              and\n              dup2\n              dup5\n              mload\n              and\n              dup1\n              dup3\n              or\n              dup6\n              mstore\n              pop\n              pop\n              pop\n              pop\n              pop\n              pop\n              swap1\n              pop\n              add\n              swap2\n              pop\n              pop\n              swap1\n              dup2\n              mstore\n              0x20\n              add\n              mload(0x40)\n              dup1\n              swap2\n              sub\n              swap1\n              keccak256\n                /* \"pasport_sc.sol\":7028:7047  kfrag[_hash].kfrag0 */\n              0x03\n              add\n                /* \"pasport_sc.sol\":7049:7054  kfrag */\n              0x07\n                /* \"pasport_sc.sol\":7055:7060  _hash */\n              dup9\n                /* \"pasport_sc.sol\":7049:7061  kfrag[_hash] */\n              mload(0x40)\n              dup1\n              dup3\n              dup1\n              mload\n              swap1\n              0x20\n              add\n              swap1\n              dup1\n              dup4\n              dup4\n            tag_271:\n              0x20\n              dup4\n              lt\n              tag_273\n              jumpi\n              dup1\n              mload\n              dup3\n              mstore\n              0x20\n              dup3\n              add\n              swap2\n              pop\n              0x20\n              dup2\n              add\n              swap1\n              pop\n              0x20\n              dup4\n              sub\n              swap3\n              pop\n              jump(tag_271)\n            tag_273:\n              0x01\n              dup4\n              0x20\n              sub\n              0x0100\n              exp\n              sub\n              dup1\n              not\n              dup3\n              mload\n              and\n              dup2\n              dup5\n              mload\n              and\n              dup1\n              dup3\n              or\n              dup6\n              mstore\n              pop\n              pop\n              pop\n              pop\n              pop\n              pop\n              swap1\n              pop\n              add\n              swap2\n              pop\n              pop\n              swap1\n              dup2\n              mstore\n              0x20\n              add\n              mload(0x40)\n              dup1\n              swap2\n              sub\n              swap1\n              keccak256\n                /* \"pasport_sc.sol\":7049:7074  kfrag[_hash].verifyingKey */\n              0x04\n              add\n                /* \"pasport_sc.sol\":6974:7075  return (kfrag[_hash].extPubKey, kfrag[_hash].capsule, kfrag[_hash].kfrag0, kfrag[_hash].verifyingKey) */\n              dup4\n              dup1\n              sload\n              0x01\n              dup2\n              0x01\n              and\n              iszero\n              0x0100\n              mul\n              sub\n              and\n              0x02\n              swap1\n              div\n              dup1\n              0x1f\n              add\n              0x20\n              dup1\n              swap2\n              div\n              mul\n              0x20\n              add\n              mload(0x40)\n              swap1\n              dup2\n              add\n              0x40\n              mstore\n              dup1\n              swap3\n              swap2\n              swap1\n              dup2\n              dup2\n              mstore\n              0x20\n              add\n              dup3\n              dup1\n              sload\n              0x01\n              dup2\n              0x01\n              and\n              iszero\n              0x0100\n              mul\n              sub\n              and\n              0x02\n              swap1\n              div\n              dup1\n              iszero\n              tag_274\n              jumpi\n              dup1\n              0x1f\n              lt\n              tag_275\n              jumpi\n              0x0100\n              dup1\n              dup4\n              sload\n              div\n              mul\n              dup4\n              mstore\n              swap2\n              0x20\n              add\n              swap2\n              jump(tag_274)\n            tag_275:\n              dup3\n              add\n              swap2\n              swap1\n              0x00\n              mstore\n              keccak256(0x00, 0x20)\n              swap1\n            tag_276:\n              dup2\n              sload\n              dup2\n              mstore\n              swap1\n              0x01\n              add\n              swap1\n              0x20\n              add\n              dup1\n              dup4\n              gt\n              tag_276\n              jumpi\n              dup3\n              swap1\n              sub\n              0x1f\n              and\n              dup3\n              add\n              swap2\n            tag_274:\n              pop\n              pop\n              pop\n              pop\n              pop\n              swap4\n              pop\n              dup3\n              dup1\n              sload\n              0x01\n              dup2\n              0x01\n              and\n              iszero\n              0x0100\n              mul\n              sub\n              and\n              0x02\n              swap1\n              div\n              dup1\n              0x1f\n              add\n              0x20\n              dup1\n              swap2\n              div\n              mul\n              0x20\n              add\n              mload(0x40)\n              swap1\n              dup2\n              add\n              0x40\n              mstore\n              dup1\n              swap3\n              swap2\n              swap1\n              dup2\n              dup2\n              mstore\n              0x20\n              add\n              dup3\n              dup1\n              sload\n              0x01\n              dup2\n              0x01\n              and\n              iszero\n              0x0100\n              mul\n              sub\n              and\n              0x02\n              swap1\n              div\n              dup1\n              iszero\n              tag_277\n              jumpi\n              dup1\n              0x1f\n              lt\n              tag_278\n              jumpi\n              0x0100\n              dup1\n              dup4\n              sload\n              div\n              mul\n              dup4\n              mstore\n              swap2\n              0x20\n              add\n              swap2\n              jump(tag_277)\n            tag_278:\n              dup3\n              add\n              swap2\n              swap1\n              0x00\n              mstore\n              keccak256(0x00, 0x20)\n              swap1\n            tag_279:\n              dup2\n              sload\n              dup2\n              mstore\n              swap1\n              0x01\n              add\n              swap1\n              0x20\n              add\n              dup1\n              dup4\n              gt\n              tag_279\n              jumpi\n              dup3\n              swap1\n              sub\n              0x1f\n              and\n              dup3\n              add\n              swap2\n            tag_277:\n              pop\n              pop\n              pop\n              pop\n              pop\n              swap3\n              pop\n              dup2\n              dup1\n              sload\n              0x01\n              dup2\n              0x01\n              and\n              iszero\n              0x0100\n              mul\n              sub\n              and\n              0x02\n              swap1\n              div\n              dup1\n              0x1f\n              add\n              0x20\n              dup1\n              swap2\n              div\n              mul\n              0x20\n              add\n              mload(0x40)\n              swap1\n              dup2\n              add\n              0x40\n              mstore\n              dup1\n              swap3\n              swap2\n              swap1\n              dup2\n              dup2\n              mstore\n              0x20\n              add\n              dup3\n              dup1\n              sload\n              0x01\n              dup2\n              0x01\n              and\n              iszero\n              0x0100\n              mul\n              sub\n              and\n              0x02\n              swap1\n              div\n              dup1\n              iszero\n              tag_280\n              jumpi\n              dup1\n              0x1f\n              lt\n              tag_281\n              jumpi\n              0x0100\n              dup1\n              dup4\n              sload\n              div\n              mul\n              dup4\n              mstore\n              swap2\n              0x20\n              add\n              swap2\n              jump(tag_280)\n            tag_281:\n              dup3\n              add\n              swap2\n              swap1\n              0x00\n              mstore\n              keccak256(0x00, 0x20)\n              swap1\n            tag_282:\n              dup2\n              sload\n              dup2\n              mstore\n              swap1\n              0x01\n              add\n              swap1\n              0x20\n              add\n              dup1\n              dup4\n              gt\n              tag_282\n              jumpi\n              dup3\n              swap1\n              sub\n              0x1f\n              and\n              dup3\n              add\n              swap2\n            tag_280:\n              pop\n              pop\n              pop\n              pop\n              pop\n              swap2\n              pop\n              dup1\n              dup1\n              sload\n              0x01\n              dup2\n              0x01\n              and\n              iszero\n              0x0100\n              mul\n              sub\n              and\n              0x02\n              swap1\n              div\n              dup1\n              0x1f\n              add\n              0x20\n              dup1\n              swap2\n              div\n              mul\n              0x20\n              add\n              mload(0x40)\n              swap1\n              dup2\n              add\n              0x40\n              mstore\n              dup1\n              swap3\n              swap2\n              swap1\n              dup2\n              dup2\n              mstore\n              0x20\n              add\n              dup3\n              dup1\n              sload\n              0x01\n              dup2\n              0x01\n              and\n              iszero\n              0x0100\n              mul\n              sub\n              and\n              0x02\n              swap1\n              div\n              dup1\n              iszero\n              tag_283\n              jumpi\n              dup1\n              0x1f\n              lt\n              tag_284\n              jumpi\n              0x0100\n              dup1\n              dup4\n              sload\n              div\n              mul\n              dup4\n              mstore\n              swap2\n              0x20\n              add\n              swap2\n              jump(tag_283)\n            tag_284:\n              dup3\n              add\n              swap2\n              swap1\n              0x00\n              mstore\n              keccak256(0x00, 0x20)\n              swap1\n            tag_285:\n              dup2\n              sload\n              dup2\n              mstore\n              swap1\n              0x01\n              add\n              swap1\n              0x20\n              add\n              dup1\n              dup4\n              gt\n              tag_285\n              jumpi\n              dup3\n              swap1\n              sub\n              0x1f\n              and\n              dup3\n              add\n              swap2\n            tag_283:\n              pop\n              pop\n              pop\n              pop\n              pop\n              swap1\n              pop\n              swap4\n              pop\n              swap4\n              pop\n              swap4\n              pop\n              swap4\n              pop\n                /* \"pasport_sc.sol\":6831:7082  function getExtInfo(string memory _hash) public view onlyOwner() returns (string memory, string memory, string memory, string memory){... */\n              swap2\n              swap4\n              pop\n              swap2\n              swap4\n              jump\t// out\n                /* \"pasport_sc.sol\":7445:7531  function activeEntity(bool _active) public onlyWHO() {... */\n            tag_139:\n                /* \"pasport_sc.sol\":7849:7891  0x70F6714dCa2f53A17558C5dff99D572959f77D9c */\n              0x70f6714dca2f53a17558c5dff99d572959f77d9c\n                /* \"pasport_sc.sol\":7835:7891  msg.sender == 0x70F6714dCa2f53A17558C5dff99D572959f77D9c */\n              0xffffffffffffffffffffffffffffffffffffffff\n              and\n                /* \"pasport_sc.sol\":7835:7845  msg.sender */\n              caller\n                /* \"pasport_sc.sol\":7835:7891  msg.sender == 0x70F6714dCa2f53A17558C5dff99D572959f77D9c */\n              0xffffffffffffffffffffffffffffffffffffffff\n              and\n              eq\n                /* \"pasport_sc.sol\":7827:7964  require(msg.sender == 0x70F6714dCa2f53A17558C5dff99D572959f77D9c, \"L'adresa que ha realitzat la crida no te els permissos de propietat.\") */\n              tag_287\n              jumpi\n              mload(0x40)\n              0x08c379a000000000000000000000000000000000000000000000000000000000\n              dup2\n              mstore\n              0x04\n              add\n              dup1\n              dup1\n              0x20\n              add\n              dup3\n              dup2\n              sub\n              dup3\n              mstore\n              0x44\n              dup2\n              mstore\n              0x20\n              add\n              dup1\n              data_8fd21b189046372f20933c3de1d276841fd6d95a5c0874d12875e1f8e9d2ec1b\n              0x44\n              swap2\n              codecopy\n              0x60\n              add\n              swap2\n              pop\n              pop\n              mload(0x40)\n              dup1\n              swap2\n              sub\n              swap1\n              revert\n            tag_287:\n                /* \"pasport_sc.sol\":7517:7524  _active */\n              dup1\n                /* \"pasport_sc.sol\":7508:7514  entity */\n              0x05\n              0x14\n                /* \"pasport_sc.sol\":7508:7524  entity = _active */\n              0x0100\n              exp\n              dup2\n              sload\n              dup2\n              0xff\n              mul\n              not\n              and\n              swap1\n              dup4\n              iszero\n              iszero\n              mul\n              or\n              swap1\n              sstore\n              pop\n                /* \"pasport_sc.sol\":7445:7531  function activeEntity(bool _active) public onlyWHO() {... */\n              pop\n              jump\t// out\n                /* \"pasport_sc.sol\":4143:4182  mapping (string => kfrags) public kfrag */\n            tag_145:\n              0x07\n              dup2\n              dup1\n              mload\n              0x20\n              dup2\n              add\n              dup3\n              add\n              dup1\n              mload\n              dup5\n              dup3\n              mstore\n              0x20\n              dup4\n              add\n              0x20\n              dup6\n              add\n              keccak256\n              dup2\n              dup4\n              mstore\n              dup1\n              swap6\n              pop\n              pop\n              pop\n              pop\n              pop\n              pop\n              0x00\n              swap2\n              pop\n              swap1\n              pop\n              dup1\n              0x00\n              add\n              dup1\n              sload\n              0x01\n              dup2\n              0x01\n              and\n              iszero\n              0x0100\n              mul\n              sub\n              and\n              0x02\n              swap1\n              div\n              dup1\n              0x1f\n              add\n              0x20\n              dup1\n              swap2\n              div\n              mul\n              0x20\n              add\n              mload(0x40)\n              swap1\n              dup2\n              add\n              0x40\n              mstore\n              dup1\n              swap3\n              swap2\n              swap1\n              dup2\n              dup2\n              mstore\n              0x20\n              add\n              dup3\n              dup1\n              sload\n              0x01\n              dup2\n              0x01\n              and\n              iszero\n              0x0100\n              mul\n              sub\n              and\n              0x02\n              swap1\n              div\n              dup1\n              iszero\n              tag_289\n              jumpi\n              dup1\n              0x1f\n              lt\n              tag_290\n              jumpi\n              0x0100\n              dup1\n              dup4\n              sload\n              div\n              mul\n              dup4\n              mstore\n              swap2\n              0x20\n              add\n              swap2\n              jump(tag_289)\n            tag_290:\n              dup3\n              add\n              swap2\n              swap1\n              0x00\n              mstore\n              keccak256(0x00, 0x20)\n              swap1\n            tag_291:\n              dup2\n              sload\n              dup2\n              mstore\n              swap1\n              0x01\n              add\n              swap1\n              0x20\n              add\n              dup1\n              dup4\n              gt\n              tag_291\n              jumpi\n              dup3\n              swap1\n              sub\n              0x1f\n              and\n              dup3\n              add\n              swap2\n            tag_289:\n              pop\n              pop\n              pop\n              pop\n              pop\n              swap1\n              dup1\n              0x01\n              add\n              dup1\n              sload\n              0x01\n              dup2\n              0x01\n              and\n              iszero\n              0x0100\n              mul\n              sub\n              and\n              0x02\n              swap1\n              div\n              dup1\n              0x1f\n              add\n              0x20\n              dup1\n              swap2\n              div\n              mul\n              0x20\n              add\n              mload(0x40)\n              swap1\n              dup2\n              add\n              0x40\n              mstore\n              dup1\n              swap3\n              swap2\n              swap1\n              dup2\n              dup2\n              mstore\n              0x20\n              add\n              dup3\n              dup1\n              sload\n              0x01\n              dup2\n              0x01\n              and\n              iszero\n              0x0100\n              mul\n              sub\n              and\n              0x02\n              swap1\n              div\n              dup1\n              iszero\n              tag_292\n              jumpi\n              dup1\n              0x1f\n              lt\n              tag_293\n              jumpi\n              0x0100\n              dup1\n              dup4\n              sload\n              div\n              mul\n              dup4\n              mstore\n              swap2\n              0x20\n              add\n              swap2\n              jump(tag_292)\n            tag_293:\n              dup3\n              add\n              swap2\n              swap1\n              0x00\n              mstore\n              keccak256(0x00, 0x20)\n              swap1\n            tag_294:\n              dup2\n              sload\n              dup2\n              mstore\n              swap1\n              0x01\n              add\n              swap1\n              0x20\n              add\n              dup1\n              dup4\n              gt\n              tag_294\n              jumpi\n              dup3\n              swap1\n              sub\n              0x1f\n              and\n              dup3\n              add\n              swap2\n            tag_292:\n              pop\n              pop\n              pop\n              pop\n              pop\n              swap1\n              dup1\n              0x02\n              add\n              dup1\n              sload\n              0x01\n              dup2\n              0x01\n              and\n              iszero\n              0x0100\n              mul\n              sub\n              and\n              0x02\n              swap1\n              div\n              dup1\n              0x1f\n              add\n              0x20\n              dup1\n              swap2\n              div\n              mul\n              0x20\n              add\n              mload(0x40)\n              swap1\n              dup2\n              add\n              0x40\n              mstore\n              dup1\n              swap3\n              swap2\n              swap1\n              dup2\n              dup2\n              mstore\n              0x20\n              add\n              dup3\n              dup1\n              sload\n              0x01\n              dup2\n              0x01\n              and\n              iszero\n              0x0100\n              mul\n              sub\n              and\n              0x02\n              swap1\n              div\n              dup1\n              iszero\n              tag_295\n              jumpi\n              dup1\n              0x1f\n              lt\n              tag_296\n              jumpi\n              0x0100\n              dup1\n              dup4\n              sload\n              div\n              mul\n              dup4\n              mstore\n              swap2\n              0x20\n              add\n              swap2\n              jump(tag_295)\n            tag_296:\n              dup3\n              add\n              swap2\n              swap1\n              0x00\n              mstore\n              keccak256(0x00, 0x20)\n              swap1\n            tag_297:\n              dup2\n              sload\n              dup2\n              mstore\n              swap1\n              0x01\n              add\n              swap1\n              0x20\n              add\n              dup1\n              dup4\n              gt\n              tag_297\n              jumpi\n              dup3\n              swap1\n              sub\n              0x1f\n              and\n              dup3\n              add\n              swap2\n            tag_295:\n              pop\n              pop\n              pop\n              pop\n              pop\n              swap1\n              dup1\n              0x03\n              add\n              dup1\n              sload\n              0x01\n              dup2\n              0x01\n              and\n              iszero\n              0x0100\n              mul\n              sub\n              and\n              0x02\n              swap1\n              div\n              dup1\n              0x1f\n              add\n              0x20\n              dup1\n              swap2\n              div\n              mul\n              0x20\n              add\n              mload(0x40)\n              swap1\n              dup2\n              add\n              0x40\n              mstore\n              dup1\n              swap3\n              swap2\n              swap1\n              dup2\n              dup2\n              mstore\n              0x20\n              add\n              dup3\n              dup1\n              sload\n              0x01\n              dup2\n              0x01\n              and\n              iszero\n              0x0100\n              mul\n              sub\n              and\n              0x02\n              swap1\n              div\n              dup1\n              iszero\n              tag_298\n              jumpi\n              dup1\n              0x1f\n              lt\n              tag_299\n              jumpi\n              0x0100\n              dup1\n              dup4\n              sload\n              div\n              mul\n              dup4\n              mstore\n              swap2\n              0x20\n              add\n              swap2\n              jump(tag_298)\n            tag_299:\n              dup3\n              add\n              swap2\n              swap1\n              0x00\n              mstore\n              keccak256(0x00, 0x20)\n              swap1\n            tag_300:\n              dup2\n              sload\n              dup2\n              mstore\n              swap1\n              0x01\n              add\n              swap1\n              0x20\n              add\n              dup1\n              dup4\n              gt\n              tag_300\n              jumpi\n              dup3\n              swap1\n              sub\n              0x1f\n              and\n              dup3\n              add\n              swap2\n            tag_298:\n              pop\n              pop\n              pop\n              pop\n              pop\n              swap1\n              dup1\n              0x04\n              add\n              dup1\n              sload\n              0x01\n              dup2\n              0x01\n              and\n              iszero\n              0x0100\n              mul\n              sub\n              and\n              0x02\n              swap1\n              div\n              dup1\n              0x1f\n              add\n              0x20\n              dup1\n              swap2\n              div\n              mul\n              0x20\n              add\n              mload(0x40)\n              swap1\n              dup2\n              add\n              0x40\n              mstore\n              dup1\n              swap3\n              swap2\n              swap1\n              dup2\n              dup2\n              mstore\n              0x20\n              add\n              dup3\n              dup1\n              sload\n              0x01\n              dup2\n              0x01\n              and\n              iszero\n              0x0100\n              mul\n              sub\n              and\n              0x02\n              swap1\n              div\n              dup1\n              iszero\n              tag_301\n              jumpi\n              dup1\n              0x1f\n              lt\n              tag_302\n              jumpi\n              0x0100\n              dup1\n              dup4\n              sload\n              div\n              mul\n              dup4\n              mstore\n              swap2\n              0x20\n              add\n              swap2\n              jump(tag_301)\n            tag_302:\n              dup3\n              add\n              swap2\n              swap1\n              0x00\n              mstore\n              keccak256(0x00, 0x20)\n              swap1\n            tag_303:\n              dup2\n              sload\n              dup2\n              mstore\n              swap1\n              0x01\n              add\n              swap1\n              0x20\n              add\n              dup1\n              dup4\n              gt\n              tag_303\n              jumpi\n              dup3\n              swap1\n              sub\n              0x1f\n              and\n              dup3\n              add\n              swap2\n            tag_301:\n              pop\n              pop\n              pop\n              pop\n              pop\n              swap1\n              pop\n              dup6\n              jump\t// out\n                /* \"pasport_sc.sol\":4999:5231  function newDoc(string memory _hash, string memory _capsule)public{... */\n            tag_174:\n                /* \"pasport_sc.sol\":5075:5088  uint256 index */\n              0x00\n                /* \"pasport_sc.sol\":5090:5097  extDocs */\n              0x03\n                /* \"pasport_sc.sol\":5090:5104  extDocs.length */\n              dup1\n              sload\n              swap1\n              pop\n                /* \"pasport_sc.sol\":5075:5104  uint256 index= extDocs.length */\n              swap1\n              pop\n                /* \"pasport_sc.sol\":5133:5138  index */\n              dup1\n                /* \"pasport_sc.sol\":5114:5123  indexDocs */\n              0x06\n                /* \"pasport_sc.sol\":5124:5129  _hash */\n              dup5\n                /* \"pasport_sc.sol\":5114:5130  indexDocs[_hash] */\n              mload(0x40)\n              dup1\n              dup3\n              dup1\n              mload\n              swap1\n              0x20\n              add\n              swap1\n              dup1\n              dup4\n              dup4\n            tag_305:\n              0x20\n              dup4\n              lt\n              tag_307\n              jumpi\n              dup1\n              mload\n              dup3\n              mstore\n              0x20\n              dup3\n              add\n              swap2\n              pop\n              0x20\n              dup2\n              add\n              swap1\n              pop\n              0x20\n              dup4\n              sub\n              swap3\n              pop\n              jump(tag_305)\n            tag_307:\n              0x01\n              dup4\n              0x20\n              sub\n              0x0100\n              exp\n              sub\n              dup1\n              not\n              dup3\n              mload\n              and\n              dup2\n              dup5\n              mload\n              and\n              dup1\n              dup3\n              or\n              dup6\n              mstore\n              pop\n              pop\n              pop\n              pop\n              pop\n              pop\n              swap1\n              pop\n              add\n              swap2\n              pop\n              pop\n              swap1\n              dup2\n              mstore\n              0x20\n              add\n              mload(0x40)\n              dup1\n              swap2\n              sub\n              swap1\n              keccak256\n                /* \"pasport_sc.sol\":5114:5138  indexDocs[_hash] = index */\n              dup2\n              swap1\n              sstore\n              pop\n                /* \"pasport_sc.sol\":5148:5155  capsule */\n              0x02\n                /* \"pasport_sc.sol\":5161:5169  _capsule */\n              dup3\n                /* \"pasport_sc.sol\":5148:5170  capsule.push(_capsule) */\n              swap1\n              dup1\n              0x01\n              dup2\n              sload\n              add\n              dup1\n              dup3\n              sstore\n              dup1\n              swap2\n              pop\n              pop\n              0x01\n              swap1\n              sub\n              swap1\n              0x00\n              mstore\n              keccak256(0x00, 0x20)\n              add\n              0x00\n              swap1\n              swap2\n              swap1\n              swap2\n              swap1\n              swap2\n              pop\n              swap1\n              dup1\n              mload\n              swap1\n              0x20\n              add\n              swap1\n              tag_309\n              swap3\n              swap2\n              swap1\n              tag_214\n              jump\t// in\n            tag_309:\n              pop\n                /* \"pasport_sc.sol\":5180:5184  docs */\n              0x01\n                /* \"pasport_sc.sol\":5190:5195  _hash */\n              dup4\n                /* \"pasport_sc.sol\":5180:5196  docs.push(_hash) */\n              swap1\n              dup1\n              0x01\n              dup2\n              sload\n              add\n              dup1\n              dup3\n              sstore\n              dup1\n              swap2\n              pop\n              pop\n              0x01\n              swap1\n              sub\n              swap1\n              0x00\n              mstore\n              keccak256(0x00, 0x20)\n              add\n              0x00\n              swap1\n              swap2\n              swap1\n              swap2\n              swap1\n              swap2\n              pop\n              swap1\n              dup1\n              mload\n              swap1\n              0x20\n              add\n              swap1\n              tag_311\n              swap3\n              swap2\n              swap1\n              tag_214\n              jump\t// in\n            tag_311:\n              pop\n                /* \"pasport_sc.sol\":5211:5224  nouDoc(_hash) */\n              0xc9d3eebce49314de171aef180ee3d8275f98728488db5fe2835492be5b5a0556\n                /* \"pasport_sc.sol\":5218:5223  _hash */\n              dup4\n                /* \"pasport_sc.sol\":5211:5224  nouDoc(_hash) */\n              mload(0x40)\n              dup1\n              dup1\n              0x20\n              add\n              dup3\n              dup2\n              sub\n              dup3\n              mstore\n              dup4\n              dup2\n              dup2\n              mload\n              dup2\n              mstore\n              0x20\n              add\n              swap2\n              pop\n              dup1\n              mload\n              swap1\n              0x20\n              add\n              swap1\n              dup1\n              dup4\n              dup4\n              0x00\n            tag_312:\n              dup4\n              dup2\n              lt\n              iszero\n              tag_314\n              jumpi\n              dup1\n              dup3\n              add\n              mload\n              dup2\n              dup5\n              add\n              mstore\n              0x20\n              dup2\n              add\n              swap1\n              pop\n              jump(tag_312)\n            tag_314:\n              pop\n              pop\n              pop\n              pop\n              swap1\n              pop\n              swap1\n              dup2\n              add\n              swap1\n              0x1f\n              and\n              dup1\n              iszero\n              tag_315\n              jumpi\n              dup1\n              dup3\n              sub\n              dup1\n              mload\n              0x01\n              dup4\n              0x20\n              sub\n              0x0100\n              exp\n              sub\n              not\n              and\n              dup2\n              mstore\n              0x20\n              add\n              swap2\n              pop\n            tag_315:\n              pop\n              swap3\n              pop\n              pop\n              pop\n              mload(0x40)\n              dup1\n              swap2\n              sub\n              swap1\n              log1\n                /* \"pasport_sc.sol\":4999:5231  function newDoc(string memory _hash, string memory _capsule)public{... */\n              pop\n              pop\n              pop\n              jump\t// out\n                /* \"pasport_sc.sol\":7541:7617  function getEntity()public view returns (bool){... */\n            tag_176:\n                /* \"pasport_sc.sol\":7582:7586  bool */\n              0x00\n                /* \"pasport_sc.sol\":7604:7610  entity */\n              0x05\n              0x14\n              swap1\n              sload\n              swap1\n              0x0100\n              exp\n              swap1\n              div\n              0xff\n              and\n                /* \"pasport_sc.sol\":7597:7610  return entity */\n              swap1\n              pop\n                /* \"pasport_sc.sol\":7541:7617  function getEntity()public view returns (bool){... */\n              swap1\n              jump\t// out\n            tag_214:\n              dup3\n              dup1\n              sload\n              0x01\n              dup2\n              0x01\n              and\n              iszero\n              0x0100\n              mul\n              sub\n              and\n              0x02\n              swap1\n              div\n              swap1\n              0x00\n              mstore\n              keccak256(0x00, 0x20)\n              swap1\n              0x1f\n              add\n              0x20\n              swap1\n              div\n              dup2\n              add\n              swap3\n              dup3\n              tag_318\n              jumpi\n              0x00\n              dup6\n              sstore\n              jump(tag_317)\n            tag_318:\n              dup3\n              0x1f\n              lt\n              tag_319\n              jumpi\n              dup1\n              mload\n              not(0xff)\n              and\n              dup4\n              dup1\n              add\n              or\n              dup6\n              sstore\n              jump(tag_317)\n            tag_319:\n              dup3\n              dup1\n              add\n              0x01\n              add\n              dup6\n              sstore\n              dup3\n              iszero\n              tag_317\n              jumpi\n              swap2\n              dup3\n              add\n            tag_320:\n              dup3\n              dup2\n              gt\n              iszero\n              tag_321\n              jumpi\n              dup3\n              mload\n              dup3\n              sstore\n              swap2\n              0x20\n              add\n              swap2\n              swap1\n              0x01\n              add\n              swap1\n              jump(tag_320)\n            tag_321:\n            tag_317:\n              pop\n              swap1\n              pop\n              tag_322\n              swap2\n              swap1\n              tag_323\n              jump\t// in\n            tag_322:\n              pop\n              swap1\n              jump\t// out\n            tag_323:\n            tag_324:\n              dup1\n              dup3\n              gt\n              iszero\n              tag_325\n              jumpi\n              0x00\n              dup2\n              0x00\n              swap1\n              sstore\n              pop\n              0x01\n              add\n              jump(tag_324)\n            tag_325:\n              pop\n              swap1\n              jump\t// out\n            stop\n            data_8fd21b189046372f20933c3de1d276841fd6d95a5c0874d12875e1f8e9d2ec1b 4c2761647265736120717565206861207265616c69747a6174206c61206372696461206e6f20746520656c73207065726d6973736f732064652070726f7069657461742e\n\n            auxdata: 0xa26469706673582212204b375045705149eee6117f2f77d376aee30629e39a360d143266547642916c7564736f6c63430007060033\n        }\n    }\n\n    sub_1: assembly {\n            /* \"pasport_sc.sol\":2696:3745  contract lab{... */\n          mstore(0x40, 0x80)\n            /* \"pasport_sc.sol\":2793:2891  constructor(address payable _lab){... */\n          callvalue\n          dup1\n          iszero\n          tag_1\n          jumpi\n          0x00\n          dup1\n          revert\n        tag_1:\n          pop\n          mload(0x40)\n          sub(codesize, bytecodeSize)\n          dup1\n          bytecodeSize\n          dup4\n          codecopy\n          dup2\n          dup2\n          add\n          0x40\n          mstore\n          0x20\n          dup2\n          lt\n          iszero\n          tag_2\n          jumpi\n          0x00\n          dup1\n          revert\n        tag_2:\n          dup2\n          add\n          swap1\n          dup1\n          dup1\n          mload\n          swap1\n          0x20\n          add\n          swap1\n          swap3\n          swap2\n          swap1\n          pop\n          pop\n          pop\n            /* \"pasport_sc.sol\":2844:2848  _lab */\n          dup1\n            /* \"pasport_sc.sol\":2836:2841  owner */\n          0x00\n          dup1\n            /* \"pasport_sc.sol\":2836:2848  owner = _lab */\n          0x0100\n          exp\n          dup2\n          sload\n          dup2\n          0xffffffffffffffffffffffffffffffffffffffff\n          mul\n          not\n          and\n          swap1\n          dup4\n          0xffffffffffffffffffffffffffffffffffffffff\n          and\n          mul\n          or\n          swap1\n          sstore\n          pop\n            /* \"pasport_sc.sol\":2879:2883  this */\n          address\n            /* \"pasport_sc.sol\":2858:2867  scAddress */\n          0x01\n          0x00\n            /* \"pasport_sc.sol\":2858:2884  scAddress = address (this) */\n          0x0100\n          exp\n          dup2\n          sload\n          dup2\n          0xffffffffffffffffffffffffffffffffffffffff\n          mul\n          not\n          and\n          swap1\n          dup4\n          0xffffffffffffffffffffffffffffffffffffffff\n          and\n          mul\n          or\n          swap1\n          sstore\n          pop\n            /* \"pasport_sc.sol\":2793:2891  constructor(address payable _lab){... */\n          pop\n            /* \"pasport_sc.sol\":2696:3745  contract lab{... */\n          dataSize(sub_0)\n          dup1\n          dataOffset(sub_0)\n          0x00\n          codecopy\n          0x00\n          return\n        stop\n\n        sub_0: assembly {\n                /* \"pasport_sc.sol\":2696:3745  contract lab{... */\n              mstore(0x40, 0x80)\n              callvalue\n              dup1\n              iszero\n              tag_1\n              jumpi\n              0x00\n              dup1\n              revert\n            tag_1:\n              pop\n              jumpi(tag_2, lt(calldatasize, 0x04))\n              shr(0xe0, calldataload(0x00))\n              dup1\n              0x2b68b9c6\n              eq\n              tag_3\n              jumpi\n              dup1\n              0x349d6f7c\n              eq\n              tag_4\n              jumpi\n              dup1\n              0x893d20e8\n              eq\n              tag_5\n              jumpi\n            tag_2:\n              0x00\n              dup1\n              revert\n                /* \"pasport_sc.sol\":3643:3743  function destruct()external{... */\n            tag_3:\n              tag_6\n              tag_7\n              jump\t// in\n            tag_6:\n              stop\n                /* \"pasport_sc.sol\":3309:3601  function carregaDocument(address _alice_SC_Adr, string memory _hashDoc, string memory _capsule) public onlyOwner() returns (string memory){... */\n            tag_4:\n              tag_8\n              0x04\n              dup1\n              calldatasize\n              sub\n              0x60\n              dup2\n              lt\n              iszero\n              tag_9\n              jumpi\n              0x00\n              dup1\n              revert\n            tag_9:\n              dup2\n              add\n              swap1\n              dup1\n              dup1\n              calldataload\n              0xffffffffffffffffffffffffffffffffffffffff\n              and\n              swap1\n              0x20\n              add\n              swap1\n              swap3\n              swap2\n              swap1\n              dup1\n              calldataload\n              swap1\n              0x20\n              add\n              swap1\n              0x0100000000\n              dup2\n              gt\n              iszero\n              tag_10\n              jumpi\n              0x00\n              dup1\n              revert\n            tag_10:\n              dup3\n              add\n              dup4\n              0x20\n              dup3\n              add\n              gt\n              iszero\n              tag_11\n              jumpi\n              0x00\n              dup1\n              revert\n            tag_11:\n              dup1\n              calldataload\n              swap1\n              0x20\n              add\n              swap2\n              dup5\n              0x01\n              dup4\n              mul\n              dup5\n              add\n              gt\n              0x0100000000\n              dup4\n              gt\n              or\n              iszero\n              tag_12\n              jumpi\n              0x00\n              dup1\n              revert\n            tag_12:\n              swap2\n              swap1\n              dup1\n              dup1\n              0x1f\n              add\n              0x20\n              dup1\n              swap2\n              div\n              mul\n              0x20\n              add\n              mload(0x40)\n              swap1\n              dup2\n              add\n              0x40\n              mstore\n              dup1\n              swap4\n              swap3\n              swap2\n              swap1\n              dup2\n              dup2\n              mstore\n              0x20\n              add\n              dup4\n              dup4\n              dup1\n              dup3\n              dup5\n              calldatacopy\n              0x00\n              dup2\n              dup5\n              add\n              mstore\n              not(0x1f)\n              0x1f\n              dup3\n              add\n              and\n              swap1\n              pop\n              dup1\n              dup4\n              add\n              swap3\n              pop\n              pop\n              pop\n              pop\n              pop\n              pop\n              pop\n              swap2\n              swap3\n              swap2\n              swap3\n              swap1\n              dup1\n              calldataload\n              swap1\n              0x20\n              add\n              swap1\n              0x0100000000\n              dup2\n              gt\n              iszero\n              tag_13\n              jumpi\n              0x00\n              dup1\n              revert\n            tag_13:\n              dup3\n              add\n              dup4\n              0x20\n              dup3\n              add\n              gt\n              iszero\n              tag_14\n              jumpi\n              0x00\n              dup1\n              revert\n            tag_14:\n              dup1\n              calldataload\n              swap1\n              0x20\n              add\n              swap2\n              dup5\n              0x01\n              dup4\n              mul\n              dup5\n              add\n              gt\n              0x0100000000\n              dup4\n              gt\n              or\n              iszero\n              tag_15\n              jumpi\n              0x00\n              dup1\n              revert\n            tag_15:\n              swap2\n              swap1\n              dup1\n              dup1\n              0x1f\n              add\n              0x20\n              dup1\n              swap2\n              div\n              mul\n              0x20\n              add\n              mload(0x40)\n              swap1\n              dup2\n              add\n              0x40\n              mstore\n              dup1\n              swap4\n              swap3\n              swap2\n              swap1\n              dup2\n              dup2\n              mstore\n              0x20\n              add\n              dup4\n              dup4\n              dup1\n              dup3\n              dup5\n              calldatacopy\n              0x00\n              dup2\n              dup5\n              add\n              mstore\n              not(0x1f)\n              0x1f\n              dup3\n              add\n              and\n              swap1\n              pop\n              dup1\n              dup4\n              add\n              swap3\n              pop\n              pop\n              pop\n              pop\n              pop\n              pop\n              pop\n              swap2\n              swap3\n              swap2\n              swap3\n              swap1\n              pop\n              pop\n              pop\n              tag_16\n              jump\t// in\n            tag_8:\n              mload(0x40)\n              dup1\n              dup1\n              0x20\n              add\n              dup3\n              dup2\n              sub\n              dup3\n              mstore\n              dup4\n              dup2\n              dup2\n              mload\n              dup2\n              mstore\n              0x20\n              add\n              swap2\n              pop\n              dup1\n              mload\n              swap1\n              0x20\n              add\n              swap1\n              dup1\n              dup4\n              dup4\n              0x00\n            tag_17:\n              dup4\n              dup2\n              lt\n              iszero\n              tag_19\n              jumpi\n              dup1\n              dup3\n              add\n              mload\n              dup2\n              dup5\n              add\n              mstore\n              0x20\n              dup2\n              add\n              swap1\n              pop\n              jump(tag_17)\n            tag_19:\n              pop\n              pop\n              pop\n              pop\n              swap1\n              pop\n              swap1\n              dup2\n              add\n              swap1\n              0x1f\n              and\n              dup1\n              iszero\n              tag_20\n              jumpi\n              dup1\n              dup3\n              sub\n              dup1\n              mload\n              0x01\n              dup4\n              0x20\n              sub\n              0x0100\n              exp\n              sub\n              not\n              and\n              dup2\n              mstore\n              0x20\n              add\n              swap2\n              pop\n            tag_20:\n              pop\n              swap3\n              pop\n              pop\n              pop\n              mload(0x40)\n              dup1\n              swap2\n              sub\n              swap1\n              return\n                /* \"pasport_sc.sol\":3052:3130  function getOwner() public view returns(address){... */\n            tag_5:\n              tag_21\n              tag_22\n              jump\t// in\n            tag_21:\n              mload(0x40)\n              dup1\n              dup3\n              0xffffffffffffffffffffffffffffffffffffffff\n              and\n              dup2\n              mstore\n              0x20\n              add\n              swap2\n              pop\n              pop\n              mload(0x40)\n              dup1\n              swap2\n              sub\n              swap1\n              return\n                /* \"pasport_sc.sol\":3643:3743  function destruct()external{... */\n            tag_7:\n                /* \"pasport_sc.sol\":3693:3698  owner */\n              0x00\n              dup1\n              sload\n              swap1\n              0x0100\n              exp\n              swap1\n              div\n              0xffffffffffffffffffffffffffffffffffffffff\n              and\n                /* \"pasport_sc.sol\":3680:3699  selfdestruct(owner) */\n              0xffffffffffffffffffffffffffffffffffffffff\n              and\n              selfdestruct\n                /* \"pasport_sc.sol\":3309:3601  function carregaDocument(address _alice_SC_Adr, string memory _hashDoc, string memory _capsule) public onlyOwner() returns (string memory){... */\n            tag_16:\n                /* \"pasport_sc.sol\":3433:3446  string memory */\n              0x60\n                /* \"pasport_sc.sol\":2950:2955  owner */\n              0x00\n              dup1\n              sload\n              swap1\n              0x0100\n              exp\n              swap1\n              div\n              0xffffffffffffffffffffffffffffffffffffffff\n              and\n                /* \"pasport_sc.sol\":2936:2955  msg.sender == owner */\n              0xffffffffffffffffffffffffffffffffffffffff\n              and\n                /* \"pasport_sc.sol\":2936:2946  msg.sender */\n              caller\n                /* \"pasport_sc.sol\":2936:2955  msg.sender == owner */\n              0xffffffffffffffffffffffffffffffffffffffff\n              and\n              eq\n                /* \"pasport_sc.sol\":2928:3028  require(msg.sender == owner, \"L'adresa que ha realitzat la crida no te els permissos de propietat.\") */\n              tag_25\n              jumpi\n              mload(0x40)\n              0x08c379a000000000000000000000000000000000000000000000000000000000\n              dup2\n              mstore\n              0x04\n              add\n              dup1\n              dup1\n              0x20\n              add\n              dup3\n              dup2\n              sub\n              dup3\n              mstore\n              0x44\n              dup2\n              mstore\n              0x20\n              add\n              dup1\n              data_8fd21b189046372f20933c3de1d276841fd6d95a5c0874d12875e1f8e9d2ec1b\n              0x44\n              swap2\n              codecopy\n              0x60\n              add\n              swap2\n              pop\n              pop\n              mload(0x40)\n              dup1\n              swap2\n              sub\n              swap1\n              revert\n            tag_25:\n                /* \"pasport_sc.sol\":3465:3473  _hashDoc */\n              dup3\n                /* \"pasport_sc.sol\":3457:3462  hashA */\n              0x02\n                /* \"pasport_sc.sol\":3457:3473  hashA = _hashDoc */\n              swap1\n              dup1\n              mload\n              swap1\n              0x20\n              add\n              swap1\n              tag_27\n              swap3\n              swap2\n              swap1\n              tag_28\n              jump\t// in\n            tag_27:\n              pop\n                /* \"pasport_sc.sol\":3488:3501  _alice_SC_Adr */\n              dup4\n                /* \"pasport_sc.sol\":3483:3509  user(_alice_SC_Adr).newDoc */\n              0xffffffffffffffffffffffffffffffffffffffff\n              and\n              0xf6a0576d\n                /* \"pasport_sc.sol\":3510:3518  _hashDoc */\n              dup5\n                /* \"pasport_sc.sol\":3520:3528  _capsule */\n              dup5\n                /* \"pasport_sc.sol\":3483:3529  user(_alice_SC_Adr).newDoc(_hashDoc, _capsule) */\n              mload(0x40)\n              dup4\n              0xffffffff\n              and\n              0xe0\n              shl\n              dup2\n              mstore\n              0x04\n              add\n              dup1\n              dup1\n              0x20\n              add\n              dup1\n              0x20\n              add\n              dup4\n              dup2\n              sub\n              dup4\n              mstore\n              dup6\n              dup2\n              dup2\n              mload\n              dup2\n              mstore\n              0x20\n              add\n              swap2\n              pop\n              dup1\n              mload\n              swap1\n              0x20\n              add\n              swap1\n              dup1\n              dup4\n              dup4\n              0x00\n            tag_29:\n              dup4\n              dup2\n              lt\n              iszero\n              tag_31\n              jumpi\n              dup1\n              dup3\n              add\n              mload\n              dup2\n              dup5\n              add\n              mstore\n              0x20\n              dup2\n              add\n              swap1\n              pop\n              jump(tag_29)\n            tag_31:\n              pop\n              pop\n              pop\n              pop\n              swap1\n              pop\n              swap1\n              dup2\n              add\n              swap1\n              0x1f\n              and\n              dup1\n              iszero\n              tag_32\n              jumpi\n              dup1\n              dup3\n              sub\n              dup1\n              mload\n              0x01\n              dup4\n              0x20\n              sub\n              0x0100\n              exp\n              sub\n              not\n              and\n              dup2\n              mstore\n              0x20\n              add\n              swap2\n              pop\n            tag_32:\n              pop\n              dup4\n              dup2\n              sub\n              dup3\n              mstore\n              dup5\n              dup2\n              dup2\n              mload\n              dup2\n              mstore\n              0x20\n              add\n              swap2\n              pop\n              dup1\n              mload\n              swap1\n              0x20\n              add\n              swap1\n              dup1\n              dup4\n              dup4\n              0x00\n            tag_33:\n              dup4\n              dup2\n              lt\n              iszero\n              tag_35\n              jumpi\n              dup1\n              dup3\n              add\n              mload\n              dup2\n              dup5\n              add\n              mstore\n              0x20\n              dup2\n              add\n              swap1\n              pop\n              jump(tag_33)\n            tag_35:\n              pop\n              pop\n              pop\n              pop\n              swap1\n              pop\n              swap1\n              dup2\n              add\n              swap1\n              0x1f\n              and\n              dup1\n              iszero\n              tag_36\n              jumpi\n              dup1\n              dup3\n              sub\n              dup1\n              mload\n              0x01\n              dup4\n              0x20\n              sub\n              0x0100\n              exp\n              sub\n              not\n              and\n              dup2\n              mstore\n              0x20\n              add\n              swap2\n              pop\n            tag_36:\n              pop\n              swap5\n              pop\n              pop\n              pop\n              pop\n              pop\n              0x00\n              mload(0x40)\n              dup1\n              dup4\n              sub\n              dup2\n              0x00\n              dup8\n              dup1\n              extcodesize\n              iszero\n              dup1\n              iszero\n              tag_37\n              jumpi\n              0x00\n              dup1\n              revert\n            tag_37:\n              pop\n              gas\n              call\n              iszero\n              dup1\n              iszero\n              tag_39\n              jumpi\n              returndatasize\n              0x00\n              dup1\n              returndatacopy\n              revert(0x00, returndatasize)\n            tag_39:\n              pop\n              pop\n              pop\n              pop\n                /* \"pasport_sc.sol\":3545:3571  newDocument(_alice_SC_Adr) */\n              0xf3c2359da4b62ab6d95f9cbe80f73519366be835dff25574414cf316ecc00af7\n                /* \"pasport_sc.sol\":3557:3570  _alice_SC_Adr */\n              dup5\n                /* \"pasport_sc.sol\":3545:3571  newDocument(_alice_SC_Adr) */\n              mload(0x40)\n              dup1\n              dup3\n              0xffffffffffffffffffffffffffffffffffffffff\n              and\n              dup2\n              mstore\n              0x20\n              add\n              swap2\n              pop\n              pop\n              mload(0x40)\n              dup1\n              swap2\n              sub\n              swap1\n              log1\n                /* \"pasport_sc.sol\":3588:3593  hashA */\n              0x02\n                /* \"pasport_sc.sol\":3581:3594  return(hashA) */\n              dup1\n              sload\n              0x01\n              dup2\n              0x01\n              and\n              iszero\n              0x0100\n              mul\n              sub\n              and\n              0x02\n              swap1\n              div\n              dup1\n              0x1f\n              add\n              0x20\n              dup1\n              swap2\n              div\n              mul\n              0x20\n              add\n              mload(0x40)\n              swap1\n              dup2\n              add\n              0x40\n              mstore\n              dup1\n              swap3\n              swap2\n              swap1\n              dup2\n              dup2\n              mstore\n              0x20\n              add\n              dup3\n              dup1\n              sload\n              0x01\n              dup2\n              0x01\n              and\n              iszero\n              0x0100\n              mul\n              sub\n              and\n              0x02\n              swap1\n              div\n              dup1\n              iszero\n              tag_40\n              jumpi\n              dup1\n              0x1f\n              lt\n              tag_41\n              jumpi\n              0x0100\n              dup1\n              dup4\n              sload\n              div\n              mul\n              dup4\n              mstore\n              swap2\n              0x20\n              add\n              swap2\n              jump(tag_40)\n            tag_41:\n              dup3\n              add\n              swap2\n              swap1\n              0x00\n              mstore\n              keccak256(0x00, 0x20)\n              swap1\n            tag_42:\n              dup2\n              sload\n              dup2\n              mstore\n              swap1\n              0x01\n              add\n              swap1\n              0x20\n              add\n              dup1\n              dup4\n              gt\n              tag_42\n              jumpi\n              dup3\n              swap1\n              sub\n              0x1f\n              and\n              dup3\n              add\n              swap2\n            tag_40:\n              pop\n              pop\n              pop\n              pop\n              pop\n              swap1\n              pop\n                /* \"pasport_sc.sol\":3309:3601  function carregaDocument(address _alice_SC_Adr, string memory _hashDoc, string memory _capsule) public onlyOwner() returns (string memory){... */\n              swap4\n              swap3\n              pop\n              pop\n              pop\n              jump\t// out\n                /* \"pasport_sc.sol\":3052:3130  function getOwner() public view returns(address){... */\n            tag_22:\n                /* \"pasport_sc.sol\":3092:3099  address */\n              0x00\n                /* \"pasport_sc.sol\":3117:3122  owner */\n              dup1\n              0x00\n              swap1\n              sload\n              swap1\n              0x0100\n              exp\n              swap1\n              div\n              0xffffffffffffffffffffffffffffffffffffffff\n              and\n                /* \"pasport_sc.sol\":3110:3123  return(owner) */\n              swap1\n              pop\n                /* \"pasport_sc.sol\":3052:3130  function getOwner() public view returns(address){... */\n              swap1\n              jump\t// out\n            tag_28:\n              dup3\n              dup1\n              sload\n              0x01\n              dup2\n              0x01\n              and\n              iszero\n              0x0100\n              mul\n              sub\n              and\n              0x02\n              swap1\n              div\n              swap1\n              0x00\n              mstore\n              keccak256(0x00, 0x20)\n              swap1\n              0x1f\n              add\n              0x20\n              swap1\n              div\n              dup2\n              add\n              swap3\n              dup3\n              tag_45\n              jumpi\n              0x00\n              dup6\n              sstore\n              jump(tag_44)\n            tag_45:\n              dup3\n              0x1f\n              lt\n              tag_46\n              jumpi\n              dup1\n              mload\n              not(0xff)\n              and\n              dup4\n              dup1\n              add\n              or\n              dup6\n              sstore\n              jump(tag_44)\n            tag_46:\n              dup3\n              dup1\n              add\n              0x01\n              add\n              dup6\n              sstore\n              dup3\n              iszero\n              tag_44\n              jumpi\n              swap2\n              dup3\n              add\n            tag_47:\n              dup3\n              dup2\n              gt\n              iszero\n              tag_48\n              jumpi\n              dup3\n              mload\n              dup3\n              sstore\n              swap2\n              0x20\n              add\n              swap2\n              swap1\n              0x01\n              add\n              swap1\n              jump(tag_47)\n            tag_48:\n            tag_44:\n              pop\n              swap1\n              pop\n              tag_49\n              swap2\n              swap1\n              tag_50\n              jump\t// in\n            tag_49:\n              pop\n              swap1\n              jump\t// out\n            tag_50:\n            tag_51:\n              dup1\n              dup3\n              gt\n              iszero\n              tag_52\n              jumpi\n              0x00\n              dup2\n              0x00\n              swap1\n              sstore\n              pop\n              0x01\n              add\n              jump(tag_51)\n            tag_52:\n              pop\n              swap1\n              jump\t// out\n            stop\n            data_8fd21b189046372f20933c3de1d276841fd6d95a5c0874d12875e1f8e9d2ec1b 4c2761647265736120717565206861207265616c69747a6174206c61206372696461206e6f20746520656c73207065726d6973736f732064652070726f7069657461742e\n\n            auxdata: 0xa2646970667358221220ea423394efca85fa7c7ed499369f65545e10525b3bfb8340292b938767ee28b164736f6c63430007060033\n        }\n    }\n\n    auxdata: 0xa26469706673582212209f481f9a5b208d6a4b49e0c68d84ab4a75174f761e5927b3082fc1d6144ad13464736f6c63430007060033\n}\n",
    "bytecode": {
      "linkReferences": {},
      "object": "60806040527370f6714dca2f53a17558c5dff99d572959f77d9c6000806101000a81548173ffffffffffffffffffffffffffffffffffffffff021916908373ffffffffffffffffffffffffffffffffffffffff16021790555034801561006457600080fd5b50614dbb806100746000396000f3fe60806040523480156200001157600080fd5b5060043610620000e25760003560e01c806394af50e61162000099578063c0632116116200006f578063c06321161462000678578063cf64cd8214620006d3578063ef0b39c414620006f3578063f4e7f8fa146200074e57620000e2565b806394af50e614620004cb57806397ed6460146200051e578063a3d1594e146200058f57620000e2565b80630ea126f914620000e75780633befa1b814620001f257806341fd25b31462000263578063489c348314620002c057806360259fe914620003a1578063887ca0d31462000408575b600080fd5b620001c660048036036040811015620000ff57600080fd5b81019080803573ffffffffffffffffffffffffffffffffffffffff169060200190929190803590602001906401000000008111156200013d57600080fd5b8201836020820111156200015057600080fd5b803590602001918460018302840111640100000000831117156200017357600080fd5b91908080601f016020809104026020016040519081016040528093929190818152602001838380828437600081840152601f19601f820116905080830192505050505050509192919290505050620007bf565b604051808273ffffffffffffffffffffffffffffffffffffffff16815260200191505060405180910390f35b62000237600480360360208110156200020a57600080fd5b81019080803573ffffffffffffffffffffffffffffffffffffffff169060200190929190505050620009bf565b604051808273ffffffffffffffffffffffffffffffffffffffff16815260200191505060405180910390f35b620002a8600480360360208110156200027b57600080fd5b81019080803573ffffffffffffffffffffffffffffffffffffffff169060200190929190505050620009f2565b60405180821515815260200191505060405180910390f35b6200039f60048036036040811015620002d857600080fd5b81019080803573ffffffffffffffffffffffffffffffffffffffff169060200190929190803590602001906401000000008111156200031657600080fd5b8201836020820111156200032957600080fd5b803590602001918460018302840111640100000000831117156200034c57600080fd5b91908080601f016020809104026020016040519081016040528093929190818152602001838380828437600081840152601f19601f82011690508083019250505050505050919291929050505062000af2565b005b6200040660048036036040811015620003b957600080fd5b81019080803573ffffffffffffffffffffffffffffffffffffffff169060200190929190803573ffffffffffffffffffffffffffffffffffffffff16906020019092919050505062000e3d565b005b6200044d600480360360208110156200042057600080fd5b81019080803573ffffffffffffffffffffffffffffffffffffffff16906020019092919050505062000fa4565b6040518080602001828103825283818151815260200191508051906020019080838360005b838110156200048f57808201518184015260208101905062000472565b50505050905090810190601f168015620004bd5780820380516001836020036101000a031916815260200191505b509250505060405180910390f35b6200051c60048036036040811015620004e357600080fd5b81019080803515159060200190929190803573ffffffffffffffffffffffffffffffffffffffff16906020019092919050505062001132565b005b62000563600480360360208110156200053657600080fd5b81019080803573ffffffffffffffffffffffffffffffffffffffff16906020019092919050505062001307565b604051808273ffffffffffffffffffffffffffffffffffffffff16815260200191505060405180910390f35b620005d460048036036020811015620005a757600080fd5b81019080803573ffffffffffffffffffffffffffffffffffffffff16906020019092919050505062001373565b604051808060200184151581526020018373ffffffffffffffffffffffffffffffffffffffff168152602001828103825285818151815260200191508051906020019080838360005b838110156200063a5780820151818401526020810190506200061d565b50505050905090810190601f168015620006685780820380516001836020036101000a031916815260200191505b5094505050505060405180910390f35b620006a7600480360360208110156200069057600080fd5b810190808035906020019092919050505062001466565b604051808273ffffffffffffffffffffffffffffffffffffffff16815260200191505060405180910390f35b620006dd620014a6565b6040518082815260200191505060405180910390f35b62000722600480360360208110156200070b57600080fd5b81019080803590602001909291905050506200155a565b604051808273ffffffffffffffffffffffffffffffffffffffff16815260200191505060405180910390f35b62000793600480360360208110156200076657600080fd5b81019080803573ffffffffffffffffffffffffffffffffffffffff1690602001909291905050506200159a565b604051808273ffffffffffffffffffffffffffffffffffffffff16815260200191505060405180910390f35b60008083905060008184604051620007d790620016aa565b808373ffffffffffffffffffffffffffffffffffffffff16815260200180602001828103825283818151815260200191508051906020019080838360005b838110156200083257808201518184015260208101905062000815565b50505050905090810190601f168015620008605780820380516001836020036101000a031916815260200191505b509350505050604051809103906000f08015801562000883573d6000803e3d6000fd5b5090506002829080600181540180825580915050600190039060005260206000200160009091909190916101000a81548173ffffffffffffffffffffffffffffffffffffffff021916908373ffffffffffffffffffffffffffffffffffffffff16021790555080600460008473ffffffffffffffffffffffffffffffffffffffff1673ffffffffffffffffffffffffffffffffffffffff16815260200190815260200160002060006101000a81548173ffffffffffffffffffffffffffffffffffffffff021916908373ffffffffffffffffffffffffffffffffffffffff1602179055507f2449b149f88e6eb459a7d3af8ea2c659fdf1499c81539604353c270f65908aca82604051808273ffffffffffffffffffffffffffffffffffffffff16815260200191505060405180910390a1809250505092915050565b60046020528060005260406000206000915054906101000a900473ffffffffffffffffffffffffffffffffffffffff1681565b60008060009054906101000a900473ffffffffffffffffffffffffffffffffffffffff1673ffffffffffffffffffffffffffffffffffffffff163373ffffffffffffffffffffffffffffffffffffffff161462000a9b576040517f08c379a000000000000000000000000000000000000000000000000000000000815260040180806020018281038252604481526020018062004d426044913960600191505060405180910390fd5b600360008373ffffffffffffffffffffffffffffffffffffffff1673ffffffffffffffffffffffffffffffffffffffff16815260200190815260200160002060010160009054906101000a900460ff169050919050565b60008054906101000a900473ffffffffffffffffffffffffffffffffffffffff1673ffffffffffffffffffffffffffffffffffffffff163373ffffffffffffffffffffffffffffffffffffffff161462000b98576040517f08c379a000000000000000000000000000000000000000000000000000000000815260040180806020018281038252604481526020018062004d426044913960600191505060405180910390fd5b8160405162000ba790620016b8565b808273ffffffffffffffffffffffffffffffffffffffff168152602001915050604051809103906000f08015801562000be4573d6000803e3d6000fd5b50600360008473ffffffffffffffffffffffffffffffffffffffff1673ffffffffffffffffffffffffffffffffffffffff16815260200190815260200160002060010160016101000a81548173ffffffffffffffffffffffffffffffffffffffff021916908373ffffffffffffffffffffffffffffffffffffffff1602179055506001829080600181540180825580915050600190039060005260206000200160009091909190916101000a81548173ffffffffffffffffffffffffffffffffffffffff021916908373ffffffffffffffffffffffffffffffffffffffff16021790555080600360008473ffffffffffffffffffffffffffffffffffffffff1673ffffffffffffffffffffffffffffffffffffffff168152602001908152602001600020600001908051906020019062000d20929190620016c6565b506001600360008473ffffffffffffffffffffffffffffffffffffffff1673ffffffffffffffffffffffffffffffffffffffff16815260200190815260200160002060010160006101000a81548160ff0219169083151502179055507f681d10e7ef9b9b1c9955e8cfb39c8982d63b7f4185f90016e1e0fd8563d44f8c818360405180806020018373ffffffffffffffffffffffffffffffffffffffff168152602001828103825284818151815260200191508051906020019080838360005b8381101562000dfd57808201518184015260208101905062000de0565b50505050905090810190601f16801562000e2b5780820380516001836020036101000a031916815260200191505b50935050505060405180910390a15050565b60008054906101000a900473ffffffffffffffffffffffffffffffffffffffff1673ffffffffffffffffffffffffffffffffffffffff163373ffffffffffffffffffffffffffffffffffffffff161462000ee3576040517f08c379a000000000000000000000000000000000000000000000000000000000815260040180806020018281038252604481526020018062004d426044913960600191505060405180910390fd5b6000600360008473ffffffffffffffffffffffffffffffffffffffff1673ffffffffffffffffffffffffffffffffffffffff16815260200190815260200160002060010160006101000a81548160ff0219169083151502179055508073ffffffffffffffffffffffffffffffffffffffff16632b68b9c66040518163ffffffff1660e01b8152600401600060405180830381600087803b15801562000f8757600080fd5b505af115801562000f9c573d6000803e3d6000fd5b505050505050565b606060008054906101000a900473ffffffffffffffffffffffffffffffffffffffff1673ffffffffffffffffffffffffffffffffffffffff163373ffffffffffffffffffffffffffffffffffffffff16146200104c576040517f08c379a000000000000000000000000000000000000000000000000000000000815260040180806020018281038252604481526020018062004d426044913960600191505060405180910390fd5b600360008373ffffffffffffffffffffffffffffffffffffffff1673ffffffffffffffffffffffffffffffffffffffff1681526020019081526020016000206000018054600181600116156101000203166002900480601f016020809104026020016040519081016040528092919081815260200182805460018160011615610100020316600290048015620011265780601f10620010fa5761010080835404028352916020019162001126565b820191906000526020600020905b8154815290600101906020018083116200110857829003601f168201915b50505050509050919050565b60008054906101000a900473ffffffffffffffffffffffffffffffffffffffff1673ffffffffffffffffffffffffffffffffffffffff163373ffffffffffffffffffffffffffffffffffffffff1614620011d8576040517f08c379a000000000000000000000000000000000000000000000000000000000815260040180806020018281038252604481526020018062004d426044913960600191505060405180910390fd5b6000600460008373ffffffffffffffffffffffffffffffffffffffff1673ffffffffffffffffffffffffffffffffffffffff16815260200190815260200160002060009054906101000a900473ffffffffffffffffffffffffffffffffffffffff1690508073ffffffffffffffffffffffffffffffffffffffff1663ddfb2e26846040518263ffffffff1660e01b8152600401808215158152602001915050600060405180830381600087803b1580156200129257600080fd5b505af1158015620012a7573d6000803e3d6000fd5b505050507ffb1fe99bdd0ab633267cc6c574aa5521b20cbcb196b776b9d40b7d81f9afc5548284604051808373ffffffffffffffffffffffffffffffffffffffff16815260200182151581526020019250505060405180910390a1505050565b6000600360008373ffffffffffffffffffffffffffffffffffffffff1673ffffffffffffffffffffffffffffffffffffffff16815260200190815260200160002060010160019054906101000a900473ffffffffffffffffffffffffffffffffffffffff169050919050565b6003602052806000526040600020600091509050806000018054600181600116156101000203166002900480601f016020809104026020016040519081016040528092919081815260200182805460018160011615610100020316600290048015620014235780601f10620013f75761010080835404028352916020019162001423565b820191906000526020600020905b8154815290600101906020018083116200140557829003601f168201915b5050505050908060010160009054906101000a900460ff16908060010160019054906101000a900473ffffffffffffffffffffffffffffffffffffffff16905083565b600181815481106200147757600080fd5b906000526020600020016000915054906101000a900473ffffffffffffffffffffffffffffffffffffffff1681565b60008060009054906101000a900473ffffffffffffffffffffffffffffffffffffffff1673ffffffffffffffffffffffffffffffffffffffff163373ffffffffffffffffffffffffffffffffffffffff16146200154f576040517f08c379a000000000000000000000000000000000000000000000000000000000815260040180806020018281038252604481526020018062004d426044913960600191505060405180910390fd5b600180549050905090565b600281815481106200156b57600080fd5b906000526020600020016000915054906101000a900473ffffffffffffffffffffffffffffffffffffffff1681565b60008060009054906101000a900473ffffffffffffffffffffffffffffffffffffffff1673ffffffffffffffffffffffffffffffffffffffff163373ffffffffffffffffffffffffffffffffffffffff161462001643576040517f08c379a000000000000000000000000000000000000000000000000000000000815260040180806020018281038252604481526020018062004d426044913960600191505060405180910390fd5b600460008373ffffffffffffffffffffffffffffffffffffffff1673ffffffffffffffffffffffffffffffffffffffff16815260200190815260200160002060009054906101000a900473ffffffffffffffffffffffffffffffffffffffff169050919050565b612e0f806200177d83390190565b6107b6806200458c83390190565b828054600181600116156101000203166002900490600052602060002090601f016020900481019282620016fe57600085556200174a565b82601f106200171957805160ff19168380011785556200174a565b828001600101855582156200174a579182015b82811115620017495782518255916020019190600101906200172c565b5b5090506200175991906200175d565b5090565b5b80821115620017785760008160009055506001016200175e565b509056fe60806040523480156200001157600080fd5b5060405162002e0f38038062002e0f833981810160405260408110156200003757600080fd5b8101908080519060200190929190805160405193929190846401000000008211156200006257600080fd5b838201915060208201858111156200007957600080fd5b82518660018202830111640100000000821117156200009757600080fd5b8083526020830192505050908051906020019080838360005b83811015620000cd578082015181840152602081019050620000b0565b50505050905090810190601f168015620000fb5780820380516001836020036101000a031916815260200191505b5060405250505081600560006101000a81548173ffffffffffffffffffffffffffffffffffffffff021916908373ffffffffffffffffffffffffffffffffffffffff16021790555030600460006101000a81548173ffffffffffffffffffffffffffffffffffffffff021916908373ffffffffffffffffffffffffffffffffffffffff16021790555080600090805190602001906200019c929190620001c0565b506000600560146101000a81548160ff021916908315150217905550505062000276565b828054600181600116156101000203166002900490600052602060002090601f016020900481019282620001f8576000855562000244565b82601f106200021357805160ff191683800117855562000244565b8280016001018555821562000244579182015b828111156200024357825182559160200191906001019062000226565b5b50905062000253919062000257565b5090565b5b808211156200027257600081600090555060010162000258565b5090565b612b8980620002866000396000f3fe608060405234801561001057600080fd5b50600436106101215760003560e01c80637769ef3a116100ad578063d74143f211610071578063d74143f214610b73578063ddfb2e2614610deb578063e2626cca14610e1b578063f6a0576d146110ff578063ff200d2b1461125157610121565b80637769ef3a146108f25780638b5fec8f146109c157806391aacb0114610a90578063b07ce2a014610aae578063d12399e914610acc57610121565b806345419b71116100f457806345419b711461034f5780634ad02ef1146103f65780635f3d3753146104795780636839bab01461053457806369b4431e1461084b57610121565b806323389c5a1461012657806330348b25146101cd57806332a2c5d01461027457806336b6fd0c146102a8575b600080fd5b6101526004803603602081101561013c57600080fd5b8101908080359060200190929190505050611271565b6040518080602001828103825283818151815260200191508051906020019080838360005b83811015610192578082015181840152602081019050610177565b50505050905090810190601f1680156101bf5780820380516001836020036101000a031916815260200191505b509250505060405180910390f35b6101f9600480360360208110156101e357600080fd5b810190808035906020019092919050505061132d565b6040518080602001828103825283818151815260200191508051906020019080838360005b8381101561023957808201518184015260208101905061021e565b50505050905090810190601f1680156102665780820380516001836020036101000a031916815260200191505b509250505060405180910390f35b61027c61148c565b604051808273ffffffffffffffffffffffffffffffffffffffff16815260200191505060405180910390f35b6102d4600480360360208110156102be57600080fd5b810190808035906020019092919050505061155c565b6040518080602001828103825283818151815260200191508051906020019080838360005b838110156103145780820151818401526020810190506102f9565b50505050905090810190601f1680156103415780820380516001836020036101000a031916815260200191505b509250505060405180910390f35b61037b6004803603602081101561036557600080fd5b81019080803590602001909291905050506116bb565b6040518080602001828103825283818151815260200191508051906020019080838360005b838110156103bb5780820151818401526020810190506103a0565b50505050905090810190601f1680156103e85780820380516001836020036101000a031916815260200191505b509250505060405180910390f35b6103fe611777565b6040518080602001828103825283818151815260200191508051906020019080838360005b8381101561043e578082015181840152602081019050610423565b50505050905090810190601f16801561046b5780820380516001836020036101000a031916815260200191505b509250505060405180910390f35b6105326004803603602081101561048f57600080fd5b81019080803590602001906401000000008111156104ac57600080fd5b8201836020820111156104be57600080fd5b803590602001918460018302840111640100000000831117156104e057600080fd5b91908080601f016020809104026020016040519081016040528093929190818152602001838380828437600081840152601f19601f820116905080830192505050505050509192919290505050611819565b005b610849600480360360a081101561054a57600080fd5b810190808035906020019064010000000081111561056757600080fd5b82018360208201111561057957600080fd5b8035906020019184600183028401116401000000008311171561059b57600080fd5b91908080601f016020809104026020016040519081016040528093929190818152602001838380828437600081840152601f19601f820116905080830192505050505050509192919290803590602001906401000000008111156105fe57600080fd5b82018360208201111561061057600080fd5b8035906020019184600183028401116401000000008311171561063257600080fd5b91908080601f016020809104026020016040519081016040528093929190818152602001838380828437600081840152601f19601f8201169050808301925050505050505091929192908035906020019064010000000081111561069557600080fd5b8201836020820111156106a757600080fd5b803590602001918460018302840111640100000000831117156106c957600080fd5b91908080601f016020809104026020016040519081016040528093929190818152602001838380828437600081840152601f19601f8201169050808301925050505050505091929192908035906020019064010000000081111561072c57600080fd5b82018360208201111561073e57600080fd5b8035906020019184600183028401116401000000008311171561076057600080fd5b91908080601f016020809104026020016040519081016040528093929190818152602001838380828437600081840152601f19601f820116905080830192505050505050509192919290803590602001906401000000008111156107c357600080fd5b8201836020820111156107d557600080fd5b803590602001918460018302840111640100000000831117156107f757600080fd5b91908080601f016020809104026020016040519081016040528093929190818152602001838380828437600081840152601f19601f8201169050808301925050505050505091929192905050506118d9565b005b6108776004803603602081101561086157600080fd5b8101908080359060200190929190505050611b20565b6040518080602001828103825283818151815260200191508051906020019080838360005b838110156108b757808201518184015260208101905061089c565b50505050905090810190601f1680156108e45780820380516001836020036101000a031916815260200191505b509250505060405180910390f35b6109ab6004803603602081101561090857600080fd5b810190808035906020019064010000000081111561092557600080fd5b82018360208201111561093757600080fd5b8035906020019184600183028401116401000000008311171561095957600080fd5b91908080601f016020809104026020016040519081016040528093929190818152602001838380828437600081840152601f19601f820116905080830192505050505050509192919290505050611c7f565b6040518082815260200191505060405180910390f35b610a7a600480360360208110156109d757600080fd5b81019080803590602001906401000000008111156109f457600080fd5b820183602082011115610a0657600080fd5b80359060200191846001830284011164010000000083111715610a2857600080fd5b91908080601f016020809104026020016040519081016040528093929190818152602001838380828437600081840152601f19601f820116905080830192505050505050509192919290505050611d98565b6040518082815260200191505060405180910390f35b610a98611dc6565b6040518082815260200191505060405180910390f35b610ab6611e79565b6040518082815260200191505060405180910390f35b610af860048036036020811015610ae257600080fd5b8101908080359060200190929190505050611f2c565b6040518080602001828103825283818151815260200191508051906020019080838360005b83811015610b38578082015181840152602081019050610b1d565b50505050905090810190601f168015610b655780820380516001836020036101000a031916815260200191505b509250505060405180910390f35b610c2c60048036036020811015610b8957600080fd5b8101908080359060200190640100000000811115610ba657600080fd5b820183602082011115610bb857600080fd5b80359060200191846001830284011164010000000083111715610bda57600080fd5b91908080601f016020809104026020016040519081016040528093929190818152602001838380828437600081840152601f19601f820116905080830192505050505050509192919290505050611fe8565b6040518080602001806020018060200180602001858103855289818151815260200191508051906020019080838360005b83811015610c78578082015181840152602081019050610c5d565b50505050905090810190601f168015610ca55780820380516001836020036101000a031916815260200191505b50858103845288818151815260200191508051906020019080838360005b83811015610cde578082015181840152602081019050610cc3565b50505050905090810190601f168015610d0b5780820380516001836020036101000a031916815260200191505b50858103835287818151815260200191508051906020019080838360005b83811015610d44578082015181840152602081019050610d29565b50505050905090810190601f168015610d715780820380516001836020036101000a031916815260200191505b50858103825286818151815260200191508051906020019080838360005b83811015610daa578082015181840152602081019050610d8f565b50505050905090810190601f168015610dd75780820380516001836020036101000a031916815260200191505b509850505050505050505060405180910390f35b610e1960048036036020811015610e0157600080fd5b810190808035151590602001909291905050506124c3565b005b610ed460048036036020811015610e3157600080fd5b8101908080359060200190640100000000811115610e4e57600080fd5b820183602082011115610e6057600080fd5b80359060200191846001830284011164010000000083111715610e8257600080fd5b91908080601f016020809104026020016040519081016040528093929190818152602001838380828437600081840152601f19601f820116905080830192505050505050509192919290505050612578565b60405180806020018060200180602001806020018060200186810386528b818151815260200191508051906020019080838360005b83811015610f24578082015181840152602081019050610f09565b50505050905090810190601f168015610f515780820380516001836020036101000a031916815260200191505b5086810385528a818151815260200191508051906020019080838360005b83811015610f8a578082015181840152602081019050610f6f565b50505050905090810190601f168015610fb75780820380516001836020036101000a031916815260200191505b50868103845289818151815260200191508051906020019080838360005b83811015610ff0578082015181840152602081019050610fd5565b50505050905090810190601f16801561101d5780820380516001836020036101000a031916815260200191505b50868103835288818151815260200191508051906020019080838360005b8381101561105657808201518184015260208101905061103b565b50505050905090810190601f1680156110835780820380516001836020036101000a031916815260200191505b50868103825287818151815260200191508051906020019080838360005b838110156110bc5780820151818401526020810190506110a1565b50505050905090810190601f1680156110e95780820380516001836020036101000a031916815260200191505b509a505050505050505050505060405180910390f35b61124f6004803603604081101561111557600080fd5b810190808035906020019064010000000081111561113257600080fd5b82018360208201111561114457600080fd5b8035906020019184600183028401116401000000008311171561116657600080fd5b91908080601f016020809104026020016040519081016040528093929190818152602001838380828437600081840152601f19601f820116905080830192505050505050509192919290803590602001906401000000008111156111c957600080fd5b8201836020820111156111db57600080fd5b803590602001918460018302840111640100000000831117156111fd57600080fd5b91908080601f016020809104026020016040519081016040528093929190818152602001838380828437600081840152601f19601f8201169050808301925050505050505091929192905050506128bc565b005b611259612a4d565b60405180821515815260200191505060405180910390f35b6001818154811061128157600080fd5b906000526020600020016000915090508054600181600116156101000203166002900480601f0160208091040260200160405190810160405280929190818152602001828054600181600116156101000203166002900480156113255780601f106112fa57610100808354040283529160200191611325565b820191906000526020600020905b81548152906001019060200180831161130857829003601f168201915b505050505081565b6060600560009054906101000a900473ffffffffffffffffffffffffffffffffffffffff1673ffffffffffffffffffffffffffffffffffffffff163373ffffffffffffffffffffffffffffffffffffffff16146113d5576040517f08c379a0000000000000000000000000000000000000000000000000000000008152600401808060200182810382526044815260200180612b106044913960600191505060405180910390fd5b600182815481106113e257fe5b906000526020600020018054600181600116156101000203166002900480601f0160208091040260200160405190810160405280929190818152602001828054600181600116156101000203166002900480156114805780601f1061145557610100808354040283529160200191611480565b820191906000526020600020905b81548152906001019060200180831161146357829003601f168201915b50505050509050919050565b6000600560009054906101000a900473ffffffffffffffffffffffffffffffffffffffff1673ffffffffffffffffffffffffffffffffffffffff163373ffffffffffffffffffffffffffffffffffffffff1614611534576040517f08c379a0000000000000000000000000000000000000000000000000000000008152600401808060200182810382526044815260200180612b106044913960600191505060405180910390fd5b600460009054906101000a900473ffffffffffffffffffffffffffffffffffffffff16905090565b6060600560009054906101000a900473ffffffffffffffffffffffffffffffffffffffff1673ffffffffffffffffffffffffffffffffffffffff163373ffffffffffffffffffffffffffffffffffffffff1614611604576040517f08c379a0000000000000000000000000000000000000000000000000000000008152600401808060200182810382526044815260200180612b106044913960600191505060405180910390fd5b6003828154811061161157fe5b906000526020600020018054600181600116156101000203166002900480601f0160208091040260200160405190810160405280929190818152602001828054600181600116156101000203166002900480156116af5780601f10611684576101008083540402835291602001916116af565b820191906000526020600020905b81548152906001019060200180831161169257829003601f168201915b50505050509050919050565b600381815481106116cb57600080fd5b906000526020600020016000915090508054600181600116156101000203166002900480601f01602080910402602001604051908101604052809291908181526020018280546001816001161561010002031660029004801561176f5780601f106117445761010080835404028352916020019161176f565b820191906000526020600020905b81548152906001019060200180831161175257829003601f168201915b505050505081565b606060008054600181600116156101000203166002900480601f01602080910402602001604051908101604052809291908181526020018280546001816001161561010002031660029004801561180f5780601f106117e45761010080835404028352916020019161180f565b820191906000526020600020905b8154815290600101906020018083116117f257829003601f168201915b5050505050905090565b600560009054906101000a900473ffffffffffffffffffffffffffffffffffffffff1673ffffffffffffffffffffffffffffffffffffffff163373ffffffffffffffffffffffffffffffffffffffff16146118bf576040517f08c379a0000000000000000000000000000000000000000000000000000000008152600401808060200182810382526044815260200180612b106044913960600191505060405180910390fd5b80600090805190602001906118d5929190612a64565b5050565b600385908060018154018082558091505060019003906000526020600020016000909190919091509080519060200190611914929190612a64565b50836007866040518082805190602001908083835b6020831061194c5780518252602082019150602081019050602083039250611929565b6001836020036101000a03801982511681845116808217855250505050505090500191505090815260200160405180910390206001019080519060200190611995929190612a64565b50826007866040518082805190602001908083835b602083106119cd57805182526020820191506020810190506020830392506119aa565b6001836020036101000a03801982511681845116808217855250505050505090500191505090815260200160405180910390206002019080519060200190611a16929190612a64565b50816007866040518082805190602001908083835b60208310611a4e5780518252602082019150602081019050602083039250611a2b565b6001836020036101000a03801982511681845116808217855250505050505090500191505090815260200160405180910390206003019080519060200190611a97929190612a64565b50806007866040518082805190602001908083835b60208310611acf5780518252602082019150602081019050602083039250611aac565b6001836020036101000a03801982511681845116808217855250505050505090500191505090815260200160405180910390206004019080519060200190611b18929190612a64565b505050505050565b6060600560009054906101000a900473ffffffffffffffffffffffffffffffffffffffff1673ffffffffffffffffffffffffffffffffffffffff163373ffffffffffffffffffffffffffffffffffffffff1614611bc8576040517f08c379a0000000000000000000000000000000000000000000000000000000008152600401808060200182810382526044815260200180612b106044913960600191505060405180910390fd5b60028281548110611bd557fe5b906000526020600020018054600181600116156101000203166002900480601f016020809104026020016040519081016040528092919081815260200182805460018160011615610100020316600290048015611c735780601f10611c4857610100808354040283529160200191611c73565b820191906000526020600020905b815481529060010190602001808311611c5657829003601f168201915b50505050509050919050565b6000600560009054906101000a900473ffffffffffffffffffffffffffffffffffffffff1673ffffffffffffffffffffffffffffffffffffffff163373ffffffffffffffffffffffffffffffffffffffff1614611d27576040517f08c379a0000000000000000000000000000000000000000000000000000000008152600401808060200182810382526044815260200180612b106044913960600191505060405180910390fd5b6006826040518082805190602001908083835b60208310611d5d5780518252602082019150602081019050602083039250611d3a565b6001836020036101000a0380198251168184511680821785525050505050509050019150509081526020016040518091039020549050919050565b6006818051602081018201805184825260208301602085012081835280955050505050506000915090505481565b6000600560009054906101000a900473ffffffffffffffffffffffffffffffffffffffff1673ffffffffffffffffffffffffffffffffffffffff163373ffffffffffffffffffffffffffffffffffffffff1614611e6e576040517f08c379a0000000000000000000000000000000000000000000000000000000008152600401808060200182810382526044815260200180612b106044913960600191505060405180910390fd5b600380549050905090565b6000600560009054906101000a900473ffffffffffffffffffffffffffffffffffffffff1673ffffffffffffffffffffffffffffffffffffffff163373ffffffffffffffffffffffffffffffffffffffff1614611f21576040517f08c379a0000000000000000000000000000000000000000000000000000000008152600401808060200182810382526044815260200180612b106044913960600191505060405180910390fd5b600180549050905090565b60028181548110611f3c57600080fd5b906000526020600020016000915090508054600181600116156101000203166002900480601f016020809104026020016040519081016040528092919081815260200182805460018160011615610100020316600290048015611fe05780601f10611fb557610100808354040283529160200191611fe0565b820191906000526020600020905b815481529060010190602001808311611fc357829003601f168201915b505050505081565b606080606080600560009054906101000a900473ffffffffffffffffffffffffffffffffffffffff1673ffffffffffffffffffffffffffffffffffffffff163373ffffffffffffffffffffffffffffffffffffffff1614612094576040517f08c379a0000000000000000000000000000000000000000000000000000000008152600401808060200182810382526044815260200180612b106044913960600191505060405180910390fd5b6007856040518082805190602001908083835b602083106120ca57805182526020820191506020810190506020830392506120a7565b6001836020036101000a03801982511681845116808217855250505050505090500191505090815260200160405180910390206001016007866040518082805190602001908083835b602083106121365780518252602082019150602081019050602083039250612113565b6001836020036101000a03801982511681845116808217855250505050505090500191505090815260200160405180910390206002016007876040518082805190602001908083835b602083106121a2578051825260208201915060208101905060208303925061217f565b6001836020036101000a03801982511681845116808217855250505050505090500191505090815260200160405180910390206003016007886040518082805190602001908083835b6020831061220e57805182526020820191506020810190506020830392506121eb565b6001836020036101000a0380198251168184511680821785525050505050509050019150509081526020016040518091039020600401838054600181600116156101000203166002900480601f0160208091040260200160405190810160405280929190818152602001828054600181600116156101000203166002900480156122d95780601f106122ae576101008083540402835291602001916122d9565b820191906000526020600020905b8154815290600101906020018083116122bc57829003601f168201915b50505050509350828054600181600116156101000203166002900480601f0160208091040260200160405190810160405280929190818152602001828054600181600116156101000203166002900480156123755780601f1061234a57610100808354040283529160200191612375565b820191906000526020600020905b81548152906001019060200180831161235857829003601f168201915b50505050509250818054600181600116156101000203166002900480601f0160208091040260200160405190810160405280929190818152602001828054600181600116156101000203166002900480156124115780601f106123e657610100808354040283529160200191612411565b820191906000526020600020905b8154815290600101906020018083116123f457829003601f168201915b50505050509150808054600181600116156101000203166002900480601f0160208091040260200160405190810160405280929190818152602001828054600181600116156101000203166002900480156124ad5780601f10612482576101008083540402835291602001916124ad565b820191906000526020600020905b81548152906001019060200180831161249057829003601f168201915b5050505050905093509350935093509193509193565b7370f6714dca2f53a17558c5dff99d572959f77d9c73ffffffffffffffffffffffffffffffffffffffff163373ffffffffffffffffffffffffffffffffffffffff161461255b576040517f08c379a0000000000000000000000000000000000000000000000000000000008152600401808060200182810382526044815260200180612b106044913960600191505060405180910390fd5b80600560146101000a81548160ff02191690831515021790555050565b600781805160208101820180518482526020830160208501208183528095505050505050600091509050806000018054600181600116156101000203166002900480601f01602080910402602001604051908101604052809291908181526020018280546001816001161561010002031660029004801561263a5780601f1061260f5761010080835404028352916020019161263a565b820191906000526020600020905b81548152906001019060200180831161261d57829003601f168201915b505050505090806001018054600181600116156101000203166002900480601f0160208091040260200160405190810160405280929190818152602001828054600181600116156101000203166002900480156126d85780601f106126ad576101008083540402835291602001916126d8565b820191906000526020600020905b8154815290600101906020018083116126bb57829003601f168201915b505050505090806002018054600181600116156101000203166002900480601f0160208091040260200160405190810160405280929190818152602001828054600181600116156101000203166002900480156127765780601f1061274b57610100808354040283529160200191612776565b820191906000526020600020905b81548152906001019060200180831161275957829003601f168201915b505050505090806003018054600181600116156101000203166002900480601f0160208091040260200160405190810160405280929190818152602001828054600181600116156101000203166002900480156128145780601f106127e957610100808354040283529160200191612814565b820191906000526020600020905b8154815290600101906020018083116127f757829003601f168201915b505050505090806004018054600181600116156101000203166002900480601f0160208091040260200160405190810160405280929190818152602001828054600181600116156101000203166002900480156128b25780601f10612887576101008083540402835291602001916128b2565b820191906000526020600020905b81548152906001019060200180831161289557829003601f168201915b5050505050905085565b60006003805490509050806006846040518082805190602001908083835b602083106128fd57805182526020820191506020810190506020830392506128da565b6001836020036101000a03801982511681845116808217855250505050505090500191505090815260200160405180910390208190555060028290806001815401808255809150506001900390600052602060002001600090919091909150908051906020019061296f929190612a64565b506001839080600181540180825580915050600190039060005260206000200160009091909190915090805190602001906129ab929190612a64565b507fc9d3eebce49314de171aef180ee3d8275f98728488db5fe2835492be5b5a0556836040518080602001828103825283818151815260200191508051906020019080838360005b83811015612a0e5780820151818401526020810190506129f3565b50505050905090810190601f168015612a3b5780820380516001836020036101000a031916815260200191505b509250505060405180910390a1505050565b6000600560149054906101000a900460ff16905090565b828054600181600116156101000203166002900490600052602060002090601f016020900481019282612a9a5760008555612ae1565b82601f10612ab357805160ff1916838001178555612ae1565b82800160010185558215612ae1579182015b82811115612ae0578251825591602001919060010190612ac5565b5b509050612aee9190612af2565b5090565b5b80821115612b0b576000816000905550600101612af3565b509056fe4c2761647265736120717565206861207265616c69747a6174206c61206372696461206e6f20746520656c73207065726d6973736f732064652070726f7069657461742ea26469706673582212204b375045705149eee6117f2f77d376aee30629e39a360d143266547642916c7564736f6c63430007060033608060405234801561001057600080fd5b506040516107b63803806107b68339818101604052602081101561003357600080fd5b8101908080519060200190929190505050806000806101000a81548173ffffffffffffffffffffffffffffffffffffffff021916908373ffffffffffffffffffffffffffffffffffffffff16021790555030600160006101000a81548173ffffffffffffffffffffffffffffffffffffffff021916908373ffffffffffffffffffffffffffffffffffffffff160217905550506106e1806100d56000396000f3fe608060405234801561001057600080fd5b50600436106100415760003560e01c80632b68b9c614610046578063349d6f7c14610050578063893d20e81461023b575b600080fd5b61004e61026f565b005b6101c06004803603606081101561006657600080fd5b81019080803573ffffffffffffffffffffffffffffffffffffffff169060200190929190803590602001906401000000008111156100a357600080fd5b8201836020820111156100b557600080fd5b803590602001918460018302840111640100000000831117156100d757600080fd5b91908080601f016020809104026020016040519081016040528093929190818152602001838380828437600081840152601f19601f8201169050808301925050505050505091929192908035906020019064010000000081111561013a57600080fd5b82018360208201111561014c57600080fd5b8035906020019184600183028401116401000000008311171561016e57600080fd5b91908080601f016020809104026020016040519081016040528093929190818152602001838380828437600081840152601f19601f8201169050808301925050505050505091929192905050506102a8565b6040518080602001828103825283818151815260200191508051906020019080838360005b838110156102005780820151818401526020810190506101e5565b50505050905090810190601f16801561022d5780820380516001836020036101000a031916815260200191505b509250505060405180910390f35b610243610593565b604051808273ffffffffffffffffffffffffffffffffffffffff16815260200191505060405180910390f35b60008054906101000a900473ffffffffffffffffffffffffffffffffffffffff1673ffffffffffffffffffffffffffffffffffffffff16ff5b606060008054906101000a900473ffffffffffffffffffffffffffffffffffffffff1673ffffffffffffffffffffffffffffffffffffffff163373ffffffffffffffffffffffffffffffffffffffff161461034e576040517f08c379a00000000000000000000000000000000000000000000000000000000081526004018080602001828103825260448152602001806106686044913960600191505060405180910390fd5b82600290805190602001906103649291906105bc565b508373ffffffffffffffffffffffffffffffffffffffff1663f6a0576d84846040518363ffffffff1660e01b8152600401808060200180602001838103835285818151815260200191508051906020019080838360005b838110156103d65780820151818401526020810190506103bb565b50505050905090810190601f1680156104035780820380516001836020036101000a031916815260200191505b50838103825284818151815260200191508051906020019080838360005b8381101561043c578082015181840152602081019050610421565b50505050905090810190601f1680156104695780820380516001836020036101000a031916815260200191505b50945050505050600060405180830381600087803b15801561048a57600080fd5b505af115801561049e573d6000803e3d6000fd5b505050507ff3c2359da4b62ab6d95f9cbe80f73519366be835dff25574414cf316ecc00af784604051808273ffffffffffffffffffffffffffffffffffffffff16815260200191505060405180910390a160028054600181600116156101000203166002900480601f0160208091040260200160405190810160405280929190818152602001828054600181600116156101000203166002900480156105855780601f1061055a57610100808354040283529160200191610585565b820191906000526020600020905b81548152906001019060200180831161056857829003601f168201915b505050505090509392505050565b60008060009054906101000a900473ffffffffffffffffffffffffffffffffffffffff16905090565b828054600181600116156101000203166002900490600052602060002090601f0160209004810192826105f25760008555610639565b82601f1061060b57805160ff1916838001178555610639565b82800160010185558215610639579182015b8281111561063857825182559160200191906001019061061d565b5b509050610646919061064a565b5090565b5b8082111561066357600081600090555060010161064b565b509056fe4c2761647265736120717565206861207265616c69747a6174206c61206372696461206e6f20746520656c73207065726d6973736f732064652070726f7069657461742ea2646970667358221220ea423394efca85fa7c7ed499369f65545e10525b3bfb8340292b938767ee28b164736f6c634300070600334c2761647265736120717565206861207265616c69747a6174206c61206372696461206e6f20746520656c73207065726d6973736f732064652070726f7069657461742ea26469706673582212209f481f9a5b208d6a4b49e0c68d84ab4a75174f761e5927b3082fc1d6144ad13464736f6c63430007060033",
      "opcodes": "PUSH1 0x80 PUSH1 0x40 MSTORE PUSH20 0x70F6714DCA2F53A17558C5DFF99D572959F77D9C PUSH1 0x0 DUP1 PUSH2 0x100 EXP DUP2 SLOAD DUP2 PUSH20 0xFFFFFFFFFFFFFFFFFFFFFFFFFFFFFFFFFFFFFFFF MUL NOT AND SWAP1 DUP4 PUSH20 0xFFFFFFFFFFFFFFFFFFFFFFFFFFFFFFFFFFFFFFFF AND MUL OR SWAP1 SSTORE POP CALLVALUE DUP1 ISZERO PUSH2 0x64 JUMPI PUSH1 0x0 DUP1 REVERT JUMPDEST POP PUSH2 0x4DBB DUP1 PUSH2 0x74 PUSH1 0x0 CODECOPY PUSH1 0x0 RETURN INVALID PUSH1 0x80 PUSH1 0x40 MSTORE CALLVALUE DUP1 ISZERO PUSH3 0x11 JUMPI PUSH1 0x0 DUP1 REVERT JUMPDEST POP PUSH1 0x4 CALLDATASIZE LT PUSH3 0xE2 JUMPI PUSH1 0x0 CALLDATALOAD PUSH1 0xE0 SHR DUP1 PUSH4 0x94AF50E6 GT PUSH3 0x99 JUMPI DUP1 PUSH4 0xC0632116 GT PUSH3 0x6F JUMPI DUP1 PUSH4 0xC0632116 EQ PUSH3 0x678 JUMPI DUP1 PUSH4 0xCF64CD82 EQ PUSH3 0x6D3 JUMPI DUP1 PUSH4 0xEF0B39C4 EQ PUSH3 0x6F3 JUMPI DUP1 PUSH4 0xF4E7F8FA EQ PUSH3 0x74E JUMPI PUSH3 0xE2 JUMP JUMPDEST DUP1 PUSH4 0x94AF50E6 EQ PUSH3 0x4CB JUMPI DUP1 PUSH4 0x97ED6460 EQ PUSH3 0x51E JUMPI DUP1 PUSH4 0xA3D1594E EQ PUSH3 0x58F JUMPI PUSH3 0xE2 JUMP JUMPDEST DUP1 PUSH4 0xEA126F9 EQ PUSH3 0xE7 JUMPI DUP1 PUSH4 0x3BEFA1B8 EQ PUSH3 0x1F2 JUMPI DUP1 PUSH4 0x41FD25B3 EQ PUSH3 0x263 JUMPI DUP1 PUSH4 0x489C3483 EQ PUSH3 0x2C0 JUMPI DUP1 PUSH4 0x60259FE9 EQ PUSH3 0x3A1 JUMPI DUP1 PUSH4 0x887CA0D3 EQ PUSH3 0x408 JUMPI JUMPDEST PUSH1 0x0 DUP1 REVERT JUMPDEST PUSH3 0x1C6 PUSH1 0x4 DUP1 CALLDATASIZE SUB PUSH1 0x40 DUP2 LT ISZERO PUSH3 0xFF JUMPI PUSH1 0x0 DUP1 REVERT JUMPDEST DUP2 ADD SWAP1 DUP1 DUP1 CALLDATALOAD PUSH20 0xFFFFFFFFFFFFFFFFFFFFFFFFFFFFFFFFFFFFFFFF AND SWAP1 PUSH1 0x20 ADD SWAP1 SWAP3 SWAP2 SWAP1 DUP1 CALLDATALOAD SWAP1 PUSH1 0x20 ADD SWAP1 PUSH5 0x100000000 DUP2 GT ISZERO PUSH3 0x13D JUMPI PUSH1 0x0 DUP1 REVERT JUMPDEST DUP3 ADD DUP4 PUSH1 0x20 DUP3 ADD GT ISZERO PUSH3 0x150 JUMPI PUSH1 0x0 DUP1 REVERT JUMPDEST DUP1 CALLDATALOAD SWAP1 PUSH1 0x20 ADD SWAP2 DUP5 PUSH1 0x1 DUP4 MUL DUP5 ADD GT PUSH5 0x100000000 DUP4 GT OR ISZERO PUSH3 0x173 JUMPI PUSH1 0x0 DUP1 REVERT JUMPDEST SWAP2 SWAP1 DUP1 DUP1 PUSH1 0x1F ADD PUSH1 0x20 DUP1 SWAP2 DIV MUL PUSH1 0x20 ADD PUSH1 0x40 MLOAD SWAP1 DUP2 ADD PUSH1 0x40 MSTORE DUP1 SWAP4 SWAP3 SWAP2 SWAP1 DUP2 DUP2 MSTORE PUSH1 0x20 ADD DUP4 DUP4 DUP1 DUP3 DUP5 CALLDATACOPY PUSH1 0x0 DUP2 DUP5 ADD MSTORE PUSH1 0x1F NOT PUSH1 0x1F DUP3 ADD AND SWAP1 POP DUP1 DUP4 ADD SWAP3 POP POP POP POP POP POP POP SWAP2 SWAP3 SWAP2 SWAP3 SWAP1 POP POP POP PUSH3 0x7BF JUMP JUMPDEST PUSH1 0x40 MLOAD DUP1 DUP3 PUSH20 0xFFFFFFFFFFFFFFFFFFFFFFFFFFFFFFFFFFFFFFFF AND DUP2 MSTORE PUSH1 0x20 ADD SWAP2 POP POP PUSH1 0x40 MLOAD DUP1 SWAP2 SUB SWAP1 RETURN JUMPDEST PUSH3 0x237 PUSH1 0x4 DUP1 CALLDATASIZE SUB PUSH1 0x20 DUP2 LT ISZERO PUSH3 0x20A JUMPI PUSH1 0x0 DUP1 REVERT JUMPDEST DUP2 ADD SWAP1 DUP1 DUP1 CALLDATALOAD PUSH20 0xFFFFFFFFFFFFFFFFFFFFFFFFFFFFFFFFFFFFFFFF AND SWAP1 PUSH1 0x20 ADD SWAP1 SWAP3 SWAP2 SWAP1 POP POP POP PUSH3 0x9BF JUMP JUMPDEST PUSH1 0x40 MLOAD DUP1 DUP3 PUSH20 0xFFFFFFFFFFFFFFFFFFFFFFFFFFFFFFFFFFFFFFFF AND DUP2 MSTORE PUSH1 0x20 ADD SWAP2 POP POP PUSH1 0x40 MLOAD DUP1 SWAP2 SUB SWAP1 RETURN JUMPDEST PUSH3 0x2A8 PUSH1 0x4 DUP1 CALLDATASIZE SUB PUSH1 0x20 DUP2 LT ISZERO PUSH3 0x27B JUMPI PUSH1 0x0 DUP1 REVERT JUMPDEST DUP2 ADD SWAP1 DUP1 DUP1 CALLDATALOAD PUSH20 0xFFFFFFFFFFFFFFFFFFFFFFFFFFFFFFFFFFFFFFFF AND SWAP1 PUSH1 0x20 ADD SWAP1 SWAP3 SWAP2 SWAP1 POP POP POP PUSH3 0x9F2 JUMP JUMPDEST PUSH1 0x40 MLOAD DUP1 DUP3 ISZERO ISZERO DUP2 MSTORE PUSH1 0x20 ADD SWAP2 POP POP PUSH1 0x40 MLOAD DUP1 SWAP2 SUB SWAP1 RETURN JUMPDEST PUSH3 0x39F PUSH1 0x4 DUP1 CALLDATASIZE SUB PUSH1 0x40 DUP2 LT ISZERO PUSH3 0x2D8 JUMPI PUSH1 0x0 DUP1 REVERT JUMPDEST DUP2 ADD SWAP1 DUP1 DUP1 CALLDATALOAD PUSH20 0xFFFFFFFFFFFFFFFFFFFFFFFFFFFFFFFFFFFFFFFF AND SWAP1 PUSH1 0x20 ADD SWAP1 SWAP3 SWAP2 SWAP1 DUP1 CALLDATALOAD SWAP1 PUSH1 0x20 ADD SWAP1 PUSH5 0x100000000 DUP2 GT ISZERO PUSH3 0x316 JUMPI PUSH1 0x0 DUP1 REVERT JUMPDEST DUP3 ADD DUP4 PUSH1 0x20 DUP3 ADD GT ISZERO PUSH3 0x329 JUMPI PUSH1 0x0 DUP1 REVERT JUMPDEST DUP1 CALLDATALOAD SWAP1 PUSH1 0x20 ADD SWAP2 DUP5 PUSH1 0x1 DUP4 MUL DUP5 ADD GT PUSH5 0x100000000 DUP4 GT OR ISZERO PUSH3 0x34C JUMPI PUSH1 0x0 DUP1 REVERT JUMPDEST SWAP2 SWAP1 DUP1 DUP1 PUSH1 0x1F ADD PUSH1 0x20 DUP1 SWAP2 DIV MUL PUSH1 0x20 ADD PUSH1 0x40 MLOAD SWAP1 DUP2 ADD PUSH1 0x40 MSTORE DUP1 SWAP4 SWAP3 SWAP2 SWAP1 DUP2 DUP2 MSTORE PUSH1 0x20 ADD DUP4 DUP4 DUP1 DUP3 DUP5 CALLDATACOPY PUSH1 0x0 DUP2 DUP5 ADD MSTORE PUSH1 0x1F NOT PUSH1 0x1F DUP3 ADD AND SWAP1 POP DUP1 DUP4 ADD SWAP3 POP POP POP POP POP POP POP SWAP2 SWAP3 SWAP2 SWAP3 SWAP1 POP POP POP PUSH3 0xAF2 JUMP JUMPDEST STOP JUMPDEST PUSH3 0x406 PUSH1 0x4 DUP1 CALLDATASIZE SUB PUSH1 0x40 DUP2 LT ISZERO PUSH3 0x3B9 JUMPI PUSH1 0x0 DUP1 REVERT JUMPDEST DUP2 ADD SWAP1 DUP1 DUP1 CALLDATALOAD PUSH20 0xFFFFFFFFFFFFFFFFFFFFFFFFFFFFFFFFFFFFFFFF AND SWAP1 PUSH1 0x20 ADD SWAP1 SWAP3 SWAP2 SWAP1 DUP1 CALLDATALOAD PUSH20 0xFFFFFFFFFFFFFFFFFFFFFFFFFFFFFFFFFFFFFFFF AND SWAP1 PUSH1 0x20 ADD SWAP1 SWAP3 SWAP2 SWAP1 POP POP POP PUSH3 0xE3D JUMP JUMPDEST STOP JUMPDEST PUSH3 0x44D PUSH1 0x4 DUP1 CALLDATASIZE SUB PUSH1 0x20 DUP2 LT ISZERO PUSH3 0x420 JUMPI PUSH1 0x0 DUP1 REVERT JUMPDEST DUP2 ADD SWAP1 DUP1 DUP1 CALLDATALOAD PUSH20 0xFFFFFFFFFFFFFFFFFFFFFFFFFFFFFFFFFFFFFFFF AND SWAP1 PUSH1 0x20 ADD SWAP1 SWAP3 SWAP2 SWAP1 POP POP POP PUSH3 0xFA4 JUMP JUMPDEST PUSH1 0x40 MLOAD DUP1 DUP1 PUSH1 0x20 ADD DUP3 DUP2 SUB DUP3 MSTORE DUP4 DUP2 DUP2 MLOAD DUP2 MSTORE PUSH1 0x20 ADD SWAP2 POP DUP1 MLOAD SWAP1 PUSH1 0x20 ADD SWAP1 DUP1 DUP4 DUP4 PUSH1 0x0 JUMPDEST DUP4 DUP2 LT ISZERO PUSH3 0x48F JUMPI DUP1 DUP3 ADD MLOAD DUP2 DUP5 ADD MSTORE PUSH1 0x20 DUP2 ADD SWAP1 POP PUSH3 0x472 JUMP JUMPDEST POP POP POP POP SWAP1 POP SWAP1 DUP2 ADD SWAP1 PUSH1 0x1F AND DUP1 ISZERO PUSH3 0x4BD JUMPI DUP1 DUP3 SUB DUP1 MLOAD PUSH1 0x1 DUP4 PUSH1 0x20 SUB PUSH2 0x100 EXP SUB NOT AND DUP2 MSTORE PUSH1 0x20 ADD SWAP2 POP JUMPDEST POP SWAP3 POP POP POP PUSH1 0x40 MLOAD DUP1 SWAP2 SUB SWAP1 RETURN JUMPDEST PUSH3 0x51C PUSH1 0x4 DUP1 CALLDATASIZE SUB PUSH1 0x40 DUP2 LT ISZERO PUSH3 0x4E3 JUMPI PUSH1 0x0 DUP1 REVERT JUMPDEST DUP2 ADD SWAP1 DUP1 DUP1 CALLDATALOAD ISZERO ISZERO SWAP1 PUSH1 0x20 ADD SWAP1 SWAP3 SWAP2 SWAP1 DUP1 CALLDATALOAD PUSH20 0xFFFFFFFFFFFFFFFFFFFFFFFFFFFFFFFFFFFFFFFF AND SWAP1 PUSH1 0x20 ADD SWAP1 SWAP3 SWAP2 SWAP1 POP POP POP PUSH3 0x1132 JUMP JUMPDEST STOP JUMPDEST PUSH3 0x563 PUSH1 0x4 DUP1 CALLDATASIZE SUB PUSH1 0x20 DUP2 LT ISZERO PUSH3 0x536 JUMPI PUSH1 0x0 DUP1 REVERT JUMPDEST DUP2 ADD SWAP1 DUP1 DUP1 CALLDATALOAD PUSH20 0xFFFFFFFFFFFFFFFFFFFFFFFFFFFFFFFFFFFFFFFF AND SWAP1 PUSH1 0x20 ADD SWAP1 SWAP3 SWAP2 SWAP1 POP POP POP PUSH3 0x1307 JUMP JUMPDEST PUSH1 0x40 MLOAD DUP1 DUP3 PUSH20 0xFFFFFFFFFFFFFFFFFFFFFFFFFFFFFFFFFFFFFFFF AND DUP2 MSTORE PUSH1 0x20 ADD SWAP2 POP POP PUSH1 0x40 MLOAD DUP1 SWAP2 SUB SWAP1 RETURN JUMPDEST PUSH3 0x5D4 PUSH1 0x4 DUP1 CALLDATASIZE SUB PUSH1 0x20 DUP2 LT ISZERO PUSH3 0x5A7 JUMPI PUSH1 0x0 DUP1 REVERT JUMPDEST DUP2 ADD SWAP1 DUP1 DUP1 CALLDATALOAD PUSH20 0xFFFFFFFFFFFFFFFFFFFFFFFFFFFFFFFFFFFFFFFF AND SWAP1 PUSH1 0x20 ADD SWAP1 SWAP3 SWAP2 SWAP1 POP POP POP PUSH3 0x1373 JUMP JUMPDEST PUSH1 0x40 MLOAD DUP1 DUP1 PUSH1 0x20 ADD DUP5 ISZERO ISZERO DUP2 MSTORE PUSH1 0x20 ADD DUP4 PUSH20 0xFFFFFFFFFFFFFFFFFFFFFFFFFFFFFFFFFFFFFFFF AND DUP2 MSTORE PUSH1 0x20 ADD DUP3 DUP2 SUB DUP3 MSTORE DUP6 DUP2 DUP2 MLOAD DUP2 MSTORE PUSH1 0x20 ADD SWAP2 POP DUP1 MLOAD SWAP1 PUSH1 0x20 ADD SWAP1 DUP1 DUP4 DUP4 PUSH1 0x0 JUMPDEST DUP4 DUP2 LT ISZERO PUSH3 0x63A JUMPI DUP1 DUP3 ADD MLOAD DUP2 DUP5 ADD MSTORE PUSH1 0x20 DUP2 ADD SWAP1 POP PUSH3 0x61D JUMP JUMPDEST POP POP POP POP SWAP1 POP SWAP1 DUP2 ADD SWAP1 PUSH1 0x1F AND DUP1 ISZERO PUSH3 0x668 JUMPI DUP1 DUP3 SUB DUP1 MLOAD PUSH1 0x1 DUP4 PUSH1 0x20 SUB PUSH2 0x100 EXP SUB NOT AND DUP2 MSTORE PUSH1 0x20 ADD SWAP2 POP JUMPDEST POP SWAP5 POP POP POP POP POP PUSH1 0x40 MLOAD DUP1 SWAP2 SUB SWAP1 RETURN JUMPDEST PUSH3 0x6A7 PUSH1 0x4 DUP1 CALLDATASIZE SUB PUSH1 0x20 DUP2 LT ISZERO PUSH3 0x690 JUMPI PUSH1 0x0 DUP1 REVERT JUMPDEST DUP2 ADD SWAP1 DUP1 DUP1 CALLDATALOAD SWAP1 PUSH1 0x20 ADD SWAP1 SWAP3 SWAP2 SWAP1 POP POP POP PUSH3 0x1466 JUMP JUMPDEST PUSH1 0x40 MLOAD DUP1 DUP3 PUSH20 0xFFFFFFFFFFFFFFFFFFFFFFFFFFFFFFFFFFFFFFFF AND DUP2 MSTORE PUSH1 0x20 ADD SWAP2 POP POP PUSH1 0x40 MLOAD DUP1 SWAP2 SUB SWAP1 RETURN JUMPDEST PUSH3 0x6DD PUSH3 0x14A6 JUMP JUMPDEST PUSH1 0x40 MLOAD DUP1 DUP3 DUP2 MSTORE PUSH1 0x20 ADD SWAP2 POP POP PUSH1 0x40 MLOAD DUP1 SWAP2 SUB SWAP1 RETURN JUMPDEST PUSH3 0x722 PUSH1 0x4 DUP1 CALLDATASIZE SUB PUSH1 0x20 DUP2 LT ISZERO PUSH3 0x70B JUMPI PUSH1 0x0 DUP1 REVERT JUMPDEST DUP2 ADD SWAP1 DUP1 DUP1 CALLDATALOAD SWAP1 PUSH1 0x20 ADD SWAP1 SWAP3 SWAP2 SWAP1 POP POP POP PUSH3 0x155A JUMP JUMPDEST PUSH1 0x40 MLOAD DUP1 DUP3 PUSH20 0xFFFFFFFFFFFFFFFFFFFFFFFFFFFFFFFFFFFFFFFF AND DUP2 MSTORE PUSH1 0x20 ADD SWAP2 POP POP PUSH1 0x40 MLOAD DUP1 SWAP2 SUB SWAP1 RETURN JUMPDEST PUSH3 0x793 PUSH1 0x4 DUP1 CALLDATASIZE SUB PUSH1 0x20 DUP2 LT ISZERO PUSH3 0x766 JUMPI PUSH1 0x0 DUP1 REVERT JUMPDEST DUP2 ADD SWAP1 DUP1 DUP1 CALLDATALOAD PUSH20 0xFFFFFFFFFFFFFFFFFFFFFFFFFFFFFFFFFFFFFFFF AND SWAP1 PUSH1 0x20 ADD SWAP1 SWAP3 SWAP2 SWAP1 POP POP POP PUSH3 0x159A JUMP JUMPDEST PUSH1 0x40 MLOAD DUP1 DUP3 PUSH20 0xFFFFFFFFFFFFFFFFFFFFFFFFFFFFFFFFFFFFFFFF AND DUP2 MSTORE PUSH1 0x20 ADD SWAP2 POP POP PUSH1 0x40 MLOAD DUP1 SWAP2 SUB SWAP1 RETURN JUMPDEST PUSH1 0x0 DUP1 DUP4 SWAP1 POP PUSH1 0x0 DUP2 DUP5 PUSH1 0x40 MLOAD PUSH3 0x7D7 SWAP1 PUSH3 0x16AA JUMP JUMPDEST DUP1 DUP4 PUSH20 0xFFFFFFFFFFFFFFFFFFFFFFFFFFFFFFFFFFFFFFFF AND DUP2 MSTORE PUSH1 0x20 ADD DUP1 PUSH1 0x20 ADD DUP3 DUP2 SUB DUP3 MSTORE DUP4 DUP2 DUP2 MLOAD DUP2 MSTORE PUSH1 0x20 ADD SWAP2 POP DUP1 MLOAD SWAP1 PUSH1 0x20 ADD SWAP1 DUP1 DUP4 DUP4 PUSH1 0x0 JUMPDEST DUP4 DUP2 LT ISZERO PUSH3 0x832 JUMPI DUP1 DUP3 ADD MLOAD DUP2 DUP5 ADD MSTORE PUSH1 0x20 DUP2 ADD SWAP1 POP PUSH3 0x815 JUMP JUMPDEST POP POP POP POP SWAP1 POP SWAP1 DUP2 ADD SWAP1 PUSH1 0x1F AND DUP1 ISZERO PUSH3 0x860 JUMPI DUP1 DUP3 SUB DUP1 MLOAD PUSH1 0x1 DUP4 PUSH1 0x20 SUB PUSH2 0x100 EXP SUB NOT AND DUP2 MSTORE PUSH1 0x20 ADD SWAP2 POP JUMPDEST POP SWAP4 POP POP POP POP PUSH1 0x40 MLOAD DUP1 SWAP2 SUB SWAP1 PUSH1 0x0 CREATE DUP1 ISZERO DUP1 ISZERO PUSH3 0x883 JUMPI RETURNDATASIZE PUSH1 0x0 DUP1 RETURNDATACOPY RETURNDATASIZE PUSH1 0x0 REVERT JUMPDEST POP SWAP1 POP PUSH1 0x2 DUP3 SWAP1 DUP1 PUSH1 0x1 DUP2 SLOAD ADD DUP1 DUP3 SSTORE DUP1 SWAP2 POP POP PUSH1 0x1 SWAP1 SUB SWAP1 PUSH1 0x0 MSTORE PUSH1 0x20 PUSH1 0x0 KECCAK256 ADD PUSH1 0x0 SWAP1 SWAP2 SWAP1 SWAP2 SWAP1 SWAP2 PUSH2 0x100 EXP DUP2 SLOAD DUP2 PUSH20 0xFFFFFFFFFFFFFFFFFFFFFFFFFFFFFFFFFFFFFFFF MUL NOT AND SWAP1 DUP4 PUSH20 0xFFFFFFFFFFFFFFFFFFFFFFFFFFFFFFFFFFFFFFFF AND MUL OR SWAP1 SSTORE POP DUP1 PUSH1 0x4 PUSH1 0x0 DUP5 PUSH20 0xFFFFFFFFFFFFFFFFFFFFFFFFFFFFFFFFFFFFFFFF AND PUSH20 0xFFFFFFFFFFFFFFFFFFFFFFFFFFFFFFFFFFFFFFFF AND DUP2 MSTORE PUSH1 0x20 ADD SWAP1 DUP2 MSTORE PUSH1 0x20 ADD PUSH1 0x0 KECCAK256 PUSH1 0x0 PUSH2 0x100 EXP DUP2 SLOAD DUP2 PUSH20 0xFFFFFFFFFFFFFFFFFFFFFFFFFFFFFFFFFFFFFFFF MUL NOT AND SWAP1 DUP4 PUSH20 0xFFFFFFFFFFFFFFFFFFFFFFFFFFFFFFFFFFFFFFFF AND MUL OR SWAP1 SSTORE POP PUSH32 0x2449B149F88E6EB459A7D3AF8EA2C659FDF1499C81539604353C270F65908ACA DUP3 PUSH1 0x40 MLOAD DUP1 DUP3 PUSH20 0xFFFFFFFFFFFFFFFFFFFFFFFFFFFFFFFFFFFFFFFF AND DUP2 MSTORE PUSH1 0x20 ADD SWAP2 POP POP PUSH1 0x40 MLOAD DUP1 SWAP2 SUB SWAP1 LOG1 DUP1 SWAP3 POP POP POP SWAP3 SWAP2 POP POP JUMP JUMPDEST PUSH1 0x4 PUSH1 0x20 MSTORE DUP1 PUSH1 0x0 MSTORE PUSH1 0x40 PUSH1 0x0 KECCAK256 PUSH1 0x0 SWAP2 POP SLOAD SWAP1 PUSH2 0x100 EXP SWAP1 DIV PUSH20 0xFFFFFFFFFFFFFFFFFFFFFFFFFFFFFFFFFFFFFFFF AND DUP2 JUMP JUMPDEST PUSH1 0x0 DUP1 PUSH1 0x0 SWAP1 SLOAD SWAP1 PUSH2 0x100 EXP SWAP1 DIV PUSH20 0xFFFFFFFFFFFFFFFFFFFFFFFFFFFFFFFFFFFFFFFF AND PUSH20 0xFFFFFFFFFFFFFFFFFFFFFFFFFFFFFFFFFFFFFFFF AND CALLER PUSH20 0xFFFFFFFFFFFFFFFFFFFFFFFFFFFFFFFFFFFFFFFF AND EQ PUSH3 0xA9B JUMPI PUSH1 0x40 MLOAD PUSH32 0x8C379A000000000000000000000000000000000000000000000000000000000 DUP2 MSTORE PUSH1 0x4 ADD DUP1 DUP1 PUSH1 0x20 ADD DUP3 DUP2 SUB DUP3 MSTORE PUSH1 0x44 DUP2 MSTORE PUSH1 0x20 ADD DUP1 PUSH3 0x4D42 PUSH1 0x44 SWAP2 CODECOPY PUSH1 0x60 ADD SWAP2 POP POP PUSH1 0x40 MLOAD DUP1 SWAP2 SUB SWAP1 REVERT JUMPDEST PUSH1 0x3 PUSH1 0x0 DUP4 PUSH20 0xFFFFFFFFFFFFFFFFFFFFFFFFFFFFFFFFFFFFFFFF AND PUSH20 0xFFFFFFFFFFFFFFFFFFFFFFFFFFFFFFFFFFFFFFFF AND DUP2 MSTORE PUSH1 0x20 ADD SWAP1 DUP2 MSTORE PUSH1 0x20 ADD PUSH1 0x0 KECCAK256 PUSH1 0x1 ADD PUSH1 0x0 SWAP1 SLOAD SWAP1 PUSH2 0x100 EXP SWAP1 DIV PUSH1 0xFF AND SWAP1 POP SWAP2 SWAP1 POP JUMP JUMPDEST PUSH1 0x0 DUP1 SLOAD SWAP1 PUSH2 0x100 EXP SWAP1 DIV PUSH20 0xFFFFFFFFFFFFFFFFFFFFFFFFFFFFFFFFFFFFFFFF AND PUSH20 0xFFFFFFFFFFFFFFFFFFFFFFFFFFFFFFFFFFFFFFFF AND CALLER PUSH20 0xFFFFFFFFFFFFFFFFFFFFFFFFFFFFFFFFFFFFFFFF AND EQ PUSH3 0xB98 JUMPI PUSH1 0x40 MLOAD PUSH32 0x8C379A000000000000000000000000000000000000000000000000000000000 DUP2 MSTORE PUSH1 0x4 ADD DUP1 DUP1 PUSH1 0x20 ADD DUP3 DUP2 SUB DUP3 MSTORE PUSH1 0x44 DUP2 MSTORE PUSH1 0x20 ADD DUP1 PUSH3 0x4D42 PUSH1 0x44 SWAP2 CODECOPY PUSH1 0x60 ADD SWAP2 POP POP PUSH1 0x40 MLOAD DUP1 SWAP2 SUB SWAP1 REVERT JUMPDEST DUP2 PUSH1 0x40 MLOAD PUSH3 0xBA7 SWAP1 PUSH3 0x16B8 JUMP JUMPDEST DUP1 DUP3 PUSH20 0xFFFFFFFFFFFFFFFFFFFFFFFFFFFFFFFFFFFFFFFF AND DUP2 MSTORE PUSH1 0x20 ADD SWAP2 POP POP PUSH1 0x40 MLOAD DUP1 SWAP2 SUB SWAP1 PUSH1 0x0 CREATE DUP1 ISZERO DUP1 ISZERO PUSH3 0xBE4 JUMPI RETURNDATASIZE PUSH1 0x0 DUP1 RETURNDATACOPY RETURNDATASIZE PUSH1 0x0 REVERT JUMPDEST POP PUSH1 0x3 PUSH1 0x0 DUP5 PUSH20 0xFFFFFFFFFFFFFFFFFFFFFFFFFFFFFFFFFFFFFFFF AND PUSH20 0xFFFFFFFFFFFFFFFFFFFFFFFFFFFFFFFFFFFFFFFF AND DUP2 MSTORE PUSH1 0x20 ADD SWAP1 DUP2 MSTORE PUSH1 0x20 ADD PUSH1 0x0 KECCAK256 PUSH1 0x1 ADD PUSH1 0x1 PUSH2 0x100 EXP DUP2 SLOAD DUP2 PUSH20 0xFFFFFFFFFFFFFFFFFFFFFFFFFFFFFFFFFFFFFFFF MUL NOT AND SWAP1 DUP4 PUSH20 0xFFFFFFFFFFFFFFFFFFFFFFFFFFFFFFFFFFFFFFFF AND MUL OR SWAP1 SSTORE POP PUSH1 0x1 DUP3 SWAP1 DUP1 PUSH1 0x1 DUP2 SLOAD ADD DUP1 DUP3 SSTORE DUP1 SWAP2 POP POP PUSH1 0x1 SWAP1 SUB SWAP1 PUSH1 0x0 MSTORE PUSH1 0x20 PUSH1 0x0 KECCAK256 ADD PUSH1 0x0 SWAP1 SWAP2 SWAP1 SWAP2 SWAP1 SWAP2 PUSH2 0x100 EXP DUP2 SLOAD DUP2 PUSH20 0xFFFFFFFFFFFFFFFFFFFFFFFFFFFFFFFFFFFFFFFF MUL NOT AND SWAP1 DUP4 PUSH20 0xFFFFFFFFFFFFFFFFFFFFFFFFFFFFFFFFFFFFFFFF AND MUL OR SWAP1 SSTORE POP DUP1 PUSH1 0x3 PUSH1 0x0 DUP5 PUSH20 0xFFFFFFFFFFFFFFFFFFFFFFFFFFFFFFFFFFFFFFFF AND PUSH20 0xFFFFFFFFFFFFFFFFFFFFFFFFFFFFFFFFFFFFFFFF AND DUP2 MSTORE PUSH1 0x20 ADD SWAP1 DUP2 MSTORE PUSH1 0x20 ADD PUSH1 0x0 KECCAK256 PUSH1 0x0 ADD SWAP1 DUP1 MLOAD SWAP1 PUSH1 0x20 ADD SWAP1 PUSH3 0xD20 SWAP3 SWAP2 SWAP1 PUSH3 0x16C6 JUMP JUMPDEST POP PUSH1 0x1 PUSH1 0x3 PUSH1 0x0 DUP5 PUSH20 0xFFFFFFFFFFFFFFFFFFFFFFFFFFFFFFFFFFFFFFFF AND PUSH20 0xFFFFFFFFFFFFFFFFFFFFFFFFFFFFFFFFFFFFFFFF AND DUP2 MSTORE PUSH1 0x20 ADD SWAP1 DUP2 MSTORE PUSH1 0x20 ADD PUSH1 0x0 KECCAK256 PUSH1 0x1 ADD PUSH1 0x0 PUSH2 0x100 EXP DUP2 SLOAD DUP2 PUSH1 0xFF MUL NOT AND SWAP1 DUP4 ISZERO ISZERO MUL OR SWAP1 SSTORE POP PUSH32 0x681D10E7EF9B9B1C9955E8CFB39C8982D63B7F4185F90016E1E0FD8563D44F8C DUP2 DUP4 PUSH1 0x40 MLOAD DUP1 DUP1 PUSH1 0x20 ADD DUP4 PUSH20 0xFFFFFFFFFFFFFFFFFFFFFFFFFFFFFFFFFFFFFFFF AND DUP2 MSTORE PUSH1 0x20 ADD DUP3 DUP2 SUB DUP3 MSTORE DUP5 DUP2 DUP2 MLOAD DUP2 MSTORE PUSH1 0x20 ADD SWAP2 POP DUP1 MLOAD SWAP1 PUSH1 0x20 ADD SWAP1 DUP1 DUP4 DUP4 PUSH1 0x0 JUMPDEST DUP4 DUP2 LT ISZERO PUSH3 0xDFD JUMPI DUP1 DUP3 ADD MLOAD DUP2 DUP5 ADD MSTORE PUSH1 0x20 DUP2 ADD SWAP1 POP PUSH3 0xDE0 JUMP JUMPDEST POP POP POP POP SWAP1 POP SWAP1 DUP2 ADD SWAP1 PUSH1 0x1F AND DUP1 ISZERO PUSH3 0xE2B JUMPI DUP1 DUP3 SUB DUP1 MLOAD PUSH1 0x1 DUP4 PUSH1 0x20 SUB PUSH2 0x100 EXP SUB NOT AND DUP2 MSTORE PUSH1 0x20 ADD SWAP2 POP JUMPDEST POP SWAP4 POP POP POP POP PUSH1 0x40 MLOAD DUP1 SWAP2 SUB SWAP1 LOG1 POP POP JUMP JUMPDEST PUSH1 0x0 DUP1 SLOAD SWAP1 PUSH2 0x100 EXP SWAP1 DIV PUSH20 0xFFFFFFFFFFFFFFFFFFFFFFFFFFFFFFFFFFFFFFFF AND PUSH20 0xFFFFFFFFFFFFFFFFFFFFFFFFFFFFFFFFFFFFFFFF AND CALLER PUSH20 0xFFFFFFFFFFFFFFFFFFFFFFFFFFFFFFFFFFFFFFFF AND EQ PUSH3 0xEE3 JUMPI PUSH1 0x40 MLOAD PUSH32 0x8C379A000000000000000000000000000000000000000000000000000000000 DUP2 MSTORE PUSH1 0x4 ADD DUP1 DUP1 PUSH1 0x20 ADD DUP3 DUP2 SUB DUP3 MSTORE PUSH1 0x44 DUP2 MSTORE PUSH1 0x20 ADD DUP1 PUSH3 0x4D42 PUSH1 0x44 SWAP2 CODECOPY PUSH1 0x60 ADD SWAP2 POP POP PUSH1 0x40 MLOAD DUP1 SWAP2 SUB SWAP1 REVERT JUMPDEST PUSH1 0x0 PUSH1 0x3 PUSH1 0x0 DUP5 PUSH20 0xFFFFFFFFFFFFFFFFFFFFFFFFFFFFFFFFFFFFFFFF AND PUSH20 0xFFFFFFFFFFFFFFFFFFFFFFFFFFFFFFFFFFFFFFFF AND DUP2 MSTORE PUSH1 0x20 ADD SWAP1 DUP2 MSTORE PUSH1 0x20 ADD PUSH1 0x0 KECCAK256 PUSH1 0x1 ADD PUSH1 0x0 PUSH2 0x100 EXP DUP2 SLOAD DUP2 PUSH1 0xFF MUL NOT AND SWAP1 DUP4 ISZERO ISZERO MUL OR SWAP1 SSTORE POP DUP1 PUSH20 0xFFFFFFFFFFFFFFFFFFFFFFFFFFFFFFFFFFFFFFFF AND PUSH4 0x2B68B9C6 PUSH1 0x40 MLOAD DUP2 PUSH4 0xFFFFFFFF AND PUSH1 0xE0 SHL DUP2 MSTORE PUSH1 0x4 ADD PUSH1 0x0 PUSH1 0x40 MLOAD DUP1 DUP4 SUB DUP2 PUSH1 0x0 DUP8 DUP1 EXTCODESIZE ISZERO DUP1 ISZERO PUSH3 0xF87 JUMPI PUSH1 0x0 DUP1 REVERT JUMPDEST POP GAS CALL ISZERO DUP1 ISZERO PUSH3 0xF9C JUMPI RETURNDATASIZE PUSH1 0x0 DUP1 RETURNDATACOPY RETURNDATASIZE PUSH1 0x0 REVERT JUMPDEST POP POP POP POP POP POP JUMP JUMPDEST PUSH1 0x60 PUSH1 0x0 DUP1 SLOAD SWAP1 PUSH2 0x100 EXP SWAP1 DIV PUSH20 0xFFFFFFFFFFFFFFFFFFFFFFFFFFFFFFFFFFFFFFFF AND PUSH20 0xFFFFFFFFFFFFFFFFFFFFFFFFFFFFFFFFFFFFFFFF AND CALLER PUSH20 0xFFFFFFFFFFFFFFFFFFFFFFFFFFFFFFFFFFFFFFFF AND EQ PUSH3 0x104C JUMPI PUSH1 0x40 MLOAD PUSH32 0x8C379A000000000000000000000000000000000000000000000000000000000 DUP2 MSTORE PUSH1 0x4 ADD DUP1 DUP1 PUSH1 0x20 ADD DUP3 DUP2 SUB DUP3 MSTORE PUSH1 0x44 DUP2 MSTORE PUSH1 0x20 ADD DUP1 PUSH3 0x4D42 PUSH1 0x44 SWAP2 CODECOPY PUSH1 0x60 ADD SWAP2 POP POP PUSH1 0x40 MLOAD DUP1 SWAP2 SUB SWAP1 REVERT JUMPDEST PUSH1 0x3 PUSH1 0x0 DUP4 PUSH20 0xFFFFFFFFFFFFFFFFFFFFFFFFFFFFFFFFFFFFFFFF AND PUSH20 0xFFFFFFFFFFFFFFFFFFFFFFFFFFFFFFFFFFFFFFFF AND DUP2 MSTORE PUSH1 0x20 ADD SWAP1 DUP2 MSTORE PUSH1 0x20 ADD PUSH1 0x0 KECCAK256 PUSH1 0x0 ADD DUP1 SLOAD PUSH1 0x1 DUP2 PUSH1 0x1 AND ISZERO PUSH2 0x100 MUL SUB AND PUSH1 0x2 SWAP1 DIV DUP1 PUSH1 0x1F ADD PUSH1 0x20 DUP1 SWAP2 DIV MUL PUSH1 0x20 ADD PUSH1 0x40 MLOAD SWAP1 DUP2 ADD PUSH1 0x40 MSTORE DUP1 SWAP3 SWAP2 SWAP1 DUP2 DUP2 MSTORE PUSH1 0x20 ADD DUP3 DUP1 SLOAD PUSH1 0x1 DUP2 PUSH1 0x1 AND ISZERO PUSH2 0x100 MUL SUB AND PUSH1 0x2 SWAP1 DIV DUP1 ISZERO PUSH3 0x1126 JUMPI DUP1 PUSH1 0x1F LT PUSH3 0x10FA JUMPI PUSH2 0x100 DUP1 DUP4 SLOAD DIV MUL DUP4 MSTORE SWAP2 PUSH1 0x20 ADD SWAP2 PUSH3 0x1126 JUMP JUMPDEST DUP3 ADD SWAP2 SWAP1 PUSH1 0x0 MSTORE PUSH1 0x20 PUSH1 0x0 KECCAK256 SWAP1 JUMPDEST DUP2 SLOAD DUP2 MSTORE SWAP1 PUSH1 0x1 ADD SWAP1 PUSH1 0x20 ADD DUP1 DUP4 GT PUSH3 0x1108 JUMPI DUP3 SWAP1 SUB PUSH1 0x1F AND DUP3 ADD SWAP2 JUMPDEST POP POP POP POP POP SWAP1 POP SWAP2 SWAP1 POP JUMP JUMPDEST PUSH1 0x0 DUP1 SLOAD SWAP1 PUSH2 0x100 EXP SWAP1 DIV PUSH20 0xFFFFFFFFFFFFFFFFFFFFFFFFFFFFFFFFFFFFFFFF AND PUSH20 0xFFFFFFFFFFFFFFFFFFFFFFFFFFFFFFFFFFFFFFFF AND CALLER PUSH20 0xFFFFFFFFFFFFFFFFFFFFFFFFFFFFFFFFFFFFFFFF AND EQ PUSH3 0x11D8 JUMPI PUSH1 0x40 MLOAD PUSH32 0x8C379A000000000000000000000000000000000000000000000000000000000 DUP2 MSTORE PUSH1 0x4 ADD DUP1 DUP1 PUSH1 0x20 ADD DUP3 DUP2 SUB DUP3 MSTORE PUSH1 0x44 DUP2 MSTORE PUSH1 0x20 ADD DUP1 PUSH3 0x4D42 PUSH1 0x44 SWAP2 CODECOPY PUSH1 0x60 ADD SWAP2 POP POP PUSH1 0x40 MLOAD DUP1 SWAP2 SUB SWAP1 REVERT JUMPDEST PUSH1 0x0 PUSH1 0x4 PUSH1 0x0 DUP4 PUSH20 0xFFFFFFFFFFFFFFFFFFFFFFFFFFFFFFFFFFFFFFFF AND PUSH20 0xFFFFFFFFFFFFFFFFFFFFFFFFFFFFFFFFFFFFFFFF AND DUP2 MSTORE PUSH1 0x20 ADD SWAP1 DUP2 MSTORE PUSH1 0x20 ADD PUSH1 0x0 KECCAK256 PUSH1 0x0 SWAP1 SLOAD SWAP1 PUSH2 0x100 EXP SWAP1 DIV PUSH20 0xFFFFFFFFFFFFFFFFFFFFFFFFFFFFFFFFFFFFFFFF AND SWAP1 POP DUP1 PUSH20 0xFFFFFFFFFFFFFFFFFFFFFFFFFFFFFFFFFFFFFFFF AND PUSH4 0xDDFB2E26 DUP5 PUSH1 0x40 MLOAD DUP3 PUSH4 0xFFFFFFFF AND PUSH1 0xE0 SHL DUP2 MSTORE PUSH1 0x4 ADD DUP1 DUP3 ISZERO ISZERO DUP2 MSTORE PUSH1 0x20 ADD SWAP2 POP POP PUSH1 0x0 PUSH1 0x40 MLOAD DUP1 DUP4 SUB DUP2 PUSH1 0x0 DUP8 DUP1 EXTCODESIZE ISZERO DUP1 ISZERO PUSH3 0x1292 JUMPI PUSH1 0x0 DUP1 REVERT JUMPDEST POP GAS CALL ISZERO DUP1 ISZERO PUSH3 0x12A7 JUMPI RETURNDATASIZE PUSH1 0x0 DUP1 RETURNDATACOPY RETURNDATASIZE PUSH1 0x0 REVERT JUMPDEST POP POP POP POP PUSH32 0xFB1FE99BDD0AB633267CC6C574AA5521B20CBCB196B776B9D40B7D81F9AFC554 DUP3 DUP5 PUSH1 0x40 MLOAD DUP1 DUP4 PUSH20 0xFFFFFFFFFFFFFFFFFFFFFFFFFFFFFFFFFFFFFFFF AND DUP2 MSTORE PUSH1 0x20 ADD DUP3 ISZERO ISZERO DUP2 MSTORE PUSH1 0x20 ADD SWAP3 POP POP POP PUSH1 0x40 MLOAD DUP1 SWAP2 SUB SWAP1 LOG1 POP POP POP JUMP JUMPDEST PUSH1 0x0 PUSH1 0x3 PUSH1 0x0 DUP4 PUSH20 0xFFFFFFFFFFFFFFFFFFFFFFFFFFFFFFFFFFFFFFFF AND PUSH20 0xFFFFFFFFFFFFFFFFFFFFFFFFFFFFFFFFFFFFFFFF AND DUP2 MSTORE PUSH1 0x20 ADD SWAP1 DUP2 MSTORE PUSH1 0x20 ADD PUSH1 0x0 KECCAK256 PUSH1 0x1 ADD PUSH1 0x1 SWAP1 SLOAD SWAP1 PUSH2 0x100 EXP SWAP1 DIV PUSH20 0xFFFFFFFFFFFFFFFFFFFFFFFFFFFFFFFFFFFFFFFF AND SWAP1 POP SWAP2 SWAP1 POP JUMP JUMPDEST PUSH1 0x3 PUSH1 0x20 MSTORE DUP1 PUSH1 0x0 MSTORE PUSH1 0x40 PUSH1 0x0 KECCAK256 PUSH1 0x0 SWAP2 POP SWAP1 POP DUP1 PUSH1 0x0 ADD DUP1 SLOAD PUSH1 0x1 DUP2 PUSH1 0x1 AND ISZERO PUSH2 0x100 MUL SUB AND PUSH1 0x2 SWAP1 DIV DUP1 PUSH1 0x1F ADD PUSH1 0x20 DUP1 SWAP2 DIV MUL PUSH1 0x20 ADD PUSH1 0x40 MLOAD SWAP1 DUP2 ADD PUSH1 0x40 MSTORE DUP1 SWAP3 SWAP2 SWAP1 DUP2 DUP2 MSTORE PUSH1 0x20 ADD DUP3 DUP1 SLOAD PUSH1 0x1 DUP2 PUSH1 0x1 AND ISZERO PUSH2 0x100 MUL SUB AND PUSH1 0x2 SWAP1 DIV DUP1 ISZERO PUSH3 0x1423 JUMPI DUP1 PUSH1 0x1F LT PUSH3 0x13F7 JUMPI PUSH2 0x100 DUP1 DUP4 SLOAD DIV MUL DUP4 MSTORE SWAP2 PUSH1 0x20 ADD SWAP2 PUSH3 0x1423 JUMP JUMPDEST DUP3 ADD SWAP2 SWAP1 PUSH1 0x0 MSTORE PUSH1 0x20 PUSH1 0x0 KECCAK256 SWAP1 JUMPDEST DUP2 SLOAD DUP2 MSTORE SWAP1 PUSH1 0x1 ADD SWAP1 PUSH1 0x20 ADD DUP1 DUP4 GT PUSH3 0x1405 JUMPI DUP3 SWAP1 SUB PUSH1 0x1F AND DUP3 ADD SWAP2 JUMPDEST POP POP POP POP POP SWAP1 DUP1 PUSH1 0x1 ADD PUSH1 0x0 SWAP1 SLOAD SWAP1 PUSH2 0x100 EXP SWAP1 DIV PUSH1 0xFF AND SWAP1 DUP1 PUSH1 0x1 ADD PUSH1 0x1 SWAP1 SLOAD SWAP1 PUSH2 0x100 EXP SWAP1 DIV PUSH20 0xFFFFFFFFFFFFFFFFFFFFFFFFFFFFFFFFFFFFFFFF AND SWAP1 POP DUP4 JUMP JUMPDEST PUSH1 0x1 DUP2 DUP2 SLOAD DUP2 LT PUSH3 0x1477 JUMPI PUSH1 0x0 DUP1 REVERT JUMPDEST SWAP1 PUSH1 0x0 MSTORE PUSH1 0x20 PUSH1 0x0 KECCAK256 ADD PUSH1 0x0 SWAP2 POP SLOAD SWAP1 PUSH2 0x100 EXP SWAP1 DIV PUSH20 0xFFFFFFFFFFFFFFFFFFFFFFFFFFFFFFFFFFFFFFFF AND DUP2 JUMP JUMPDEST PUSH1 0x0 DUP1 PUSH1 0x0 SWAP1 SLOAD SWAP1 PUSH2 0x100 EXP SWAP1 DIV PUSH20 0xFFFFFFFFFFFFFFFFFFFFFFFFFFFFFFFFFFFFFFFF AND PUSH20 0xFFFFFFFFFFFFFFFFFFFFFFFFFFFFFFFFFFFFFFFF AND CALLER PUSH20 0xFFFFFFFFFFFFFFFFFFFFFFFFFFFFFFFFFFFFFFFF AND EQ PUSH3 0x154F JUMPI PUSH1 0x40 MLOAD PUSH32 0x8C379A000000000000000000000000000000000000000000000000000000000 DUP2 MSTORE PUSH1 0x4 ADD DUP1 DUP1 PUSH1 0x20 ADD DUP3 DUP2 SUB DUP3 MSTORE PUSH1 0x44 DUP2 MSTORE PUSH1 0x20 ADD DUP1 PUSH3 0x4D42 PUSH1 0x44 SWAP2 CODECOPY PUSH1 0x60 ADD SWAP2 POP POP PUSH1 0x40 MLOAD DUP1 SWAP2 SUB SWAP1 REVERT JUMPDEST PUSH1 0x1 DUP1 SLOAD SWAP1 POP SWAP1 POP SWAP1 JUMP JUMPDEST PUSH1 0x2 DUP2 DUP2 SLOAD DUP2 LT PUSH3 0x156B JUMPI PUSH1 0x0 DUP1 REVERT JUMPDEST SWAP1 PUSH1 0x0 MSTORE PUSH1 0x20 PUSH1 0x0 KECCAK256 ADD PUSH1 0x0 SWAP2 POP SLOAD SWAP1 PUSH2 0x100 EXP SWAP1 DIV PUSH20 0xFFFFFFFFFFFFFFFFFFFFFFFFFFFFFFFFFFFFFFFF AND DUP2 JUMP JUMPDEST PUSH1 0x0 DUP1 PUSH1 0x0 SWAP1 SLOAD SWAP1 PUSH2 0x100 EXP SWAP1 DIV PUSH20 0xFFFFFFFFFFFFFFFFFFFFFFFFFFFFFFFFFFFFFFFF AND PUSH20 0xFFFFFFFFFFFFFFFFFFFFFFFFFFFFFFFFFFFFFFFF AND CALLER PUSH20 0xFFFFFFFFFFFFFFFFFFFFFFFFFFFFFFFFFFFFFFFF AND EQ PUSH3 0x1643 JUMPI PUSH1 0x40 MLOAD PUSH32 0x8C379A000000000000000000000000000000000000000000000000000000000 DUP2 MSTORE PUSH1 0x4 ADD DUP1 DUP1 PUSH1 0x20 ADD DUP3 DUP2 SUB DUP3 MSTORE PUSH1 0x44 DUP2 MSTORE PUSH1 0x20 ADD DUP1 PUSH3 0x4D42 PUSH1 0x44 SWAP2 CODECOPY PUSH1 0x60 ADD SWAP2 POP POP PUSH1 0x40 MLOAD DUP1 SWAP2 SUB SWAP1 REVERT JUMPDEST PUSH1 0x4 PUSH1 0x0 DUP4 PUSH20 0xFFFFFFFFFFFFFFFFFFFFFFFFFFFFFFFFFFFFFFFF AND PUSH20 0xFFFFFFFFFFFFFFFFFFFFFFFFFFFFFFFFFFFFFFFF AND DUP2 MSTORE PUSH1 0x20 ADD SWAP1 DUP2 MSTORE PUSH1 0x20 ADD PUSH1 0x0 KECCAK256 PUSH1 0x0 SWAP1 SLOAD SWAP1 PUSH2 0x100 EXP SWAP1 DIV PUSH20 0xFFFFFFFFFFFFFFFFFFFFFFFFFFFFFFFFFFFFFFFF AND SWAP1 POP SWAP2 SWAP1 POP JUMP JUMPDEST PUSH2 0x2E0F DUP1 PUSH3 0x177D DUP4 CODECOPY ADD SWAP1 JUMP JUMPDEST PUSH2 0x7B6 DUP1 PUSH3 0x458C DUP4 CODECOPY ADD SWAP1 JUMP JUMPDEST DUP3 DUP1 SLOAD PUSH1 0x1 DUP2 PUSH1 0x1 AND ISZERO PUSH2 0x100 MUL SUB AND PUSH1 0x2 SWAP1 DIV SWAP1 PUSH1 0x0 MSTORE PUSH1 0x20 PUSH1 0x0 KECCAK256 SWAP1 PUSH1 0x1F ADD PUSH1 0x20 SWAP1 DIV DUP2 ADD SWAP3 DUP3 PUSH3 0x16FE JUMPI PUSH1 0x0 DUP6 SSTORE PUSH3 0x174A JUMP JUMPDEST DUP3 PUSH1 0x1F LT PUSH3 0x1719 JUMPI DUP1 MLOAD PUSH1 0xFF NOT AND DUP4 DUP1 ADD OR DUP6 SSTORE PUSH3 0x174A JUMP JUMPDEST DUP3 DUP1 ADD PUSH1 0x1 ADD DUP6 SSTORE DUP3 ISZERO PUSH3 0x174A JUMPI SWAP2 DUP3 ADD JUMPDEST DUP3 DUP2 GT ISZERO PUSH3 0x1749 JUMPI DUP3 MLOAD DUP3 SSTORE SWAP2 PUSH1 0x20 ADD SWAP2 SWAP1 PUSH1 0x1 ADD SWAP1 PUSH3 0x172C JUMP JUMPDEST JUMPDEST POP SWAP1 POP PUSH3 0x1759 SWAP2 SWAP1 PUSH3 0x175D JUMP JUMPDEST POP SWAP1 JUMP JUMPDEST JUMPDEST DUP1 DUP3 GT ISZERO PUSH3 0x1778 JUMPI PUSH1 0x0 DUP2 PUSH1 0x0 SWAP1 SSTORE POP PUSH1 0x1 ADD PUSH3 0x175E JUMP JUMPDEST POP SWAP1 JUMP INVALID PUSH1 0x80 PUSH1 0x40 MSTORE CALLVALUE DUP1 ISZERO PUSH3 0x11 JUMPI PUSH1 0x0 DUP1 REVERT JUMPDEST POP PUSH1 0x40 MLOAD PUSH3 0x2E0F CODESIZE SUB DUP1 PUSH3 0x2E0F DUP4 CODECOPY DUP2 DUP2 ADD PUSH1 0x40 MSTORE PUSH1 0x40 DUP2 LT ISZERO PUSH3 0x37 JUMPI PUSH1 0x0 DUP1 REVERT JUMPDEST DUP2 ADD SWAP1 DUP1 DUP1 MLOAD SWAP1 PUSH1 0x20 ADD SWAP1 SWAP3 SWAP2 SWAP1 DUP1 MLOAD PUSH1 0x40 MLOAD SWAP4 SWAP3 SWAP2 SWAP1 DUP5 PUSH5 0x100000000 DUP3 GT ISZERO PUSH3 0x62 JUMPI PUSH1 0x0 DUP1 REVERT JUMPDEST DUP4 DUP3 ADD SWAP2 POP PUSH1 0x20 DUP3 ADD DUP6 DUP2 GT ISZERO PUSH3 0x79 JUMPI PUSH1 0x0 DUP1 REVERT JUMPDEST DUP3 MLOAD DUP7 PUSH1 0x1 DUP3 MUL DUP4 ADD GT PUSH5 0x100000000 DUP3 GT OR ISZERO PUSH3 0x97 JUMPI PUSH1 0x0 DUP1 REVERT JUMPDEST DUP1 DUP4 MSTORE PUSH1 0x20 DUP4 ADD SWAP3 POP POP POP SWAP1 DUP1 MLOAD SWAP1 PUSH1 0x20 ADD SWAP1 DUP1 DUP4 DUP4 PUSH1 0x0 JUMPDEST DUP4 DUP2 LT ISZERO PUSH3 0xCD JUMPI DUP1 DUP3 ADD MLOAD DUP2 DUP5 ADD MSTORE PUSH1 0x20 DUP2 ADD SWAP1 POP PUSH3 0xB0 JUMP JUMPDEST POP POP POP POP SWAP1 POP SWAP1 DUP2 ADD SWAP1 PUSH1 0x1F AND DUP1 ISZERO PUSH3 0xFB JUMPI DUP1 DUP3 SUB DUP1 MLOAD PUSH1 0x1 DUP4 PUSH1 0x20 SUB PUSH2 0x100 EXP SUB NOT AND DUP2 MSTORE PUSH1 0x20 ADD SWAP2 POP JUMPDEST POP PUSH1 0x40 MSTORE POP POP POP DUP2 PUSH1 0x5 PUSH1 0x0 PUSH2 0x100 EXP DUP2 SLOAD DUP2 PUSH20 0xFFFFFFFFFFFFFFFFFFFFFFFFFFFFFFFFFFFFFFFF MUL NOT AND SWAP1 DUP4 PUSH20 0xFFFFFFFFFFFFFFFFFFFFFFFFFFFFFFFFFFFFFFFF AND MUL OR SWAP1 SSTORE POP ADDRESS PUSH1 0x4 PUSH1 0x0 PUSH2 0x100 EXP DUP2 SLOAD DUP2 PUSH20 0xFFFFFFFFFFFFFFFFFFFFFFFFFFFFFFFFFFFFFFFF MUL NOT AND SWAP1 DUP4 PUSH20 0xFFFFFFFFFFFFFFFFFFFFFFFFFFFFFFFFFFFFFFFF AND MUL OR SWAP1 SSTORE POP DUP1 PUSH1 0x0 SWAP1 DUP1 MLOAD SWAP1 PUSH1 0x20 ADD SWAP1 PUSH3 0x19C SWAP3 SWAP2 SWAP1 PUSH3 0x1C0 JUMP JUMPDEST POP PUSH1 0x0 PUSH1 0x5 PUSH1 0x14 PUSH2 0x100 EXP DUP2 SLOAD DUP2 PUSH1 0xFF MUL NOT AND SWAP1 DUP4 ISZERO ISZERO MUL OR SWAP1 SSTORE POP POP POP PUSH3 0x276 JUMP JUMPDEST DUP3 DUP1 SLOAD PUSH1 0x1 DUP2 PUSH1 0x1 AND ISZERO PUSH2 0x100 MUL SUB AND PUSH1 0x2 SWAP1 DIV SWAP1 PUSH1 0x0 MSTORE PUSH1 0x20 PUSH1 0x0 KECCAK256 SWAP1 PUSH1 0x1F ADD PUSH1 0x20 SWAP1 DIV DUP2 ADD SWAP3 DUP3 PUSH3 0x1F8 JUMPI PUSH1 0x0 DUP6 SSTORE PUSH3 0x244 JUMP JUMPDEST DUP3 PUSH1 0x1F LT PUSH3 0x213 JUMPI DUP1 MLOAD PUSH1 0xFF NOT AND DUP4 DUP1 ADD OR DUP6 SSTORE PUSH3 0x244 JUMP JUMPDEST DUP3 DUP1 ADD PUSH1 0x1 ADD DUP6 SSTORE DUP3 ISZERO PUSH3 0x244 JUMPI SWAP2 DUP3 ADD JUMPDEST DUP3 DUP2 GT ISZERO PUSH3 0x243 JUMPI DUP3 MLOAD DUP3 SSTORE SWAP2 PUSH1 0x20 ADD SWAP2 SWAP1 PUSH1 0x1 ADD SWAP1 PUSH3 0x226 JUMP JUMPDEST JUMPDEST POP SWAP1 POP PUSH3 0x253 SWAP2 SWAP1 PUSH3 0x257 JUMP JUMPDEST POP SWAP1 JUMP JUMPDEST JUMPDEST DUP1 DUP3 GT ISZERO PUSH3 0x272 JUMPI PUSH1 0x0 DUP2 PUSH1 0x0 SWAP1 SSTORE POP PUSH1 0x1 ADD PUSH3 0x258 JUMP JUMPDEST POP SWAP1 JUMP JUMPDEST PUSH2 0x2B89 DUP1 PUSH3 0x286 PUSH1 0x0 CODECOPY PUSH1 0x0 RETURN INVALID PUSH1 0x80 PUSH1 0x40 MSTORE CALLVALUE DUP1 ISZERO PUSH2 0x10 JUMPI PUSH1 0x0 DUP1 REVERT JUMPDEST POP PUSH1 0x4 CALLDATASIZE LT PUSH2 0x121 JUMPI PUSH1 0x0 CALLDATALOAD PUSH1 0xE0 SHR DUP1 PUSH4 0x7769EF3A GT PUSH2 0xAD JUMPI DUP1 PUSH4 0xD74143F2 GT PUSH2 0x71 JUMPI DUP1 PUSH4 0xD74143F2 EQ PUSH2 0xB73 JUMPI DUP1 PUSH4 0xDDFB2E26 EQ PUSH2 0xDEB JUMPI DUP1 PUSH4 0xE2626CCA EQ PUSH2 0xE1B JUMPI DUP1 PUSH4 0xF6A0576D EQ PUSH2 0x10FF JUMPI DUP1 PUSH4 0xFF200D2B EQ PUSH2 0x1251 JUMPI PUSH2 0x121 JUMP JUMPDEST DUP1 PUSH4 0x7769EF3A EQ PUSH2 0x8F2 JUMPI DUP1 PUSH4 0x8B5FEC8F EQ PUSH2 0x9C1 JUMPI DUP1 PUSH4 0x91AACB01 EQ PUSH2 0xA90 JUMPI DUP1 PUSH4 0xB07CE2A0 EQ PUSH2 0xAAE JUMPI DUP1 PUSH4 0xD12399E9 EQ PUSH2 0xACC JUMPI PUSH2 0x121 JUMP JUMPDEST DUP1 PUSH4 0x45419B71 GT PUSH2 0xF4 JUMPI DUP1 PUSH4 0x45419B71 EQ PUSH2 0x34F JUMPI DUP1 PUSH4 0x4AD02EF1 EQ PUSH2 0x3F6 JUMPI DUP1 PUSH4 0x5F3D3753 EQ PUSH2 0x479 JUMPI DUP1 PUSH4 0x6839BAB0 EQ PUSH2 0x534 JUMPI DUP1 PUSH4 0x69B4431E EQ PUSH2 0x84B JUMPI PUSH2 0x121 JUMP JUMPDEST DUP1 PUSH4 0x23389C5A EQ PUSH2 0x126 JUMPI DUP1 PUSH4 0x30348B25 EQ PUSH2 0x1CD JUMPI DUP1 PUSH4 0x32A2C5D0 EQ PUSH2 0x274 JUMPI DUP1 PUSH4 0x36B6FD0C EQ PUSH2 0x2A8 JUMPI JUMPDEST PUSH1 0x0 DUP1 REVERT JUMPDEST PUSH2 0x152 PUSH1 0x4 DUP1 CALLDATASIZE SUB PUSH1 0x20 DUP2 LT ISZERO PUSH2 0x13C JUMPI PUSH1 0x0 DUP1 REVERT JUMPDEST DUP2 ADD SWAP1 DUP1 DUP1 CALLDATALOAD SWAP1 PUSH1 0x20 ADD SWAP1 SWAP3 SWAP2 SWAP1 POP POP POP PUSH2 0x1271 JUMP JUMPDEST PUSH1 0x40 MLOAD DUP1 DUP1 PUSH1 0x20 ADD DUP3 DUP2 SUB DUP3 MSTORE DUP4 DUP2 DUP2 MLOAD DUP2 MSTORE PUSH1 0x20 ADD SWAP2 POP DUP1 MLOAD SWAP1 PUSH1 0x20 ADD SWAP1 DUP1 DUP4 DUP4 PUSH1 0x0 JUMPDEST DUP4 DUP2 LT ISZERO PUSH2 0x192 JUMPI DUP1 DUP3 ADD MLOAD DUP2 DUP5 ADD MSTORE PUSH1 0x20 DUP2 ADD SWAP1 POP PUSH2 0x177 JUMP JUMPDEST POP POP POP POP SWAP1 POP SWAP1 DUP2 ADD SWAP1 PUSH1 0x1F AND DUP1 ISZERO PUSH2 0x1BF JUMPI DUP1 DUP3 SUB DUP1 MLOAD PUSH1 0x1 DUP4 PUSH1 0x20 SUB PUSH2 0x100 EXP SUB NOT AND DUP2 MSTORE PUSH1 0x20 ADD SWAP2 POP JUMPDEST POP SWAP3 POP POP POP PUSH1 0x40 MLOAD DUP1 SWAP2 SUB SWAP1 RETURN JUMPDEST PUSH2 0x1F9 PUSH1 0x4 DUP1 CALLDATASIZE SUB PUSH1 0x20 DUP2 LT ISZERO PUSH2 0x1E3 JUMPI PUSH1 0x0 DUP1 REVERT JUMPDEST DUP2 ADD SWAP1 DUP1 DUP1 CALLDATALOAD SWAP1 PUSH1 0x20 ADD SWAP1 SWAP3 SWAP2 SWAP1 POP POP POP PUSH2 0x132D JUMP JUMPDEST PUSH1 0x40 MLOAD DUP1 DUP1 PUSH1 0x20 ADD DUP3 DUP2 SUB DUP3 MSTORE DUP4 DUP2 DUP2 MLOAD DUP2 MSTORE PUSH1 0x20 ADD SWAP2 POP DUP1 MLOAD SWAP1 PUSH1 0x20 ADD SWAP1 DUP1 DUP4 DUP4 PUSH1 0x0 JUMPDEST DUP4 DUP2 LT ISZERO PUSH2 0x239 JUMPI DUP1 DUP3 ADD MLOAD DUP2 DUP5 ADD MSTORE PUSH1 0x20 DUP2 ADD SWAP1 POP PUSH2 0x21E JUMP JUMPDEST POP POP POP POP SWAP1 POP SWAP1 DUP2 ADD SWAP1 PUSH1 0x1F AND DUP1 ISZERO PUSH2 0x266 JUMPI DUP1 DUP3 SUB DUP1 MLOAD PUSH1 0x1 DUP4 PUSH1 0x20 SUB PUSH2 0x100 EXP SUB NOT AND DUP2 MSTORE PUSH1 0x20 ADD SWAP2 POP JUMPDEST POP SWAP3 POP POP POP PUSH1 0x40 MLOAD DUP1 SWAP2 SUB SWAP1 RETURN JUMPDEST PUSH2 0x27C PUSH2 0x148C JUMP JUMPDEST PUSH1 0x40 MLOAD DUP1 DUP3 PUSH20 0xFFFFFFFFFFFFFFFFFFFFFFFFFFFFFFFFFFFFFFFF AND DUP2 MSTORE PUSH1 0x20 ADD SWAP2 POP POP PUSH1 0x40 MLOAD DUP1 SWAP2 SUB SWAP1 RETURN JUMPDEST PUSH2 0x2D4 PUSH1 0x4 DUP1 CALLDATASIZE SUB PUSH1 0x20 DUP2 LT ISZERO PUSH2 0x2BE JUMPI PUSH1 0x0 DUP1 REVERT JUMPDEST DUP2 ADD SWAP1 DUP1 DUP1 CALLDATALOAD SWAP1 PUSH1 0x20 ADD SWAP1 SWAP3 SWAP2 SWAP1 POP POP POP PUSH2 0x155C JUMP JUMPDEST PUSH1 0x40 MLOAD DUP1 DUP1 PUSH1 0x20 ADD DUP3 DUP2 SUB DUP3 MSTORE DUP4 DUP2 DUP2 MLOAD DUP2 MSTORE PUSH1 0x20 ADD SWAP2 POP DUP1 MLOAD SWAP1 PUSH1 0x20 ADD SWAP1 DUP1 DUP4 DUP4 PUSH1 0x0 JUMPDEST DUP4 DUP2 LT ISZERO PUSH2 0x314 JUMPI DUP1 DUP3 ADD MLOAD DUP2 DUP5 ADD MSTORE PUSH1 0x20 DUP2 ADD SWAP1 POP PUSH2 0x2F9 JUMP JUMPDEST POP POP POP POP SWAP1 POP SWAP1 DUP2 ADD SWAP1 PUSH1 0x1F AND DUP1 ISZERO PUSH2 0x341 JUMPI DUP1 DUP3 SUB DUP1 MLOAD PUSH1 0x1 DUP4 PUSH1 0x20 SUB PUSH2 0x100 EXP SUB NOT AND DUP2 MSTORE PUSH1 0x20 ADD SWAP2 POP JUMPDEST POP SWAP3 POP POP POP PUSH1 0x40 MLOAD DUP1 SWAP2 SUB SWAP1 RETURN JUMPDEST PUSH2 0x37B PUSH1 0x4 DUP1 CALLDATASIZE SUB PUSH1 0x20 DUP2 LT ISZERO PUSH2 0x365 JUMPI PUSH1 0x0 DUP1 REVERT JUMPDEST DUP2 ADD SWAP1 DUP1 DUP1 CALLDATALOAD SWAP1 PUSH1 0x20 ADD SWAP1 SWAP3 SWAP2 SWAP1 POP POP POP PUSH2 0x16BB JUMP JUMPDEST PUSH1 0x40 MLOAD DUP1 DUP1 PUSH1 0x20 ADD DUP3 DUP2 SUB DUP3 MSTORE DUP4 DUP2 DUP2 MLOAD DUP2 MSTORE PUSH1 0x20 ADD SWAP2 POP DUP1 MLOAD SWAP1 PUSH1 0x20 ADD SWAP1 DUP1 DUP4 DUP4 PUSH1 0x0 JUMPDEST DUP4 DUP2 LT ISZERO PUSH2 0x3BB JUMPI DUP1 DUP3 ADD MLOAD DUP2 DUP5 ADD MSTORE PUSH1 0x20 DUP2 ADD SWAP1 POP PUSH2 0x3A0 JUMP JUMPDEST POP POP POP POP SWAP1 POP SWAP1 DUP2 ADD SWAP1 PUSH1 0x1F AND DUP1 ISZERO PUSH2 0x3E8 JUMPI DUP1 DUP3 SUB DUP1 MLOAD PUSH1 0x1 DUP4 PUSH1 0x20 SUB PUSH2 0x100 EXP SUB NOT AND DUP2 MSTORE PUSH1 0x20 ADD SWAP2 POP JUMPDEST POP SWAP3 POP POP POP PUSH1 0x40 MLOAD DUP1 SWAP2 SUB SWAP1 RETURN JUMPDEST PUSH2 0x3FE PUSH2 0x1777 JUMP JUMPDEST PUSH1 0x40 MLOAD DUP1 DUP1 PUSH1 0x20 ADD DUP3 DUP2 SUB DUP3 MSTORE DUP4 DUP2 DUP2 MLOAD DUP2 MSTORE PUSH1 0x20 ADD SWAP2 POP DUP1 MLOAD SWAP1 PUSH1 0x20 ADD SWAP1 DUP1 DUP4 DUP4 PUSH1 0x0 JUMPDEST DUP4 DUP2 LT ISZERO PUSH2 0x43E JUMPI DUP1 DUP3 ADD MLOAD DUP2 DUP5 ADD MSTORE PUSH1 0x20 DUP2 ADD SWAP1 POP PUSH2 0x423 JUMP JUMPDEST POP POP POP POP SWAP1 POP SWAP1 DUP2 ADD SWAP1 PUSH1 0x1F AND DUP1 ISZERO PUSH2 0x46B JUMPI DUP1 DUP3 SUB DUP1 MLOAD PUSH1 0x1 DUP4 PUSH1 0x20 SUB PUSH2 0x100 EXP SUB NOT AND DUP2 MSTORE PUSH1 0x20 ADD SWAP2 POP JUMPDEST POP SWAP3 POP POP POP PUSH1 0x40 MLOAD DUP1 SWAP2 SUB SWAP1 RETURN JUMPDEST PUSH2 0x532 PUSH1 0x4 DUP1 CALLDATASIZE SUB PUSH1 0x20 DUP2 LT ISZERO PUSH2 0x48F JUMPI PUSH1 0x0 DUP1 REVERT JUMPDEST DUP2 ADD SWAP1 DUP1 DUP1 CALLDATALOAD SWAP1 PUSH1 0x20 ADD SWAP1 PUSH5 0x100000000 DUP2 GT ISZERO PUSH2 0x4AC JUMPI PUSH1 0x0 DUP1 REVERT JUMPDEST DUP3 ADD DUP4 PUSH1 0x20 DUP3 ADD GT ISZERO PUSH2 0x4BE JUMPI PUSH1 0x0 DUP1 REVERT JUMPDEST DUP1 CALLDATALOAD SWAP1 PUSH1 0x20 ADD SWAP2 DUP5 PUSH1 0x1 DUP4 MUL DUP5 ADD GT PUSH5 0x100000000 DUP4 GT OR ISZERO PUSH2 0x4E0 JUMPI PUSH1 0x0 DUP1 REVERT JUMPDEST SWAP2 SWAP1 DUP1 DUP1 PUSH1 0x1F ADD PUSH1 0x20 DUP1 SWAP2 DIV MUL PUSH1 0x20 ADD PUSH1 0x40 MLOAD SWAP1 DUP2 ADD PUSH1 0x40 MSTORE DUP1 SWAP4 SWAP3 SWAP2 SWAP1 DUP2 DUP2 MSTORE PUSH1 0x20 ADD DUP4 DUP4 DUP1 DUP3 DUP5 CALLDATACOPY PUSH1 0x0 DUP2 DUP5 ADD MSTORE PUSH1 0x1F NOT PUSH1 0x1F DUP3 ADD AND SWAP1 POP DUP1 DUP4 ADD SWAP3 POP POP POP POP POP POP POP SWAP2 SWAP3 SWAP2 SWAP3 SWAP1 POP POP POP PUSH2 0x1819 JUMP JUMPDEST STOP JUMPDEST PUSH2 0x849 PUSH1 0x4 DUP1 CALLDATASIZE SUB PUSH1 0xA0 DUP2 LT ISZERO PUSH2 0x54A JUMPI PUSH1 0x0 DUP1 REVERT JUMPDEST DUP2 ADD SWAP1 DUP1 DUP1 CALLDATALOAD SWAP1 PUSH1 0x20 ADD SWAP1 PUSH5 0x100000000 DUP2 GT ISZERO PUSH2 0x567 JUMPI PUSH1 0x0 DUP1 REVERT JUMPDEST DUP3 ADD DUP4 PUSH1 0x20 DUP3 ADD GT ISZERO PUSH2 0x579 JUMPI PUSH1 0x0 DUP1 REVERT JUMPDEST DUP1 CALLDATALOAD SWAP1 PUSH1 0x20 ADD SWAP2 DUP5 PUSH1 0x1 DUP4 MUL DUP5 ADD GT PUSH5 0x100000000 DUP4 GT OR ISZERO PUSH2 0x59B JUMPI PUSH1 0x0 DUP1 REVERT JUMPDEST SWAP2 SWAP1 DUP1 DUP1 PUSH1 0x1F ADD PUSH1 0x20 DUP1 SWAP2 DIV MUL PUSH1 0x20 ADD PUSH1 0x40 MLOAD SWAP1 DUP2 ADD PUSH1 0x40 MSTORE DUP1 SWAP4 SWAP3 SWAP2 SWAP1 DUP2 DUP2 MSTORE PUSH1 0x20 ADD DUP4 DUP4 DUP1 DUP3 DUP5 CALLDATACOPY PUSH1 0x0 DUP2 DUP5 ADD MSTORE PUSH1 0x1F NOT PUSH1 0x1F DUP3 ADD AND SWAP1 POP DUP1 DUP4 ADD SWAP3 POP POP POP POP POP POP POP SWAP2 SWAP3 SWAP2 SWAP3 SWAP1 DUP1 CALLDATALOAD SWAP1 PUSH1 0x20 ADD SWAP1 PUSH5 0x100000000 DUP2 GT ISZERO PUSH2 0x5FE JUMPI PUSH1 0x0 DUP1 REVERT JUMPDEST DUP3 ADD DUP4 PUSH1 0x20 DUP3 ADD GT ISZERO PUSH2 0x610 JUMPI PUSH1 0x0 DUP1 REVERT JUMPDEST DUP1 CALLDATALOAD SWAP1 PUSH1 0x20 ADD SWAP2 DUP5 PUSH1 0x1 DUP4 MUL DUP5 ADD GT PUSH5 0x100000000 DUP4 GT OR ISZERO PUSH2 0x632 JUMPI PUSH1 0x0 DUP1 REVERT JUMPDEST SWAP2 SWAP1 DUP1 DUP1 PUSH1 0x1F ADD PUSH1 0x20 DUP1 SWAP2 DIV MUL PUSH1 0x20 ADD PUSH1 0x40 MLOAD SWAP1 DUP2 ADD PUSH1 0x40 MSTORE DUP1 SWAP4 SWAP3 SWAP2 SWAP1 DUP2 DUP2 MSTORE PUSH1 0x20 ADD DUP4 DUP4 DUP1 DUP3 DUP5 CALLDATACOPY PUSH1 0x0 DUP2 DUP5 ADD MSTORE PUSH1 0x1F NOT PUSH1 0x1F DUP3 ADD AND SWAP1 POP DUP1 DUP4 ADD SWAP3 POP POP POP POP POP POP POP SWAP2 SWAP3 SWAP2 SWAP3 SWAP1 DUP1 CALLDATALOAD SWAP1 PUSH1 0x20 ADD SWAP1 PUSH5 0x100000000 DUP2 GT ISZERO PUSH2 0x695 JUMPI PUSH1 0x0 DUP1 REVERT JUMPDEST DUP3 ADD DUP4 PUSH1 0x20 DUP3 ADD GT ISZERO PUSH2 0x6A7 JUMPI PUSH1 0x0 DUP1 REVERT JUMPDEST DUP1 CALLDATALOAD SWAP1 PUSH1 0x20 ADD SWAP2 DUP5 PUSH1 0x1 DUP4 MUL DUP5 ADD GT PUSH5 0x100000000 DUP4 GT OR ISZERO PUSH2 0x6C9 JUMPI PUSH1 0x0 DUP1 REVERT JUMPDEST SWAP2 SWAP1 DUP1 DUP1 PUSH1 0x1F ADD PUSH1 0x20 DUP1 SWAP2 DIV MUL PUSH1 0x20 ADD PUSH1 0x40 MLOAD SWAP1 DUP2 ADD PUSH1 0x40 MSTORE DUP1 SWAP4 SWAP3 SWAP2 SWAP1 DUP2 DUP2 MSTORE PUSH1 0x20 ADD DUP4 DUP4 DUP1 DUP3 DUP5 CALLDATACOPY PUSH1 0x0 DUP2 DUP5 ADD MSTORE PUSH1 0x1F NOT PUSH1 0x1F DUP3 ADD AND SWAP1 POP DUP1 DUP4 ADD SWAP3 POP POP POP POP POP POP POP SWAP2 SWAP3 SWAP2 SWAP3 SWAP1 DUP1 CALLDATALOAD SWAP1 PUSH1 0x20 ADD SWAP1 PUSH5 0x100000000 DUP2 GT ISZERO PUSH2 0x72C JUMPI PUSH1 0x0 DUP1 REVERT JUMPDEST DUP3 ADD DUP4 PUSH1 0x20 DUP3 ADD GT ISZERO PUSH2 0x73E JUMPI PUSH1 0x0 DUP1 REVERT JUMPDEST DUP1 CALLDATALOAD SWAP1 PUSH1 0x20 ADD SWAP2 DUP5 PUSH1 0x1 DUP4 MUL DUP5 ADD GT PUSH5 0x100000000 DUP4 GT OR ISZERO PUSH2 0x760 JUMPI PUSH1 0x0 DUP1 REVERT JUMPDEST SWAP2 SWAP1 DUP1 DUP1 PUSH1 0x1F ADD PUSH1 0x20 DUP1 SWAP2 DIV MUL PUSH1 0x20 ADD PUSH1 0x40 MLOAD SWAP1 DUP2 ADD PUSH1 0x40 MSTORE DUP1 SWAP4 SWAP3 SWAP2 SWAP1 DUP2 DUP2 MSTORE PUSH1 0x20 ADD DUP4 DUP4 DUP1 DUP3 DUP5 CALLDATACOPY PUSH1 0x0 DUP2 DUP5 ADD MSTORE PUSH1 0x1F NOT PUSH1 0x1F DUP3 ADD AND SWAP1 POP DUP1 DUP4 ADD SWAP3 POP POP POP POP POP POP POP SWAP2 SWAP3 SWAP2 SWAP3 SWAP1 DUP1 CALLDATALOAD SWAP1 PUSH1 0x20 ADD SWAP1 PUSH5 0x100000000 DUP2 GT ISZERO PUSH2 0x7C3 JUMPI PUSH1 0x0 DUP1 REVERT JUMPDEST DUP3 ADD DUP4 PUSH1 0x20 DUP3 ADD GT ISZERO PUSH2 0x7D5 JUMPI PUSH1 0x0 DUP1 REVERT JUMPDEST DUP1 CALLDATALOAD SWAP1 PUSH1 0x20 ADD SWAP2 DUP5 PUSH1 0x1 DUP4 MUL DUP5 ADD GT PUSH5 0x100000000 DUP4 GT OR ISZERO PUSH2 0x7F7 JUMPI PUSH1 0x0 DUP1 REVERT JUMPDEST SWAP2 SWAP1 DUP1 DUP1 PUSH1 0x1F ADD PUSH1 0x20 DUP1 SWAP2 DIV MUL PUSH1 0x20 ADD PUSH1 0x40 MLOAD SWAP1 DUP2 ADD PUSH1 0x40 MSTORE DUP1 SWAP4 SWAP3 SWAP2 SWAP1 DUP2 DUP2 MSTORE PUSH1 0x20 ADD DUP4 DUP4 DUP1 DUP3 DUP5 CALLDATACOPY PUSH1 0x0 DUP2 DUP5 ADD MSTORE PUSH1 0x1F NOT PUSH1 0x1F DUP3 ADD AND SWAP1 POP DUP1 DUP4 ADD SWAP3 POP POP POP POP POP POP POP SWAP2 SWAP3 SWAP2 SWAP3 SWAP1 POP POP POP PUSH2 0x18D9 JUMP JUMPDEST STOP JUMPDEST PUSH2 0x877 PUSH1 0x4 DUP1 CALLDATASIZE SUB PUSH1 0x20 DUP2 LT ISZERO PUSH2 0x861 JUMPI PUSH1 0x0 DUP1 REVERT JUMPDEST DUP2 ADD SWAP1 DUP1 DUP1 CALLDATALOAD SWAP1 PUSH1 0x20 ADD SWAP1 SWAP3 SWAP2 SWAP1 POP POP POP PUSH2 0x1B20 JUMP JUMPDEST PUSH1 0x40 MLOAD DUP1 DUP1 PUSH1 0x20 ADD DUP3 DUP2 SUB DUP3 MSTORE DUP4 DUP2 DUP2 MLOAD DUP2 MSTORE PUSH1 0x20 ADD SWAP2 POP DUP1 MLOAD SWAP1 PUSH1 0x20 ADD SWAP1 DUP1 DUP4 DUP4 PUSH1 0x0 JUMPDEST DUP4 DUP2 LT ISZERO PUSH2 0x8B7 JUMPI DUP1 DUP3 ADD MLOAD DUP2 DUP5 ADD MSTORE PUSH1 0x20 DUP2 ADD SWAP1 POP PUSH2 0x89C JUMP JUMPDEST POP POP POP POP SWAP1 POP SWAP1 DUP2 ADD SWAP1 PUSH1 0x1F AND DUP1 ISZERO PUSH2 0x8E4 JUMPI DUP1 DUP3 SUB DUP1 MLOAD PUSH1 0x1 DUP4 PUSH1 0x20 SUB PUSH2 0x100 EXP SUB NOT AND DUP2 MSTORE PUSH1 0x20 ADD SWAP2 POP JUMPDEST POP SWAP3 POP POP POP PUSH1 0x40 MLOAD DUP1 SWAP2 SUB SWAP1 RETURN JUMPDEST PUSH2 0x9AB PUSH1 0x4 DUP1 CALLDATASIZE SUB PUSH1 0x20 DUP2 LT ISZERO PUSH2 0x908 JUMPI PUSH1 0x0 DUP1 REVERT JUMPDEST DUP2 ADD SWAP1 DUP1 DUP1 CALLDATALOAD SWAP1 PUSH1 0x20 ADD SWAP1 PUSH5 0x100000000 DUP2 GT ISZERO PUSH2 0x925 JUMPI PUSH1 0x0 DUP1 REVERT JUMPDEST DUP3 ADD DUP4 PUSH1 0x20 DUP3 ADD GT ISZERO PUSH2 0x937 JUMPI PUSH1 0x0 DUP1 REVERT JUMPDEST DUP1 CALLDATALOAD SWAP1 PUSH1 0x20 ADD SWAP2 DUP5 PUSH1 0x1 DUP4 MUL DUP5 ADD GT PUSH5 0x100000000 DUP4 GT OR ISZERO PUSH2 0x959 JUMPI PUSH1 0x0 DUP1 REVERT JUMPDEST SWAP2 SWAP1 DUP1 DUP1 PUSH1 0x1F ADD PUSH1 0x20 DUP1 SWAP2 DIV MUL PUSH1 0x20 ADD PUSH1 0x40 MLOAD SWAP1 DUP2 ADD PUSH1 0x40 MSTORE DUP1 SWAP4 SWAP3 SWAP2 SWAP1 DUP2 DUP2 MSTORE PUSH1 0x20 ADD DUP4 DUP4 DUP1 DUP3 DUP5 CALLDATACOPY PUSH1 0x0 DUP2 DUP5 ADD MSTORE PUSH1 0x1F NOT PUSH1 0x1F DUP3 ADD AND SWAP1 POP DUP1 DUP4 ADD SWAP3 POP POP POP POP POP POP POP SWAP2 SWAP3 SWAP2 SWAP3 SWAP1 POP POP POP PUSH2 0x1C7F JUMP JUMPDEST PUSH1 0x40 MLOAD DUP1 DUP3 DUP2 MSTORE PUSH1 0x20 ADD SWAP2 POP POP PUSH1 0x40 MLOAD DUP1 SWAP2 SUB SWAP1 RETURN JUMPDEST PUSH2 0xA7A PUSH1 0x4 DUP1 CALLDATASIZE SUB PUSH1 0x20 DUP2 LT ISZERO PUSH2 0x9D7 JUMPI PUSH1 0x0 DUP1 REVERT JUMPDEST DUP2 ADD SWAP1 DUP1 DUP1 CALLDATALOAD SWAP1 PUSH1 0x20 ADD SWAP1 PUSH5 0x100000000 DUP2 GT ISZERO PUSH2 0x9F4 JUMPI PUSH1 0x0 DUP1 REVERT JUMPDEST DUP3 ADD DUP4 PUSH1 0x20 DUP3 ADD GT ISZERO PUSH2 0xA06 JUMPI PUSH1 0x0 DUP1 REVERT JUMPDEST DUP1 CALLDATALOAD SWAP1 PUSH1 0x20 ADD SWAP2 DUP5 PUSH1 0x1 DUP4 MUL DUP5 ADD GT PUSH5 0x100000000 DUP4 GT OR ISZERO PUSH2 0xA28 JUMPI PUSH1 0x0 DUP1 REVERT JUMPDEST SWAP2 SWAP1 DUP1 DUP1 PUSH1 0x1F ADD PUSH1 0x20 DUP1 SWAP2 DIV MUL PUSH1 0x20 ADD PUSH1 0x40 MLOAD SWAP1 DUP2 ADD PUSH1 0x40 MSTORE DUP1 SWAP4 SWAP3 SWAP2 SWAP1 DUP2 DUP2 MSTORE PUSH1 0x20 ADD DUP4 DUP4 DUP1 DUP3 DUP5 CALLDATACOPY PUSH1 0x0 DUP2 DUP5 ADD MSTORE PUSH1 0x1F NOT PUSH1 0x1F DUP3 ADD AND SWAP1 POP DUP1 DUP4 ADD SWAP3 POP POP POP POP POP POP POP SWAP2 SWAP3 SWAP2 SWAP3 SWAP1 POP POP POP PUSH2 0x1D98 JUMP JUMPDEST PUSH1 0x40 MLOAD DUP1 DUP3 DUP2 MSTORE PUSH1 0x20 ADD SWAP2 POP POP PUSH1 0x40 MLOAD DUP1 SWAP2 SUB SWAP1 RETURN JUMPDEST PUSH2 0xA98 PUSH2 0x1DC6 JUMP JUMPDEST PUSH1 0x40 MLOAD DUP1 DUP3 DUP2 MSTORE PUSH1 0x20 ADD SWAP2 POP POP PUSH1 0x40 MLOAD DUP1 SWAP2 SUB SWAP1 RETURN JUMPDEST PUSH2 0xAB6 PUSH2 0x1E79 JUMP JUMPDEST PUSH1 0x40 MLOAD DUP1 DUP3 DUP2 MSTORE PUSH1 0x20 ADD SWAP2 POP POP PUSH1 0x40 MLOAD DUP1 SWAP2 SUB SWAP1 RETURN JUMPDEST PUSH2 0xAF8 PUSH1 0x4 DUP1 CALLDATASIZE SUB PUSH1 0x20 DUP2 LT ISZERO PUSH2 0xAE2 JUMPI PUSH1 0x0 DUP1 REVERT JUMPDEST DUP2 ADD SWAP1 DUP1 DUP1 CALLDATALOAD SWAP1 PUSH1 0x20 ADD SWAP1 SWAP3 SWAP2 SWAP1 POP POP POP PUSH2 0x1F2C JUMP JUMPDEST PUSH1 0x40 MLOAD DUP1 DUP1 PUSH1 0x20 ADD DUP3 DUP2 SUB DUP3 MSTORE DUP4 DUP2 DUP2 MLOAD DUP2 MSTORE PUSH1 0x20 ADD SWAP2 POP DUP1 MLOAD SWAP1 PUSH1 0x20 ADD SWAP1 DUP1 DUP4 DUP4 PUSH1 0x0 JUMPDEST DUP4 DUP2 LT ISZERO PUSH2 0xB38 JUMPI DUP1 DUP3 ADD MLOAD DUP2 DUP5 ADD MSTORE PUSH1 0x20 DUP2 ADD SWAP1 POP PUSH2 0xB1D JUMP JUMPDEST POP POP POP POP SWAP1 POP SWAP1 DUP2 ADD SWAP1 PUSH1 0x1F AND DUP1 ISZERO PUSH2 0xB65 JUMPI DUP1 DUP3 SUB DUP1 MLOAD PUSH1 0x1 DUP4 PUSH1 0x20 SUB PUSH2 0x100 EXP SUB NOT AND DUP2 MSTORE PUSH1 0x20 ADD SWAP2 POP JUMPDEST POP SWAP3 POP POP POP PUSH1 0x40 MLOAD DUP1 SWAP2 SUB SWAP1 RETURN JUMPDEST PUSH2 0xC2C PUSH1 0x4 DUP1 CALLDATASIZE SUB PUSH1 0x20 DUP2 LT ISZERO PUSH2 0xB89 JUMPI PUSH1 0x0 DUP1 REVERT JUMPDEST DUP2 ADD SWAP1 DUP1 DUP1 CALLDATALOAD SWAP1 PUSH1 0x20 ADD SWAP1 PUSH5 0x100000000 DUP2 GT ISZERO PUSH2 0xBA6 JUMPI PUSH1 0x0 DUP1 REVERT JUMPDEST DUP3 ADD DUP4 PUSH1 0x20 DUP3 ADD GT ISZERO PUSH2 0xBB8 JUMPI PUSH1 0x0 DUP1 REVERT JUMPDEST DUP1 CALLDATALOAD SWAP1 PUSH1 0x20 ADD SWAP2 DUP5 PUSH1 0x1 DUP4 MUL DUP5 ADD GT PUSH5 0x100000000 DUP4 GT OR ISZERO PUSH2 0xBDA JUMPI PUSH1 0x0 DUP1 REVERT JUMPDEST SWAP2 SWAP1 DUP1 DUP1 PUSH1 0x1F ADD PUSH1 0x20 DUP1 SWAP2 DIV MUL PUSH1 0x20 ADD PUSH1 0x40 MLOAD SWAP1 DUP2 ADD PUSH1 0x40 MSTORE DUP1 SWAP4 SWAP3 SWAP2 SWAP1 DUP2 DUP2 MSTORE PUSH1 0x20 ADD DUP4 DUP4 DUP1 DUP3 DUP5 CALLDATACOPY PUSH1 0x0 DUP2 DUP5 ADD MSTORE PUSH1 0x1F NOT PUSH1 0x1F DUP3 ADD AND SWAP1 POP DUP1 DUP4 ADD SWAP3 POP POP POP POP POP POP POP SWAP2 SWAP3 SWAP2 SWAP3 SWAP1 POP POP POP PUSH2 0x1FE8 JUMP JUMPDEST PUSH1 0x40 MLOAD DUP1 DUP1 PUSH1 0x20 ADD DUP1 PUSH1 0x20 ADD DUP1 PUSH1 0x20 ADD DUP1 PUSH1 0x20 ADD DUP6 DUP2 SUB DUP6 MSTORE DUP10 DUP2 DUP2 MLOAD DUP2 MSTORE PUSH1 0x20 ADD SWAP2 POP DUP1 MLOAD SWAP1 PUSH1 0x20 ADD SWAP1 DUP1 DUP4 DUP4 PUSH1 0x0 JUMPDEST DUP4 DUP2 LT ISZERO PUSH2 0xC78 JUMPI DUP1 DUP3 ADD MLOAD DUP2 DUP5 ADD MSTORE PUSH1 0x20 DUP2 ADD SWAP1 POP PUSH2 0xC5D JUMP JUMPDEST POP POP POP POP SWAP1 POP SWAP1 DUP2 ADD SWAP1 PUSH1 0x1F AND DUP1 ISZERO PUSH2 0xCA5 JUMPI DUP1 DUP3 SUB DUP1 MLOAD PUSH1 0x1 DUP4 PUSH1 0x20 SUB PUSH2 0x100 EXP SUB NOT AND DUP2 MSTORE PUSH1 0x20 ADD SWAP2 POP JUMPDEST POP DUP6 DUP2 SUB DUP5 MSTORE DUP9 DUP2 DUP2 MLOAD DUP2 MSTORE PUSH1 0x20 ADD SWAP2 POP DUP1 MLOAD SWAP1 PUSH1 0x20 ADD SWAP1 DUP1 DUP4 DUP4 PUSH1 0x0 JUMPDEST DUP4 DUP2 LT ISZERO PUSH2 0xCDE JUMPI DUP1 DUP3 ADD MLOAD DUP2 DUP5 ADD MSTORE PUSH1 0x20 DUP2 ADD SWAP1 POP PUSH2 0xCC3 JUMP JUMPDEST POP POP POP POP SWAP1 POP SWAP1 DUP2 ADD SWAP1 PUSH1 0x1F AND DUP1 ISZERO PUSH2 0xD0B JUMPI DUP1 DUP3 SUB DUP1 MLOAD PUSH1 0x1 DUP4 PUSH1 0x20 SUB PUSH2 0x100 EXP SUB NOT AND DUP2 MSTORE PUSH1 0x20 ADD SWAP2 POP JUMPDEST POP DUP6 DUP2 SUB DUP4 MSTORE DUP8 DUP2 DUP2 MLOAD DUP2 MSTORE PUSH1 0x20 ADD SWAP2 POP DUP1 MLOAD SWAP1 PUSH1 0x20 ADD SWAP1 DUP1 DUP4 DUP4 PUSH1 0x0 JUMPDEST DUP4 DUP2 LT ISZERO PUSH2 0xD44 JUMPI DUP1 DUP3 ADD MLOAD DUP2 DUP5 ADD MSTORE PUSH1 0x20 DUP2 ADD SWAP1 POP PUSH2 0xD29 JUMP JUMPDEST POP POP POP POP SWAP1 POP SWAP1 DUP2 ADD SWAP1 PUSH1 0x1F AND DUP1 ISZERO PUSH2 0xD71 JUMPI DUP1 DUP3 SUB DUP1 MLOAD PUSH1 0x1 DUP4 PUSH1 0x20 SUB PUSH2 0x100 EXP SUB NOT AND DUP2 MSTORE PUSH1 0x20 ADD SWAP2 POP JUMPDEST POP DUP6 DUP2 SUB DUP3 MSTORE DUP7 DUP2 DUP2 MLOAD DUP2 MSTORE PUSH1 0x20 ADD SWAP2 POP DUP1 MLOAD SWAP1 PUSH1 0x20 ADD SWAP1 DUP1 DUP4 DUP4 PUSH1 0x0 JUMPDEST DUP4 DUP2 LT ISZERO PUSH2 0xDAA JUMPI DUP1 DUP3 ADD MLOAD DUP2 DUP5 ADD MSTORE PUSH1 0x20 DUP2 ADD SWAP1 POP PUSH2 0xD8F JUMP JUMPDEST POP POP POP POP SWAP1 POP SWAP1 DUP2 ADD SWAP1 PUSH1 0x1F AND DUP1 ISZERO PUSH2 0xDD7 JUMPI DUP1 DUP3 SUB DUP1 MLOAD PUSH1 0x1 DUP4 PUSH1 0x20 SUB PUSH2 0x100 EXP SUB NOT AND DUP2 MSTORE PUSH1 0x20 ADD SWAP2 POP JUMPDEST POP SWAP9 POP POP POP POP POP POP POP POP POP PUSH1 0x40 MLOAD DUP1 SWAP2 SUB SWAP1 RETURN JUMPDEST PUSH2 0xE19 PUSH1 0x4 DUP1 CALLDATASIZE SUB PUSH1 0x20 DUP2 LT ISZERO PUSH2 0xE01 JUMPI PUSH1 0x0 DUP1 REVERT JUMPDEST DUP2 ADD SWAP1 DUP1 DUP1 CALLDATALOAD ISZERO ISZERO SWAP1 PUSH1 0x20 ADD SWAP1 SWAP3 SWAP2 SWAP1 POP POP POP PUSH2 0x24C3 JUMP JUMPDEST STOP JUMPDEST PUSH2 0xED4 PUSH1 0x4 DUP1 CALLDATASIZE SUB PUSH1 0x20 DUP2 LT ISZERO PUSH2 0xE31 JUMPI PUSH1 0x0 DUP1 REVERT JUMPDEST DUP2 ADD SWAP1 DUP1 DUP1 CALLDATALOAD SWAP1 PUSH1 0x20 ADD SWAP1 PUSH5 0x100000000 DUP2 GT ISZERO PUSH2 0xE4E JUMPI PUSH1 0x0 DUP1 REVERT JUMPDEST DUP3 ADD DUP4 PUSH1 0x20 DUP3 ADD GT ISZERO PUSH2 0xE60 JUMPI PUSH1 0x0 DUP1 REVERT JUMPDEST DUP1 CALLDATALOAD SWAP1 PUSH1 0x20 ADD SWAP2 DUP5 PUSH1 0x1 DUP4 MUL DUP5 ADD GT PUSH5 0x100000000 DUP4 GT OR ISZERO PUSH2 0xE82 JUMPI PUSH1 0x0 DUP1 REVERT JUMPDEST SWAP2 SWAP1 DUP1 DUP1 PUSH1 0x1F ADD PUSH1 0x20 DUP1 SWAP2 DIV MUL PUSH1 0x20 ADD PUSH1 0x40 MLOAD SWAP1 DUP2 ADD PUSH1 0x40 MSTORE DUP1 SWAP4 SWAP3 SWAP2 SWAP1 DUP2 DUP2 MSTORE PUSH1 0x20 ADD DUP4 DUP4 DUP1 DUP3 DUP5 CALLDATACOPY PUSH1 0x0 DUP2 DUP5 ADD MSTORE PUSH1 0x1F NOT PUSH1 0x1F DUP3 ADD AND SWAP1 POP DUP1 DUP4 ADD SWAP3 POP POP POP POP POP POP POP SWAP2 SWAP3 SWAP2 SWAP3 SWAP1 POP POP POP PUSH2 0x2578 JUMP JUMPDEST PUSH1 0x40 MLOAD DUP1 DUP1 PUSH1 0x20 ADD DUP1 PUSH1 0x20 ADD DUP1 PUSH1 0x20 ADD DUP1 PUSH1 0x20 ADD DUP1 PUSH1 0x20 ADD DUP7 DUP2 SUB DUP7 MSTORE DUP12 DUP2 DUP2 MLOAD DUP2 MSTORE PUSH1 0x20 ADD SWAP2 POP DUP1 MLOAD SWAP1 PUSH1 0x20 ADD SWAP1 DUP1 DUP4 DUP4 PUSH1 0x0 JUMPDEST DUP4 DUP2 LT ISZERO PUSH2 0xF24 JUMPI DUP1 DUP3 ADD MLOAD DUP2 DUP5 ADD MSTORE PUSH1 0x20 DUP2 ADD SWAP1 POP PUSH2 0xF09 JUMP JUMPDEST POP POP POP POP SWAP1 POP SWAP1 DUP2 ADD SWAP1 PUSH1 0x1F AND DUP1 ISZERO PUSH2 0xF51 JUMPI DUP1 DUP3 SUB DUP1 MLOAD PUSH1 0x1 DUP4 PUSH1 0x20 SUB PUSH2 0x100 EXP SUB NOT AND DUP2 MSTORE PUSH1 0x20 ADD SWAP2 POP JUMPDEST POP DUP7 DUP2 SUB DUP6 MSTORE DUP11 DUP2 DUP2 MLOAD DUP2 MSTORE PUSH1 0x20 ADD SWAP2 POP DUP1 MLOAD SWAP1 PUSH1 0x20 ADD SWAP1 DUP1 DUP4 DUP4 PUSH1 0x0 JUMPDEST DUP4 DUP2 LT ISZERO PUSH2 0xF8A JUMPI DUP1 DUP3 ADD MLOAD DUP2 DUP5 ADD MSTORE PUSH1 0x20 DUP2 ADD SWAP1 POP PUSH2 0xF6F JUMP JUMPDEST POP POP POP POP SWAP1 POP SWAP1 DUP2 ADD SWAP1 PUSH1 0x1F AND DUP1 ISZERO PUSH2 0xFB7 JUMPI DUP1 DUP3 SUB DUP1 MLOAD PUSH1 0x1 DUP4 PUSH1 0x20 SUB PUSH2 0x100 EXP SUB NOT AND DUP2 MSTORE PUSH1 0x20 ADD SWAP2 POP JUMPDEST POP DUP7 DUP2 SUB DUP5 MSTORE DUP10 DUP2 DUP2 MLOAD DUP2 MSTORE PUSH1 0x20 ADD SWAP2 POP DUP1 MLOAD SWAP1 PUSH1 0x20 ADD SWAP1 DUP1 DUP4 DUP4 PUSH1 0x0 JUMPDEST DUP4 DUP2 LT ISZERO PUSH2 0xFF0 JUMPI DUP1 DUP3 ADD MLOAD DUP2 DUP5 ADD MSTORE PUSH1 0x20 DUP2 ADD SWAP1 POP PUSH2 0xFD5 JUMP JUMPDEST POP POP POP POP SWAP1 POP SWAP1 DUP2 ADD SWAP1 PUSH1 0x1F AND DUP1 ISZERO PUSH2 0x101D JUMPI DUP1 DUP3 SUB DUP1 MLOAD PUSH1 0x1 DUP4 PUSH1 0x20 SUB PUSH2 0x100 EXP SUB NOT AND DUP2 MSTORE PUSH1 0x20 ADD SWAP2 POP JUMPDEST POP DUP7 DUP2 SUB DUP4 MSTORE DUP9 DUP2 DUP2 MLOAD DUP2 MSTORE PUSH1 0x20 ADD SWAP2 POP DUP1 MLOAD SWAP1 PUSH1 0x20 ADD SWAP1 DUP1 DUP4 DUP4 PUSH1 0x0 JUMPDEST DUP4 DUP2 LT ISZERO PUSH2 0x1056 JUMPI DUP1 DUP3 ADD MLOAD DUP2 DUP5 ADD MSTORE PUSH1 0x20 DUP2 ADD SWAP1 POP PUSH2 0x103B JUMP JUMPDEST POP POP POP POP SWAP1 POP SWAP1 DUP2 ADD SWAP1 PUSH1 0x1F AND DUP1 ISZERO PUSH2 0x1083 JUMPI DUP1 DUP3 SUB DUP1 MLOAD PUSH1 0x1 DUP4 PUSH1 0x20 SUB PUSH2 0x100 EXP SUB NOT AND DUP2 MSTORE PUSH1 0x20 ADD SWAP2 POP JUMPDEST POP DUP7 DUP2 SUB DUP3 MSTORE DUP8 DUP2 DUP2 MLOAD DUP2 MSTORE PUSH1 0x20 ADD SWAP2 POP DUP1 MLOAD SWAP1 PUSH1 0x20 ADD SWAP1 DUP1 DUP4 DUP4 PUSH1 0x0 JUMPDEST DUP4 DUP2 LT ISZERO PUSH2 0x10BC JUMPI DUP1 DUP3 ADD MLOAD DUP2 DUP5 ADD MSTORE PUSH1 0x20 DUP2 ADD SWAP1 POP PUSH2 0x10A1 JUMP JUMPDEST POP POP POP POP SWAP1 POP SWAP1 DUP2 ADD SWAP1 PUSH1 0x1F AND DUP1 ISZERO PUSH2 0x10E9 JUMPI DUP1 DUP3 SUB DUP1 MLOAD PUSH1 0x1 DUP4 PUSH1 0x20 SUB PUSH2 0x100 EXP SUB NOT AND DUP2 MSTORE PUSH1 0x20 ADD SWAP2 POP JUMPDEST POP SWAP11 POP POP POP POP POP POP POP POP POP POP POP PUSH1 0x40 MLOAD DUP1 SWAP2 SUB SWAP1 RETURN JUMPDEST PUSH2 0x124F PUSH1 0x4 DUP1 CALLDATASIZE SUB PUSH1 0x40 DUP2 LT ISZERO PUSH2 0x1115 JUMPI PUSH1 0x0 DUP1 REVERT JUMPDEST DUP2 ADD SWAP1 DUP1 DUP1 CALLDATALOAD SWAP1 PUSH1 0x20 ADD SWAP1 PUSH5 0x100000000 DUP2 GT ISZERO PUSH2 0x1132 JUMPI PUSH1 0x0 DUP1 REVERT JUMPDEST DUP3 ADD DUP4 PUSH1 0x20 DUP3 ADD GT ISZERO PUSH2 0x1144 JUMPI PUSH1 0x0 DUP1 REVERT JUMPDEST DUP1 CALLDATALOAD SWAP1 PUSH1 0x20 ADD SWAP2 DUP5 PUSH1 0x1 DUP4 MUL DUP5 ADD GT PUSH5 0x100000000 DUP4 GT OR ISZERO PUSH2 0x1166 JUMPI PUSH1 0x0 DUP1 REVERT JUMPDEST SWAP2 SWAP1 DUP1 DUP1 PUSH1 0x1F ADD PUSH1 0x20 DUP1 SWAP2 DIV MUL PUSH1 0x20 ADD PUSH1 0x40 MLOAD SWAP1 DUP2 ADD PUSH1 0x40 MSTORE DUP1 SWAP4 SWAP3 SWAP2 SWAP1 DUP2 DUP2 MSTORE PUSH1 0x20 ADD DUP4 DUP4 DUP1 DUP3 DUP5 CALLDATACOPY PUSH1 0x0 DUP2 DUP5 ADD MSTORE PUSH1 0x1F NOT PUSH1 0x1F DUP3 ADD AND SWAP1 POP DUP1 DUP4 ADD SWAP3 POP POP POP POP POP POP POP SWAP2 SWAP3 SWAP2 SWAP3 SWAP1 DUP1 CALLDATALOAD SWAP1 PUSH1 0x20 ADD SWAP1 PUSH5 0x100000000 DUP2 GT ISZERO PUSH2 0x11C9 JUMPI PUSH1 0x0 DUP1 REVERT JUMPDEST DUP3 ADD DUP4 PUSH1 0x20 DUP3 ADD GT ISZERO PUSH2 0x11DB JUMPI PUSH1 0x0 DUP1 REVERT JUMPDEST DUP1 CALLDATALOAD SWAP1 PUSH1 0x20 ADD SWAP2 DUP5 PUSH1 0x1 DUP4 MUL DUP5 ADD GT PUSH5 0x100000000 DUP4 GT OR ISZERO PUSH2 0x11FD JUMPI PUSH1 0x0 DUP1 REVERT JUMPDEST SWAP2 SWAP1 DUP1 DUP1 PUSH1 0x1F ADD PUSH1 0x20 DUP1 SWAP2 DIV MUL PUSH1 0x20 ADD PUSH1 0x40 MLOAD SWAP1 DUP2 ADD PUSH1 0x40 MSTORE DUP1 SWAP4 SWAP3 SWAP2 SWAP1 DUP2 DUP2 MSTORE PUSH1 0x20 ADD DUP4 DUP4 DUP1 DUP3 DUP5 CALLDATACOPY PUSH1 0x0 DUP2 DUP5 ADD MSTORE PUSH1 0x1F NOT PUSH1 0x1F DUP3 ADD AND SWAP1 POP DUP1 DUP4 ADD SWAP3 POP POP POP POP POP POP POP SWAP2 SWAP3 SWAP2 SWAP3 SWAP1 POP POP POP PUSH2 0x28BC JUMP JUMPDEST STOP JUMPDEST PUSH2 0x1259 PUSH2 0x2A4D JUMP JUMPDEST PUSH1 0x40 MLOAD DUP1 DUP3 ISZERO ISZERO DUP2 MSTORE PUSH1 0x20 ADD SWAP2 POP POP PUSH1 0x40 MLOAD DUP1 SWAP2 SUB SWAP1 RETURN JUMPDEST PUSH1 0x1 DUP2 DUP2 SLOAD DUP2 LT PUSH2 0x1281 JUMPI PUSH1 0x0 DUP1 REVERT JUMPDEST SWAP1 PUSH1 0x0 MSTORE PUSH1 0x20 PUSH1 0x0 KECCAK256 ADD PUSH1 0x0 SWAP2 POP SWAP1 POP DUP1 SLOAD PUSH1 0x1 DUP2 PUSH1 0x1 AND ISZERO PUSH2 0x100 MUL SUB AND PUSH1 0x2 SWAP1 DIV DUP1 PUSH1 0x1F ADD PUSH1 0x20 DUP1 SWAP2 DIV MUL PUSH1 0x20 ADD PUSH1 0x40 MLOAD SWAP1 DUP2 ADD PUSH1 0x40 MSTORE DUP1 SWAP3 SWAP2 SWAP1 DUP2 DUP2 MSTORE PUSH1 0x20 ADD DUP3 DUP1 SLOAD PUSH1 0x1 DUP2 PUSH1 0x1 AND ISZERO PUSH2 0x100 MUL SUB AND PUSH1 0x2 SWAP1 DIV DUP1 ISZERO PUSH2 0x1325 JUMPI DUP1 PUSH1 0x1F LT PUSH2 0x12FA JUMPI PUSH2 0x100 DUP1 DUP4 SLOAD DIV MUL DUP4 MSTORE SWAP2 PUSH1 0x20 ADD SWAP2 PUSH2 0x1325 JUMP JUMPDEST DUP3 ADD SWAP2 SWAP1 PUSH1 0x0 MSTORE PUSH1 0x20 PUSH1 0x0 KECCAK256 SWAP1 JUMPDEST DUP2 SLOAD DUP2 MSTORE SWAP1 PUSH1 0x1 ADD SWAP1 PUSH1 0x20 ADD DUP1 DUP4 GT PUSH2 0x1308 JUMPI DUP3 SWAP1 SUB PUSH1 0x1F AND DUP3 ADD SWAP2 JUMPDEST POP POP POP POP POP DUP2 JUMP JUMPDEST PUSH1 0x60 PUSH1 0x5 PUSH1 0x0 SWAP1 SLOAD SWAP1 PUSH2 0x100 EXP SWAP1 DIV PUSH20 0xFFFFFFFFFFFFFFFFFFFFFFFFFFFFFFFFFFFFFFFF AND PUSH20 0xFFFFFFFFFFFFFFFFFFFFFFFFFFFFFFFFFFFFFFFF AND CALLER PUSH20 0xFFFFFFFFFFFFFFFFFFFFFFFFFFFFFFFFFFFFFFFF AND EQ PUSH2 0x13D5 JUMPI PUSH1 0x40 MLOAD PUSH32 0x8C379A000000000000000000000000000000000000000000000000000000000 DUP2 MSTORE PUSH1 0x4 ADD DUP1 DUP1 PUSH1 0x20 ADD DUP3 DUP2 SUB DUP3 MSTORE PUSH1 0x44 DUP2 MSTORE PUSH1 0x20 ADD DUP1 PUSH2 0x2B10 PUSH1 0x44 SWAP2 CODECOPY PUSH1 0x60 ADD SWAP2 POP POP PUSH1 0x40 MLOAD DUP1 SWAP2 SUB SWAP1 REVERT JUMPDEST PUSH1 0x1 DUP3 DUP2 SLOAD DUP2 LT PUSH2 0x13E2 JUMPI INVALID JUMPDEST SWAP1 PUSH1 0x0 MSTORE PUSH1 0x20 PUSH1 0x0 KECCAK256 ADD DUP1 SLOAD PUSH1 0x1 DUP2 PUSH1 0x1 AND ISZERO PUSH2 0x100 MUL SUB AND PUSH1 0x2 SWAP1 DIV DUP1 PUSH1 0x1F ADD PUSH1 0x20 DUP1 SWAP2 DIV MUL PUSH1 0x20 ADD PUSH1 0x40 MLOAD SWAP1 DUP2 ADD PUSH1 0x40 MSTORE DUP1 SWAP3 SWAP2 SWAP1 DUP2 DUP2 MSTORE PUSH1 0x20 ADD DUP3 DUP1 SLOAD PUSH1 0x1 DUP2 PUSH1 0x1 AND ISZERO PUSH2 0x100 MUL SUB AND PUSH1 0x2 SWAP1 DIV DUP1 ISZERO PUSH2 0x1480 JUMPI DUP1 PUSH1 0x1F LT PUSH2 0x1455 JUMPI PUSH2 0x100 DUP1 DUP4 SLOAD DIV MUL DUP4 MSTORE SWAP2 PUSH1 0x20 ADD SWAP2 PUSH2 0x1480 JUMP JUMPDEST DUP3 ADD SWAP2 SWAP1 PUSH1 0x0 MSTORE PUSH1 0x20 PUSH1 0x0 KECCAK256 SWAP1 JUMPDEST DUP2 SLOAD DUP2 MSTORE SWAP1 PUSH1 0x1 ADD SWAP1 PUSH1 0x20 ADD DUP1 DUP4 GT PUSH2 0x1463 JUMPI DUP3 SWAP1 SUB PUSH1 0x1F AND DUP3 ADD SWAP2 JUMPDEST POP POP POP POP POP SWAP1 POP SWAP2 SWAP1 POP JUMP JUMPDEST PUSH1 0x0 PUSH1 0x5 PUSH1 0x0 SWAP1 SLOAD SWAP1 PUSH2 0x100 EXP SWAP1 DIV PUSH20 0xFFFFFFFFFFFFFFFFFFFFFFFFFFFFFFFFFFFFFFFF AND PUSH20 0xFFFFFFFFFFFFFFFFFFFFFFFFFFFFFFFFFFFFFFFF AND CALLER PUSH20 0xFFFFFFFFFFFFFFFFFFFFFFFFFFFFFFFFFFFFFFFF AND EQ PUSH2 0x1534 JUMPI PUSH1 0x40 MLOAD PUSH32 0x8C379A000000000000000000000000000000000000000000000000000000000 DUP2 MSTORE PUSH1 0x4 ADD DUP1 DUP1 PUSH1 0x20 ADD DUP3 DUP2 SUB DUP3 MSTORE PUSH1 0x44 DUP2 MSTORE PUSH1 0x20 ADD DUP1 PUSH2 0x2B10 PUSH1 0x44 SWAP2 CODECOPY PUSH1 0x60 ADD SWAP2 POP POP PUSH1 0x40 MLOAD DUP1 SWAP2 SUB SWAP1 REVERT JUMPDEST PUSH1 0x4 PUSH1 0x0 SWAP1 SLOAD SWAP1 PUSH2 0x100 EXP SWAP1 DIV PUSH20 0xFFFFFFFFFFFFFFFFFFFFFFFFFFFFFFFFFFFFFFFF AND SWAP1 POP SWAP1 JUMP JUMPDEST PUSH1 0x60 PUSH1 0x5 PUSH1 0x0 SWAP1 SLOAD SWAP1 PUSH2 0x100 EXP SWAP1 DIV PUSH20 0xFFFFFFFFFFFFFFFFFFFFFFFFFFFFFFFFFFFFFFFF AND PUSH20 0xFFFFFFFFFFFFFFFFFFFFFFFFFFFFFFFFFFFFFFFF AND CALLER PUSH20 0xFFFFFFFFFFFFFFFFFFFFFFFFFFFFFFFFFFFFFFFF AND EQ PUSH2 0x1604 JUMPI PUSH1 0x40 MLOAD PUSH32 0x8C379A000000000000000000000000000000000000000000000000000000000 DUP2 MSTORE PUSH1 0x4 ADD DUP1 DUP1 PUSH1 0x20 ADD DUP3 DUP2 SUB DUP3 MSTORE PUSH1 0x44 DUP2 MSTORE PUSH1 0x20 ADD DUP1 PUSH2 0x2B10 PUSH1 0x44 SWAP2 CODECOPY PUSH1 0x60 ADD SWAP2 POP POP PUSH1 0x40 MLOAD DUP1 SWAP2 SUB SWAP1 REVERT JUMPDEST PUSH1 0x3 DUP3 DUP2 SLOAD DUP2 LT PUSH2 0x1611 JUMPI INVALID JUMPDEST SWAP1 PUSH1 0x0 MSTORE PUSH1 0x20 PUSH1 0x0 KECCAK256 ADD DUP1 SLOAD PUSH1 0x1 DUP2 PUSH1 0x1 AND ISZERO PUSH2 0x100 MUL SUB AND PUSH1 0x2 SWAP1 DIV DUP1 PUSH1 0x1F ADD PUSH1 0x20 DUP1 SWAP2 DIV MUL PUSH1 0x20 ADD PUSH1 0x40 MLOAD SWAP1 DUP2 ADD PUSH1 0x40 MSTORE DUP1 SWAP3 SWAP2 SWAP1 DUP2 DUP2 MSTORE PUSH1 0x20 ADD DUP3 DUP1 SLOAD PUSH1 0x1 DUP2 PUSH1 0x1 AND ISZERO PUSH2 0x100 MUL SUB AND PUSH1 0x2 SWAP1 DIV DUP1 ISZERO PUSH2 0x16AF JUMPI DUP1 PUSH1 0x1F LT PUSH2 0x1684 JUMPI PUSH2 0x100 DUP1 DUP4 SLOAD DIV MUL DUP4 MSTORE SWAP2 PUSH1 0x20 ADD SWAP2 PUSH2 0x16AF JUMP JUMPDEST DUP3 ADD SWAP2 SWAP1 PUSH1 0x0 MSTORE PUSH1 0x20 PUSH1 0x0 KECCAK256 SWAP1 JUMPDEST DUP2 SLOAD DUP2 MSTORE SWAP1 PUSH1 0x1 ADD SWAP1 PUSH1 0x20 ADD DUP1 DUP4 GT PUSH2 0x1692 JUMPI DUP3 SWAP1 SUB PUSH1 0x1F AND DUP3 ADD SWAP2 JUMPDEST POP POP POP POP POP SWAP1 POP SWAP2 SWAP1 POP JUMP JUMPDEST PUSH1 0x3 DUP2 DUP2 SLOAD DUP2 LT PUSH2 0x16CB JUMPI PUSH1 0x0 DUP1 REVERT JUMPDEST SWAP1 PUSH1 0x0 MSTORE PUSH1 0x20 PUSH1 0x0 KECCAK256 ADD PUSH1 0x0 SWAP2 POP SWAP1 POP DUP1 SLOAD PUSH1 0x1 DUP2 PUSH1 0x1 AND ISZERO PUSH2 0x100 MUL SUB AND PUSH1 0x2 SWAP1 DIV DUP1 PUSH1 0x1F ADD PUSH1 0x20 DUP1 SWAP2 DIV MUL PUSH1 0x20 ADD PUSH1 0x40 MLOAD SWAP1 DUP2 ADD PUSH1 0x40 MSTORE DUP1 SWAP3 SWAP2 SWAP1 DUP2 DUP2 MSTORE PUSH1 0x20 ADD DUP3 DUP1 SLOAD PUSH1 0x1 DUP2 PUSH1 0x1 AND ISZERO PUSH2 0x100 MUL SUB AND PUSH1 0x2 SWAP1 DIV DUP1 ISZERO PUSH2 0x176F JUMPI DUP1 PUSH1 0x1F LT PUSH2 0x1744 JUMPI PUSH2 0x100 DUP1 DUP4 SLOAD DIV MUL DUP4 MSTORE SWAP2 PUSH1 0x20 ADD SWAP2 PUSH2 0x176F JUMP JUMPDEST DUP3 ADD SWAP2 SWAP1 PUSH1 0x0 MSTORE PUSH1 0x20 PUSH1 0x0 KECCAK256 SWAP1 JUMPDEST DUP2 SLOAD DUP2 MSTORE SWAP1 PUSH1 0x1 ADD SWAP1 PUSH1 0x20 ADD DUP1 DUP4 GT PUSH2 0x1752 JUMPI DUP3 SWAP1 SUB PUSH1 0x1F AND DUP3 ADD SWAP2 JUMPDEST POP POP POP POP POP DUP2 JUMP JUMPDEST PUSH1 0x60 PUSH1 0x0 DUP1 SLOAD PUSH1 0x1 DUP2 PUSH1 0x1 AND ISZERO PUSH2 0x100 MUL SUB AND PUSH1 0x2 SWAP1 DIV DUP1 PUSH1 0x1F ADD PUSH1 0x20 DUP1 SWAP2 DIV MUL PUSH1 0x20 ADD PUSH1 0x40 MLOAD SWAP1 DUP2 ADD PUSH1 0x40 MSTORE DUP1 SWAP3 SWAP2 SWAP1 DUP2 DUP2 MSTORE PUSH1 0x20 ADD DUP3 DUP1 SLOAD PUSH1 0x1 DUP2 PUSH1 0x1 AND ISZERO PUSH2 0x100 MUL SUB AND PUSH1 0x2 SWAP1 DIV DUP1 ISZERO PUSH2 0x180F JUMPI DUP1 PUSH1 0x1F LT PUSH2 0x17E4 JUMPI PUSH2 0x100 DUP1 DUP4 SLOAD DIV MUL DUP4 MSTORE SWAP2 PUSH1 0x20 ADD SWAP2 PUSH2 0x180F JUMP JUMPDEST DUP3 ADD SWAP2 SWAP1 PUSH1 0x0 MSTORE PUSH1 0x20 PUSH1 0x0 KECCAK256 SWAP1 JUMPDEST DUP2 SLOAD DUP2 MSTORE SWAP1 PUSH1 0x1 ADD SWAP1 PUSH1 0x20 ADD DUP1 DUP4 GT PUSH2 0x17F2 JUMPI DUP3 SWAP1 SUB PUSH1 0x1F AND DUP3 ADD SWAP2 JUMPDEST POP POP POP POP POP SWAP1 POP SWAP1 JUMP JUMPDEST PUSH1 0x5 PUSH1 0x0 SWAP1 SLOAD SWAP1 PUSH2 0x100 EXP SWAP1 DIV PUSH20 0xFFFFFFFFFFFFFFFFFFFFFFFFFFFFFFFFFFFFFFFF AND PUSH20 0xFFFFFFFFFFFFFFFFFFFFFFFFFFFFFFFFFFFFFFFF AND CALLER PUSH20 0xFFFFFFFFFFFFFFFFFFFFFFFFFFFFFFFFFFFFFFFF AND EQ PUSH2 0x18BF JUMPI PUSH1 0x40 MLOAD PUSH32 0x8C379A000000000000000000000000000000000000000000000000000000000 DUP2 MSTORE PUSH1 0x4 ADD DUP1 DUP1 PUSH1 0x20 ADD DUP3 DUP2 SUB DUP3 MSTORE PUSH1 0x44 DUP2 MSTORE PUSH1 0x20 ADD DUP1 PUSH2 0x2B10 PUSH1 0x44 SWAP2 CODECOPY PUSH1 0x60 ADD SWAP2 POP POP PUSH1 0x40 MLOAD DUP1 SWAP2 SUB SWAP1 REVERT JUMPDEST DUP1 PUSH1 0x0 SWAP1 DUP1 MLOAD SWAP1 PUSH1 0x20 ADD SWAP1 PUSH2 0x18D5 SWAP3 SWAP2 SWAP1 PUSH2 0x2A64 JUMP JUMPDEST POP POP JUMP JUMPDEST PUSH1 0x3 DUP6 SWAP1 DUP1 PUSH1 0x1 DUP2 SLOAD ADD DUP1 DUP3 SSTORE DUP1 SWAP2 POP POP PUSH1 0x1 SWAP1 SUB SWAP1 PUSH1 0x0 MSTORE PUSH1 0x20 PUSH1 0x0 KECCAK256 ADD PUSH1 0x0 SWAP1 SWAP2 SWAP1 SWAP2 SWAP1 SWAP2 POP SWAP1 DUP1 MLOAD SWAP1 PUSH1 0x20 ADD SWAP1 PUSH2 0x1914 SWAP3 SWAP2 SWAP1 PUSH2 0x2A64 JUMP JUMPDEST POP DUP4 PUSH1 0x7 DUP7 PUSH1 0x40 MLOAD DUP1 DUP3 DUP1 MLOAD SWAP1 PUSH1 0x20 ADD SWAP1 DUP1 DUP4 DUP4 JUMPDEST PUSH1 0x20 DUP4 LT PUSH2 0x194C JUMPI DUP1 MLOAD DUP3 MSTORE PUSH1 0x20 DUP3 ADD SWAP2 POP PUSH1 0x20 DUP2 ADD SWAP1 POP PUSH1 0x20 DUP4 SUB SWAP3 POP PUSH2 0x1929 JUMP JUMPDEST PUSH1 0x1 DUP4 PUSH1 0x20 SUB PUSH2 0x100 EXP SUB DUP1 NOT DUP3 MLOAD AND DUP2 DUP5 MLOAD AND DUP1 DUP3 OR DUP6 MSTORE POP POP POP POP POP POP SWAP1 POP ADD SWAP2 POP POP SWAP1 DUP2 MSTORE PUSH1 0x20 ADD PUSH1 0x40 MLOAD DUP1 SWAP2 SUB SWAP1 KECCAK256 PUSH1 0x1 ADD SWAP1 DUP1 MLOAD SWAP1 PUSH1 0x20 ADD SWAP1 PUSH2 0x1995 SWAP3 SWAP2 SWAP1 PUSH2 0x2A64 JUMP JUMPDEST POP DUP3 PUSH1 0x7 DUP7 PUSH1 0x40 MLOAD DUP1 DUP3 DUP1 MLOAD SWAP1 PUSH1 0x20 ADD SWAP1 DUP1 DUP4 DUP4 JUMPDEST PUSH1 0x20 DUP4 LT PUSH2 0x19CD JUMPI DUP1 MLOAD DUP3 MSTORE PUSH1 0x20 DUP3 ADD SWAP2 POP PUSH1 0x20 DUP2 ADD SWAP1 POP PUSH1 0x20 DUP4 SUB SWAP3 POP PUSH2 0x19AA JUMP JUMPDEST PUSH1 0x1 DUP4 PUSH1 0x20 SUB PUSH2 0x100 EXP SUB DUP1 NOT DUP3 MLOAD AND DUP2 DUP5 MLOAD AND DUP1 DUP3 OR DUP6 MSTORE POP POP POP POP POP POP SWAP1 POP ADD SWAP2 POP POP SWAP1 DUP2 MSTORE PUSH1 0x20 ADD PUSH1 0x40 MLOAD DUP1 SWAP2 SUB SWAP1 KECCAK256 PUSH1 0x2 ADD SWAP1 DUP1 MLOAD SWAP1 PUSH1 0x20 ADD SWAP1 PUSH2 0x1A16 SWAP3 SWAP2 SWAP1 PUSH2 0x2A64 JUMP JUMPDEST POP DUP2 PUSH1 0x7 DUP7 PUSH1 0x40 MLOAD DUP1 DUP3 DUP1 MLOAD SWAP1 PUSH1 0x20 ADD SWAP1 DUP1 DUP4 DUP4 JUMPDEST PUSH1 0x20 DUP4 LT PUSH2 0x1A4E JUMPI DUP1 MLOAD DUP3 MSTORE PUSH1 0x20 DUP3 ADD SWAP2 POP PUSH1 0x20 DUP2 ADD SWAP1 POP PUSH1 0x20 DUP4 SUB SWAP3 POP PUSH2 0x1A2B JUMP JUMPDEST PUSH1 0x1 DUP4 PUSH1 0x20 SUB PUSH2 0x100 EXP SUB DUP1 NOT DUP3 MLOAD AND DUP2 DUP5 MLOAD AND DUP1 DUP3 OR DUP6 MSTORE POP POP POP POP POP POP SWAP1 POP ADD SWAP2 POP POP SWAP1 DUP2 MSTORE PUSH1 0x20 ADD PUSH1 0x40 MLOAD DUP1 SWAP2 SUB SWAP1 KECCAK256 PUSH1 0x3 ADD SWAP1 DUP1 MLOAD SWAP1 PUSH1 0x20 ADD SWAP1 PUSH2 0x1A97 SWAP3 SWAP2 SWAP1 PUSH2 0x2A64 JUMP JUMPDEST POP DUP1 PUSH1 0x7 DUP7 PUSH1 0x40 MLOAD DUP1 DUP3 DUP1 MLOAD SWAP1 PUSH1 0x20 ADD SWAP1 DUP1 DUP4 DUP4 JUMPDEST PUSH1 0x20 DUP4 LT PUSH2 0x1ACF JUMPI DUP1 MLOAD DUP3 MSTORE PUSH1 0x20 DUP3 ADD SWAP2 POP PUSH1 0x20 DUP2 ADD SWAP1 POP PUSH1 0x20 DUP4 SUB SWAP3 POP PUSH2 0x1AAC JUMP JUMPDEST PUSH1 0x1 DUP4 PUSH1 0x20 SUB PUSH2 0x100 EXP SUB DUP1 NOT DUP3 MLOAD AND DUP2 DUP5 MLOAD AND DUP1 DUP3 OR DUP6 MSTORE POP POP POP POP POP POP SWAP1 POP ADD SWAP2 POP POP SWAP1 DUP2 MSTORE PUSH1 0x20 ADD PUSH1 0x40 MLOAD DUP1 SWAP2 SUB SWAP1 KECCAK256 PUSH1 0x4 ADD SWAP1 DUP1 MLOAD SWAP1 PUSH1 0x20 ADD SWAP1 PUSH2 0x1B18 SWAP3 SWAP2 SWAP1 PUSH2 0x2A64 JUMP JUMPDEST POP POP POP POP POP POP JUMP JUMPDEST PUSH1 0x60 PUSH1 0x5 PUSH1 0x0 SWAP1 SLOAD SWAP1 PUSH2 0x100 EXP SWAP1 DIV PUSH20 0xFFFFFFFFFFFFFFFFFFFFFFFFFFFFFFFFFFFFFFFF AND PUSH20 0xFFFFFFFFFFFFFFFFFFFFFFFFFFFFFFFFFFFFFFFF AND CALLER PUSH20 0xFFFFFFFFFFFFFFFFFFFFFFFFFFFFFFFFFFFFFFFF AND EQ PUSH2 0x1BC8 JUMPI PUSH1 0x40 MLOAD PUSH32 0x8C379A000000000000000000000000000000000000000000000000000000000 DUP2 MSTORE PUSH1 0x4 ADD DUP1 DUP1 PUSH1 0x20 ADD DUP3 DUP2 SUB DUP3 MSTORE PUSH1 0x44 DUP2 MSTORE PUSH1 0x20 ADD DUP1 PUSH2 0x2B10 PUSH1 0x44 SWAP2 CODECOPY PUSH1 0x60 ADD SWAP2 POP POP PUSH1 0x40 MLOAD DUP1 SWAP2 SUB SWAP1 REVERT JUMPDEST PUSH1 0x2 DUP3 DUP2 SLOAD DUP2 LT PUSH2 0x1BD5 JUMPI INVALID JUMPDEST SWAP1 PUSH1 0x0 MSTORE PUSH1 0x20 PUSH1 0x0 KECCAK256 ADD DUP1 SLOAD PUSH1 0x1 DUP2 PUSH1 0x1 AND ISZERO PUSH2 0x100 MUL SUB AND PUSH1 0x2 SWAP1 DIV DUP1 PUSH1 0x1F ADD PUSH1 0x20 DUP1 SWAP2 DIV MUL PUSH1 0x20 ADD PUSH1 0x40 MLOAD SWAP1 DUP2 ADD PUSH1 0x40 MSTORE DUP1 SWAP3 SWAP2 SWAP1 DUP2 DUP2 MSTORE PUSH1 0x20 ADD DUP3 DUP1 SLOAD PUSH1 0x1 DUP2 PUSH1 0x1 AND ISZERO PUSH2 0x100 MUL SUB AND PUSH1 0x2 SWAP1 DIV DUP1 ISZERO PUSH2 0x1C73 JUMPI DUP1 PUSH1 0x1F LT PUSH2 0x1C48 JUMPI PUSH2 0x100 DUP1 DUP4 SLOAD DIV MUL DUP4 MSTORE SWAP2 PUSH1 0x20 ADD SWAP2 PUSH2 0x1C73 JUMP JUMPDEST DUP3 ADD SWAP2 SWAP1 PUSH1 0x0 MSTORE PUSH1 0x20 PUSH1 0x0 KECCAK256 SWAP1 JUMPDEST DUP2 SLOAD DUP2 MSTORE SWAP1 PUSH1 0x1 ADD SWAP1 PUSH1 0x20 ADD DUP1 DUP4 GT PUSH2 0x1C56 JUMPI DUP3 SWAP1 SUB PUSH1 0x1F AND DUP3 ADD SWAP2 JUMPDEST POP POP POP POP POP SWAP1 POP SWAP2 SWAP1 POP JUMP JUMPDEST PUSH1 0x0 PUSH1 0x5 PUSH1 0x0 SWAP1 SLOAD SWAP1 PUSH2 0x100 EXP SWAP1 DIV PUSH20 0xFFFFFFFFFFFFFFFFFFFFFFFFFFFFFFFFFFFFFFFF AND PUSH20 0xFFFFFFFFFFFFFFFFFFFFFFFFFFFFFFFFFFFFFFFF AND CALLER PUSH20 0xFFFFFFFFFFFFFFFFFFFFFFFFFFFFFFFFFFFFFFFF AND EQ PUSH2 0x1D27 JUMPI PUSH1 0x40 MLOAD PUSH32 0x8C379A000000000000000000000000000000000000000000000000000000000 DUP2 MSTORE PUSH1 0x4 ADD DUP1 DUP1 PUSH1 0x20 ADD DUP3 DUP2 SUB DUP3 MSTORE PUSH1 0x44 DUP2 MSTORE PUSH1 0x20 ADD DUP1 PUSH2 0x2B10 PUSH1 0x44 SWAP2 CODECOPY PUSH1 0x60 ADD SWAP2 POP POP PUSH1 0x40 MLOAD DUP1 SWAP2 SUB SWAP1 REVERT JUMPDEST PUSH1 0x6 DUP3 PUSH1 0x40 MLOAD DUP1 DUP3 DUP1 MLOAD SWAP1 PUSH1 0x20 ADD SWAP1 DUP1 DUP4 DUP4 JUMPDEST PUSH1 0x20 DUP4 LT PUSH2 0x1D5D JUMPI DUP1 MLOAD DUP3 MSTORE PUSH1 0x20 DUP3 ADD SWAP2 POP PUSH1 0x20 DUP2 ADD SWAP1 POP PUSH1 0x20 DUP4 SUB SWAP3 POP PUSH2 0x1D3A JUMP JUMPDEST PUSH1 0x1 DUP4 PUSH1 0x20 SUB PUSH2 0x100 EXP SUB DUP1 NOT DUP3 MLOAD AND DUP2 DUP5 MLOAD AND DUP1 DUP3 OR DUP6 MSTORE POP POP POP POP POP POP SWAP1 POP ADD SWAP2 POP POP SWAP1 DUP2 MSTORE PUSH1 0x20 ADD PUSH1 0x40 MLOAD DUP1 SWAP2 SUB SWAP1 KECCAK256 SLOAD SWAP1 POP SWAP2 SWAP1 POP JUMP JUMPDEST PUSH1 0x6 DUP2 DUP1 MLOAD PUSH1 0x20 DUP2 ADD DUP3 ADD DUP1 MLOAD DUP5 DUP3 MSTORE PUSH1 0x20 DUP4 ADD PUSH1 0x20 DUP6 ADD KECCAK256 DUP2 DUP4 MSTORE DUP1 SWAP6 POP POP POP POP POP POP PUSH1 0x0 SWAP2 POP SWAP1 POP SLOAD DUP2 JUMP JUMPDEST PUSH1 0x0 PUSH1 0x5 PUSH1 0x0 SWAP1 SLOAD SWAP1 PUSH2 0x100 EXP SWAP1 DIV PUSH20 0xFFFFFFFFFFFFFFFFFFFFFFFFFFFFFFFFFFFFFFFF AND PUSH20 0xFFFFFFFFFFFFFFFFFFFFFFFFFFFFFFFFFFFFFFFF AND CALLER PUSH20 0xFFFFFFFFFFFFFFFFFFFFFFFFFFFFFFFFFFFFFFFF AND EQ PUSH2 0x1E6E JUMPI PUSH1 0x40 MLOAD PUSH32 0x8C379A000000000000000000000000000000000000000000000000000000000 DUP2 MSTORE PUSH1 0x4 ADD DUP1 DUP1 PUSH1 0x20 ADD DUP3 DUP2 SUB DUP3 MSTORE PUSH1 0x44 DUP2 MSTORE PUSH1 0x20 ADD DUP1 PUSH2 0x2B10 PUSH1 0x44 SWAP2 CODECOPY PUSH1 0x60 ADD SWAP2 POP POP PUSH1 0x40 MLOAD DUP1 SWAP2 SUB SWAP1 REVERT JUMPDEST PUSH1 0x3 DUP1 SLOAD SWAP1 POP SWAP1 POP SWAP1 JUMP JUMPDEST PUSH1 0x0 PUSH1 0x5 PUSH1 0x0 SWAP1 SLOAD SWAP1 PUSH2 0x100 EXP SWAP1 DIV PUSH20 0xFFFFFFFFFFFFFFFFFFFFFFFFFFFFFFFFFFFFFFFF AND PUSH20 0xFFFFFFFFFFFFFFFFFFFFFFFFFFFFFFFFFFFFFFFF AND CALLER PUSH20 0xFFFFFFFFFFFFFFFFFFFFFFFFFFFFFFFFFFFFFFFF AND EQ PUSH2 0x1F21 JUMPI PUSH1 0x40 MLOAD PUSH32 0x8C379A000000000000000000000000000000000000000000000000000000000 DUP2 MSTORE PUSH1 0x4 ADD DUP1 DUP1 PUSH1 0x20 ADD DUP3 DUP2 SUB DUP3 MSTORE PUSH1 0x44 DUP2 MSTORE PUSH1 0x20 ADD DUP1 PUSH2 0x2B10 PUSH1 0x44 SWAP2 CODECOPY PUSH1 0x60 ADD SWAP2 POP POP PUSH1 0x40 MLOAD DUP1 SWAP2 SUB SWAP1 REVERT JUMPDEST PUSH1 0x1 DUP1 SLOAD SWAP1 POP SWAP1 POP SWAP1 JUMP JUMPDEST PUSH1 0x2 DUP2 DUP2 SLOAD DUP2 LT PUSH2 0x1F3C JUMPI PUSH1 0x0 DUP1 REVERT JUMPDEST SWAP1 PUSH1 0x0 MSTORE PUSH1 0x20 PUSH1 0x0 KECCAK256 ADD PUSH1 0x0 SWAP2 POP SWAP1 POP DUP1 SLOAD PUSH1 0x1 DUP2 PUSH1 0x1 AND ISZERO PUSH2 0x100 MUL SUB AND PUSH1 0x2 SWAP1 DIV DUP1 PUSH1 0x1F ADD PUSH1 0x20 DUP1 SWAP2 DIV MUL PUSH1 0x20 ADD PUSH1 0x40 MLOAD SWAP1 DUP2 ADD PUSH1 0x40 MSTORE DUP1 SWAP3 SWAP2 SWAP1 DUP2 DUP2 MSTORE PUSH1 0x20 ADD DUP3 DUP1 SLOAD PUSH1 0x1 DUP2 PUSH1 0x1 AND ISZERO PUSH2 0x100 MUL SUB AND PUSH1 0x2 SWAP1 DIV DUP1 ISZERO PUSH2 0x1FE0 JUMPI DUP1 PUSH1 0x1F LT PUSH2 0x1FB5 JUMPI PUSH2 0x100 DUP1 DUP4 SLOAD DIV MUL DUP4 MSTORE SWAP2 PUSH1 0x20 ADD SWAP2 PUSH2 0x1FE0 JUMP JUMPDEST DUP3 ADD SWAP2 SWAP1 PUSH1 0x0 MSTORE PUSH1 0x20 PUSH1 0x0 KECCAK256 SWAP1 JUMPDEST DUP2 SLOAD DUP2 MSTORE SWAP1 PUSH1 0x1 ADD SWAP1 PUSH1 0x20 ADD DUP1 DUP4 GT PUSH2 0x1FC3 JUMPI DUP3 SWAP1 SUB PUSH1 0x1F AND DUP3 ADD SWAP2 JUMPDEST POP POP POP POP POP DUP2 JUMP JUMPDEST PUSH1 0x60 DUP1 PUSH1 0x60 DUP1 PUSH1 0x5 PUSH1 0x0 SWAP1 SLOAD SWAP1 PUSH2 0x100 EXP SWAP1 DIV PUSH20 0xFFFFFFFFFFFFFFFFFFFFFFFFFFFFFFFFFFFFFFFF AND PUSH20 0xFFFFFFFFFFFFFFFFFFFFFFFFFFFFFFFFFFFFFFFF AND CALLER PUSH20 0xFFFFFFFFFFFFFFFFFFFFFFFFFFFFFFFFFFFFFFFF AND EQ PUSH2 0x2094 JUMPI PUSH1 0x40 MLOAD PUSH32 0x8C379A000000000000000000000000000000000000000000000000000000000 DUP2 MSTORE PUSH1 0x4 ADD DUP1 DUP1 PUSH1 0x20 ADD DUP3 DUP2 SUB DUP3 MSTORE PUSH1 0x44 DUP2 MSTORE PUSH1 0x20 ADD DUP1 PUSH2 0x2B10 PUSH1 0x44 SWAP2 CODECOPY PUSH1 0x60 ADD SWAP2 POP POP PUSH1 0x40 MLOAD DUP1 SWAP2 SUB SWAP1 REVERT JUMPDEST PUSH1 0x7 DUP6 PUSH1 0x40 MLOAD DUP1 DUP3 DUP1 MLOAD SWAP1 PUSH1 0x20 ADD SWAP1 DUP1 DUP4 DUP4 JUMPDEST PUSH1 0x20 DUP4 LT PUSH2 0x20CA JUMPI DUP1 MLOAD DUP3 MSTORE PUSH1 0x20 DUP3 ADD SWAP2 POP PUSH1 0x20 DUP2 ADD SWAP1 POP PUSH1 0x20 DUP4 SUB SWAP3 POP PUSH2 0x20A7 JUMP JUMPDEST PUSH1 0x1 DUP4 PUSH1 0x20 SUB PUSH2 0x100 EXP SUB DUP1 NOT DUP3 MLOAD AND DUP2 DUP5 MLOAD AND DUP1 DUP3 OR DUP6 MSTORE POP POP POP POP POP POP SWAP1 POP ADD SWAP2 POP POP SWAP1 DUP2 MSTORE PUSH1 0x20 ADD PUSH1 0x40 MLOAD DUP1 SWAP2 SUB SWAP1 KECCAK256 PUSH1 0x1 ADD PUSH1 0x7 DUP7 PUSH1 0x40 MLOAD DUP1 DUP3 DUP1 MLOAD SWAP1 PUSH1 0x20 ADD SWAP1 DUP1 DUP4 DUP4 JUMPDEST PUSH1 0x20 DUP4 LT PUSH2 0x2136 JUMPI DUP1 MLOAD DUP3 MSTORE PUSH1 0x20 DUP3 ADD SWAP2 POP PUSH1 0x20 DUP2 ADD SWAP1 POP PUSH1 0x20 DUP4 SUB SWAP3 POP PUSH2 0x2113 JUMP JUMPDEST PUSH1 0x1 DUP4 PUSH1 0x20 SUB PUSH2 0x100 EXP SUB DUP1 NOT DUP3 MLOAD AND DUP2 DUP5 MLOAD AND DUP1 DUP3 OR DUP6 MSTORE POP POP POP POP POP POP SWAP1 POP ADD SWAP2 POP POP SWAP1 DUP2 MSTORE PUSH1 0x20 ADD PUSH1 0x40 MLOAD DUP1 SWAP2 SUB SWAP1 KECCAK256 PUSH1 0x2 ADD PUSH1 0x7 DUP8 PUSH1 0x40 MLOAD DUP1 DUP3 DUP1 MLOAD SWAP1 PUSH1 0x20 ADD SWAP1 DUP1 DUP4 DUP4 JUMPDEST PUSH1 0x20 DUP4 LT PUSH2 0x21A2 JUMPI DUP1 MLOAD DUP3 MSTORE PUSH1 0x20 DUP3 ADD SWAP2 POP PUSH1 0x20 DUP2 ADD SWAP1 POP PUSH1 0x20 DUP4 SUB SWAP3 POP PUSH2 0x217F JUMP JUMPDEST PUSH1 0x1 DUP4 PUSH1 0x20 SUB PUSH2 0x100 EXP SUB DUP1 NOT DUP3 MLOAD AND DUP2 DUP5 MLOAD AND DUP1 DUP3 OR DUP6 MSTORE POP POP POP POP POP POP SWAP1 POP ADD SWAP2 POP POP SWAP1 DUP2 MSTORE PUSH1 0x20 ADD PUSH1 0x40 MLOAD DUP1 SWAP2 SUB SWAP1 KECCAK256 PUSH1 0x3 ADD PUSH1 0x7 DUP9 PUSH1 0x40 MLOAD DUP1 DUP3 DUP1 MLOAD SWAP1 PUSH1 0x20 ADD SWAP1 DUP1 DUP4 DUP4 JUMPDEST PUSH1 0x20 DUP4 LT PUSH2 0x220E JUMPI DUP1 MLOAD DUP3 MSTORE PUSH1 0x20 DUP3 ADD SWAP2 POP PUSH1 0x20 DUP2 ADD SWAP1 POP PUSH1 0x20 DUP4 SUB SWAP3 POP PUSH2 0x21EB JUMP JUMPDEST PUSH1 0x1 DUP4 PUSH1 0x20 SUB PUSH2 0x100 EXP SUB DUP1 NOT DUP3 MLOAD AND DUP2 DUP5 MLOAD AND DUP1 DUP3 OR DUP6 MSTORE POP POP POP POP POP POP SWAP1 POP ADD SWAP2 POP POP SWAP1 DUP2 MSTORE PUSH1 0x20 ADD PUSH1 0x40 MLOAD DUP1 SWAP2 SUB SWAP1 KECCAK256 PUSH1 0x4 ADD DUP4 DUP1 SLOAD PUSH1 0x1 DUP2 PUSH1 0x1 AND ISZERO PUSH2 0x100 MUL SUB AND PUSH1 0x2 SWAP1 DIV DUP1 PUSH1 0x1F ADD PUSH1 0x20 DUP1 SWAP2 DIV MUL PUSH1 0x20 ADD PUSH1 0x40 MLOAD SWAP1 DUP2 ADD PUSH1 0x40 MSTORE DUP1 SWAP3 SWAP2 SWAP1 DUP2 DUP2 MSTORE PUSH1 0x20 ADD DUP3 DUP1 SLOAD PUSH1 0x1 DUP2 PUSH1 0x1 AND ISZERO PUSH2 0x100 MUL SUB AND PUSH1 0x2 SWAP1 DIV DUP1 ISZERO PUSH2 0x22D9 JUMPI DUP1 PUSH1 0x1F LT PUSH2 0x22AE JUMPI PUSH2 0x100 DUP1 DUP4 SLOAD DIV MUL DUP4 MSTORE SWAP2 PUSH1 0x20 ADD SWAP2 PUSH2 0x22D9 JUMP JUMPDEST DUP3 ADD SWAP2 SWAP1 PUSH1 0x0 MSTORE PUSH1 0x20 PUSH1 0x0 KECCAK256 SWAP1 JUMPDEST DUP2 SLOAD DUP2 MSTORE SWAP1 PUSH1 0x1 ADD SWAP1 PUSH1 0x20 ADD DUP1 DUP4 GT PUSH2 0x22BC JUMPI DUP3 SWAP1 SUB PUSH1 0x1F AND DUP3 ADD SWAP2 JUMPDEST POP POP POP POP POP SWAP4 POP DUP3 DUP1 SLOAD PUSH1 0x1 DUP2 PUSH1 0x1 AND ISZERO PUSH2 0x100 MUL SUB AND PUSH1 0x2 SWAP1 DIV DUP1 PUSH1 0x1F ADD PUSH1 0x20 DUP1 SWAP2 DIV MUL PUSH1 0x20 ADD PUSH1 0x40 MLOAD SWAP1 DUP2 ADD PUSH1 0x40 MSTORE DUP1 SWAP3 SWAP2 SWAP1 DUP2 DUP2 MSTORE PUSH1 0x20 ADD DUP3 DUP1 SLOAD PUSH1 0x1 DUP2 PUSH1 0x1 AND ISZERO PUSH2 0x100 MUL SUB AND PUSH1 0x2 SWAP1 DIV DUP1 ISZERO PUSH2 0x2375 JUMPI DUP1 PUSH1 0x1F LT PUSH2 0x234A JUMPI PUSH2 0x100 DUP1 DUP4 SLOAD DIV MUL DUP4 MSTORE SWAP2 PUSH1 0x20 ADD SWAP2 PUSH2 0x2375 JUMP JUMPDEST DUP3 ADD SWAP2 SWAP1 PUSH1 0x0 MSTORE PUSH1 0x20 PUSH1 0x0 KECCAK256 SWAP1 JUMPDEST DUP2 SLOAD DUP2 MSTORE SWAP1 PUSH1 0x1 ADD SWAP1 PUSH1 0x20 ADD DUP1 DUP4 GT PUSH2 0x2358 JUMPI DUP3 SWAP1 SUB PUSH1 0x1F AND DUP3 ADD SWAP2 JUMPDEST POP POP POP POP POP SWAP3 POP DUP2 DUP1 SLOAD PUSH1 0x1 DUP2 PUSH1 0x1 AND ISZERO PUSH2 0x100 MUL SUB AND PUSH1 0x2 SWAP1 DIV DUP1 PUSH1 0x1F ADD PUSH1 0x20 DUP1 SWAP2 DIV MUL PUSH1 0x20 ADD PUSH1 0x40 MLOAD SWAP1 DUP2 ADD PUSH1 0x40 MSTORE DUP1 SWAP3 SWAP2 SWAP1 DUP2 DUP2 MSTORE PUSH1 0x20 ADD DUP3 DUP1 SLOAD PUSH1 0x1 DUP2 PUSH1 0x1 AND ISZERO PUSH2 0x100 MUL SUB AND PUSH1 0x2 SWAP1 DIV DUP1 ISZERO PUSH2 0x2411 JUMPI DUP1 PUSH1 0x1F LT PUSH2 0x23E6 JUMPI PUSH2 0x100 DUP1 DUP4 SLOAD DIV MUL DUP4 MSTORE SWAP2 PUSH1 0x20 ADD SWAP2 PUSH2 0x2411 JUMP JUMPDEST DUP3 ADD SWAP2 SWAP1 PUSH1 0x0 MSTORE PUSH1 0x20 PUSH1 0x0 KECCAK256 SWAP1 JUMPDEST DUP2 SLOAD DUP2 MSTORE SWAP1 PUSH1 0x1 ADD SWAP1 PUSH1 0x20 ADD DUP1 DUP4 GT PUSH2 0x23F4 JUMPI DUP3 SWAP1 SUB PUSH1 0x1F AND DUP3 ADD SWAP2 JUMPDEST POP POP POP POP POP SWAP2 POP DUP1 DUP1 SLOAD PUSH1 0x1 DUP2 PUSH1 0x1 AND ISZERO PUSH2 0x100 MUL SUB AND PUSH1 0x2 SWAP1 DIV DUP1 PUSH1 0x1F ADD PUSH1 0x20 DUP1 SWAP2 DIV MUL PUSH1 0x20 ADD PUSH1 0x40 MLOAD SWAP1 DUP2 ADD PUSH1 0x40 MSTORE DUP1 SWAP3 SWAP2 SWAP1 DUP2 DUP2 MSTORE PUSH1 0x20 ADD DUP3 DUP1 SLOAD PUSH1 0x1 DUP2 PUSH1 0x1 AND ISZERO PUSH2 0x100 MUL SUB AND PUSH1 0x2 SWAP1 DIV DUP1 ISZERO PUSH2 0x24AD JUMPI DUP1 PUSH1 0x1F LT PUSH2 0x2482 JUMPI PUSH2 0x100 DUP1 DUP4 SLOAD DIV MUL DUP4 MSTORE SWAP2 PUSH1 0x20 ADD SWAP2 PUSH2 0x24AD JUMP JUMPDEST DUP3 ADD SWAP2 SWAP1 PUSH1 0x0 MSTORE PUSH1 0x20 PUSH1 0x0 KECCAK256 SWAP1 JUMPDEST DUP2 SLOAD DUP2 MSTORE SWAP1 PUSH1 0x1 ADD SWAP1 PUSH1 0x20 ADD DUP1 DUP4 GT PUSH2 0x2490 JUMPI DUP3 SWAP1 SUB PUSH1 0x1F AND DUP3 ADD SWAP2 JUMPDEST POP POP POP POP POP SWAP1 POP SWAP4 POP SWAP4 POP SWAP4 POP SWAP4 POP SWAP2 SWAP4 POP SWAP2 SWAP4 JUMP JUMPDEST PUSH20 0x70F6714DCA2F53A17558C5DFF99D572959F77D9C PUSH20 0xFFFFFFFFFFFFFFFFFFFFFFFFFFFFFFFFFFFFFFFF AND CALLER PUSH20 0xFFFFFFFFFFFFFFFFFFFFFFFFFFFFFFFFFFFFFFFF AND EQ PUSH2 0x255B JUMPI PUSH1 0x40 MLOAD PUSH32 0x8C379A000000000000000000000000000000000000000000000000000000000 DUP2 MSTORE PUSH1 0x4 ADD DUP1 DUP1 PUSH1 0x20 ADD DUP3 DUP2 SUB DUP3 MSTORE PUSH1 0x44 DUP2 MSTORE PUSH1 0x20 ADD DUP1 PUSH2 0x2B10 PUSH1 0x44 SWAP2 CODECOPY PUSH1 0x60 ADD SWAP2 POP POP PUSH1 0x40 MLOAD DUP1 SWAP2 SUB SWAP1 REVERT JUMPDEST DUP1 PUSH1 0x5 PUSH1 0x14 PUSH2 0x100 EXP DUP2 SLOAD DUP2 PUSH1 0xFF MUL NOT AND SWAP1 DUP4 ISZERO ISZERO MUL OR SWAP1 SSTORE POP POP JUMP JUMPDEST PUSH1 0x7 DUP2 DUP1 MLOAD PUSH1 0x20 DUP2 ADD DUP3 ADD DUP1 MLOAD DUP5 DUP3 MSTORE PUSH1 0x20 DUP4 ADD PUSH1 0x20 DUP6 ADD KECCAK256 DUP2 DUP4 MSTORE DUP1 SWAP6 POP POP POP POP POP POP PUSH1 0x0 SWAP2 POP SWAP1 POP DUP1 PUSH1 0x0 ADD DUP1 SLOAD PUSH1 0x1 DUP2 PUSH1 0x1 AND ISZERO PUSH2 0x100 MUL SUB AND PUSH1 0x2 SWAP1 DIV DUP1 PUSH1 0x1F ADD PUSH1 0x20 DUP1 SWAP2 DIV MUL PUSH1 0x20 ADD PUSH1 0x40 MLOAD SWAP1 DUP2 ADD PUSH1 0x40 MSTORE DUP1 SWAP3 SWAP2 SWAP1 DUP2 DUP2 MSTORE PUSH1 0x20 ADD DUP3 DUP1 SLOAD PUSH1 0x1 DUP2 PUSH1 0x1 AND ISZERO PUSH2 0x100 MUL SUB AND PUSH1 0x2 SWAP1 DIV DUP1 ISZERO PUSH2 0x263A JUMPI DUP1 PUSH1 0x1F LT PUSH2 0x260F JUMPI PUSH2 0x100 DUP1 DUP4 SLOAD DIV MUL DUP4 MSTORE SWAP2 PUSH1 0x20 ADD SWAP2 PUSH2 0x263A JUMP JUMPDEST DUP3 ADD SWAP2 SWAP1 PUSH1 0x0 MSTORE PUSH1 0x20 PUSH1 0x0 KECCAK256 SWAP1 JUMPDEST DUP2 SLOAD DUP2 MSTORE SWAP1 PUSH1 0x1 ADD SWAP1 PUSH1 0x20 ADD DUP1 DUP4 GT PUSH2 0x261D JUMPI DUP3 SWAP1 SUB PUSH1 0x1F AND DUP3 ADD SWAP2 JUMPDEST POP POP POP POP POP SWAP1 DUP1 PUSH1 0x1 ADD DUP1 SLOAD PUSH1 0x1 DUP2 PUSH1 0x1 AND ISZERO PUSH2 0x100 MUL SUB AND PUSH1 0x2 SWAP1 DIV DUP1 PUSH1 0x1F ADD PUSH1 0x20 DUP1 SWAP2 DIV MUL PUSH1 0x20 ADD PUSH1 0x40 MLOAD SWAP1 DUP2 ADD PUSH1 0x40 MSTORE DUP1 SWAP3 SWAP2 SWAP1 DUP2 DUP2 MSTORE PUSH1 0x20 ADD DUP3 DUP1 SLOAD PUSH1 0x1 DUP2 PUSH1 0x1 AND ISZERO PUSH2 0x100 MUL SUB AND PUSH1 0x2 SWAP1 DIV DUP1 ISZERO PUSH2 0x26D8 JUMPI DUP1 PUSH1 0x1F LT PUSH2 0x26AD JUMPI PUSH2 0x100 DUP1 DUP4 SLOAD DIV MUL DUP4 MSTORE SWAP2 PUSH1 0x20 ADD SWAP2 PUSH2 0x26D8 JUMP JUMPDEST DUP3 ADD SWAP2 SWAP1 PUSH1 0x0 MSTORE PUSH1 0x20 PUSH1 0x0 KECCAK256 SWAP1 JUMPDEST DUP2 SLOAD DUP2 MSTORE SWAP1 PUSH1 0x1 ADD SWAP1 PUSH1 0x20 ADD DUP1 DUP4 GT PUSH2 0x26BB JUMPI DUP3 SWAP1 SUB PUSH1 0x1F AND DUP3 ADD SWAP2 JUMPDEST POP POP POP POP POP SWAP1 DUP1 PUSH1 0x2 ADD DUP1 SLOAD PUSH1 0x1 DUP2 PUSH1 0x1 AND ISZERO PUSH2 0x100 MUL SUB AND PUSH1 0x2 SWAP1 DIV DUP1 PUSH1 0x1F ADD PUSH1 0x20 DUP1 SWAP2 DIV MUL PUSH1 0x20 ADD PUSH1 0x40 MLOAD SWAP1 DUP2 ADD PUSH1 0x40 MSTORE DUP1 SWAP3 SWAP2 SWAP1 DUP2 DUP2 MSTORE PUSH1 0x20 ADD DUP3 DUP1 SLOAD PUSH1 0x1 DUP2 PUSH1 0x1 AND ISZERO PUSH2 0x100 MUL SUB AND PUSH1 0x2 SWAP1 DIV DUP1 ISZERO PUSH2 0x2776 JUMPI DUP1 PUSH1 0x1F LT PUSH2 0x274B JUMPI PUSH2 0x100 DUP1 DUP4 SLOAD DIV MUL DUP4 MSTORE SWAP2 PUSH1 0x20 ADD SWAP2 PUSH2 0x2776 JUMP JUMPDEST DUP3 ADD SWAP2 SWAP1 PUSH1 0x0 MSTORE PUSH1 0x20 PUSH1 0x0 KECCAK256 SWAP1 JUMPDEST DUP2 SLOAD DUP2 MSTORE SWAP1 PUSH1 0x1 ADD SWAP1 PUSH1 0x20 ADD DUP1 DUP4 GT PUSH2 0x2759 JUMPI DUP3 SWAP1 SUB PUSH1 0x1F AND DUP3 ADD SWAP2 JUMPDEST POP POP POP POP POP SWAP1 DUP1 PUSH1 0x3 ADD DUP1 SLOAD PUSH1 0x1 DUP2 PUSH1 0x1 AND ISZERO PUSH2 0x100 MUL SUB AND PUSH1 0x2 SWAP1 DIV DUP1 PUSH1 0x1F ADD PUSH1 0x20 DUP1 SWAP2 DIV MUL PUSH1 0x20 ADD PUSH1 0x40 MLOAD SWAP1 DUP2 ADD PUSH1 0x40 MSTORE DUP1 SWAP3 SWAP2 SWAP1 DUP2 DUP2 MSTORE PUSH1 0x20 ADD DUP3 DUP1 SLOAD PUSH1 0x1 DUP2 PUSH1 0x1 AND ISZERO PUSH2 0x100 MUL SUB AND PUSH1 0x2 SWAP1 DIV DUP1 ISZERO PUSH2 0x2814 JUMPI DUP1 PUSH1 0x1F LT PUSH2 0x27E9 JUMPI PUSH2 0x100 DUP1 DUP4 SLOAD DIV MUL DUP4 MSTORE SWAP2 PUSH1 0x20 ADD SWAP2 PUSH2 0x2814 JUMP JUMPDEST DUP3 ADD SWAP2 SWAP1 PUSH1 0x0 MSTORE PUSH1 0x20 PUSH1 0x0 KECCAK256 SWAP1 JUMPDEST DUP2 SLOAD DUP2 MSTORE SWAP1 PUSH1 0x1 ADD SWAP1 PUSH1 0x20 ADD DUP1 DUP4 GT PUSH2 0x27F7 JUMPI DUP3 SWAP1 SUB PUSH1 0x1F AND DUP3 ADD SWAP2 JUMPDEST POP POP POP POP POP SWAP1 DUP1 PUSH1 0x4 ADD DUP1 SLOAD PUSH1 0x1 DUP2 PUSH1 0x1 AND ISZERO PUSH2 0x100 MUL SUB AND PUSH1 0x2 SWAP1 DIV DUP1 PUSH1 0x1F ADD PUSH1 0x20 DUP1 SWAP2 DIV MUL PUSH1 0x20 ADD PUSH1 0x40 MLOAD SWAP1 DUP2 ADD PUSH1 0x40 MSTORE DUP1 SWAP3 SWAP2 SWAP1 DUP2 DUP2 MSTORE PUSH1 0x20 ADD DUP3 DUP1 SLOAD PUSH1 0x1 DUP2 PUSH1 0x1 AND ISZERO PUSH2 0x100 MUL SUB AND PUSH1 0x2 SWAP1 DIV DUP1 ISZERO PUSH2 0x28B2 JUMPI DUP1 PUSH1 0x1F LT PUSH2 0x2887 JUMPI PUSH2 0x100 DUP1 DUP4 SLOAD DIV MUL DUP4 MSTORE SWAP2 PUSH1 0x20 ADD SWAP2 PUSH2 0x28B2 JUMP JUMPDEST DUP3 ADD SWAP2 SWAP1 PUSH1 0x0 MSTORE PUSH1 0x20 PUSH1 0x0 KECCAK256 SWAP1 JUMPDEST DUP2 SLOAD DUP2 MSTORE SWAP1 PUSH1 0x1 ADD SWAP1 PUSH1 0x20 ADD DUP1 DUP4 GT PUSH2 0x2895 JUMPI DUP3 SWAP1 SUB PUSH1 0x1F AND DUP3 ADD SWAP2 JUMPDEST POP POP POP POP POP SWAP1 POP DUP6 JUMP JUMPDEST PUSH1 0x0 PUSH1 0x3 DUP1 SLOAD SWAP1 POP SWAP1 POP DUP1 PUSH1 0x6 DUP5 PUSH1 0x40 MLOAD DUP1 DUP3 DUP1 MLOAD SWAP1 PUSH1 0x20 ADD SWAP1 DUP1 DUP4 DUP4 JUMPDEST PUSH1 0x20 DUP4 LT PUSH2 0x28FD JUMPI DUP1 MLOAD DUP3 MSTORE PUSH1 0x20 DUP3 ADD SWAP2 POP PUSH1 0x20 DUP2 ADD SWAP1 POP PUSH1 0x20 DUP4 SUB SWAP3 POP PUSH2 0x28DA JUMP JUMPDEST PUSH1 0x1 DUP4 PUSH1 0x20 SUB PUSH2 0x100 EXP SUB DUP1 NOT DUP3 MLOAD AND DUP2 DUP5 MLOAD AND DUP1 DUP3 OR DUP6 MSTORE POP POP POP POP POP POP SWAP1 POP ADD SWAP2 POP POP SWAP1 DUP2 MSTORE PUSH1 0x20 ADD PUSH1 0x40 MLOAD DUP1 SWAP2 SUB SWAP1 KECCAK256 DUP2 SWAP1 SSTORE POP PUSH1 0x2 DUP3 SWAP1 DUP1 PUSH1 0x1 DUP2 SLOAD ADD DUP1 DUP3 SSTORE DUP1 SWAP2 POP POP PUSH1 0x1 SWAP1 SUB SWAP1 PUSH1 0x0 MSTORE PUSH1 0x20 PUSH1 0x0 KECCAK256 ADD PUSH1 0x0 SWAP1 SWAP2 SWAP1 SWAP2 SWAP1 SWAP2 POP SWAP1 DUP1 MLOAD SWAP1 PUSH1 0x20 ADD SWAP1 PUSH2 0x296F SWAP3 SWAP2 SWAP1 PUSH2 0x2A64 JUMP JUMPDEST POP PUSH1 0x1 DUP4 SWAP1 DUP1 PUSH1 0x1 DUP2 SLOAD ADD DUP1 DUP3 SSTORE DUP1 SWAP2 POP POP PUSH1 0x1 SWAP1 SUB SWAP1 PUSH1 0x0 MSTORE PUSH1 0x20 PUSH1 0x0 KECCAK256 ADD PUSH1 0x0 SWAP1 SWAP2 SWAP1 SWAP2 SWAP1 SWAP2 POP SWAP1 DUP1 MLOAD SWAP1 PUSH1 0x20 ADD SWAP1 PUSH2 0x29AB SWAP3 SWAP2 SWAP1 PUSH2 0x2A64 JUMP JUMPDEST POP PUSH32 0xC9D3EEBCE49314DE171AEF180EE3D8275F98728488DB5FE2835492BE5B5A0556 DUP4 PUSH1 0x40 MLOAD DUP1 DUP1 PUSH1 0x20 ADD DUP3 DUP2 SUB DUP3 MSTORE DUP4 DUP2 DUP2 MLOAD DUP2 MSTORE PUSH1 0x20 ADD SWAP2 POP DUP1 MLOAD SWAP1 PUSH1 0x20 ADD SWAP1 DUP1 DUP4 DUP4 PUSH1 0x0 JUMPDEST DUP4 DUP2 LT ISZERO PUSH2 0x2A0E JUMPI DUP1 DUP3 ADD MLOAD DUP2 DUP5 ADD MSTORE PUSH1 0x20 DUP2 ADD SWAP1 POP PUSH2 0x29F3 JUMP JUMPDEST POP POP POP POP SWAP1 POP SWAP1 DUP2 ADD SWAP1 PUSH1 0x1F AND DUP1 ISZERO PUSH2 0x2A3B JUMPI DUP1 DUP3 SUB DUP1 MLOAD PUSH1 0x1 DUP4 PUSH1 0x20 SUB PUSH2 0x100 EXP SUB NOT AND DUP2 MSTORE PUSH1 0x20 ADD SWAP2 POP JUMPDEST POP SWAP3 POP POP POP PUSH1 0x40 MLOAD DUP1 SWAP2 SUB SWAP1 LOG1 POP POP POP JUMP JUMPDEST PUSH1 0x0 PUSH1 0x5 PUSH1 0x14 SWAP1 SLOAD SWAP1 PUSH2 0x100 EXP SWAP1 DIV PUSH1 0xFF AND SWAP1 POP SWAP1 JUMP JUMPDEST DUP3 DUP1 SLOAD PUSH1 0x1 DUP2 PUSH1 0x1 AND ISZERO PUSH2 0x100 MUL SUB AND PUSH1 0x2 SWAP1 DIV SWAP1 PUSH1 0x0 MSTORE PUSH1 0x20 PUSH1 0x0 KECCAK256 SWAP1 PUSH1 0x1F ADD PUSH1 0x20 SWAP1 DIV DUP2 ADD SWAP3 DUP3 PUSH2 0x2A9A JUMPI PUSH1 0x0 DUP6 SSTORE PUSH2 0x2AE1 JUMP JUMPDEST DUP3 PUSH1 0x1F LT PUSH2 0x2AB3 JUMPI DUP1 MLOAD PUSH1 0xFF NOT AND DUP4 DUP1 ADD OR DUP6 SSTORE PUSH2 0x2AE1 JUMP JUMPDEST DUP3 DUP1 ADD PUSH1 0x1 ADD DUP6 SSTORE DUP3 ISZERO PUSH2 0x2AE1 JUMPI SWAP2 DUP3 ADD JUMPDEST DUP3 DUP2 GT ISZERO PUSH2 0x2AE0 JUMPI DUP3 MLOAD DUP3 SSTORE SWAP2 PUSH1 0x20 ADD SWAP2 SWAP1 PUSH1 0x1 ADD SWAP1 PUSH2 0x2AC5 JUMP JUMPDEST JUMPDEST POP SWAP1 POP PUSH2 0x2AEE SWAP2 SWAP1 PUSH2 0x2AF2 JUMP JUMPDEST POP SWAP1 JUMP JUMPDEST JUMPDEST DUP1 DUP3 GT ISZERO PUSH2 0x2B0B JUMPI PUSH1 0x0 DUP2 PUSH1 0x0 SWAP1 SSTORE POP PUSH1 0x1 ADD PUSH2 0x2AF3 JUMP JUMPDEST POP SWAP1 JUMP INVALID 0x4C 0x27 PUSH2 0x6472 PUSH6 0x736120717565 KECCAK256 PUSH9 0x61207265616C69747A PUSH2 0x7420 PUSH13 0x61206372696461206E6F207465 KECCAK256 PUSH6 0x6C7320706572 PUSH14 0x6973736F732064652070726F7069 PUSH6 0x7461742EA264 PUSH10 0x706673582212204B3750 GASLIMIT PUSH17 0x5149EEE6117F2F77D376AEE30629E39A36 0xD EQ ORIGIN PUSH7 0x547642916C7564 PUSH20 0x6F6C634300070600336080604052348015610010 JUMPI PUSH1 0x0 DUP1 REVERT JUMPDEST POP PUSH1 0x40 MLOAD PUSH2 0x7B6 CODESIZE SUB DUP1 PUSH2 0x7B6 DUP4 CODECOPY DUP2 DUP2 ADD PUSH1 0x40 MSTORE PUSH1 0x20 DUP2 LT ISZERO PUSH2 0x33 JUMPI PUSH1 0x0 DUP1 REVERT JUMPDEST DUP2 ADD SWAP1 DUP1 DUP1 MLOAD SWAP1 PUSH1 0x20 ADD SWAP1 SWAP3 SWAP2 SWAP1 POP POP POP DUP1 PUSH1 0x0 DUP1 PUSH2 0x100 EXP DUP2 SLOAD DUP2 PUSH20 0xFFFFFFFFFFFFFFFFFFFFFFFFFFFFFFFFFFFFFFFF MUL NOT AND SWAP1 DUP4 PUSH20 0xFFFFFFFFFFFFFFFFFFFFFFFFFFFFFFFFFFFFFFFF AND MUL OR SWAP1 SSTORE POP ADDRESS PUSH1 0x1 PUSH1 0x0 PUSH2 0x100 EXP DUP2 SLOAD DUP2 PUSH20 0xFFFFFFFFFFFFFFFFFFFFFFFFFFFFFFFFFFFFFFFF MUL NOT AND SWAP1 DUP4 PUSH20 0xFFFFFFFFFFFFFFFFFFFFFFFFFFFFFFFFFFFFFFFF AND MUL OR SWAP1 SSTORE POP POP PUSH2 0x6E1 DUP1 PUSH2 0xD5 PUSH1 0x0 CODECOPY PUSH1 0x0 RETURN INVALID PUSH1 0x80 PUSH1 0x40 MSTORE CALLVALUE DUP1 ISZERO PUSH2 0x10 JUMPI PUSH1 0x0 DUP1 REVERT JUMPDEST POP PUSH1 0x4 CALLDATASIZE LT PUSH2 0x41 JUMPI PUSH1 0x0 CALLDATALOAD PUSH1 0xE0 SHR DUP1 PUSH4 0x2B68B9C6 EQ PUSH2 0x46 JUMPI DUP1 PUSH4 0x349D6F7C EQ PUSH2 0x50 JUMPI DUP1 PUSH4 0x893D20E8 EQ PUSH2 0x23B JUMPI JUMPDEST PUSH1 0x0 DUP1 REVERT JUMPDEST PUSH2 0x4E PUSH2 0x26F JUMP JUMPDEST STOP JUMPDEST PUSH2 0x1C0 PUSH1 0x4 DUP1 CALLDATASIZE SUB PUSH1 0x60 DUP2 LT ISZERO PUSH2 0x66 JUMPI PUSH1 0x0 DUP1 REVERT JUMPDEST DUP2 ADD SWAP1 DUP1 DUP1 CALLDATALOAD PUSH20 0xFFFFFFFFFFFFFFFFFFFFFFFFFFFFFFFFFFFFFFFF AND SWAP1 PUSH1 0x20 ADD SWAP1 SWAP3 SWAP2 SWAP1 DUP1 CALLDATALOAD SWAP1 PUSH1 0x20 ADD SWAP1 PUSH5 0x100000000 DUP2 GT ISZERO PUSH2 0xA3 JUMPI PUSH1 0x0 DUP1 REVERT JUMPDEST DUP3 ADD DUP4 PUSH1 0x20 DUP3 ADD GT ISZERO PUSH2 0xB5 JUMPI PUSH1 0x0 DUP1 REVERT JUMPDEST DUP1 CALLDATALOAD SWAP1 PUSH1 0x20 ADD SWAP2 DUP5 PUSH1 0x1 DUP4 MUL DUP5 ADD GT PUSH5 0x100000000 DUP4 GT OR ISZERO PUSH2 0xD7 JUMPI PUSH1 0x0 DUP1 REVERT JUMPDEST SWAP2 SWAP1 DUP1 DUP1 PUSH1 0x1F ADD PUSH1 0x20 DUP1 SWAP2 DIV MUL PUSH1 0x20 ADD PUSH1 0x40 MLOAD SWAP1 DUP2 ADD PUSH1 0x40 MSTORE DUP1 SWAP4 SWAP3 SWAP2 SWAP1 DUP2 DUP2 MSTORE PUSH1 0x20 ADD DUP4 DUP4 DUP1 DUP3 DUP5 CALLDATACOPY PUSH1 0x0 DUP2 DUP5 ADD MSTORE PUSH1 0x1F NOT PUSH1 0x1F DUP3 ADD AND SWAP1 POP DUP1 DUP4 ADD SWAP3 POP POP POP POP POP POP POP SWAP2 SWAP3 SWAP2 SWAP3 SWAP1 DUP1 CALLDATALOAD SWAP1 PUSH1 0x20 ADD SWAP1 PUSH5 0x100000000 DUP2 GT ISZERO PUSH2 0x13A JUMPI PUSH1 0x0 DUP1 REVERT JUMPDEST DUP3 ADD DUP4 PUSH1 0x20 DUP3 ADD GT ISZERO PUSH2 0x14C JUMPI PUSH1 0x0 DUP1 REVERT JUMPDEST DUP1 CALLDATALOAD SWAP1 PUSH1 0x20 ADD SWAP2 DUP5 PUSH1 0x1 DUP4 MUL DUP5 ADD GT PUSH5 0x100000000 DUP4 GT OR ISZERO PUSH2 0x16E JUMPI PUSH1 0x0 DUP1 REVERT JUMPDEST SWAP2 SWAP1 DUP1 DUP1 PUSH1 0x1F ADD PUSH1 0x20 DUP1 SWAP2 DIV MUL PUSH1 0x20 ADD PUSH1 0x40 MLOAD SWAP1 DUP2 ADD PUSH1 0x40 MSTORE DUP1 SWAP4 SWAP3 SWAP2 SWAP1 DUP2 DUP2 MSTORE PUSH1 0x20 ADD DUP4 DUP4 DUP1 DUP3 DUP5 CALLDATACOPY PUSH1 0x0 DUP2 DUP5 ADD MSTORE PUSH1 0x1F NOT PUSH1 0x1F DUP3 ADD AND SWAP1 POP DUP1 DUP4 ADD SWAP3 POP POP POP POP POP POP POP SWAP2 SWAP3 SWAP2 SWAP3 SWAP1 POP POP POP PUSH2 0x2A8 JUMP JUMPDEST PUSH1 0x40 MLOAD DUP1 DUP1 PUSH1 0x20 ADD DUP3 DUP2 SUB DUP3 MSTORE DUP4 DUP2 DUP2 MLOAD DUP2 MSTORE PUSH1 0x20 ADD SWAP2 POP DUP1 MLOAD SWAP1 PUSH1 0x20 ADD SWAP1 DUP1 DUP4 DUP4 PUSH1 0x0 JUMPDEST DUP4 DUP2 LT ISZERO PUSH2 0x200 JUMPI DUP1 DUP3 ADD MLOAD DUP2 DUP5 ADD MSTORE PUSH1 0x20 DUP2 ADD SWAP1 POP PUSH2 0x1E5 JUMP JUMPDEST POP POP POP POP SWAP1 POP SWAP1 DUP2 ADD SWAP1 PUSH1 0x1F AND DUP1 ISZERO PUSH2 0x22D JUMPI DUP1 DUP3 SUB DUP1 MLOAD PUSH1 0x1 DUP4 PUSH1 0x20 SUB PUSH2 0x100 EXP SUB NOT AND DUP2 MSTORE PUSH1 0x20 ADD SWAP2 POP JUMPDEST POP SWAP3 POP POP POP PUSH1 0x40 MLOAD DUP1 SWAP2 SUB SWAP1 RETURN JUMPDEST PUSH2 0x243 PUSH2 0x593 JUMP JUMPDEST PUSH1 0x40 MLOAD DUP1 DUP3 PUSH20 0xFFFFFFFFFFFFFFFFFFFFFFFFFFFFFFFFFFFFFFFF AND DUP2 MSTORE PUSH1 0x20 ADD SWAP2 POP POP PUSH1 0x40 MLOAD DUP1 SWAP2 SUB SWAP1 RETURN JUMPDEST PUSH1 0x0 DUP1 SLOAD SWAP1 PUSH2 0x100 EXP SWAP1 DIV PUSH20 0xFFFFFFFFFFFFFFFFFFFFFFFFFFFFFFFFFFFFFFFF AND PUSH20 0xFFFFFFFFFFFFFFFFFFFFFFFFFFFFFFFFFFFFFFFF AND SELFDESTRUCT JUMPDEST PUSH1 0x60 PUSH1 0x0 DUP1 SLOAD SWAP1 PUSH2 0x100 EXP SWAP1 DIV PUSH20 0xFFFFFFFFFFFFFFFFFFFFFFFFFFFFFFFFFFFFFFFF AND PUSH20 0xFFFFFFFFFFFFFFFFFFFFFFFFFFFFFFFFFFFFFFFF AND CALLER PUSH20 0xFFFFFFFFFFFFFFFFFFFFFFFFFFFFFFFFFFFFFFFF AND EQ PUSH2 0x34E JUMPI PUSH1 0x40 MLOAD PUSH32 0x8C379A000000000000000000000000000000000000000000000000000000000 DUP2 MSTORE PUSH1 0x4 ADD DUP1 DUP1 PUSH1 0x20 ADD DUP3 DUP2 SUB DUP3 MSTORE PUSH1 0x44 DUP2 MSTORE PUSH1 0x20 ADD DUP1 PUSH2 0x668 PUSH1 0x44 SWAP2 CODECOPY PUSH1 0x60 ADD SWAP2 POP POP PUSH1 0x40 MLOAD DUP1 SWAP2 SUB SWAP1 REVERT JUMPDEST DUP3 PUSH1 0x2 SWAP1 DUP1 MLOAD SWAP1 PUSH1 0x20 ADD SWAP1 PUSH2 0x364 SWAP3 SWAP2 SWAP1 PUSH2 0x5BC JUMP JUMPDEST POP DUP4 PUSH20 0xFFFFFFFFFFFFFFFFFFFFFFFFFFFFFFFFFFFFFFFF AND PUSH4 0xF6A0576D DUP5 DUP5 PUSH1 0x40 MLOAD DUP4 PUSH4 0xFFFFFFFF AND PUSH1 0xE0 SHL DUP2 MSTORE PUSH1 0x4 ADD DUP1 DUP1 PUSH1 0x20 ADD DUP1 PUSH1 0x20 ADD DUP4 DUP2 SUB DUP4 MSTORE DUP6 DUP2 DUP2 MLOAD DUP2 MSTORE PUSH1 0x20 ADD SWAP2 POP DUP1 MLOAD SWAP1 PUSH1 0x20 ADD SWAP1 DUP1 DUP4 DUP4 PUSH1 0x0 JUMPDEST DUP4 DUP2 LT ISZERO PUSH2 0x3D6 JUMPI DUP1 DUP3 ADD MLOAD DUP2 DUP5 ADD MSTORE PUSH1 0x20 DUP2 ADD SWAP1 POP PUSH2 0x3BB JUMP JUMPDEST POP POP POP POP SWAP1 POP SWAP1 DUP2 ADD SWAP1 PUSH1 0x1F AND DUP1 ISZERO PUSH2 0x403 JUMPI DUP1 DUP3 SUB DUP1 MLOAD PUSH1 0x1 DUP4 PUSH1 0x20 SUB PUSH2 0x100 EXP SUB NOT AND DUP2 MSTORE PUSH1 0x20 ADD SWAP2 POP JUMPDEST POP DUP4 DUP2 SUB DUP3 MSTORE DUP5 DUP2 DUP2 MLOAD DUP2 MSTORE PUSH1 0x20 ADD SWAP2 POP DUP1 MLOAD SWAP1 PUSH1 0x20 ADD SWAP1 DUP1 DUP4 DUP4 PUSH1 0x0 JUMPDEST DUP4 DUP2 LT ISZERO PUSH2 0x43C JUMPI DUP1 DUP3 ADD MLOAD DUP2 DUP5 ADD MSTORE PUSH1 0x20 DUP2 ADD SWAP1 POP PUSH2 0x421 JUMP JUMPDEST POP POP POP POP SWAP1 POP SWAP1 DUP2 ADD SWAP1 PUSH1 0x1F AND DUP1 ISZERO PUSH2 0x469 JUMPI DUP1 DUP3 SUB DUP1 MLOAD PUSH1 0x1 DUP4 PUSH1 0x20 SUB PUSH2 0x100 EXP SUB NOT AND DUP2 MSTORE PUSH1 0x20 ADD SWAP2 POP JUMPDEST POP SWAP5 POP POP POP POP POP PUSH1 0x0 PUSH1 0x40 MLOAD DUP1 DUP4 SUB DUP2 PUSH1 0x0 DUP8 DUP1 EXTCODESIZE ISZERO DUP1 ISZERO PUSH2 0x48A JUMPI PUSH1 0x0 DUP1 REVERT JUMPDEST POP GAS CALL ISZERO DUP1 ISZERO PUSH2 0x49E JUMPI RETURNDATASIZE PUSH1 0x0 DUP1 RETURNDATACOPY RETURNDATASIZE PUSH1 0x0 REVERT JUMPDEST POP POP POP POP PUSH32 0xF3C2359DA4B62AB6D95F9CBE80F73519366BE835DFF25574414CF316ECC00AF7 DUP5 PUSH1 0x40 MLOAD DUP1 DUP3 PUSH20 0xFFFFFFFFFFFFFFFFFFFFFFFFFFFFFFFFFFFFFFFF AND DUP2 MSTORE PUSH1 0x20 ADD SWAP2 POP POP PUSH1 0x40 MLOAD DUP1 SWAP2 SUB SWAP1 LOG1 PUSH1 0x2 DUP1 SLOAD PUSH1 0x1 DUP2 PUSH1 0x1 AND ISZERO PUSH2 0x100 MUL SUB AND PUSH1 0x2 SWAP1 DIV DUP1 PUSH1 0x1F ADD PUSH1 0x20 DUP1 SWAP2 DIV MUL PUSH1 0x20 ADD PUSH1 0x40 MLOAD SWAP1 DUP2 ADD PUSH1 0x40 MSTORE DUP1 SWAP3 SWAP2 SWAP1 DUP2 DUP2 MSTORE PUSH1 0x20 ADD DUP3 DUP1 SLOAD PUSH1 0x1 DUP2 PUSH1 0x1 AND ISZERO PUSH2 0x100 MUL SUB AND PUSH1 0x2 SWAP1 DIV DUP1 ISZERO PUSH2 0x585 JUMPI DUP1 PUSH1 0x1F LT PUSH2 0x55A JUMPI PUSH2 0x100 DUP1 DUP4 SLOAD DIV MUL DUP4 MSTORE SWAP2 PUSH1 0x20 ADD SWAP2 PUSH2 0x585 JUMP JUMPDEST DUP3 ADD SWAP2 SWAP1 PUSH1 0x0 MSTORE PUSH1 0x20 PUSH1 0x0 KECCAK256 SWAP1 JUMPDEST DUP2 SLOAD DUP2 MSTORE SWAP1 PUSH1 0x1 ADD SWAP1 PUSH1 0x20 ADD DUP1 DUP4 GT PUSH2 0x568 JUMPI DUP3 SWAP1 SUB PUSH1 0x1F AND DUP3 ADD SWAP2 JUMPDEST POP POP POP POP POP SWAP1 POP SWAP4 SWAP3 POP POP POP JUMP JUMPDEST PUSH1 0x0 DUP1 PUSH1 0x0 SWAP1 SLOAD SWAP1 PUSH2 0x100 EXP SWAP1 DIV PUSH20 0xFFFFFFFFFFFFFFFFFFFFFFFFFFFFFFFFFFFFFFFF AND SWAP1 POP SWAP1 JUMP JUMPDEST DUP3 DUP1 SLOAD PUSH1 0x1 DUP2 PUSH1 0x1 AND ISZERO PUSH2 0x100 MUL SUB AND PUSH1 0x2 SWAP1 DIV SWAP1 PUSH1 0x0 MSTORE PUSH1 0x20 PUSH1 0x0 KECCAK256 SWAP1 PUSH1 0x1F ADD PUSH1 0x20 SWAP1 DIV DUP2 ADD SWAP3 DUP3 PUSH2 0x5F2 JUMPI PUSH1 0x0 DUP6 SSTORE PUSH2 0x639 JUMP JUMPDEST DUP3 PUSH1 0x1F LT PUSH2 0x60B JUMPI DUP1 MLOAD PUSH1 0xFF NOT AND DUP4 DUP1 ADD OR DUP6 SSTORE PUSH2 0x639 JUMP JUMPDEST DUP3 DUP1 ADD PUSH1 0x1 ADD DUP6 SSTORE DUP3 ISZERO PUSH2 0x639 JUMPI SWAP2 DUP3 ADD JUMPDEST DUP3 DUP2 GT ISZERO PUSH2 0x638 JUMPI DUP3 MLOAD DUP3 SSTORE SWAP2 PUSH1 0x20 ADD SWAP2 SWAP1 PUSH1 0x1 ADD SWAP1 PUSH2 0x61D JUMP JUMPDEST JUMPDEST POP SWAP1 POP PUSH2 0x646 SWAP2 SWAP1 PUSH2 0x64A JUMP JUMPDEST POP SWAP1 JUMP JUMPDEST JUMPDEST DUP1 DUP3 GT ISZERO PUSH2 0x663 JUMPI PUSH1 0x0 DUP2 PUSH1 0x0 SWAP1 SSTORE POP PUSH1 0x1 ADD PUSH2 0x64B JUMP JUMPDEST POP SWAP1 JUMP INVALID 0x4C 0x27 PUSH2 0x6472 PUSH6 0x736120717565 KECCAK256 PUSH9 0x61207265616C69747A PUSH2 0x7420 PUSH13 0x61206372696461206E6F207465 KECCAK256 PUSH6 0x6C7320706572 PUSH14 0x6973736F732064652070726F7069 PUSH6 0x7461742EA264 PUSH10 0x70667358221220EA4233 SWAP5 0xEF 0xCA DUP6 STATICCALL PUSH29 0x7ED499369F65545E10525B3BFB8340292B938767EE28B164736F6C6343 STOP SMOD MOD STOP CALLER 0x4C 0x27 PUSH2 0x6472 PUSH6 0x736120717565 KECCAK256 PUSH9 0x61207265616C69747A PUSH2 0x7420 PUSH13 0x61206372696461206E6F207465 KECCAK256 PUSH6 0x6C7320706572 PUSH14 0x6973736F732064652070726F7069 PUSH6 0x7461742EA264 PUSH10 0x706673582212209F481F SWAP11 JUMPDEST KECCAK256 DUP14 PUSH11 0x4B49E0C68D84AB4A75174F PUSH23 0x1E5927B3082FC1D6144AD13464736F6C63430007060033 "
    },
    "gasEstimates": {
      "creation": {
        "codeDepositCost": "3979800",
        "executionCost": "25405",
        "totalCost": "4005205"
      },
      "external": {
        "Active_Labs(uint256)": "2033",
        "Active_Users(uint256)": "2077",
        "Entity(bool,address)": "infinite",
        "Lab(address)": "infinite",
        "deleteLab(address,address)": "infinite",
        "getLabName(address)": "infinite",
        "getLabSC(address)": "1339",
        "getLabState(address)": "infinite",
        "getLabsCount()": "infinite",
        "getUserSC(address)": "infinite",
        "registerLab(address,string)": "infinite",
        "registerUser(address,string)": "infinite",
        "userSC(address)": "1223"
      }
    },
    "methodIdentifiers": {
      "Active_Labs(uint256)": "c0632116",
      "Active_Users(uint256)": "ef0b39c4",
      "Entity(bool,address)": "94af50e6",
      "Lab(address)": "a3d1594e",
      "deleteLab(address,address)": "60259fe9",
      "getLabName(address)": "887ca0d3",
      "getLabSC(address)": "97ed6460",
      "getLabState(address)": "41fd25b3",
      "getLabsCount()": "cf64cd82",
      "getUserSC(address)": "f4e7f8fa",
      "registerLab(address,string)": "489c3483",
      "registerUser(address,string)": "0ea126f9",
      "userSC(address)": "3befa1b8"
    }
  },
  "storageLayout": {
    "storage": [
      {
        "astId": 4,
        "contract": "pasport_sc.sol:who",
        "label": "owner",
        "offset": 0,
        "slot": "0",
        "type": "t_address"
      },
      {
        "astId": 7,
        "contract": "pasport_sc.sol:who",
        "label": "Active_Labs",
        "offset": 0,
        "slot": "1",
        "type": "t_array(t_address)dyn_storage"
      },
      {
        "astId": 10,
        "contract": "pasport_sc.sol:who",
        "label": "Active_Users",
        "offset": 0,
        "slot": "2",
        "type": "t_array(t_address)dyn_storage"
      },
      {
        "astId": 14,
        "contract": "pasport_sc.sol:who",
        "label": "Lab",
        "offset": 0,
        "slot": "3",
        "type": "t_mapping(t_address,t_struct(struct_Lab)25_storage)"
      },
      {
        "astId": 18,
        "contract": "pasport_sc.sol:who",
        "label": "userSC",
        "offset": 0,
        "slot": "4",
        "type": "t_mapping(t_address,t_address)"
      }
    ],
    "types": {
      "t_address": {
        "encoding": "inplace",
        "label": "address",
        "numberOfBytes": "20"
      },
      "t_array(t_address)dyn_storage": {
        "base": "t_address",
        "encoding": "dynamic_array",
        "label": "address[]",
        "numberOfBytes": "32"
      },
      "t_bool": {
        "encoding": "inplace",
        "label": "bool",
        "numberOfBytes": "1"
      },
      "t_mapping(t_address,t_address)": {
        "encoding": "mapping",
        "key": "t_address",
        "label": "mapping(address => address)",
        "numberOfBytes": "32",
        "value": "t_address"
      },
      "t_mapping(t_address,t_struct(struct_Lab)25_storage)": {
        "encoding": "mapping",
        "key": "t_address",
        "label": "mapping(address => struct who.struct_Lab)",
        "numberOfBytes": "32",
        "value": "t_struct(struct_Lab)25_storage"
      },
      "t_string_storage": {
        "encoding": "bytes",
        "label": "string",
        "numberOfBytes": "32"
      },
      "t_struct(struct_Lab)25_storage": {
        "encoding": "inplace",
        "label": "struct who.struct_Lab",
        "members": [
          {
            "astId": 20,
            "contract": "pasport_sc.sol:who",
            "label": "name",
            "offset": 0,
            "slot": "0",
            "type": "t_string_storage"
          },
          {
            "astId": 22,
            "contract": "pasport_sc.sol:who",
            "label": "active",
            "offset": 0,
            "slot": "1",
            "type": "t_bool"
          },
          {
            "astId": 24,
            "contract": "pasport_sc.sol:who",
            "label": "sc_adr",
            "offset": 1,
            "slot": "1",
            "type": "t_address"
          }
        ],
        "numberOfBytes": "64"
      }
    }
  },
  "userdoc": {
    "kind": "user",
    "methods": {},
    "version": 1
  },
  "address": "0x48795feC241714b76be80B02BB60E437038f360C"
}